:100000004AC0000024C1000033C1000054C00000F9
:1000100052C0000050C000004EC000004CC00000A4
:100020004AC0000048C0000046C0000044C00000B4
:1000300042C0000040C000003EC000003CC00000C4
:100040003AC0000038C000006EC2000034C000009A
:1000500032C0000030C000002EC000002CC00000E4
:100060002AC0000028C00000084AD73B3BCE016EE2
:1000700084BCBFFDC12F3D6C74319ABD56833DDAFF
:100080003D00C77F11BED9E4BB4C3E916BAAAABE0E
:10009000000000803F0011241FBECFEFD8E0DEBF7C
:1000A000CDBF21E0A0E0B1E001C01D92A731B207B1
:1000B000E1F702D037C5A4CFCF93DF93CDB7DEB73A
:1000C000A8970FB6F894DEBF0FBECDBF08D2E1D01F
:1000D00019861A861B861C861D861E861F86188A10
:1000E000198A1A8A85E290E09C8B8B8B9E8B8D8B74
:1000F0001F8A81E0888F82E0898F83E08A8FCE011A
:10010000019679D07894C7D1CCD160E0CE014B96DE
:10011000EAD0CDD14B015C016093000170930101E5
:1001200080930201909303016D8D7E8D80E090E0BD
:1001300082D36B017C0160930C0170930D0180935D
:100140000E0190930F0169A17AA180E090E073D332
:10015000A50194012AD49B01AC016093080170931E
:10016000090180930A0190930B01C701B60109D2DE
:100170002BE734E14EE65FE318D44B015C0129E242
:100180003CE54FE85DE3C701B6010FD49B01AC012C
:10019000C501B401F6D16093040170930501809309
:1001A00006019093070196D1FFCFFC01413439F04D
:1001B0004234F9F4A489B589408D218D04C0A28907
:1001C000B389468927893C9181E090E0BC0102C057
:1001D000660F771F4A95E2F7AB01432B4C933C9196
:1001E00001C0880F2A95EAF7809583238C9380E0DD
:1001F000089581E00895CF93DF93EC018AB1806682
:100200008AB917BC18BC84B5806A84BD84B5836084
:1002100084BD85B5816085BD41E461E0CE01C5DF67
:1002200042E461E0CE01C1DF8AB18AB98BB18BB9FA
:10023000E9E6F0E080818C60808380818360808348
:100240008DB383608DBB80E0DF91CF9108951F92C5
:100250000F920FB60F9211248F93809116018F5F2A
:10026000809316018F910F900FBE0F901F901895DD
:100270001F920F920FB60F9211248F938091150148
:100280008F5F809315018F910F900FBE0F901F907D
:10029000189582E08093B800ECEBF0E080818460F8
:1002A000808308958091BC0087FFFCCF089584EA85
:1002B0008093BC00F7CF84E98093BC00F3CF809398
:1002C000BB0084E88093BC00EDCF84EC8093BC003D
:1002D000E9DF8091BB00089584E88093BC00E2DFF1
:1002E0008091BB0008952F923F924F925F926F9240
:1002F0007F928F929F92AF92BF92CF92DF92EF92B6
:10030000FF920F931F93CF93DF93CDB7DEB72E9756
:100310000FB6F894DEBF0FBECDBF7C01762EC7DFCF
:1003200089E6CDDF8BE3CBDFC2DF88E6C8DF8E0155
:100330000F5F1F4F6E018DE0C80ED11CC6DFB82EB7
:10034000C4DF2B2D30E0322F2227282BF8012193F8
:1003500031938F01EC15FD0589F7B7DFBDDFABDF0A
:1003600009811A81CD80DE80009FB001019F700D50
:10037000700D1124CC9CC001CD9C900D900D1124CA
:10038000680F791F80E090E056D276D34B015C0174
:100390006B817C8180E090E04ED2A5019401B7D1C1
:1003A0008ED14B015C01B60180E090E044D21B018C
:1003B0002C0166277727601B710B80E090E03BD211
:1003C000A201910151D11B012C017720B9F0F7E076
:1003D0006F1609F447C0862D90E0880F991FF7012A
:1003E000E80FF91FA1E0B0E0AC0FBD1FA80FB91FC7
:1003F0008D919C91918380836394E9CF09851A85BF
:10040000CB84DC842CEC3EE245E652E4C501B40129
:10041000CCD2E5D1F701718360832CEC3EE245E656
:1004200052E4C201B101C1D2DAD1F7017383628310
:10043000B80180E090E0FFD120E030E043E053E4F9
:1004400066D1CDD1F70175836483B60180E090E079
:10045000F2D120E030E043E053E459D1C0D1F701BC
:10046000778366832E960FB6F894DEBF0FBECDBF9E
:10047000DF91CF911F910F91FF90EF90DF90CF9080
:10048000BF90AF909F908F907F906F905F904F90B4
:100490003F902F900895E0E8F0E08081847E808393
:1004A0000895E1E8F0E08081826080830895809182
:1004B00084009091850061E070E08F3F9F4F10F4C1
:1004C00060E070E080E090E0B8D127E337E346E8F1
:1004D0005DE36BC210928500109284000895109223
:1004E000C50083E38093C400E0ECF0E080818D7F61
:1004F0008083A1ECB0E08C9188618C93E2ECF0E019
:1005000080818F73808380818F7C80838081877FCF
:10051000808380818660808380818B7F80838C91C3
:1005200080648C9308951F920F920FB60F9211243E
:100530008F939F93EF93FF938091C6009091110149
:10054000923010F48A3031F41092110181E08093DE
:1005500010010DC0E0911101F0E0EE5EFE4F8083CE
:1005600010921001809111018F5F80931101FF9112
:10057000EF919F918F910F900FBE0F901F90189544
:100580005058BB27AA270ED0CFC1C0D130F0C5D15B
:1005900020F031F49F3F11F41EF490C10EF4E09569
:1005A000E7FB86C1E92FD1D180F3BA176207730741
:1005B0008407950718F071F49EF5E9C10EF4E095F3
:1005C0000B2EBA2FA02D0B01B90190010C01CA010D
:1005D000A0011124FF27591B99F0593F50F4503EB8
:1005E00068F11A16F040A22F232F342F4427585FAA
:1005F000F3CF469537952795A795F0405395C9F7C2
:100600007EF41F16BA0B620B730B840BBAF0915079
:10061000A1F0FF0FBB1F661F771F881FC2F70EC018
:10062000BA0F621F731F841F48F4879577956795EB
:10063000B795F7959E3F08F0B3CF9395880F08F0D4
:100640009927EE0F97958795089560D158F080E827
:1006500091E009F49EEF61D128F040E851E059F4AF
:100660005EEF09C02BC193C1E92FE0786ED168F32A
:10067000092E052AC1F3261737074807590738F00E
:100680000E2E07F8E02569F0E025E0640AC0EF636C
:1006900007F8009407FADB01B9019D01DC01CA01EA
:1006A000AD01EF9343D040D10AD05F91552331F093
:1006B0002BED3FE049E450FD49EC63CF0895DF9313
:1006C000DD27B92FBF7740E85FE316161706480706
:1006D0005B0710F4D92F62D19F938F937F936F9311
:1006E00009D2E8E6F0E0EDD01FD12F913F914F9174
:1006F0005F9167D1DD2349F09058A2EA2AED3FE0EF
:1007000049EC5FE3D0785D274DDFDF910DC10CD060
:100710000BC103D140F0FAD030F021F45F3F19F063
:10072000C7C0511135C1CAC010D198F39923C9F37C
:100730005523B1F3951B550BBB27AA2762177307E7
:10074000840738F09F5F5F4F220F331F441FAA1F9B
:10075000A9F333D00E2E3AF0E0E830D0915050405B
:10076000E695001CCAF729D0FE2F27D0660F771F09
:10077000881FBB1F261737074807AB07B0E809F0EB
:10078000BB0B802DBF01FF2793585F4F2AF09E3F80
:10079000510568F08DC0FCC05F3FECF3983EDCF380
:1007A000869577956795B795F7959F5FC9F7880FF9
:1007B000911D9695879597F90895E1E0660F771F4B
:1007C000881FBB1F621773078407BA0720F0621BDC
:1007D000730B840BBA0BEE1F88F7E0950895BDD01C
:1007E00088F09F5790F0B92F9927B751A0F0D1F01A
:1007F000660F771F881F991F1AF0BA95C9F712C0A4
:10080000B13081F0C4D0B1E00895C1C0672F782F16
:100810008827B85F39F0B93FCCF38695779567950F
:10082000B395D9F73EF490958095709561957F4F7B
:100830008F4F9F4F0895E89409C097FB3EF4909521
:100840008095709561957F4F8F4F9F4F9923A9F0A9
:10085000F92F96E9BB279395F69587957795679538
:10086000B795F111F8CFFAF4BB0F11F460FF1BC07C
:100870006F5F7F4F8F4F9F4F16C0882311F096E90F
:1008800011C0772321F09EE8872F762F05C06623BD
:1008900071F096E8862F70E060E02AF09A95660F76
:1008A000771F881FDAF7880F9695879597F908952F
:1008B00097F99F6780E870E060E008959FEF80EC13
:1008C0000895DF93CF931F930F93FF92EF92DF92E0
:1008D0007B018C01689405C0DA2EEF0172D0FE0115
:1008E000E894A5912591359145915591AEF3EF018D
:1008F00059DEFE019701A801DA9479F7DF90EF90B5
:10090000FF900F911F91CF91DF91089500240A94D9
:100910001616170618060906089500240A941216DA
:100920001306140605060895092E0394000C11F40D
:10093000882352F0BB0F40F4BF2B11F460FF04C0BA
:100940006F5F7F4F8F4F9F4F089557FD9058440F13
:10095000551F59F05F3F71F04795880F97FB991F1E
:1009600061F09F3F79F087950895121613061406DB
:10097000551FF2CF4695F1DF08C016161706180668
:10098000991FF1CF86957105610508940895E89443
:10099000BB2766277727CB0197F908959B01AC0108
:1009A00060E070E080E89FE3B2CE0BD0BDCFAEDF59
:1009B00028F0B3DF18F0952309F07ACF7FCF112408
:1009C000E7CFC3DFA0F3959FD1F3950F50E0551FFC
:1009D000629FF001729FBB27F00DB11D639FAA2794
:1009E000F00DB11DAA1F649F6627B00DA11D661FE3
:1009F000829F2227B00DA11D621F739FB00DA11D04
:100A0000621F839FA00D611D221F749F3327A00DBD
:100A1000611D231F849F600D211D822F762F6A2F59
:100A200011249F5750408AF0E1F088234AF0EE0FDE
:100A3000FF1FBB1F661F771F881F91505040A9F7EB
:100A40009E3F510570F034CFA3CF5F3FECF3983E4B
:100A5000DCF3869577956795B795F795E7959F5F52
:100A6000C1F7FE2B880F911D9695879597F90895EC
:100A700011F40EF423CF41C070DFD0F39923D9F3E2
:100A8000CEF39F57550B87FF46D00024A0E640EADF
:100A9000900180585695979528F4805C660F771FD3
:100AA000881F20F026173707480730F4621B730BA6
:100AB000840B202931294A2BA695179407942025C9
:100AC00031254A2758F7660F771F881F20F0261711
:100AD0003707480730F4620B730B840B200D311D70
:100AE000411DA09581F7B901842F9158880F9695E3
:100AF000879508959B01AC0158CF9F3F31F09150ED
:100B000020F4879577956795B795880F911D9695F1
:100B1000879597F9089591505040660F771F881F69
:080B2000D2F70895F894FFCF0D
:00000001FF
