:1000000015C1000036C1000034C1000032C100003B
:1000100030C1000044C100008FC100002AC10000AF
:1000200028C1000026C1000024C1000022C1000038
:1000300020C100001EC100001CC100001AC1000048
:1000400018C1000016C1000014C1000012C1000058
:1000500010C100000EC100000CC100000AC1000068
:1000600008C100000C94A40F0C94D30F02C100002F
:1000700000C10000FEC00000FCC00000FAC000008B
:10008000F8C00000F6C00000F4C00000F2C000009C
:100090000C9495100C94C410ECC00000EAC0000051
:1000A000E8C00000E6C00000E4C0000092C100000B
:1000B000E0C00000DEC00000DCC00000DAC00000CC
:1000C000D8C00000D6C00000D4C000000C94F210CC
:1000D0000C942111CEC000000C944F110C947E1191
:1000E000C8C00000084AD73B3BCE016E84BCBFFDB0
:1000F000C12F3D6C74319ABD56833DDA3D00C77FF8
:1001000011BED9E4BB4C3E916BAAAABE0000008090
:100110003F05A84CCDB2D44EB93836A9020C50B91F
:10012000918688083CA6AAAA2ABE000000803F004B
:1001300000407A10F35A00A0724E18090010A5D49E
:10014000E80000E87648170000E40B54020000CAFB
:100150009A3B000000E1F505000080969800000041
:1001600040420F000000A0860100000010270000A0
:100170000000E803000000006400000000000A0026
:10018000000000000100000000002C76D888DC6729
:100190004F0823DFC1DFAE59E1B1B796E5E3E45381
:1001A000C63AE651997696E8E6C28426EB898C9B9E
:1001B00062ED407C6FFCEFBC9C9F40F2BAA56FA53E
:1001C000F490055A2AF75C936B6CF9676DC11BFCC0
:1001D000E0E40D47FEF520E6B500D0ED902E0300DB
:1001E000943577050080841E080000204E0A000028
:1001F00000C80C333333330F986E12831141EF8DE7
:100200002114893BE65516CFFEE6DB18D1844B3826
:100210001BF77C1D901DA4BBE424203284725E2257
:100220008100C9F124ECA1E53D274E0711241FBE32
:10023000CFEFD1E2DEBFCDBF00E00CBF23E0A0E0F6
:10024000B2E001C01D92A634B207E1F711E0C6E1A9
:10025000D1E000E006C021970109802FFE010E9435
:10026000C112C531D10780E00807A9F741D30C942A
:10027000BB18C6CE81B18E7D81B98DB18B7E8DB913
:10028000EAE6F0E080818360808380818C608083F7
:100290008DB380638DBB0E94850F0C949B0F1F92C2
:1002A0000F920FB60F9211240BB60F922F933F931C
:1002B0004F935F936F937F938F939F93AF93BF936E
:1002C000EF93FF93029B0FC060911402709115028F
:1002D000809116029091170220E030E040E85FE341
:1002E0000E94C9120EC06091140270911502809193
:1002F00016029091170220E030E040E85FE30E9490
:10030000CA126093140270931502809316029093A0
:100310001702FF91EF91BF91AF919F918F917F91C4
:100320006F915F914F913F912F910F900BBE0F9066
:100330000FBE0F901F9018951F920F920FB60F923D
:1003400011240BB60F922F933F934F935F936F93AC
:100350007F938F939F93AF93BF93EF93FF93009BF4
:100360000FC0609118027091190280911A02909149
:100370001B0220E030E040E85FE30E94CA120EC09A
:10038000609118027091190280911A0290911B02DB
:1003900020E030E040E85FE30E94C9126093180259
:1003A0007093190280931A0290931B02FF91EF91B0
:1003B000BF91AF919F918F917F916F915F914F917D
:1003C0003F912F910F900BBE0F900FBE0F901F907B
:1003D00018951F920F920FB60F9211240BB60F9221
:1003E0008F929F92AF92BF92CF92DF92EF92FF9245
:1003F0002F933F934F935F936F937F938F939F932D
:10040000AF93BF93CF93DF93EF93FF93C0E0D2E01E
:100410008C899D89AE89BF89BC01CD01905827E2A6
:1004200030EA49E85CE30E944B152DEC3CEC4CE4CF
:100430005DE30E9497136C877D878E879F87688D09
:10044000798D8A8D9B8D27E230EA49E85CE30E9432
:100450004B152DEC3CEC4CE45DE30E949713688B4C
:10046000798B8A8B9B8B6C857D858E859F85288972
:1004700039894A895B890E94CA1220E030E040E055
:100480005FE30E944B1568A379A38AA39BA36C8D9D
:100490007D8D8E8D9F8D88A099A0AAA0BBA02AE9F2
:1004A00039E949E55FE30E944B156B017C0128E9BE
:1004B00039E949E15EE3C501B4010E944B159B0196
:1004C000AC01C701B6010E94CA1268A379A38AA32E
:1004D0009BA388A199A1AAA1BBA18C8F9D8FAE8F50
:1004E000BF8F68A179A18AA19BA1C884D984EA841D
:1004F000FB8422E03BE247E05DE30E944B152DECDC
:100500003CEC4CE45DE30E944B15A70196010E9470
:10051000CA12688779878A879B871C8A1D8A1E8AE8
:100520001F8A188E198E1A8E1B8E1092A50010929B
:10053000A400FF91EF91DF91CF91BF91AF919F9177
:100540008F917F916F915F914F913F912F91FF908C
:10055000EF90DF90CF90BF90AF909F908F900F90D3
:100560000BBE0F900FBE0F901F9018952F923F92C9
:100570004F925F926F927F928F929F92AF92BF92B3
:10058000CF92DF92EF92FF920F931F93CF93DF935F
:1005900000D01F92CDB7DEB79A8389831B013C83BD
:1005A0002B83FC018081843009F43AC160F48230ED
:1005B00009F422C1833009F080C1F80164A975A94A
:1005C00086A997A91DC1873009F45BC18F3F51F0FF
:1005D000863009F072C1EB81FC8160A171A182A11A
:1005E00093A10EC10E940B12892BE1F30E94DB1133
:1005F000682F70E080E090E00E94301420E42F9398
:1006000020EC2F931F921F92A12CB12C50E2C52EEB
:1006100051ECD52EE12CF12C08EC12E420E030E076
:1006200040E85FE30E944712E12CF12C00EC10E45B
:1006300020E030E040EC50EC0E9416122B013C010F
:100640000F900F900F900F900E940B12892BE1F3E7
:100650000E94DB11682F70E080E090E00E9430146F
:1006600020E42F9320EC2F931F921F92A12CB12CEA
:1006700020E2C22E21ECD22EE12CF12C08EC12E467
:1006800020E030E040E85FE30E944712E12CF12CCB
:1006900000EC10E420E030E040EC50EC0E94161238
:1006A0006B017C0126E636E646E65FE3EB81FC81E2
:1006B00060817181828193810E944B154B015C01A5
:1006C0002DEC3CEC4CEC5DE3C301B2010E944B15F8
:1006D0009B01AC01C501B4010E94CA12EB81FC81EF
:1006E00060837183828393830E946B108AE00E94EF
:1006F0004B102AE939E949E15FE3EB81FC81648130
:100700007581868197810E944B154B015C012DEC10
:100710003CEC4CEC5EE3C701B6010E944B159B011B
:10072000AC01C501B4010E94CA12EB81FC81648353
:1007300075838683978380809180A280B3800F9099
:100740000F900F900F9020E030E040E850E4C5019A
:10075000B4010E94901387FF46C020E030E040E8DB
:1007600050ECC501B4010E94401518160CF03BC0B6
:10077000EB81FC8160A171A182A193A120E030E016
:1007800040E850E40E94901387FF2DC0EB81FC816C
:1007900060A171A182A193A120E030E040E850EC7B
:1007A0000E9440151816FCF420E030E040E050E4D0
:1007B000C701B6010E94401518160CF06CC041E448
:1007C00061E08B819C81C9D342E46FEF8B819C8176
:1007D000C4D38EEB90E0909389008093880090932F
:1007E0008B0080938A00F1011082EB81FC811086DE
:1007F00011861286138661C08B819C812AD50DC01B
:1008000020E030E048EC52E40E944B150E94FF13B8
:100810006B83872F0E94F6118B810E94F6114DC0C9
:1008200068EE73E0C8010E94C10D8AE00E94F611D3
:10083000FFEF29E688E1F15020408040E1F700C059
:10084000000080910B01816080930B019FEFE9E62E
:10085000F8E19150E040F040E1F700C000008091E5
:100860000B018E7F80930B012FEF8BE792E92150D4
:1008700080409040E1F700C00000C8010E94FC0CDD
:100880001CC0FB018081882311F0108216C081E01A
:10089000FB01808312C020E030E040E050ECC70153
:1008A000B6010E94901387FF9ECF41E46FEF8B81CA
:1008B0009C8153D342E461E089CFE981FA811082BF
:1008C00080E00F900F900F900F90DF91CF911F91CC
:1008D0000F91FF90EF90DF90CF90BF90AF909F90DF
:1008E0008F907F906F905F904F903F902F900895E2
:1008F000CF93DF93CDB7DEB7C65BD1090FB6F894BF
:10090000DEBF0FBECDBF0F9A179ACE55DF4F1882AC
:10091000C25AD04081E0CF55DF4F8883C15AD040C2
:1009200080E092E05DD380E190E00E94011080E1E0
:1009300090E00E94AC1178949DDC80910A01816066
:1009400080930A017BD5813029F480910B0181606D
:1009500080930B010E94220F0E945B0F0E94660F82
:100960008E010F5F1F4FC801B6D70E946F0F69A994
:100970007AA98BA99CA92CEC3EE245E652E40E94A0
:100980004B1520E030E040E051E40E94C9120E9483
:10099000400F0E94800F8FE39CE90197F1F700C0A0
:1009A0000000CE018B579F4F46E656E666E27FE396
:1009B000DC014D935D936D937C9313974DEC5CEC50
:1009C0006CE47DE3FC0144835583668377834AE0CE
:1009D00057ED63EA7CE318964D935D936D937C939A
:1009E0001B974AE959E969E17FE3448755876687A0
:1009F000778750961D921D921D921C925397148AD0
:100A0000158A168A178A58961D921D921D921C925D
:100A10005B977C9726EFC22E28E2D22E22E8E22EA8
:100A200021E4F22EC082D182E282F3821482158206
:100A30001682178233ECC32E35EFD32E38E2E32E25
:100A40003FE3F32EC086D186E286F386448755873E
:100A500066877787108A118A128A138A148A158A00
:100A6000168A178A108E118E128E138ED897C12C6B
:100A7000D12C20E7E22E21E4F22ECD92DD92ED92F0
:100A8000FC92139714961D921D921D921C9217971B
:100A900018961D921D921D921C921B971C964D93A9
:100AA0005D936D937C931F9750961D921D921D929E
:100AB0001C92539754961D921D921D921C9257970B
:100AC00058961D921D921D921C925B97412C512CA1
:100AD0003201212C312CCD55DF4F488259826A8258
:100AE0007B82C35AD040C555DF4F0883CB5AD040D4
:100AF000C455DF4F1883CC5AD040C355DF4F88838D
:100B0000CD5AD040C255DF4F9883CE5AD040CD54F5
:100B1000DF4FA883C35BD040CC54DF4FB883C45BA6
:100B2000D040CB54DF4FE883C55BD040CA54DF4F81
:100B3000F883C65BD0400E946F0FC955DF4F6883B2
:100B400079838A839B83C75AD0400E94800FC955FE
:100B5000DF4F488159816A817B81C75AD040C55592
:100B6000DF4F8881CB5AD040C455DF4F9881CC5A93
:100B7000D0406AD7C10166E070E00E949A12892BCA
:100B800009F098C08091200290912102A091220248
:100B9000B0912302C155DF4F88839983AA83BB8319
:100BA000CF5AD04040900002509001026090020263
:100BB000709003022DEC3CEC4CE45DE3C301B20108
:100BC0000E94901387FF34C02DEC3CEC4CE45DEBAD
:100BD000C301B2010E944015181654F5CF55DF4FDE
:100BE0008881C15AD040882319F140910802509160
:100BF000090260910A0270910B02812C912C540120
:100C0000CD55DF4FC880D980EA80FB80C35AD040E1
:100C100095018401CD54DF4F8881C35BD040CC5413
:100C2000DF4F9881C45BD0400E94540E2B013C01E1
:100C3000812C912C30E2A32E31E4B32ECD55DF4F21
:100C4000C880D980EA80FB80C35AD04093018201DA
:100C5000C155DF4F488159816A817B81CF5AD0408D
:100C6000C355DF4F8881CD5AD040C255DF4F9881A0
:100C7000CE5AD0400E94540E20E030E0A9010E94DC
:100C8000CA12E12CF12C00EE10E420E030E040EE3E
:100C900050EC0E94161220E030E0A9010E94CA1216
:100CA0002B013C01CD55DF4F188219821A821B821D
:100CB000C35AD0406DA97EA98FA998AD2CEC3EE215
:100CC00045E652E40E944B15AB01BC01812C912CEE
:100CD0005401C955DF4FC880D980EA80FB80C75ACC
:100CE000D04093018201CB54DF4F8881C55BD04057
:100CF000CA54DF4F9881C65BD040D6D7E12CF12C87
:100D000004EB12E420E030E044EB52EC0E941612B7
:100D10006B017C016DA97EA98FA998AD2CEC3EE2F8
:100D200045E652E40E944B1520E030E040EA51E4F1
:100D30000E944015181694F06DA97EA98FA998AD50
:100D40002CEC3EE245E652E40E944B1520E030E0F8
:100D500040EA51EC0E94901387FF02C060E004C09B
:100D6000C701B6010E94FF1380E092E09CD128E504
:100D70003FEF4FE75FE360910402709105028091BD
:100D80000602909107020E944B1520E030E0A90175
:100D90000E94CA12609304027093050280930602B7
:100DA0009093070222E739EF4FE75FE3609100027B
:100DB0007091010280910202909103020E944B15F2
:100DC00020E030E0A9010E94CA12609300027093F3
:100DD000010280930202909303020E946F0F2AE0A7
:100DE00037ED43E25CE30E94901387FF32C00E941C
:100DF0008A10892B11F00E9430100E940B12892B4F
:100E000021F10E94DB11CE55DF4F8883C25AD040BA
:100E1000C555DF4F0881CB5AD040C455DF4F1881EC
:100E2000CC5AD04020E032E0C355DF4F4881CD5A44
:100E3000D040C255DF4F5881CE5AD040BE016F55C9
:100E40007F4FCE018E559F4F91DB80E092E077D1AE
:100E5000C4CF9FEF291A390AA9EE2A16A3E03A0651
:100E600010F0212C312CC955DF4F288139814A815E
:100E70005B81C75AD040CD55DF4F688179818A8127
:100E80009B81C35AD0400E94CA12CD55DF4F688360
:100E900079838A839B83C35AD0404DCE8F92AF9281
:100EA000CF92EF920F931F9386E0882E94E0A92EA5
:100EB00022E0C22EE12C08E210E028E230E047E216
:100EC00050E067E270E080E092E007D01F910F9160
:100ED000EF90CF90AF908F9008958F92AF92CF9276
:100EE000EF920F931F93CF93DF93CDB7DEB7FC0143
:100EF0001082118212821382148215821682178246
:100F00001086118612861386108A118A128A138A15
:100F1000108E118E128E138E148E158E168E178EC5
:100F200010A211A212A213A282E384A381E085A3DE
:100F300077A366A351A740A733A722A715A704A7A5
:100F4000E6A6C7A6A0AA81AADF91CF911F910F9113
:100F5000EF90CF90AF908F900895DC01413461F015
:100F60004234E1F59C96ED91FC919D97D0962C91A1
:100F7000D097D1963C9109C09A96ED91FC919B97A0
:100F80009E962C919E979F963C9116169CF44081BC
:100F900081E090E0BC0101C0660F2A95EAF7262F98
:100FA000209524232083208101C0880F3A95EAF7F9
:100FB000822B11C0608181E090E0AC0101C0440F40
:100FC0002A95EAF7462B4083208101C0880F3A9585
:100FD000EAF780958223808380E0089581E0089578
:100FE000CF93DF93EC0184B1806684B910928900BD
:100FF0001092880010928B0010928A00E0E8F0E0D6
:1010000080818068808380818F7B80838081806203
:10101000808380818F7E8083808181608083A1E84E
:10102000B0E08C9188608C9380818D7F80838C91DF
:1010300082608C938C918A7F8C93EEA1FFA130818A
:1010400081E090E0BC010EA402C0660F771F0A94F5
:10105000E2F7AC010FA402C0440F551F0A94E2F757
:10106000262F242B232B2083E8A5F9A52081AC0172
:1010700008A802C0440F551F0A94E2F709A802C04D
:10108000880F991F0A94E2F7842B822B808341E416
:1010900061E0CE0162DF42E461E0CE015EDF80E02C
:1010A000DF91CF910895EF92FF921F93CF93DF933B
:1010B0007C01162FFC0164817581868197810E94D5
:1010C000FF13C62FC10F161BD12F41E41C162CF4A1
:1010D00061E0C70142DFCC5F06C06FEFC7013DDFB3
:1010E00084E08C1BC82F42E4111624F461E0C70190
:1010F00034DF05C06FEFC70130DFD12FD195C43683
:101100001CF08FEF90E004C0CC0FCE5C8C2F90E0F1
:101110009093890080938800D4361CF08FEF90E084
:1011200004C0DD0FDE5C8D2F90E090938B008093E8
:101130008A00DF91CF911F91FF90EF9008954F9219
:101140005F926F927F92AF92BF92CF92DF92EF92B7
:10115000FF920F931F93CF93DF93EC0180917C005C
:10116000806480937C0080917C008F7780937C00EA
:1011700080917C00807E80937C0080917A008068E2
:1011800080937A0080917A00806480937A008091C5
:101190007A0086FDFCCF00917800109179006CA157
:1011A00070E080E090E00E94321424EA30E74DE7DE
:1011B0005FE30E944B152B013C01B80180E090E0F9
:1011C0000E94301420E030E040EA50E40E944B15C9
:1011D00020E030E040E85AE30E944B1522E42F93D0
:1011E00028EC2F931F921F92A12CB12C65011CE5B6
:1011F000E12E1FE8F12E02E810E42DEC3CEC4CE669
:1012000050E40E9447122AE037ED43E25CE30E947B
:101210004B15A30192010E94CA120E9404146CA3F0
:101220000F900F900F900F900D9A6E3110F4159A49
:1012300001C01598DF91CF911F910F91FF90EF9012
:10124000DF90CF90BF90AF907F906F905F904F9066
:101250000895FC0184A108954F925F926F927F924E
:101260008F929F92AF92BF92CF92DF92EF92FF92B6
:10127000CF93DF93CDB7DEB76E970FB6F894DEBF8E
:101280000FBECDBF9E8F8D8F498F5A8F6B8F7C8FF6
:10129000DC015C968D919D910D90BC91A02D898370
:1012A0009A83AB83BC83AD8DBE8D90968D919D91BD
:1012B0000D90BC91A02D8D839E83AF83B887ED8D5B
:1012C000FE8D64A975A986A997A90E94AE152B0168
:1012D0003C01AD8DBE8DD0966D917D918D919C918F
:1012E000D3970E94AE1569877A878B879C87ED8D8F
:1012F000FE8D60A971A982A993A90E9494136D879C
:101300007E878F87988BAD8DBE8D94968D919D91A4
:101310000D90BC91A02D898B9A8BAB8BBC8BED8DE6
:10132000FE8D64A975A986A997A90E9494134B0103
:101330005C01AD8DBE8DD0966D917D918D919C910E
:10134000D3970E94AE156D8B7E8B8F8B988FED8D12
:10135000FE8D60A971A982A993A90E9494136B01C3
:101360007C0129853A854B855C85C301B2010E94C9
:101370004B152D853E854F8558890E9497132D81E9
:101380003E814F8158850E944B1529813A814B81BE
:101390005C810E94CA122B013C012D893E894F8934
:1013A000588DC501B4010E944B15A70196010E94FA
:1013B000971329893A894B895C890E944B159B01B7
:1013C000AC01C301B2010E94CA129058298D3A8D16
:1013D0004B8D5C8D0E944B156E960FB6F894DEBF58
:1013E0000FBECDBFDF91CF91FF90EF90DF90CF90F8
:1013F000BF90AF909F908F907F906F905F904F9035
:1014000008958091BC0087FFFCCF089584EA809303
:10141000BC00F7CF8093BB0084E88093BC00F1CF81
:1014200084EC8093BC00EDDF8091BB00089584E8DC
:101430008093BC00E6DF8091BB000895CF93DF93DB
:1014400083E08093B8008091B9008C7F8093B900CD
:101450008091BC0084608093BC00D8DF80EDDADF2F
:101460008BE6D8DF81E0D6DFC4E9C093BC00CEDFD5
:1014700080EDD0DF85E7CEDFC9DF81EDCBDFD7DFC1
:10148000D82FC093BC00C2DF80EDC4DF89E1C2DF8A
:1014900087E0C0DF80E0BEDF80E0BCDF80E0BADF55
:1014A000C093BC0081E0D83609F480E0DF91CF9191
:1014B00008954F925F926F927F928F929F92AF9218
:1014C000BF92CF92DF92EF92FF92CF93DF93CDB78F
:1014D000DEB72A970FB6F894DEBF0FBECDBF283512
:1014E000A9F42A960FB6F894DEBF0FBECDBFDF91E8
:1014F000CF91FF90EF90DF90CF90BF90AF909F90F3
:101500008F907F906F905F904F90A6CE293509F015
:101510004AC04D835E836F8378879A878987DC0111
:1015200090968D909D90AD90BC909397D4966D9130
:101530007D918D919C91D7970E9494132B013C0132
:10154000A985BA8594968D919D910D90BC91A02D01
:1015500089839A83AB83BC83E985FA8564A975A9DD
:1015600086A997A90E94AE156B017C01A301920187
:10157000C501B4010E944B154B015C01A701960106
:1015800069817A818B819C810E944B159B01AC0102
:10159000C501B401FED790582D813E814F815885F9
:1015A0000E944B1503C060E070E0CB012A960FB695
:1015B000F894DEBF0FBECDBFDF91CF91FF90EF90CB
:1015C000DF90CF90BF90AF909F908F907F906F9063
:1015D0005F904F9008952F923F924F925F926F923B
:1015E0007F928F929F92AF92BF92CF92DF92EF92B3
:1015F000FF920F931F93CF93DF93CDB7DEB76E9714
:101600000FB6F894DEBF0FBECDBF8C01762EFEDE86
:1016100080ED00DF8BE3FEDEF9DE81EDFBDE9E0177
:101620002F5F3F4F79016E013EE0C30ED11CF8DE03
:10163000D7018D937D01AC15BD05C9F7F8DE8E8706
:1016400084E98093BC0069817A81762767277627B1
:10165000072E000C880B990B0E9432144B015C0181
:101660006B817C81762767277627072E000C880BF5
:10167000990B0E9432141B012C016D817E8176270B
:1016800067277627072E000C880B990B0E943214CF
:101690006B017C0169857A85762767277627072E77
:1016A000000C880B990B0E9432146F87788B898B02
:1016B0009A8B6B857C85762767277627072E000C0B
:1016C000880B990B0E9432146B8B7C8B8D8B9E8BBD
:1016D0006D857E85762767277627072E000C880B79
:1016E000990B0E9432146F8B788F898F9A8F772095
:1016F00009F43FC06F817885F801848A958AA68AAB
:10170000B78A208E318E428E538EC48ED58EE68E51
:10171000F78E762767277627072E000C880B990B04
:101720000E943214D80190966D937D938D939C9373
:1017300093972F85388949895A8994962D933D939B
:101740004D935C9397972B893C894D895E89989638
:101750002D933D934D935C939B972F89388D498DA5
:101760005A8D9C962D933D934D935C939F9781E06A
:1017700099C0A5019401C501B4010E944B156B8F5E
:101780007C8F8D8F9E8FA7019601C701B6010E94A5
:101790004B159B01AC016B8D7C8D8D8D9E8DFAD68A
:1017A0000E94B8159B01AC01C201B101C0D790D70E
:1017B0002B013C01C501B4019058A70196015DD7EA
:1017C0006B017C0120ED3FE049EC5FE30E94401596
:1017D00018164CF4A701960160ED7FE089E490E4CF
:1017E000D8D66B017C0120ED3FE049EC5FEBC701EF
:1017F000B60196D787FF09C0A701960160ED7FE08B
:1018000089E490ECC6D66B017C0120E030E043E037
:1018100053E46F85788989899A8989D728E939EFCE
:101820004EE85CE30E944B154B015C0120E030E088
:1018300043E053E46B897C898D899E8978D728E9B8
:1018400039EF4EE85CE30E944B156F87788B898BEC
:101850009A8B20E030E043E053E46F89788D898DE6
:101860009A8D65D728E939EF4EE85CE30E944B1565
:10187000F801448A558A668A778AC08ED18EE28EB4
:10188000F38E848E958EA68EB78E2F8538894989E2
:101890005A8920A331A342A353A364A375A386A3AB
:1018A00097A380E06E960FB6F894DEBF0FBECDBF53
:1018B000DF91CF911F910F91FF90EF90DF90CF902C
:1018C000BF90AF909F908F907F906F905F904F9060
:1018D0003F902F900895EF92FF920F931F93CF9315
:1018E000DF93EC01188219821A821B821C821D82EE
:1018F0001E821F82188619861A861B86188A198AE4
:101900001A8A1B8A1CAA1DAA1EAA1FAA18AE19AEE3
:101910001AAE1BAE1CAE1DAE1EAE1FAEFC01E05CCF
:10192000FF4F10821182128213827C0124E4E20EA6
:10193000F11C84EA90E7ADE7BFE3F7018083918370
:10194000A283B3838E01085B1F4FF80180839183CC
:10195000A283B38373DDFFEF23ED80E3F1502040DA
:101960008040E1F700C0000060E0CE0134DE8C89E9
:101970009D89AE89BF898CAB9DABAEABBFAB888D6B
:10198000998DAA8DBB8D88AB99ABAAABBBAB8CA94B
:101990009DA9AEA9BFA98C839D83AE83BF8388A96F
:1019A00099A9AAA9BBA988879987AA87BB8788E034
:1019B00090E00E948C1868AF79AF8AAF9BAF84E04B
:1019C00090E00E948C186CAF7DAF8EAF9FAF8EEE13
:1019D0009CE7AFE7BFE3F70180839183A283B383E2
:1019E000F80180839183A283B383DF91CF911F910C
:1019F0000F91FF90EF900895CF93DF93EC0160E09B
:101A0000EADD8C899D89AE89BF898CAB9DABAEAB7D
:101A1000BFAB888D998DAA8DBB8D88AB99ABAAABD6
:101A2000BBAB8CA99DA9AEA9BFA98C839D83AE83B6
:101A3000BF8388A999A9AAA9BBA988879987AA87DA
:101A4000BB87DF91CF9108958F929F92AF92BF9203
:101A5000CF92DF92EF92FF92CF93DF93EC016A0176
:101A60007B0160E0B8DDB701A601CE01F5DB6C8734
:101A70007D878E879F8729E5B701A601CE0119DDF5
:101A8000688B798B8A8B9B8B6C857D858E859F85FA
:101A90002C813D814E815F817DD56C837D838E83DA
:101AA0009F83688979898A899B89288539854A85B0
:101AB0005B8570D5688779878A879B87FE01EC5B99
:101AC000FF4F82E598EBAEE7BFE380839183A2836B
:101AD000B383349680839183A283B3836CA97DA959
:101AE0008EA99FA92C853D854E855F858C889D8814
:101AF000AE88BF884FD522E538EB4EE75FE3CBD702
:101B00006B017C0120E037ED43EA5BE3C501B401E2
:101B1000C2D79B01AC01C701B6013CD56CAB7DAB14
:101B20008EAB9FAB68A979A98AA99BA92889398915
:101B30004A895B89888C998CAA8CBB8C2BD522E531
:101B400038EB4EE75FE3A7D76B017C0120E037ED70
:101B500043EA5BE3C501B4019ED79B01AC01C70119
:101B6000B60118D568AB79AB8AAB9BABDF91CF914F
:101B7000FF90EF90DF90CF90BF90AF909F908F90AD
:101B800008958F929F92AF92BF92CF92DF92EF9281
:101B9000FF920F931F93CF93DF93CDB7DEB7649778
:101BA0000FB6F894DEBF0FBECDBF8C014B01E12C08
:101BB000F12CE814F90489F160E0C8010CDDCE01D4
:101BC00001965C01C12CD12CF6013596EE0FFF1F5A
:101BD000EE0FFF1FE00FF11F208131814281538101
:101BE000F5016081718182819381D4D4F501619383
:101BF0007193819391935F01FFEFCF1ADF0A85E024
:101C0000C816D10409F7EFE3FFE13197F1F700C0FF
:101C10000000FFEFEF1AFF0ACCCFB70180E090E0A1
:101C20001FD66B017C0189859A85AB85BC85BC017B
:101C3000CD019058A70196017AD5F80160AF71AF38
:101C400082AF93AF8D859E85AF85B889BC01CD01EC
:101C50009058A70196016BD5F80164AF75AF86AFB8
:101C600097AF40AD51AD62AD73AD88E090E00E949A
:101C70009118F80144AD55AD66AD77AD84E090E0C4
:101C800064960FB6F894DEBF0FBECDBFDF91CF9143
:101C90001F910F91FF90EF90DF90CF90BF90AF908A
:101CA0009F908F900C9491182F923F924F925F9239
:101CB0006F927F928F929F92AF92BF92CF92DF925C
:101CC000EF92FF920F931F93CF93DF93CDB7DEB7C1
:101CD00028970FB6F894DEBF0FBECDBF1C012A01B6
:101CE0003B01C901B801CD82DE82EF82F886A301F3
:101CF00092014FD469837A838B839C83F101248979
:101D000035894689578946D42B013C01F101648B02
:101D1000758B868B978B20E030E0A901C501B4015B
:101D2000FFD4882369F0A5019401505885017401FE
:101D3000C301B2017BD3F101648B758B868B978BCA
:101D4000F101C484D584E684F784208D318D428DE1
:101D5000538DC701B6019FD62B013C01F1012089AB
:101D600031894289538969817A818B819C8111D41F
:101D70009B01AC01C301B2010DD42B013C012D81AB
:101D80003E814F815885C701B60104D49B01AC0147
:101D9000C301B201CCD46B017C01F101608F718F62
:101DA000828F938F2489358946895789648175810B
:101DB0008681978170D62D813E814F8158856BD663
:101DC0002B013C01F10120813181428153816981E4
:101DD0007A818B819C815FD69B01AC01C301B201EA
:101DE000D9D32B013C01F1012085318542855385F2
:101DF000C701B60150D69B01AC01C301B201CAD3E1
:101E000029813A814B815C81F101208B318B428B9E
:101E1000538B28960FB6F894DEBF0FBECDBFDF916F
:101E2000CF911F910F91FF90EF90DF90CF90BF90D7
:101E3000AF909F908F907F906F905F904F903F906A
:101E40002F900895E0E9F0E080818E7F808380818B
:101E500082608083A1E9B0E08C9188618C936B9A59
:101E600088EB9BE0909399008093980080E395E73E
:101E70009093970080939600808180688083089576
:101E8000E1E9F0E020812260208320812A7F208305
:101E900020E030E044E352E44AD420E030E84BE371
:101EA00054E4F9D5ACD46854744F7093990060939E
:101EB000980080E00895E0E2F1E080818C7F8083EB
:101EC000E1E2F1E08081877F80830895E1E2F1E043
:101ED00080818260808380818A7F80830895609181
:101EE00024017091250180E090E0BAD420E03FEF1A
:101EF0004FE757E41CD42DEB37E346E05DE3CBC559
:101F000010922501109224010895E0EAF0E080810A
:101F10008C7F8083E1EAF0E08081877F808384ED9D
:101F200090E39093AB008093AA00E2E7F0E0808119
:101F3000846080830895E1EAF0E08081836080839B
:101F400080818B7F808308951F920F920FB60F922E
:101F500011240BB60F922F938F939F93EF93FF93C0
:101F60008091C0009091C6008871E0910303EF5FFB
:101F7000EF7120910203E21739F0E0930303F0E0E0
:101F8000EA5FFC4F908301C082E080930103FF91E0
:101F9000EF919F918F912F910F900BBE0F900FBEDD
:101FA0000F901F9018951F920F920FB60F92112449
:101FB0000BB60F928F939F93EF93FF93909105032E
:101FC00080910403981769F0E0910403EF5FEF71CB
:101FD000E0930403F0E0EA5DFC4F80818093C6004B
:101FE00005C08091C1008F7D8093C100FF91EF916A
:101FF0009F918F910F900BBE0F900FBE0F901F906F
:102000001895109205031092040310920303109286
:10201000020397FF04C022E02093C0009F779093B3
:10202000C5008093C40088E98093C1008091C200FC
:102030008F738093C2008091C2008F7C8093C20016
:102040008091C200877F8093C2008091C200866029
:102050008093C2008091C1008B7F8093C10008955E
:102060009091030380910203981791F0E09102038D
:10207000EF5FEF71E0930203F0E0EA5FFC4F208135
:102080008091010390E0982F8827820F911D089579
:1020900080E091E00895909105039F5F9F712091EA
:1020A00004039217E1F3E92FF0E0EA5DFC4F80832F
:1020B000909305038091C10080628093C1000895D0
:1020C000CF93DF93EC018991882311F0E4DFFBCFFC
:1020D000DF91CF9108950F931F93CF93DF93CDB7E7
:1020E000DEB764970FB6F894DEBF0FBECDBF8E018A
:1020F0000F5F1F4F25E044E0A2D5C801E1DF6496E1
:102100000FB6F894DEBF0FBECDBFDF91CF911F9108
:102110000F910895809103032091020390E04F9660
:10212000821B91096FE170E019C21F920F920FB6E6
:102130000F9211240BB60F922F938F939F93EF93CF
:10214000FF938091C8009091CE008871E091BE020B
:10215000EF5FEF712091BD02E21739F0E093BE020C
:10216000F0E0EF53FD4F908301C082E08093BC020A
:10217000FF91EF919F918F912F910F900BBE0F9038
:102180000FBE0F901F9018951F920F920FB60F92CF
:1021900011240BB60F928F939F93EF93FF9390911F
:1021A000C0028091BF02981769F0E091BF02EF5F13
:1021B000EF71E093BF02F0E0EF51FD4F808180931B
:1021C000CE0005C08091C9008F7D8093C900FF912A
:1021D000EF919F918F910F900BBE0F900FBE0F90BC
:1021E0001F9018951F920F920FB60F9211240BB6E5
:1021F0000F922F938F939F93EF93FF938091D00033
:102200009091D6008871E0917902EF5FEF71209193
:102210007802E21739F0E0937902F0E0E458FD4FDC
:10222000908301C082E080937702FF91EF919F91AC
:102230008F912F910F900BBE0F900FBE0F901F909C
:1022400018951F920F920FB60F9211240BB60F9292
:102250008F939F93EF93FF9390917B0280917A02EB
:10226000981769F0E0917A02EF5FEF71E0937A02DC
:10227000F0E0E456FD4F80818093D60005C0809148
:10228000D1008F7D8093D100FF91EF919F918F912D
:102290000F900BBE0F900FBE0F901F9018951F92BE
:1022A0000F920FB60F9211240BB60F922F938F93AC
:1022B0009F93EF93FF938091300190913601887145
:1022C000E0913402EF5FEF7120913302E21739F0B1
:1022D000E0933402F0E0E95CFD4F908301C082E0BE
:1022E00080933202FF91EF919F918F912F910F90E8
:1022F0000BBE0F900FBE0F901F9018951F920F925C
:102300000FB60F9211240BB60F928F939F93EF93FA
:10231000FF939091360280913502981769F0E09111
:102320003502EF5FEF71E0933502F0E0E95AFD4FBF
:1023300080818093360105C0809131018F7D80932B
:102340003101FF91EF919F918F910F900BBE0F90F4
:102350000FBE0F901F901895109236021092350202
:10236000109234021092330297FF04C022E02093AF
:1023700030019F77909335018093340188E98093F1
:102380003101809132018F7380933201809132014B
:102390008F7C8093320180913201877F809332015C
:1023A00080913201866080933201809131018B7F70
:1023B00080933101089590913402809133029817EF
:1023C00091F0E0913302EF5FEF71E0933302F0E0C0
:1023D000E95CFD4F20818091320290E0982F8827A0
:1023E000820F911D089580E091E00895909136024A
:1023F0009F5F9F71209135029217E1F3E92FF0E082
:10240000E95AFD4F808390933602809131018062BA
:10241000809331010895809134022091330290E03D
:102420004F96821B91096FE170E098C08F929F9246
:10243000AF92BF92CF92DF92EF92FF920F931F93D2
:10244000CF93DF936B01D82FC92F49015A0168D16F
:1024500087FD0CC09701A801B6018D2F9C2F10D3CA
:10246000181634F076010D2F1C2F02C0740185015F
:10247000B701C801DF91CF911F910F91FF90EF90AD
:10248000DF90CF90BF90AF909F908F9008954F9224
:102490005F926F927F92AF92BF92CF92DF92EF9254
:1024A000FF920F931F93CF93DF93CDB7DEB728979B
:1024B0000FB6F894DEBF0FBECDBF29013A01E98205
:1024C000FA820B831C8365D06D837E838F8398870C
:1024D000A3019201C801B7015CD09B01AC016D81E1
:1024E0007E818F81988523D12B013C01A601950126
:1024F0006A8D7B8D8C8D9D8D4CD09B01AC01C30171
:10250000B201C9D2A601950145D028960FB6F8941C
:10251000DEBF0FBECDBFDF91CF911F910F91FF9016
:10252000EF90DF90CF90BF90AF907F906F905F90D3
:102530004F900895AA1BBB1B51E107C0AA1FBB1FE8
:10254000A617B70710F0A61BB70B881F991F5A953F
:10255000A9F780959095BC01CD01089597FB072EB2
:1025600016F4009406D077FD08D0E4DF07FC05D010
:102570003EF4909581959F4F0895709561957F4F9A
:102580000895EE0FFF1F881F8BBF0790F691E02D77
:1025900019945058BB27AA270ED027C2F0D130F08B
:1025A000F5D120F031F49F3F11F41EF4C0C10EF4B8
:1025B000E095E7FBB6C1E92F3AD280F3BA1762077C
:1025C00073078407950718F071F49EF552C20EF454
:1025D000E0950B2EBA2FA02D0B01B90190010C0133
:1025E000CA01A0011124FF27591B99F0593F50F44B
:1025F000503E68F11A16F040A22F232F342F4427A3
:10260000585FF3CF469537952795A795F04053959A
:10261000C9F77EF41F16BA0B620B730B840BBAF06A
:102620009150A1F0FF0FBB1F661F771F881FC2F7D5
:102630000EC0BA0F621F731F841F48F487957795E9
:102640006795B795F7959E3F08F0B3CF9395880FA0
:1026500008F09927EE0F97958795089590D158F037
:1026600080E891E009F49EEF91D128F040E851E034
:1026700059F45EEF09C05BC1FCC1E92FE078D7D106
:1026800068F3092E052AC1F32617370748075907AB
:1026900038F00E2E07F8E02569F0E025E0640AC066
:1026A000EF6307F8009407FADB01B9019D01DC0133
:1026B000CA01AD01EF934AD098D10AD05F9155235A
:1026C00031F02BED3FE049E450FD49EC63CF089534
:1026D000DF93DD27B92FBF7740E85FE316161706B3
:1026E00048075B0710F4D92FCFD19F938F937F9327
:1026F0006F937CD2E4EEF0E01DD177D12F913F9122
:102700004F915F91D4D1DD2349F09058A2EA2AED90
:102710003FE049EC5FE3D0785D274DDFDF9165C195
:10272000DCD008F481E0089539D1E3956FC10CD075
:102730005CC12CD140F023D130F021F45F3F19F07F
:10274000F0C0511197C1F3C072D198F39923C9F326
:102750005523B1F3951B550BBB27AA2762177307A7
:10276000840738F09F5F5F4F220F331F441FAA1F5B
:10277000A9F333D00E2E3AF0E0E830D0915050401B
:10278000E695001CCAF729D0FE2F27D0660F771FC9
:10279000881FBB1F261737074807AB07B0E809F0AB
:1027A000BB0B802DBF01FF2793585F4F2AF09E3F40
:1027B000510568F0B6C05EC15F3FECF3983EDCF3B4
:1027C000869577956795B795F7959F5FC9F7880FB9
:1027D000911D9695879597F90895E1E0660F771F0B
:1027E000881FBB1F621773078407BA0720F0621B9C
:1027F000730B840BBA0BEE1F88F7E095089504D095
:102800006894B11137C108951AD188F09F5790F09C
:10281000B92F9927B751A0F0D1F0660F771F881F05
:10282000991F1AF0BA95C9F712C0B13081F021D1C1
:10283000B1E008951EC1672F782F8827B85F39F05F
:10284000B93FCCF3869577956795B395D9F73EF464
:1028500090958095709561957F4F8F4F9F4F08950C
:10286000E89409C097FB3EF490958095709561952A
:102870007F4F8F4F9F4F9923A9F0F92F96E9BB27E0
:102880009395F695879577956795B795F111F8CF5C
:10289000FAF4BB0F11F460FF1BC06F5F7F4F8F4FC7
:1028A0009F4F16C0882311F096E911C0772321F0BD
:1028B0009EE8872F762F05C0662371F096E8862F55
:1028C00070E060E02AF09A95660F771F881FDAF7AC
:1028D000880F9695879597F90895990F0008550FD9
:1028E000AA0BE0E8FEEF16161706E807F907C0F096
:1028F00012161306E407F50798F0621B730B840B9E
:10290000950B39F40A2661F0232B242B252B21F477
:1029100008950A2609F4A140A6958FEF811D811D17
:10292000089597F99F6780E870E060E008959FEF51
:1029300080EC0895DF93CF931F930F93FF92EF9254
:10294000DF927B018C01689405C0DA2EEF01AFD0D5
:10295000FE01E894A5912591359145915591AEF3ED
:10296000EF0129DEFE019701A801DA9479F7DF90E3
:10297000EF90FF900F911F91CF91DF910895002468
:102980000A941616170618060906089500240A94D4
:1029900012161306140605060895C9CF50D0E8F3A1
:1029A000E894E0E0BB279F57F0F02AED3FE049ECC8
:1029B00006C0EE0FBB0F661F771F881F28F0B23AC4
:1029C00062077307840728F0B25A620B730B840BFB
:1029D000E3959A9572F7803830F49A95BB0F661F8D
:1029E000771F881FD2F7904806C1092E0394000C68
:1029F00011F4882352F0BB0F40F4BF2B11F460FF99
:102A000004C06F5F7F4F8F4F9F4F0895EF93E0FF9C
:102A100006C0A2EA2AED3FE049EC5FEBCCDDE5DF42
:102A20000F90039401FC9058E1E1F1E0F7C057FDED
:102A30009058440F551F59F05F3F71F04795880F2C
:102A400097FB991F61F09F3F79F0879508951216C3
:102A500013061406551FF2CF4695F1DF08C016166F
:102A600017061806991FF1CF869571056105089420
:102A70000895E894BB2766277727CB0197F9089537
:102A80002CDF08F48FEF08959B01AC0160E070E04B
:102A900080E89FE34CCE0BD0A8CF71DF28F076DF23
:102AA00018F0952309F03DCF42CF1124E3CFBFDFCB
:102AB000A0F3959FD1F3950F50E0551F629FF00151
:102AC000729FBB27F00DB11D639FAA27F00DB11DAA
:102AD000AA1F649F6627B00DA11D661F829F222733
:102AE000B00DA11D621F739FB00DA11D621F839FBA
:102AF000A00D611D221F749F3327A00D611D231F90
:102B0000849F600D211D822F762F6A2F11249F57DD
:102B100050408AF0E1F088234AF0EE0FFF1FBB1F00
:102B2000661F771F881F91505040A9F79E3F51059F
:102B300070F0F7CE9FCF5F3FECF3983EDCF38695C5
:102B400077956795B795F795E7959F5FC1F7FE2B4A
:102B5000880F911D9695879597F908959F931EDF8D
:102B60000F9007FCEE5F52CF11F40EF4E0CE41C09F
:102B700066DFD0F39923D9F3CEF39F57550B87FF28
:102B800046D00024A0E640EA9001805856959795DB
:102B900028F4805C660F771F881F20F02617370700
:102BA000480730F4621B730B840B202931294A2B10
:102BB000A69517940794202531254A2758F7660FC4
:102BC000771F881F20F026173707480730F4620B5D
:102BD000730B840B200D311D411DA09581F7B901A8
:102BE000842F9158880F9695879508959B01AC0185
:102BF00052CF9F3F31F0915020F48795779567959C
:102C0000B795880F911D9695879597F908959150DE
:102C10005040660F771F881FD2F708959F938F93B8
:102C20007F936F93FF93EF939B01AC0134DFEF91A0
:102C3000FF9180DE2F913F914F915F912CCFEF92CA
:102C40000F931F93CF93DF93E80147FD02C034E059
:102C500001C034E1042E000C550B57FF03C0519501
:102C600041955109E32E022F242FAE0107D0CE014A
:102C7000DF91CF911F910F91EF9008958F929F92C6
:102C8000AF92BF92CF92DF92EF92FF920F931F937A
:102C9000CF93DF93CDB7DEB729970FB6F894DEBF99
:102CA0000FBECDBF6A01122FB02E2BE3201720F0EC
:102CB000FF24F394F00E02C02CE3F22E0F2D27E038
:102CC000AE014F5F5F4F50D1BC014981842F8970A5
:102CD000813031F0E1FC06C0E0FE06C090E205C0A4
:102CE0009DE203C09BE201C090E05E2D507143FF66
:102CF0003CC0911102C083E001C084E0811718F448
:102D0000212F281B01C020E051110BC0F601822F9A
:102D100030E2882319F031938150FBCFC20ED11CD1
:102D200020E0992329F0D6019C93F60131966F019A
:102D3000C6010396E2FE0AC03EE4D6013C9341E49C
:102D400011964C93119712963C9306C03EE6F601FD
:102D5000308341E641833283FC01322F40E233234A
:102D600009F442C041933150FACF42FF44C091115F
:102D700002C083E001C084E0811718F4212F281BD2
:102D800001C020E051110BC0F601822F30E28823F0
:102D900019F031938150FBCFC20ED11C20E0992352
:102DA00029F0D6019C93F60131966F01C601039676
:102DB000E2FE0BC039E4D6013C933EE411963C930D
:102DC000119736E412963C9307C039E6F60130833A
:102DD0003EE6318336E63283FC01322F40E2332374
:102DE00019F041933150FBCFFC01E20FF11D10822D
:102DF0008EEF9FEFA6C021E030E0911102C020E0ED
:102E000030E0161617061CF4FB01319602C0E1E013
:102E1000F0E02E0F3F1FBB2021F0EB2DF0E03196AC
:102E200002C0E0E0F0E02E0F3F1FE12FF0E02E1790
:102E30003F071CF4121B212F01C020E08E2D88714A
:102E400059F4F601822F30E2882319F03193815032
:102E5000FBCFC20ED11C20E0992329F0D6019C9310
:102E6000F60131966F0151110BC0F601822F90E3EC
:102E7000882319F091938150FBCFC20ED11C20E022
:102E80000F2D060F9A81342F307144FF03C0913308
:102E900009F40150101624F4093018F008E001C0BC
:102EA00001E0AB0177FF02C040E050E0FB01E41B12
:102EB000F50BA1E0B0E0AC0FBD1FEA0FFB1F8EE2E7
:102EC000A82E4B01801A91080B2D10E01195019549
:102ED00011094F3FBFEF5B0721F4D601AC92119669
:102EE0006D01641775072CF08416950614F4818122
:102EF00001C080E3415051093196D60111967D0100
:102F00004017510724F0D6018C936701E2CF641774
:102F1000750739F4963320F4953319F4311101C053
:102F200081E3F6018083F701822F90E2882319F074
:102F300091938150FBCFF701E20FF11D108280E0E9
:102F400090E029960FB6F894DEBF0FBECDBFDF919B
:102F5000CF911F910F91FF90EF90DF90CF90BF9096
:102F6000AF909F908F900895283008F027E0332786
:102F7000DA01990F311D87FD916000966105710599
:102F800039F432602E5F3D9330E32A95E1F70895DE
:102F90009F3F30F080387105610509F03C5F3C5F70
:102FA0003D93913008F08068911DDF93CF931F937C
:102FB0000F93FF92EF92192F987F9695E92F969590
:102FC0009695E90FFF27E657FE4F99273327EE2402
:102FD000FF24A701E70105900894079428F4360F11
:102FE000E71EF81E491F511D660F771F881F991F86
:102FF0000694A1F70590079428F4E70EF81E491FE0
:10300000561FC11D770F881F991F661F0694A1F7D1
:103010000590079428F4F80E491F561FC71FD11DAD
:10302000880F991F661F771F0694A1F705900794D4
:1030300020F4490F561FC71FD81F990F661F771F0F
:10304000881F0694A9F784911095177041F0D695C2
:10305000C79557954795F794E7941A95C1F7E0E31C
:10306000F1E06894159015913591659195910590D1
:103070007FE27395E118F10A430B560BC90BD00997
:10308000C0F7E10CF11E431F561FC91FD01D7EF46F
:10309000703311F48A95E6CFE894015030F0080FB0
:1030A0000AF40027021708F4202F2395022F7A3301
:1030B00028F079E37D932A95E9F710C07D932A954E
:1030C00089F6069497956795379517951794E118A3
:1030D000F10A430B560BC90BD00998F023957E914A
:1030E00073957A3308F070E37C932013B8F77E91E0
:1030F00070617D9330F0839571E37D9370E32A9541
:10310000E1F71124EF90FF900F911F91CF91DF9184
:10311000992787FD90950895A6E1B0E044E050E03E
:103120000AC00396272F16D014D0252F13D0242F92
:1031300011C0DC01CB01FC01F999FECF06C0F2BD44
:10314000E1BDF89A319600B40D9241505040B8F765
:103150000895262FF999FECF92BD81BDF89A019767
:1031600000B4021639F01FBA20BD0FB6F894FA9ACF
:0A317000F99A0FBE0895F894FFCFFE
:00000001FF
