:1000000015C1000036C1000034C1000032C100003B
:1000100030C1000044C100008FC100002AC10000AF
:1000200028C1000026C1000024C1000022C1000038
:1000300020C100001EC100001CC100001AC1000048
:1000400018C1000016C1000014C1000012C1000058
:1000500010C100000EC100000CC100000AC1000068
:1000600008C100000C944A0D0C94790D02C10000E7
:1000700000C10000FEC00000FCC00000FAC000008B
:10008000F8C00000F6C00000F4C00000F2C000009C
:100090000C943B0E0C946A0EECC00000EAC0000009
:1000A000E8C00000E6C00000E4C0000092C100000B
:1000B000E0C00000DEC00000DCC00000DAC00000CC
:1000C000D8C00000D6C00000D4C000000C94980E28
:1000D0000C94C70ECEC000000C94F50E0C94240FA7
:1000E000C8C00000084AD73B3BCE016E84BCBFFDB0
:1000F000C12F3D6C74319ABD56833DDA3D00C77FF8
:1001000011BED9E4BB4C3E916BAAAABE0000008090
:100110003F05A84CCDB2D44EB93836A9020C50B91F
:10012000918688083CA6AAAA2ABE000000803F004B
:1001300000407A10F35A00A0724E18090010A5D49E
:10014000E80000E87648170000E40B54020000CAFB
:100150009A3B000000E1F505000080969800000041
:1001600040420F000000A0860100000010270000A0
:100170000000E803000000006400000000000A0026
:10018000000000000100000000002C76D888DC6729
:100190004F0823DFC1DFAE59E1B1B796E5E3E45381
:1001A000C63AE651997696E8E6C28426EB898C9B9E
:1001B00062ED407C6FFCEFBC9C9F40F2BAA56FA53E
:1001C000F490055A2AF75C936B6CF9676DC11BFCC0
:1001D000E0E40D47FEF520E6B500D0ED902E0300DB
:1001E000943577050080841E080000204E0A000028
:1001F00000C80C333333330F986E12831141EF8DE7
:100200002114893BE65516CFFEE6DB18D1844B3826
:100210001BF77C1D901DA4BBE424203284725E2257
:100220008100C9F124ECA1E53D27EF0511241FBE93
:10023000CFEFD1E2DEBFCDBF00E00CBF23E0A0E0F6
:10024000B2E001C01D92A634B207E1F711E0C6E1A9
:10025000D1E000E006C021970109802FFE010E9435
:100260006710C531D10780E00807A9F78CD20C943C
:100270003216C6CE81B18E7D81B98DB18B7E8DB99E
:10028000EAE6F0E080818360808380818C608083F7
:100290008DB380638DBB0E942B0D0C94410D1F927A
:1002A0000F920FB60F9211240BB60F922F933F931C
:1002B0004F935F936F937F938F939F93AF93BF936E
:1002C000EF93FF93029B0FC060911402709115028F
:1002D000809116029091170220E030E040E85FE341
:1002E0000E9470100EC060911402709115028091EE
:1002F00016029091170220E030E040E85FE30E9490
:100300006F106093140270931502809316029093FD
:100310001702FF91EF91BF91AF919F918F917F91C4
:100320006F915F914F913F912F910F900BBE0F9066
:100330000FBE0F901F9018951F920F920FB60F923D
:1003400011240BB60F922F933F934F935F936F93AC
:100350007F938F939F93AF93BF93EF93FF93009BF4
:100360000FC0609118027091190280911A02909149
:100370001B0220E030E040E85FE30E9470100EC0F6
:10038000609118027091190280911A0290911B02DB
:1003900020E030E040E85FE30E946F1060931802B5
:1003A0007093190280931A0290931B02FF91EF91B0
:1003B000BF91AF919F918F917F916F915F914F917D
:1003C0003F912F910F900BBE0F900FBE0F901F907B
:1003D00018951F920F920FB60F9211240BB60F9221
:1003E0008F929F92AF92BF92CF92DF92EF92FF9245
:1003F0002F933F934F935F936F937F938F939F932D
:10040000AF93BF93CF93DF93EF93FF93C0E0D2E01E
:100410006C897D898E899F8927E230EA49E85CE30F
:100420000E94F1122DEC3CEC4CE45DE30E943D1186
:100430006C877D878E879F87688D798D8A8D9B8D50
:1004400027E230EA49E85CE30E94F1122DEC3CEC33
:100450004CE45DE30E943D11688B798B8A8B9B8B0A
:100460006C857D858E859F85288939894A895B8938
:100470000E94701020E030E040E05FE30E94F11243
:1004800068A379A38AA39BA36C8D7D8D8E8D9F8D90
:1004900088A099A0AAA0BBA026E636E646E25FE3C4
:1004A0000E94F1126B017C0124E333E343EB5EE332
:1004B000C501B4010E94F1129B01AC01C701B60154
:1004C0000E94701068A379A38AA39BA388A199A115
:1004D000AAA1BBA18C8F9D8FAE8FBF8F68A179A180
:1004E0008AA19BA1C884D984EA84FB8422E03BE2F0
:1004F00047E05DE30E94F112A70196010E9470108F
:10050000688779878A879B871C8A1D8A1E8A1F8A2B
:10051000188E198E1A8E1B8E1092A5001092A400B0
:10052000FF91EF91DF91CF91BF91AF919F918F910B
:100530007F916F915F914F913F912F91FF90EF903D
:10054000DF90CF90BF90AF909F908F900F900BBE99
:100550000F900FBE0F901F9018952F923F924F92C1
:100560005F926F927F928F929F92AF92BF92CF9243
:10057000DF92EF92FF920F931F93CF93DF931C01B3
:10058000EA01C901F101808087FEB4C0682D6F7057
:1005900070E080E090E00E94D61121E4922E9F92BC
:1005A00025E02F932FE22F932BE12F93A12CB12C39
:1005B00030E7C32E31ECD32EE12CF12C00E711E40F
:1005C00020E030E0A9010E94ED0F20E030E040E89B
:1005D0005FE30E947010E12CF12C00E011E420E0B8
:1005E00030E040E051EC0E94BC0F2B013C01682D33
:1005F000607770E0E4E075956795EA95E1F770E063
:1006000080E090E00E94D6119F9220EA2F931F92E3
:100610001F92A12CB12CF0EACF2EF1ECDF2EE12CB1
:10062000F12C00EE10E420E030E0A9010E94ED0F73
:1006300023E333E343E350E40E946F10E12CF12CF9
:1006400000EA10E420E030E040EA50EC0E94BC0FE9
:100650006B017C0168A179A18AA19BA188A099A0C6
:10066000AAA0BBA02DB73EB7285F3F4F0FB6F894A6
:100670003EBF0FBE2DBF20E030E040E850E40E94B6
:10068000361187FF14C020E030E040E850ECC5018F
:10069000B4010E94E612181654F420E030E040E85D
:1006A00050E4C701B6010E94F1126B017C0126E6FD
:1006B00036E646E65FE3688179818A819B810E9404
:1006C000F1124B015C012DEC3CEC4CEC5DE3C30101
:1006D000B2010E94F1129B01AC01C501B4010E945C
:1006E0007010688379838A839B83CC82DD82EE825B
:1006F000FF822EC0F3E08F16B9F0F81530F022E03B
:1007000082122DC0CA0142D421C034E0831619F1EF
:1007100086E0881224C068A179A18AA19BA120E06B
:1007200030E048EC52E409C020E030E048EC52E40C
:10073000FC0164A975A986A997A90E94F1120E94DB
:10074000A511C62F872F0E949C0F8C2F0E949C0FF3
:10075000F101108204C0DCD78DE00E949C0F80E084
:10076000DF91CF911F910F91FF90EF90DF90CF908D
:10077000BF90AF909F908F907F906F905F904F90C1
:100780003F902F900895CF93DF93CDB7DEB7CB582E
:10079000D1090FB6F894DEBF0FBECDBF0F9A179ADE
:1007A000EE961FAEEE9780E092E092D280E190E06C
:1007B0000E94A70D80E190E00E94520F78945ADDCC
:1007C00080910A01816080930A0197D4813029F4D5
:1007D00080910B01816080930B010E94C80C0E94E4
:1007E000010D0E940C0D8E010F5F1F4FC801AFD687
:1007F0000E94150D20E030E040E051E469A97AA99B
:100800008BA99CA90E946F100E94E60C0E94260DE5
:100810008FE39CE90197F1F700C00000DE01AF59BA
:10082000BF4F40E050E060E07FE34D935D936D93F8
:100830007C9313974AE057ED63EA7DE314964D935A
:100840005D936D937C9317974DEC5CEC6CE47DE3CA
:1008500018964D935D936D937C931B974AE959E9E4
:1008600069E17FE31C964D935D936D937C931F9795
:1008700050961D921D921D921C92539754961D9254
:100880001D921D921C92579758961D921D921D9273
:100890001C925B97FE01EB5BFF4FC12CD12C88EBC8
:1008A000E82E81E4F82EC082D182E282F3821482A3
:1008B0001582168217821086118612861386448747
:1008C000558766877787108A118A128A138A148A55
:1008D000158A168A178A108E118E128E138ECC5797
:1008E000DF4F188219821A821B82C458D040212CF3
:1008F000312C412C512C3201CE57DF4F0883C25886
:10090000D040CD57DF4F1883C358D040C657DF4F74
:10091000A883CA58D040C557DF4FB883CB58D040C2
:10092000C857DF4FE883C858D040C757DF4FF88318
:10093000C958D0400E94150DC258DF4F6883798393
:100940008A839B83CE57D0400E94260DC258DF4F2A
:10095000488159816A817B81CE57D040CE57DF4F85
:100960008881C258D040CD57DF4F9881C358D040BE
:100970003CD6C10166E070E00E944010892BC1F5B1
:100980004091200250912102609122027091230235
:1009900000910002109101022091020230910302A5
:1009A000812C912CE0E2AE2EE1E4BE2E73016201B7
:1009B000C657DF4F8881CA58D040C557DF4F98814E
:1009C000CB58D04017D7E12CF12C00EA10E420E0FE
:1009D00030E040EA50EC0E94BC0FCC57DF4F6883F8
:1009E00079838A839B83C458D040412C512C320197
:1009F0002CEC3EE245E652E46DA97EA98FA998ADA4
:100A00000E94F112AB01BC01812C912C80EAA82E2E
:100A100081E4B82EC258DF4FC880D980EA80FB80BD
:100A2000CE57D040CC57DF4F088119812A813B81B6
:100A3000C458D040C857DF4F8881C858D040C757E6
:100A4000DF4F9881C958D040D5D6E12CF12C00EA6F
:100A500012E420E030E040EA52EC0E94BC0F6B014F
:100A60007C0120E030E0A9010E94E61218167CF417
:100A700020E030E048EC52E4C701B6010E943D118D
:100A80000E945E1320E030E048EC52E40FC0C70142
:100A9000B601905820E030E048EC52E40E943D114D
:100AA0000E945E1320E030E048EC52EC0E94F1120C
:100AB0000E94A51180E092E06ED122E739EF4FE766
:100AC0005FE36091000270910102809102029091B7
:100AD00003020E94F11220E030E0A9010E94701090
:100AE00060930002709301028093020290930302CC
:100AF00022E739EF4FE75FE360910402709105024E
:100B000080910602909107020E94F11220E030E0ED
:100B1000A9010E94701060930402709305028093F3
:100B2000060290930702049B0BC0CE57DF4F8881CB
:100B3000C258D040CD57DF4F9881C358D040E8D538
:100B400074D72AE037ED43E25CE30E94361187FF59
:100B50002DC00E94300E892B11F00E94D60D0E94EC
:100B6000B10F892BF9F00E94810FEE968FAFEE97AF
:100B7000CE57DF4F2881C258D040CD57DF4F388144
:100B8000C358D04040E052E0C857DF4F6881C85892
:100B9000D040C757DF4F7881C958D040CE01835825
:100BA0009F4FDBDC80E092E067D1CACF9FEF291A2C
:100BB000390A89EE281683E0380610F0212C312CF2
:100BC000C258DF4F288139814A815B81CE57D0409E
:100BD000C301B2010E9470102B013C01ABCE8F9279
:100BE000AF92CF92EF920F931F9386E0882E94E0FE
:100BF000A92E22E0C22EE12C08E210E028E230E02B
:100C000047E250E067E270E080E092E00BD01F9195
:100C10000F91EF90CF90AF908F9008954298409AA7
:100C200080E008958F92AF92CF92EF920F931F932F
:100C3000CF93DF93CDB7DEB7FC0110821182128211
:100C400013821482158216821782108611861286EC
:100C50001386108A118A128A138A108E118E128EB0
:100C6000138E148E158E168E178E10A211A212A23C
:100C700013A282E384A381E085A377A366A351A78F
:100C800040A733A722A715A704A7E6A6C7A6A0AA30
:100C900081AADF91CF911F910F91EF90CF90AF90EC
:100CA0008F900895413419F0423439F00FC0161670
:100CB0001CF44098429A05C0B1CF161624F444980B
:100CC000469A80E008954698449AFBCF81E00895C3
:100CD000CF93DF93EC0184B1806684B910928900D0
:100CE0001092880010928B0010928A00E0E8F0E0E9
:100CF00080818068808380818F7B80838081806217
:100D0000808380818F7E8083808181608083A1E861
:100D1000B0E08C9188608C9380818D7F80838C91F2
:100D200081608C938C91897F8C93EEA1FFA130819F
:100D300081E090E0BC010EA402C0660F771F0A9408
:100D4000E2F7AC010FA402C0440F551F0A94E2F76A
:100D5000262F242B232B2083E8A5F9A52081AC0185
:100D600008A802C0440F551F0A94E2F709A802C060
:100D7000880F991F0A94E2F7842B822B808341E429
:100D800061E0CE018FDF42E461E0CE018BDF80E0E5
:100D9000DF91CF9108958F929F92AF92BF92CF92A1
:100DA000DF92EF92FF920F931F93CF93DF938C010B
:100DB000062E000C770B880B990B0E94D8116B0143
:100DC0007C01F80184809580A680B780A5019401FC
:100DD0000E9470100E94A511D62FA5019401C70191
:100DE000B6010E946F100E94A511C62F1D1634F483
:100DF00041E461E0C80156DFDC5F04C00FDF64E05E
:100E00006D1BD62F42E41C1624F461E0C8014ADFB2
:100E100004C06FEFC80146DFC195D4363CF08FEFB8
:100E200090E0909389008093880008C0DD0FD95C22
:100E30006D2F70E07093890060938800C4363CF099
:100E40008FEF90E090938B0080938A0008C0CC0FC6
:100E5000C95C6C2F70E070938B0060938A00DF9107
:100E6000CF911F910F91FF90EF90DF90CF90BF90A7
:100E7000AF909F908F9008954F925F926F927F9264
:100E8000AF92BF92CF92DF92EF92FF920F931F9398
:100E9000CF93DF93EC0180917C00806480937C0091
:100EA00080917C008F7780937C0080917C00807E95
:100EB00080937C0080917A00806880937A00809192
:100EC0007A00806480937A0080917A0086FDFCCF5E
:100ED00000917800109179006CA170E080E090E0C2
:100EE0000E94D81124EA30E74DE75FE30E94F11237
:100EF0002B013C01B80180E090E00E94D61120E077
:100F000030E040EA50E40E94F11220E030E040E896
:100F10005AE30E94F11222E42F9328EC2F931F92A0
:100F20001F92A12CB12C65011CE5E12E1FE8F12ECA
:100F300002E810E42DEC3CEC4CE650E40E94ED0F8E
:100F40002AE037ED43E25CE30E94F112A301920133
:100F50000E9470100E94AA116CA30F900F900F9026
:100F60000F900D9A6E3110F4159A01C01598DF910B
:100F7000CF911F910F91FF90EF90DF90CF90BF9096
:100F8000AF907F906F905F904F900895FC0184A187
:100F900008954F925F926F927F928F929F92AF923D
:100FA000BF92CF92DF92EF92FF92CF93DF93CDB7B4
:100FB000DEB72E970FB6F894DEBF0FBECDBF9E876B
:100FC0008D8749875A876B877C87FC0144A855A881
:100FD00066A877A8C301B2010E94541369837A837B
:100FE0008B839C83ED85FE8580A891A8A2A8B3A8D9
:100FF000C501B4010E9454136B017C01C501B40109
:101000000E943A114B015C01C301B2010E943A11E6
:101010006D837E838F839887A701960169817A818A
:101020008B819C810E94F112A50194010E943D11C7
:10103000ED85FE8520A131A142A153A10E94F112AC
:10104000ED85FE85248D358D468D578D0E9470105F
:101050002B013C012D813E814F815885C701B6018E
:101060000E94F112A50194010E943D11ED85FE85BB
:1010700024A135A146A157A10E94F1129B01AC0108
:10108000C301B2010E947010905829853A854B85A2
:101090005C850E94F1122E960FB6F894DEBF0FBE4B
:1010A000CDBFDF91CF91FF90EF90DF90CF90BF90B9
:1010B000AF909F908F907F906F905F904F9008952A
:1010C0008091BC0087FFFCCF089584EA8093BC0028
:1010D000F7CF8093BB0084E88093BC00F1CF84EC11
:1010E0008093BC00EDDF8091BB00089584E880937D
:1010F000BC00E6DF8091BB000895CF93DF9383E0CF
:101100008093B8008091B9008C7F8093B900809162
:10111000BC0084608093BC00D8DF80EDDADF8BE612
:10112000D8DF81E0D6DFC4E9C093BC00CEDF80ED1C
:10113000D0DF85E7CEDFC9DF81EDCBDFD7DFD82F6A
:10114000C093BC00C2DF80EDC4DF89E1C2DF87E06D
:10115000C0DF80E0BEDF80E0BCDF80E0BADFC093AC
:10116000BC0081E0D83609F480E0DF91CF9108958A
:101170004F925F926F927F928F929F92AF92BF92A7
:10118000CF92DF92EF92FF92CF93DF93283579F4DD
:10119000DF91CF91FF90EF90DF90CF90BF90AF9015
:1011A0009F908F907F906F905F904F90F2CE2935F7
:1011B00081F56A017B01EC018CA89DA8AEA8BFA8AF
:1011C000C501B4010E943A112B013C01C501B401D3
:1011D0000E9454134B015C0128A139A14AA15BA1D3
:1011E000C301B2010E94F1122B013C012CA13DA1CF
:1011F0004EA15FA1C501B4010E94F1129B01AC0197
:10120000C301B2016CD79058A70196010E94F11258
:1012100003C060E070E0CB01DF91CF91FF90EF90D1
:10122000DF90CF90BF90AF909F908F907F906F9006
:101230005F904F9008953F924F925F926F927F928E
:101240008F929F92AF92BF92CF92DF92EF92FF92D6
:101250000F931F93CF93DF93CDB7DEB76E970FB683
:10126000F894DEBF0FBECDBF8C01362E2EDF80ED91
:1012700030DF8BE32EDF29DF81ED2BDFCE010196FE
:101280007C016E019EE0C90ED11C29DFD7018D9330
:101290007D01AC15BD05C9F729DF8E8784E98093F0
:1012A000BC0069817A81762767277627072E000C94
:1012B000880B990B0E94D8116B017C016B817C819A
:1012C000762767277627072E000C880B990B0E943C
:1012D000D8116F87788B898B9A8B6D817E81762769
:1012E00067277627072E000C880B990B0E94D811D0
:1012F0004B015C0169857A85762767277627072E5B
:10130000000C880B990B0E94D8116B8B7C8B8D8BFA
:101310009E8B6B857C85762767277627072E000CAA
:10132000880B990B0E94D8116F8B788F898F9A8FB9
:101330006D857E85762767277627072E000C880B1C
:10134000990B0E94D8112B013C013320B9F16F8118
:101350007885F801C48AD58AE68AF78A8F859889C4
:10136000A989BA89808F918FA28FB38F848E958E31
:10137000A68EB78E762767277627072E000C880B58
:10138000990B0E94D811F80160A371A382A393A3C3
:101390008B899C89AD89BE8984A395A3A6A3B7A395
:1013A0008F89988DA98DBA8D80A791A7A2A7B3A781
:1013B00044A655A666A677A681E0B1C0A70196010E
:1013C000C701B6010E94F1126B8F7C8F8D8F9E8FAB
:1013D000A5019401C501B4010E94F1129B01AC0169
:1013E0006B8D7C8D8D8D9E8D7BD60E945E139B01B7
:1013F000AC016F85788989899A893FD70FD76F8724
:10140000788B898B9A8BC701B6019058A5019401FE
:10141000DAD66B017C0120ED3FE049EC5FE30E94EE
:10142000E61218164CF4A701960160ED7FE089E4FE
:1014300090E455D66B017C0120ED3FE049EC5FEB79
:10144000C701B60113D787FF09C0A701960160ED58
:101450007FE089E490EC43D66B017C01F80180AC1D
:1014600091ACA2ACB3AC8F859889A989BA89848BD9
:10147000958BA68BB78BC08ED18EE28EF38E20E03B
:1014800030E043E053E46B897C898D899E89F5D6F1
:1014900028E939EF4EE85CE30E94F112A5019401BE
:1014A0001ED6F801648F758F868F978F20E030E00D
:1014B00043E053E46F89788D898D9A8DDED628E9D3
:1014C00039EF4EE85CE30E94F112D801DC962D91D1
:1014D0003D914D915C91DF9702D6F80160A371A315
:1014E00082A393A320E030E043E053E4C301B201C0
:1014F000C4D628E939EF4EE85CE30E94F112F80106
:10150000E05CFF4F2081318142815381E8D5D801D1
:1015100094966D937D938D939C93979780E06E96B0
:101520000FB6F894DEBF0FBECDBFDF91CF911F91F4
:101530000F91FF90EF90DF90CF90BF90AF909F9072
:101540008F907F906F905F904F903F900895CF93D2
:10155000DF93EC01188219821A821B821C821D8281
:101560001E821F82188619861A861B86188A198A77
:101570001A8A1B8A1CAA1DAA1EAA1FAA18AE19AE77
:101580001AAE1BAE1CAE1DAE1EAE1FAEFC01E05C63
:10159000FF4F1082118212821382AFDD2FEF83ED95
:1015A00090E3215080409040E1F700C0000060E0EF
:1015B000CE0141DE4C895D896E897F894CAB5DAB84
:1015C0006EAB7FAB888D998DAA8DBB8D88AB99ABA7
:1015D000AAABBBAB4C835D836E837F83888799877F
:1015E000AA87BB87DF91CF9108958F929F92AF9288
:1015F000BF92CF92DF92EF92FF92CF93DF93EC01F5
:101600006A017B0160E017DEB701A601CE01C1DCF3
:101610004B015C016C877D878E879F8729E5B70129
:10162000A601CE01A5DD6B017C01688B798B8A8BCD
:101630009B8B28AD39AD4AAD5BADC501B40150D52A
:101640009B01AC016C817D818E819F8149D56C832A
:101650007D838E839F832CAD3DAD4EAD5FADC701C5
:10166000B6013ED59B01AC01688579858A859B854D
:1016700037D5688779878A879B872CA93DA94EA98A
:101680005FA9C501B4012CD522E538EB4EE75FE335
:10169000A8D74B015C012AE037ED43EA5BE36C8994
:1016A0007D898E899F899DD79B01AC01C501B401BD
:1016B00017D56CAB7DAB8EAB9FAB28A939A94AA9D6
:1016C0005BA9C701B6010CD524EA30E74DE75FE31B
:1016D00088D76B017C012AE037ED43E25CE3688D3B
:1016E000798D8A8D9B8D7DD79B01AC01C701B60199
:1016F000F7D468AB79AB8AAB9BABDF91CF91FF900E
:10170000EF90DF90CF90BF90AF909F908F90089513
:10171000CF92DF92EF92FF920F931F93CF93DF93BD
:10172000EC0180910B01816080930B012FEF87EA20
:1017300091E6215080409040E1F700C000001092F7
:1017400089001092880010928B0010928A0080917C
:101750000B018E7F80930B0108EE13E0C12CD12C7E
:10176000760160E0CE0167DD2C8D3D8D4E8D5F8D65
:10177000C701B601B5D46B017C018FE39FE10197EE
:10178000F1F700C000000150110959F720E030E0E6
:101790004AE754E4C701B60170D568AF79AF8AAFA4
:1017A0009BAF6CAF7DAF8EAF9FAFC05CDF4F6883E8
:1017B00079838A839B8335D28AE013D280910B018F
:1017C000816080930B019FEF27EA81E691502040D2
:1017D0008040E1F700C0000080910B018E7F809374
:1017E0000B01DF91CF911F910F91FF90EF90DF9050
:1017F000CF9008952F923F924F925F926F927F9277
:101800008F929F92AF92BF92CF92DF92EF92FF9210
:101810000F931F93CF93DF93CDB7DEB728970FB603
:10182000F894DEBF0FBECDBF1C012A013B01C901E8
:10183000B801CD82DE82EF82F886A30192014FD4F7
:1018400069837A838B839C83F10124893589468956
:10185000578946D42B013C01F101648B758B868B33
:10186000978B20E030E0A901C501B401FFD48823A3
:1018700069F0A5019401505885017401C301B201BA
:101880007BD3F101648B758B868B978BF101C484BC
:10189000D584E684F784208D318D428D538DC70128
:1018A000B6019FD62B013C01F10120893189428983
:1018B000538969817A818B819C8111D49B01AC0110
:1018C000C301B2010DD42B013C012D813E814F811A
:1018D0005885C701B60104D49B01AC01C301B20114
:1018E000CCD46B017C01F101608F718F828F938F5B
:1018F00024893589468957896481758186819781D4
:1019000070D62D813E814F8158856BD62B013C01CD
:10191000F101208131814281538169817A818B81FA
:101920009C815FD69B01AC01C301B201D9D32B01CD
:101930003C01F1012085318542855385C701B601FF
:1019400050D69B01AC01C301B201CAD329813A81AF
:101950004B815C81F101208B318B428B538B28961C
:101960000FB6F894DEBF0FBECDBFDF91CF911F91B0
:101970000F91FF90EF90DF90CF90BF90AF909F902E
:101980008F907F906F905F904F903F902F90089531
:10199000E0E9F0E080818E7F8083808182608083B7
:1019A000A1E9B0E08C9188618C936B9A88EB9BE005
:1019B00090939900809398008FE39CE9909397000F
:1019C000809396008081806880830895E1E9F0E04B
:1019D00020812260208320812A7F208320E030E044
:1019E00044EB52E44AD420E030E04AEF54E4F9D525
:1019F000ACD46854744F709399006093980080E061
:101A00000895E0E2F1E080818C7F8083E1E2F1E003
:101A10008081877F80830895E1E2F1E080818260A8
:101A2000808380818A7F80830895609124017091F2
:101A3000250180E090E0BAD420E03FEF4FE757E483
:101A40001CD42DEB37E346E05DE3CBC510922501B6
:101A5000109224010895E0EAF0E080818C7F808379
:101A6000E1EAF0E08081877F808384ED90E39093CA
:101A7000AB008093AA00E2E7F0E08081846080837D
:101A80000895E1EAF0E080818360808380818B7F2C
:101A9000808308951F920F920FB60F9211240BB6F8
:101AA0000F922F938F939F93EF93FF938091C0009A
:101AB0009091C6008871E0910303EF5FEF71209170
:101AC0000203E21739F0E0930303F0E0EA5FFC4F12
:101AD000908301C082E080930103FF91EF919F9179
:101AE0008F912F910F900BBE0F900FBE0F901F90F4
:101AF00018951F920F920FB60F9211240BB60F92EA
:101B00008F939F93EF93FF9390910503809104032C
:101B1000981769F0E0910403EF5FEF71E09304031D
:101B2000F0E0EA5DFC4F80818093C60005C08091A3
:101B3000C1008F7D8093C100FF91EF919F918F91A4
:101B40000F900BBE0F900FBE0F901F901895109224
:101B5000050310920403109203031092020397FFEF
:101B600004C022E02093C0009F779093C50080932B
:101B7000C40088E98093C1008091C2008F73809374
:101B8000C2008091C2008F7C8093C2008091C2000D
:101B9000877F8093C2008091C20086608093C200DC
:101BA0008091C1008B7F8093C100089590910303C1
:101BB00080910203981791F0E0910203EF5FEF71BB
:101BC000E0930203F0E0EA5FFC4F20818091010383
:101BD00090E0982F8827820F911D089580E091E072
:101BE0000895909105039F5F9F71209104039217C0
:101BF000E1F3E92FF0E0EA5DFC4F80839093050369
:101C00008091C10080628093C1000895CF93DF93DB
:101C1000EC018991882311F0E4DFFBCFDF91CF91B4
:101C200008950F931F93CF93DF93CDB7DEB76497DB
:101C30000FB6F894DEBF0FBECDBF8E010F5F1F4FF2
:101C400025E044E0A2D5C801E1DF64960FB6F89420
:101C5000DEBF0FBECDBFDF91CF911F910F910895D1
:101C6000809103032091020390E04F96821B91091B
:101C70006FE170E019C21F920F920FB60F921124FC
:101C80000BB60F922F938F939F93EF93FF938091B7
:101C9000C8009091CE008871E091BE02EF5FEF71B5
:101CA0002091BD02E21739F0E093BE02F0E0EF535D
:101CB000FD4F908301C082E08093BC02FF91EF91C1
:101CC0009F918F912F910F900BBE0F900FBE0F9091
:101CD0001F9018951F920F920FB60F9211240BB6FA
:101CE0000F928F939F93EF93FF939091C0028091F7
:101CF000BF02981769F0E091BF02EF5FEF71E093C8
:101D0000BF02F0E0EF51FD4F80818093CE0005C00F
:101D10008091C9008F7D8093C900FF91EF919F91C1
:101D20008F910F900BBE0F900FBE0F901F901895C4
:101D30001F920F920FB60F9211240BB60F922F9392
:101D40008F939F93EF93FF938091D0009091D60053
:101D50008871E0917902EF5FEF7120917802E217CC
:101D600039F0E0937902F0E0E458FD4F908301C030
:101D700082E080937702FF91EF919F918F912F9155
:101D80000F900BBE0F900FBE0F901F9018951F92D3
:101D90000F920FB60F9211240BB60F928F939F9351
:101DA000EF93FF9390917B0280917A02981769F0EC
:101DB000E0917A02EF5FEF71E0937A02F0E0E4568F
:101DC000FD4F80818093D60005C08091D1008F7D2A
:101DD0008093D100FF91EF919F918F910F900BBE57
:101DE0000F900FBE0F901F9018951F920F920FB675
:101DF0000F9211240BB60F922F938F939F93EF9313
:101E0000FF9380913001909136018871E091340206
:101E1000EF5FEF7120913302E21739F0E093340263
:101E2000F0E0E95CFD4F908301C082E080933202D4
:101E3000FF91EF919F918F912F910F900BBE0F907B
:101E40000FBE0F901F9018951F920F920FB60F9212
:101E500011240BB60F928F939F93EF93FF93909162
:101E6000360280913502981769F0E0913502EF5FF4
:101E7000EF71E0933502F0E0E95AFD4F80818093E5
:101E8000360105C0809131018F7D80933101FF9132
:101E9000EF919F918F910F900BBE0F900FBE0F90FF
:101EA0001F9018951092360210923502109234024B
:101EB0001092330297FF04C022E0209330019F77F5
:101EC000909335018093340188E9809331018091AA
:101ED00032018F7380933201809132018F7C809325
:101EE000320180913201877F8093320180913201EB
:101EF000866080933201809131018B7F8093310124
:101F000008959091340280913302981791F0E091F6
:101F10003302EF5FEF71E0933302F0E0E95CFD4FD5
:101F200020818091320290E0982F8827820F911DA6
:101F3000089580E091E00895909136029F5F9F712F
:101F4000209135029217E1F3E92FF0E0E95AFD4FB5
:101F500080839093360280913101806280933101B9
:101F60000895809134022091330290E04F96821BB5
:101F700091096FE170E098C08F929F92AF92BF92EB
:101F8000CF92DF92EF92FF920F931F93CF93DF9345
:101F90006B01D82FC92F49015A0168D187FD0CC0A8
:101FA0009701A801B6018D2F9C2F10D3181634F07D
:101FB00076010D2F1C2F02C074018501B701C801E5
:101FC000DF91CF911F910F91FF90EF90DF90CF9015
:101FD000BF90AF909F908F9008954F925F926F92B5
:101FE0007F92AF92BF92CF92DF92EF92FF920F93C8
:101FF0001F93CF93DF93CDB7DEB728970FB6F89432
:10200000DEBF0FBECDBF29013A01E982FA820B8300
:102010001C8365D06D837E838F839887A301920193
:10202000C801B7015CD09B01AC016D817E818F81BD
:10203000988523D12B013C01A60195016A8D7B8DEA
:102040008C8D9D8D4CD09B01AC01C301B201C9D2D6
:10205000A601950145D028960FB6F894DEBF0FBEB5
:10206000CDBFDF91CF911F910F91FF90EF90DF9047
:10207000CF90BF90AF907F906F905F904F900895FA
:10208000AA1BBB1B51E107C0AA1FBB1FA617B7079E
:1020900010F0A61BB70B881F991F5A95A9F78095BA
:1020A0009095BC01CD01089597FB072E16F400947E
:1020B00006D077FD08D0E4DF07FC05D03EF490950C
:1020C00081959F4F0895709561957F4F0895EE0F0C
:1020D000FF1F881F8BBF0790F691E02D1994505871
:1020E000BB27AA270ED027C2F0D130F0F5D120F0BF
:1020F00031F49F3F11F41EF4C0C10EF4E095E7FBEC
:10210000B6C1E92F3AD280F3BA1762077307840782
:10211000950718F071F49EF552C20EF4E0950B2E5F
:10212000BA2FA02D0B01B90190010C01CA01A00129
:102130001124FF27591B99F0593F50F4503E68F184
:102140001A16F040A22F232F342F4427585FF3CFC5
:10215000469537952795A795F0405395C9F77EF496
:102160001F16BA0B620B730B840BBAF09150A1F0DF
:10217000FF0FBB1F661F771F881FC2F70EC0BA0F65
:10218000621F731F841F48F4879577956795B795ED
:10219000F7959E3F08F0B3CF9395880F08F09927E5
:1021A000EE0F97958795089590D158F080E891E0CB
:1021B00009F49EEF91D128F040E851E059F45EEF28
:1021C00009C05BC1FCC1E92FE078D7D168F3092EC3
:1021D000052AC1F3261737074807590738F00E2E8E
:1021E00007F8E02569F0E025E0640AC0EF6307F82E
:1021F000009407FADB01B9019D01DC01CA01AD01C0
:10220000EF934AD098D10AD05F91552331F02BED4E
:102210003FE049E450FD49EC63CF0895DF93DD27AB
:10222000B92FBF7740E85FE31616170648075B072C
:1022300010F4D92FCFD19F938F937F936F937CD23C
:10224000E4EEF0E01DD177D12F913F914F915F9156
:10225000D4D1DD2349F09058A2EA2AED3FE049ECC1
:102260005FE3D0785D274DDFDF9165C1DCD008F4F6
:1022700081E0089539D1E3956FC10CD05CC12CD1B8
:1022800040F023D130F021F45F3F19F0F0C051113C
:1022900097C1F3C072D198F39923C9F35523B1F3D1
:1022A000951B550BBB27AA2762177307840738F0C5
:1022B0009F5F5F4F220F331F441FAA1FA9F333D024
:1022C0000E2E3AF0E0E830D091505040E695001CD8
:1022D000CAF729D0FE2F27D0660F771F881FBB1F94
:1022E000261737074807AB07B0E809F0BB0B802D6E
:1022F000BF01FF2793585F4F2AF09E3F510568F0BA
:10230000B6C05EC15F3FECF3983EDCF386957795EF
:102310006795B795F7959F5FC9F7880F911D9695BB
:10232000879597F90895E1E0660F771F881FBB1F17
:10233000621773078407BA0720F0621B730B840BC4
:10234000BA0BEE1F88F7E095089504D06894B11198
:1023500037C108951AD188F09F5790F0B92F992767
:10236000B751A0F0D1F0660F771F881F991F1AF0A0
:10237000BA95C9F712C0B13081F021D1B1E008950A
:102380001EC1672F782F8827B85F39F0B93FCCF38B
:10239000869577956795B395D9F73EF49095809596
:1023A000709561957F4F8F4F9F4F0895E89409C0B6
:1023B00097FB3EF490958095709561957F4F8F4F78
:1023C0009F4F9923A9F0F92F96E9BB279395F6958E
:1023D000879577956795B795F111F8CFFAF4BB0F0C
:1023E00011F460FF1BC06F5F7F4F8F4F9F4F16C070
:1023F000882311F096E911C0772321F09EE8872FFA
:10240000762F05C0662371F096E8862F70E060E0B5
:102410002AF09A95660F771F881FDAF7880F96952E
:10242000879597F90895990F0008550FAA0BE0E8D2
:10243000FEEF16161706E807F907C0F01216130686
:10244000E407F50798F0621B730B840B950B39F4C6
:102450000A2661F0232B242B252B21F408950A262C
:1024600009F4A140A6958FEF811D811D089597F96C
:102470009F6780E870E060E008959FEF80EC08952A
:10248000DF93CF931F930F93FF92EF92DF927B0125
:102490008C01689405C0DA2EEF01AFD0FE01E894FC
:1024A000A5912591359145915591AEF3EF0129DE26
:1024B000FE019701A801DA9479F7DF90EF90FF9081
:1024C0000F911F91CF91DF91089500240A94161661
:1024D000170618060906089500240A941216130612
:1024E000140605060895C9CF50D0E8F3E894E0E05B
:1024F000BB279F57F0F02AED3FE049EC06C0EE0FF6
:10250000BB0F661F771F881F28F0B23A6207730758
:10251000840728F0B25A620B730B840BE3959A95EB
:1025200072F7803830F49A95BB0F661F771F881FAB
:10253000D2F7904806C1092E0394000C11F48823A9
:1025400052F0BB0F40F4BF2B11F460FF04C06F5F6B
:102550007F4F8F4F9F4F0895EF93E0FF06C0A2EA91
:102560002AED3FE049EC5FEBCCDDE5DF0F90039413
:1025700001FC9058E1E1F1E0F7C057FD9058440F9D
:10258000551F59F05F3F71F04795880F97FB991FD2
:1025900061F09F3F79F0879508951216130614068F
:1025A000551FF2CF4695F1DF08C01616170618061C
:1025B000991FF1CF86957105610508940895E894F7
:1025C000BB2766277727CB0197F908952CDF08F4FE
:1025D0008FEF08959B01AC0160E070E080E89FE31D
:1025E0004CCE0BD0A8CF71DF28F076DF18F0952302
:1025F00009F03DCF42CF1124E3CFBFDFA0F3959F79
:10260000D1F3950F50E0551F629FF001729FBB27D9
:10261000F00DB11D639FAA27F00DB11DAA1F649F85
:102620006627B00DA11D661F829F2227B00DA11D38
:10263000621F739FB00DA11D621F839FA00D611DBE
:10264000221F749F3327A00D611D231F849F600DDF
:10265000211D822F762F6A2F11249F5750408AF018
:10266000E1F088234AF0EE0FFF1FBB1F661F771FA4
:10267000881F91505040A9F79E3F510570F0F7CE4A
:102680009FCF5F3FECF3983EDCF386957795679597
:10269000B795F795E7959F5FC1F7FE2B880F911DC2
:1026A0009695879597F908959F931EDF0F9007FCE5
:1026B000EE5F52CF11F40EF4E0CE41C066DFD0F3EE
:1026C0009923D9F3CEF39F57550B87FF46D00024AB
:1026D000A0E640EA900180585695979528F4805CD2
:1026E000660F771F881F20F026173707480730F43A
:1026F000621B730B840B202931294A2BA695179452
:102700000794202531254A2758F7660F771F881F21
:1027100020F026173707480730F4620B730B840B41
:10272000200D311D411DA09581F7B901842F9158CD
:10273000880F9695879508959B01AC0152CF9F3FD6
:1027400031F0915020F4879577956795B795880F6C
:10275000911D9695879597F9089591505040660F71
:10276000771F881FD2F708959F938F937F936F935E
:10277000FF93EF939B01AC0134DFEF91FF9180DE7B
:102780002F913F914F915F912CCFEF920F931F9319
:10279000CF93DF93E80147FD02C034E001C034E18C
:1027A000042E000C550B57FF03C05195419551095C
:1027B000E32E022F242FAE0107D0CE01DF91CF915F
:1027C0001F910F91EF9008958F929F92AF92BF92B9
:1027D000CF92DF92EF92FF920F931F93CF93DF93ED
:1027E000CDB7DEB729970FB6F894DEBF0FBECDBFC9
:1027F0006A01122FB02E2BE3201720F0FF24F39450
:10280000F00E02C02CE3F22E0F2D27E0AE014F5F39
:102810005F4F50D1BC014981842F8970813031F0E4
:10282000E1FC06C0E0FE06C090E205C09DE203C0E8
:102830009BE201C090E05E2D507143FF3CC09111BE
:1028400002C083E001C084E0811718F4212F281B07
:1028500001C020E051110BC0F601822F30E2882325
:1028600019F031938150FBCFC20ED11C20E0992387
:1028700029F0D6019C93F60131966F01C6010396AB
:10288000E2FE0AC03EE4D6013C9341E411964C932B
:10289000119712963C9306C03EE6F601308341E65E
:1028A00041833283FC01322F40E2332309F442C0DA
:1028B00041933150FACF42FF44C0911102C083E0EE
:1028C00001C084E0811718F4212F281B01C020E0EB
:1028D00051110BC0F601822F30E2882319F0319399
:1028E0008150FBCFC20ED11C20E0992329F0D601E4
:1028F0009C93F60131966F01C6010396E2FE0BC070
:1029000039E4D6013C933EE411963C93119736E4AA
:1029100012963C9307C039E6F60130833EE63183D8
:1029200036E63283FC01322F40E2332319F0419323
:102930003150FBCFFC01E20FF11D10828EEF9FEFB3
:10294000A6C021E030E0911102C020E030E0161670
:1029500017061CF4FB01319602C0E1E0F0E02E0FF7
:102960003F1FBB2021F0EB2DF0E0319602C0E0E0EC
:10297000F0E02E0F3F1FE12FF0E02E173F071CF471
:10298000121B212F01C020E08E2D887159F4F60111
:10299000822F30E2882319F031938150FBCFC20E91
:1029A000D11C20E0992329F0D6019C93F6013196A1
:1029B0006F0151110BC0F601822F90E3882319F0AB
:1029C00091938150FBCFC20ED11C20E00F2D060F3A
:1029D0009A81342F307144FF03C0913309F40150C0
:1029E000101624F4093018F008E001C001E0AB0132
:1029F00077FF02C040E050E0FB01E41BF50BA1E0D3
:102A0000B0E0AC0FBD1FEA0FFB1F8EE2A82E4B01FA
:102A1000801A91080B2D10E01195019511094F3F77
:102A2000BFEF5B0721F4D601AC9211966D016417DC
:102A300075072CF08416950614F4818101C080E39B
:102A4000415051093196D60111967D014017510729
:102A500024F0D6018C936701E2CF6417750739F42F
:102A6000963320F4953319F4311101C081E3F60156
:102A70008083F701822F90E2882319F0919381508F
:102A8000FBCFF701E20FF11D108280E090E0299664
:102A90000FB6F894DEBF0FBECDBFDF91CF911F916F
:102AA0000F91FF90EF90DF90CF90BF90AF909F90ED
:102AB0008F900895283008F027E03327DA01990F26
:102AC000311D87FD916000966105710539F4326012
:102AD0002E5F3D9330E32A95E1F708959F3F30F054
:102AE00080387105610509F03C5F3C5F3D93913092
:102AF00008F08068911DDF93CF931F930F93FF928F
:102B0000EF92192F987F9695E92F96959695E90F54
:102B1000FF27E657FE4F99273327EE24FF24A7010E
:102B2000E70105900894079428F4360FE71EF81E75
:102B3000491F511D660F771F881F991F0694A1F723
:102B40000590079428F4E70EF81E491F561FC11D73
:102B5000770F881F991F661F0694A1F705900794A9
:102B600028F4F80E491F561FC71FD11D880F991F43
:102B7000661F771F0694A1F70590079420F4490F6C
:102B8000561FC71FD81F990F661F771F881F0694EF
:102B9000A9F784911095177041F0D695C795579570
:102BA0004795F794E7941A95C1F7E0E3F1E068944C
:102BB0001590159135916591959105907FE27395EA
:102BC000E118F10A430B560BC90BD009C0F7E10C11
:102BD000F11E431F561FC91FD01D7EF4703311F420
:102BE0008A95E6CFE894015030F0080F0AF40027E8
:102BF000021708F4202F2395022F7A3328F079E367
:102C00007D932A95E9F710C07D932A9589F606945D
:102C100097956795379517951794E118F10A430B27
:102C2000560BC90BD00998F023957E9173957A3392
:102C300008F070E37C932013B8F77E9170617D9368
:102C400030F0839571E37D9370E32A95E1F71124C9
:102C5000EF90FF900F911F91CF91DF91992787FD02
:082C600090950895F894FFCF50
:00000001FF
