:1000000015C1000043C1000041C100003FC1000014
:100010003DC1000051C100009CC1000037C100007B
:1000200035C1000033C1000031C100002FC1000004
:100030002DC100002BC1000029C1000027C1000014
:1000400025C1000023C1000021C100001FC1000024
:100050001DC100001BC1000019C1000017C1000034
:1000600015C100000C94F0090C941F0A0FC1000088
:100070000DC100000BC1000009C1000007C1000054
:1000800005C1000003C1000001C10000FFC0000065
:100090000C94BB0A0C94EA0AF9C00000F7C00000F7
:1000A000F5C00000F3C00000F1C000009FC10000D7
:1000B000EDC00000EBC00000E9C00000E7C0000098
:1000C000E5C00000E3C00000E1C000000C94180B84
:1000D0000C94470BDBC000000C94750B0C94A40B24
:1000E000D5C00000084AD73B3BCE016E84BCBFFDA3
:1000F000C12F3D6C74319ABD56833DDA3D00C77FF8
:1001000011BED9E4BB4C3E916BAAAABE0000008090
:100110003F05A84CCDB2D44EB93836A9020C50B91F
:10012000918688083CA6AAAA2ABE000000803F004B
:1001300000407A10F35A00A0724E18090010A5D49E
:10014000E80000E87648170000E40B54020000CAFB
:100150009A3B000000E1F505000080969800000041
:1001600040420F000000A0860100000010270000A0
:100170000000E803000000006400000000000A0026
:10018000000000000100000000002C76D888DC6729
:100190004F0823DFC1DFAE59E1B1B796E5E3E45381
:1001A000C63AE651997696E8E6C28426EB898C9B9E
:1001B00062ED407C6FFCEFBC9C9F40F2BAA56FA53E
:1001C000F490055A2AF75C936B6CF9676DC11BFCC0
:1001D000E0E40D47FEF520E6B500D0ED902E0300DB
:1001E000943577050080841E080000204E0A000028
:1001F00000C80C333333330F986E12831141EF8DE7
:100200002114893BE65516CFFEE6DB18D1844B3826
:100210001BF77C1D901DA4BBE424203284725E2257
:100220008100C9F124ECA1E53D27910511241FBEF1
:10023000CFEFD1E2DEBFCDBF00E00CBF12E0A0E007
:10024000B2E0E6E6F3E200E00BBF02C007900D92D9
:10025000A032B107D9F723E0A0E2B2E001C01D92BD
:10026000AC35B207E1F711E0C6E1D1E000E006C02D
:1002700021970109802FFE010E94E60BC531D107AD
:1002800080E00807A9F779D10C94B111B9CE81B1FA
:100290008A7F81B98DB18F7C8DB9EAE6F0E08081EB
:1002A0008360808380818C6080838DB380638DBB0D
:1002B0000E94D1090C94E7091F920F920FB60F927A
:1002C00011240BB60F922F933F934F935F936F932D
:1002D0007F938F939F93AF93BF93EF93FF93009B75
:1002E0000FC060912C0270912D0280912E0290918E
:1002F0002F0220E030E040E85FE30E94EF0B0EC0E9
:1003000060912C0270912D0280912E0290912F020B
:1003100020E030E040E85FE30E94EE0B60932C02A7
:1003200070932D0280932E0290932F02FF91EF91F4
:10033000BF91AF919F918F917F916F915F914F91FD
:100340003F912F910F900BBE0F900FBE0F901F90FB
:1003500018951F920F920FB60F9211240BB60F92A1
:100360002F933F934F935F936F937F938F939F93BD
:10037000AF93BF93EF93FF93029B0FC06091300246
:1003800070913102809132029091330220E030E08E
:1003900040E85FE30E94EF0B0EC060913002709165
:1003A0003102809132029091330220E030E040E847
:1003B0005FE30E94EE0B60933002709331028093F2
:1003C000320290933302FF91EF91BF91AF919F91D1
:1003D0008F917F916F915F914F913F912F910F90EE
:1003E0000BBE0F900FBE0F901F9018951F920F928B
:1003F0000FB60F9211240BB60F928F929F92AF926D
:10040000BF92CF92DF92EF92FF922F933F934F9341
:100410005F936F937F938F939F93AF93BF93CF938C
:10042000DF93EF93FF93C0E2D2E08C859D85AE858C
:10043000BF85BC01CD01905827E230EA49E85CE372
:100440000E94700E2DEC3CEC4CE45DE30E94BC0C71
:100450006C837D838E839F83688979898A899B8950
:1004600027E230EA49E85CE30E94700E2DEC3CEC98
:100470004CE45DE30E94BC0C688779878A879B8780
:100480006C817D818E819F81288539854A855B8538
:100490000E94EF0B20E030E040E05FE30E94700E2E
:1004A000688F798F8A8F9B8F6C897D898E899F89D0
:1004B000888C998CAA8CBB8C2AE939E949E15FE3E5
:1004C0000E94700E6B017C012CEC3CEC4CEC5EE36A
:1004D000C501B4010E94700E9B01AC01C701B601B9
:1004E0000E94EF0B688F798F8A8F9B8F888D998DF3
:1004F000AA8DBB8D8C8B9D8BAE8BBF8B688D798DC0
:100500008A8D9B8DC880D980EA80FB8022E03BE207
:1005100047E05DE30E94700EA70196010E94EF0B79
:10052000688379838A839B831C861D861E861F862B
:10053000188A198A1A8A1B8A1092A5001092A400A0
:10054000FF91EF91DF91CF91BF91AF919F918F91EB
:100550007F916F915F914F913F912F91FF90EF901D
:10056000DF90CF90BF90AF909F908F900F900BBE79
:100570000F900FBE0F901F901895CF93DF93CDB7BC
:10058000DEB7CC57D1090FB6F894DEBF0FBECDBF92
:1005900080E292E05CD387E690E07FD7789477DEC4
:1005A00027D4813029F480910B01816080930B0165
:1005B00097D6CDD6D7D62FEF83ED90E3215080404C
:1005C0009040E1F700C000008E01075C1F4F60E023
:1005D000C8014ED4D0D660E070E080E091ECA4D6A3
:1005E000C9ACDAACEBACFCACDE01DD966796BFAF14
:1005F000AEAF679721968CAC9DACAEACBFAC2197EB
:10060000BFEF23ED80E3B15020408040E1F700C010
:100610000000A5019401C501B4010E94EF0B2BE776
:1006200034E14EE65FE30E94700E2B013C0129E2AB
:100630003CE54FE85DE3C501B4010E94700E9B01EB
:10064000AC01C301B2010E94EF0B6B966CAF7DAFA2
:100650008EAF9FAF6B97A7019601C701B6010E94AD
:10066000EF0B26E636E646E65FE30E94700E4B018E
:100670005C012DEC3CEC4CEC5DE3C701B6010E9443
:10068000700E9B01AC01C501B4010E94EF0B2B0160
:100690003C0182D686E696E6A6EEBEE38D8F9E8F5F
:1006A000AF8FB8A38DEC9CECACE4BDE389A39AA317
:1006B000ABA3BCA38AE097EDA3EABCE38DA39EA302
:1006C000AFA3B8A78AE999E9A9E1BFE389A79AA7E7
:1006D000ABA7BCA71DA61EA61FA618AA19AA1AAAD0
:1006E0001BAA1CAA1DAA1EAA1FAA18AE4CEE51E5F1
:1006F00064E771E449835A836B837C831D821E8285
:100700001F82188643EC55EF68E27FE349875A87DA
:100710006B877C878D879E87AF87B88B198A1A8AEB
:100720001B8A1C8A1D8A1E8A1F8A188E198E1A8E91
:100730001B8E1C8EA7961CAE1DAE1EAE1FAEA797BD
:10074000212C312CEC960FAFEC97ED961FAFED9767
:1007500060E0EC968FADEC97ED969FADED9788D36A
:100760000AD66F966CAF7DAF8EAF9FAF6F9714D6E2
:1007700029968CAD9DADAEADBFAD2997AB968CAF34
:100780009DAFAEAFBFAFAB972D968CAD9DADAEAD6F
:10079000BFAD2D97AF968CAF9DAFAEAFBFAFAF974C
:1007A000C301B2010E94D30EE3966CAF7DAF8EAF52
:1007B0009FAFE3976B966CAD7DAD8EAD9FAD6B97A4
:1007C0000E94D30E4B015C016B966CAD7DAD8EAD7E
:1007D0009FAD6B970E94B90C6B017C01C301B20104
:1007E0000E94B90CE7966CAF7DAF8EAF9FAFE797D5
:1007F000A5019401E3966CAD7DAD8EAD9FADE39701
:100800000E94700EA70196010E94BC0CAB962CAD05
:100810003DAD4EAD5FADAB970E94700E25962CADF1
:100820003DAD4EAD5FAD2597DAD7EB966CAF7DAFA2
:100830008EAF9FAFEB97E7962CAD3DAD4EAD5FAD64
:10084000E797C501B4010E94700EA70196010E94AE
:10085000BC0CAF962CAD3DAD4EAD5FADAF970E94D9
:10086000700E9B01AC01EB966CAD7DAD8EAD9FAD76
:10087000EB97B5D790586F962CAD3DAD4EAD5FADB3
:100880006F970E94700EA3019201A9D728E431EE60
:100890004AE75FE30E94700E6B017C012AE037EDAE
:1008A00043EA5CE369AD7AAD8BAD9CAD0E94700EFE
:1008B000A701960194D72B013C01E7962CAD3DADE5
:1008C0004EAD5FADE797AB966CAD7DAD8EAD9FAD98
:1008D000AB970E94700E6B017C01E3962CAD3DAD91
:1008E0004EAD5FADE397AF966CAD7DAD8EAD9FAD78
:1008F000AF970E94700E9B01AC01C701B6016ED785
:1009000090586F962CAD3DAD4EAD5FAD6F970E9488
:10091000700E6B962CAD3DAD4EAD5FAD6B975FD756
:1009200023E333E343E75FE30E94700E6B017C0136
:100930002DEC3CEC4CE45DE321966CAD7DAD8EADD1
:100940009FAD21970E94700EA701960148D76B9624
:100950006CAF7DAF8EAF9FAF6B97C10166E070E06B
:1009600021D7892B59F54091380250913902609175
:100970003A0270913B02812C912C88E4A82E82E4EB
:10098000B82EA396CCACDDACEEACFFACA39700E0E8
:1009900010E09801CE014D96D5D32DEC3CEC4CE403
:1009A0005FE31CD7A7966CAF7DAF8EAF9FAFA797C5
:1009B000A3961CAE1DAE1EAE1FAEA3972CEC3EE25E
:1009C00045E652E4C301B2010E94700EAB01BC01C6
:1009D000812C912C54016F96CCACDDACEEACFFAC0D
:1009E0006F97A7960CAD1DAD2EAD3FADA797CE016D
:1009F0000196A8D37B018C0120E030E048EC52EC5A
:100A0000B4D787FD0FC020E030E048EC52E4B701D6
:100A1000C8010E94650E18164CF4E12CF12C08EC6C
:100A200012E404C0E12CF12C08EC12ECB701C8016F
:100A30000E94240D80E292E087D1AFE3BCE91197D8
:100A4000F1F700C00000B9EC2B16310409F580E085
:100A500092E067D5A7966CAD7DAD8EAD9FADA797A3
:100A60006BD58AE049D58EE092E05BD56091380283
:100A70007091390280913A0290913B025DD58AE0F3
:100A80003BD58AE039D58AE037D5212C312C03C0FB
:100A90002FEF221A320A6F962CAD3DAD4EAD5FADF1
:100AA0006F97A3966CAD7DAD8EAD9FADA39797D696
:100AB000A3966CAF7DAF8EAF9FAFA39749CE8F92B9
:100AC0009F92AF92BF92CF92DF92EF92FF920F93DD
:100AD0001F93CF93DF936B01D82FC92F49015A0180
:100AE00044D787FD0DC09701A801B6018D2F9C2F1B
:100AF0000E94650E181634F076010D2F1C2F02C0CF
:100B000074018501B701C801DF91CF911F910F9149
:100B1000FF90EF90DF90CF90BF90AF909F908F901D
:100B200008958F92AF92CF92EF920F931F9386E02A
:100B3000882E94E0A92E22E0C22EE12C08E210E0DB
:100B400028E230E047E250E067E270E080E292E0C5
:100B500007D01F910F91EF90CF90AF908F90089595
:100B60008F92AF92CF92EF920F931F93CF93DF9319
:100B7000CDB7DEB7FC01108211821282138210867B
:100B8000118612861386108A118A128A138A148A91
:100B9000158A168A178A108E118E128E138E758FF3
:100BA000648F578F468F31A320A313A302A3E4A21F
:100BB000C5A2A6A287A2DF91CF911F910F91EF90BE
:100BC000CF90AF908F900895DC01413461F04234B2
:100BD000E1F59296ED91FC91939796962C919697CC
:100BE00097963C9109C09096ED91FC9191979496BF
:100BF0002C91949795963C9167FF13C0408181E0BA
:100C000090E0BC0101C0660F2A95EAF7262F2095D7
:100C100024232083208101C0880F3A95EAF7822B94
:100C200011C0608181E090E0AC0101C0440F2A95C1
:100C3000EAF7462B4083208101C0880F3A95EAF7F6
:100C400080958223808380E0089581E00895CF938A
:100C5000DF93EC0184B1806684B910928900109210
:100C6000880010928B0010928A00E0E8F0E080810A
:100C70008068808380818F7B808380818062808395
:100C800080818F7E8083808181608083A1E8B0E055
:100C90008C9188608C9380818D7F80838C91826021
:100CA0008C938C918A7F8C93EC8DFD8D308181E0CB
:100CB00090E0BC010CA002C0660F771F0A94E2F717
:100CC000AC010DA002C0440F551F0A94E2F7262F75
:100CD000242B232B2083EE8DFF8D2081AC010EA0D1
:100CE00002C0440F551F0A94E2F70FA002C0880FFC
:100CF000991F0A94E2F7842B822B808341E461E000
:100D0000CE0162DF42E461E0CE015EDF80E0DF9190
:100D1000CF910895242F042E000C330BC901860FA8
:100D2000911D8217930714F4141654F021503F4F6D
:100D30002817390714F447FD05C0842F860F08953E
:100D40008FEF089580E008950F931F93CF938C0148
:100D5000C62F41E416163CF461E036DF42E461E060
:100D6000C80132DF07C06FEF2FDF42E46FEFC80129
:100D70002BDFC195C4363CF08FEF90E09093890053
:100D80008093880010C0CC0FC95C40E06C2FC80174
:100D9000C1DF90E090938900809388004CE06C2F35
:100DA000C801B8DF90E090938B0080938A00CF91C8
:100DB0001F910F9108958091BC0087FFFCCF08958B
:100DC00084EA8093BC00F7CF8093BB0084E88093D3
:100DD000BC00F1CF84EC8093BC00EDDF8091BB00C0
:100DE000089584E88093BC00E6DF8091BB000895FD
:100DF000CF93DF9383E08093B8008091B9008C7F1C
:100E00008093B9008091BC0084608093BC00809185
:100E10000A01816080930A01D3DF80EDD5DF8BE684
:100E2000D3DF81E0D1DFC4E9C093BC00C9DF80ED2E
:100E3000CBDF85E7C9DFC4DF81EDC6DFD2DFD82F86
:100E4000C093BC00BDDF80EDBFDF89E1BDDF87E07F
:100E5000BBDF80E0B9DF80E0B7DF80E0B5DFC093C3
:100E6000BC0081E0D83609F480E0DF91CF9108958D
:100E70002F923F924F925F926F927F928F929F92AA
:100E8000AF92BF92CF92DF92EF92FF920F931F9398
:100E9000CF93DF93CDB7DEB76E970FB6F894DEBF72
:100EA0000FBECDBF8C01762E8BDF80ED8DDF8BE307
:100EB0008BDF86DF81ED88DFCE0101967C016E013C
:100EC0009EE0C90ED11C86DFD7018D937D01AC1544
:100ED000BD05C9F786DF8E8784E98093BC006981F0
:100EE0007A81762767277627072E000C880B990BC7
:100EF000DED54B015C016B817C81762767277627E5
:100F0000072E000C880B990BD2D51B012C016D818B
:100F10007E81762767277627072E000C880B990B92
:100F2000C6D56B017C0169857A8576276727762788
:100F3000072E000C880B990BBAD56F87788B898B9D
:100F40009A8B6B857C85762767277627072E000C82
:100F5000880B990BACD56B8B7C8B8D8B9E8B6D85A9
:100F60007E85762767277627072E000C880B990B3E
:100F70009ED56F8B788F898F9A8F7720C9F16F817B
:100F80007885F80180829182A282B38224823582A0
:100F900046825782C086D186E286F3867627672707
:100FA0007627072E000C880B990B81D5D8011C964B
:100FB0006D937D938D939C931F978F859889A989B5
:100FC000BA89F801808B918BA28BB38B8B899C891A
:100FD000AD89BE89848B958BA68BB78B8F89988DB5
:100FE000A98DBA8D808F918FA28FB38F81E091C030
:100FF000A5019401C501B40173D66B8F7C8F8D8FD1
:101000009E8FA7019601C701B6016AD69B01AC016C
:101010006B8D7C8D8D8D9E8DE2D3CFD69B01AC01E7
:10102000C201B101A9D479D42B013C01C501B4019D
:101030009058A701960146D46B017C0120ED3FE05A
:1010400049EC5FE342D618164CF4A701960160ED17
:101050007FE089E490E4C2D36B017C0120ED3FE0A6
:1010600049EC5FEBC701B60180D487FF09C0A70137
:10107000960160ED7FE089E490ECB0D36B017C01D8
:10108000D8014D925D926D927C921397F801C482C3
:10109000D582E682F78220E030E043E053E46F85BA
:1010A000788989899A8968D428E939EF4EE85CE320
:1010B00017D6D80118966D937D938D939C931B97AB
:1010C00020E030E043E053E46B897C898D899E8980
:1010D00053D428E939EF4EE85CE302D6F80164877F
:1010E00075878687978720E030E043E053E46F8977
:1010F000788D898D9A8D40D428E939EF4EE85CE3EC
:10110000EFD5D80150966D937D938D939C93539713
:1011100080E06E960FB6F894DEBF0FBECDBFDF91B4
:10112000CF911F910F91FF90EF90DF90CF90BF90E4
:10113000AF909F908F907F906F905F904F903F9077
:101140002F9008952F923F924F925F926F927F92CD
:101150008F929F92AF92BF92CF92DF92EF92FF92C7
:101160000F931F93CF93DF93CDB7DEB728970FB6BA
:10117000F894DEBF0FBECDBF1C012A013B01C9019F
:10118000B801CD82DE82EF82F886A301920126D3D8
:1011900069837A838B839C83F1012489358946890D
:1011A00057891DD32B013C01F101648B758B868B14
:1011B000978B20E030E0A901C501B401D6D3882384
:1011C00069F0A5019401505885017401C301B20171
:1011D00076DCF101648B758B868B978BF101C4846F
:1011E000D584E684F784208D318D428D538DC701DF
:1011F000B60176D52B013C01F10120893189428964
:10120000538969817A818B819C81E8D29B01AC01F1
:10121000C301B201E4D22B013C012D813E814F81FB
:101220005885C701B601DBD29B01AC01C301B201F5
:10123000A3D36B017C01F101608F718F828F938F3B
:10124000248935894689578964817581868197818A
:1012500047D52D813E814F81588542D52B013C01D8
:10126000F101208131814281538169817A818B81B1
:101270009C8136D59B01AC01C301B201B0D22B01D8
:101280003C01F1012085318542855385C701B601B6
:1012900027D59B01AC01C301B201A1D229813A81BA
:1012A0004B815C81F101208B318B428B538B2896D3
:1012B0000FB6F894DEBF0FBECDBFDF91CF911F9167
:1012C0000F91FF90EF90DF90CF90BF90AF909F90E5
:1012D0008F907F906F905F904F903F902F900895E8
:1012E000A0E9B0E08C918E7F8C938C9182608C937E
:1012F000E1E9F0E08081886180836B9A88EB9BE074
:1013000090939900809398008FE39CE990939700C5
:10131000809396008C9180688C938081826080831A
:1013200080818A7F8083089520E030E044EB52E49E
:1013300023D320E030E04AEF54E4D2D485D368547C
:10134000744F709399006093980080E00895E0E2F4
:10135000F1E080818C7F8083E1E2F1E08081877F12
:1013600080830895E1E2F1E0808182608083808162
:101370008A7F80830895609124017091250180E027
:1013800090E093D320E03FEF4FE757E4F5D22DEB09
:1013900037E346E05DE3A4C41092250110922401D6
:1013A0000895E0EAF0E080818C7F8083E1EAF0E05C
:1013B0008081877F808384ED90E39093AB0080935E
:1013C000AA00E2E7F0E08081846080830895E1EA8A
:1013D000F0E080818360808380818B7F80830895AB
:1013E0001F920F920FB60F9211240BB60F922F93EC
:1013F0008F939F93EF93FF938091C0009091C600CD
:101400008871E0911903EF5FEF7120911803E217E3
:1014100039F0E0931903F0E0E45EFC4F908301C0E3
:1014200082E080931703FF91EF919F918F912F910D
:101430000F900BBE0F900FBE0F901F9018951F922C
:101440000F920FB60F9211240BB60F928F939F93AA
:10145000EF93FF9390911B0380911A03981769F003
:10146000E0911A03EF5FEF71E0931A03F0E0E45CA0
:10147000FC4F80818093C60005C08091C1008F7DA4
:101480008093C100FF91EF919F918F910F900BBEC0
:101490000F900FBE0F901F90189510921B03109283
:1014A0001A03109219031092180397FF04C022E048
:1014B0002093C0009F779093C5008093C40088E973
:1014C0008093C1008091C2008F738093C20080918D
:1014D000C2008F7C8093C2008091C200877F80937E
:1014E000C2008091C20086608093C2008091C100DA
:1014F0008B7F8093C100089590911B039F5F9F7124
:1015000020911A039217E1F3E92FF0E0E45CFC4F1D
:10151000808390931B038091C10080628093C100FF
:101520000895CF93DF93EC018991882311F0E4DFD4
:10153000FBCFDF91CF9108950F931F93CF93DF934C
:10154000CDB7DEB764970FB6F894DEBF0FBECDBF40
:101550008E010F5F1F4F22E044E096D4C801E1DF07
:1015600064960FB6F894DEBF0FBECDBFDF91CF916A
:101570001F910F9108951F920F920FB60F92112491
:101580000BB60F922F938F939F93EF93FF938091BE
:10159000C8009091CE008871E091D402EF5FEF71A6
:1015A0002091D302E21739F0E093D402F0E0E9523F
:1015B000FD4F908301C082E08093D202FF91EF91B2
:1015C0009F918F912F910F900BBE0F900FBE0F9098
:1015D0001F9018951F920F920FB60F9211240BB601
:1015E0000F928F939F93EF93FF939091D6028091E8
:1015F000D502981769F0E091D502EF5FEF71E093A3
:10160000D502F0E0E950FD4F80818093CE0005C007
:101610008091C9008F7D8093C900FF91EF919F91C8
:101620008F910F900BBE0F900FBE0F901F901895CB
:101630001F920F920FB60F9211240BB60F922F9399
:101640008F939F93EF93FF938091D0009091D6005A
:101650008871E0918F02EF5FEF7120918E02E217A7
:1016600039F0E0938F02F0E0EE56FD4F908301C019
:1016700082E080938D02FF91EF919F918F912F9146
:101680000F900BBE0F900FBE0F901F9018951F92DA
:101690000F920FB60F9211240BB60F928F939F9358
:1016A000EF93FF939091910280919002981769F0C7
:1016B000E0919002EF5FEF71E0939002F0E0EE5462
:1016C000FD4F80818093D60005C08091D1008F7D31
:1016D0008093D100FF91EF919F918F910F900BBE5E
:1016E0000F900FBE0F901F9018951F920F920FB67C
:1016F0000F9211240BB60F922F938F939F93EF931A
:10170000FF9380913001909136018871E0914A02F7
:10171000EF5FEF7120914902E21739F0E0934A023E
:10172000F0E0E35BFD4F908301C082E080934802CC
:10173000FF91EF919F918F912F910F900BBE0F9082
:101740000FBE0F901F9018951F920F920FB60F9219
:1017500011240BB60F928F939F93EF93FF93909169
:101760004C0280914B02981769F0E0914B02EF5FB9
:10177000EF71E0934B02F0E0E359FD4F80818093DD
:10178000360105C0809131018F7D80933101FF9139
:10179000EF919F918F910F900BBE0F900FBE0F9006
:1017A0001F901895AA1BBB1B51E107C0AA1FBB1FA6
:1017B000A617B70710F0A61BB70B881F991F5A95DD
:1017C000A9F780959095BC01CD010895EE0FFF1FFC
:1017D000881F8BBF0790F691E02D19945058BB27B6
:1017E000AA270ED027C2F0D130F0F5D120F031F485
:1017F0009F3F11F41EF4C0C10EF4E095E7FBB6C1A3
:10180000E92F3AD280F3BA17620773078407950766
:1018100018F071F49EF552C20EF4E0950B2EBA2F1B
:10182000A02D0B01B90190010C01CA01A0011124E6
:10183000FF27591B99F0593F50F4503E68F11A1692
:10184000F040A22F232F342F4427585FF3CF469523
:1018500037952795A795F0405395C9F77EF41F1645
:10186000BA0B620B730B840BBAF09150A1F0FF0F0F
:10187000BB1F661F771F881FC2F70EC0BA0F621FFB
:10188000731F841F48F4879577956795B795F795EB
:101890009E3F08F0B3CF9395880F08F09927EE0F7D
:1018A00097958795089590D158F080E891E009F4D4
:1018B0009EEF91D128F040E851E059F45EEF09C065
:1018C0005BC1FCC1E92FE078D7D168F3092E052A66
:1018D000C1F3261737074807590738F00E2E07F8C7
:1018E000E02569F0E025E0640AC0EF6307F80094A2
:1018F00007FADB01B9019D01DC01CA01AD01EF93DB
:101900004AD098D10AD05F91552331F02BED3FE0BA
:1019100049E450FD49EC63CF0895DF93DD27B92FEB
:10192000BF7740E85FE31616170648075B0710F419
:10193000D92FCFD19F938F937F936F937CD2E4EE77
:10194000F0E01DD177D12F913F914F915F91D4D18C
:10195000DD2349F09058A2EA2AED3FE049EC5FE32D
:10196000D0785D274DDFDF9165C1DCD008F481E0E0
:10197000089539D1E3956FC10CD05CC12CD140F0F2
:1019800023D130F021F45F3F19F0F0C0511197C11D
:10199000F3C072D198F39923C9F35523B1F3951B82
:1019A000550BBB27AA2762177307840738F09F5F80
:1019B0005F4F220F331F441FAA1FA9F333D00E2EEF
:1019C0003AF0E0E830D091505040E695001CCAF75C
:1019D00029D0FE2F27D0660F771F881FBB1F261721
:1019E00037074807AB07B0E809F0BB0B802DBF01F4
:1019F000FF2793585F4F2AF09E3F510568F0B6C00D
:101A00005EC15F3FECF3983EDCF386957795679572
:101A1000B795F7959F5FC9F7880F911D96958795A4
:101A200097F90895E1E0660F771F881FBB1F6217C3
:101A300073078407BA0720F0621B730B840BBA0B81
:101A4000EE1F88F7E095089504D06894B11137C16E
:101A500008951AD188F09F5790F0B92F9927B75160
:101A6000A0F0D1F0660F771F881F991F1AF0BA9562
:101A7000C9F712C0B13081F021D1B1E008951EC183
:101A8000672F782F8827B85F39F0B93FCCF3869558
:101A900077956795B395D9F73EF4909580957095B5
:101AA00061957F4F8F4F9F4F0895E89409C097FB32
:101AB0003EF490958095709561957F4F8F4F9F4F25
:101AC0009923A9F0F92F96E9BB279395F695879569
:101AD00077956795B795F111F8CFFAF4BB0F11F42C
:101AE00060FF1BC06F5F7F4F8F4F9F4F16C08823D3
:101AF00011F096E911C0772321F09EE8872F762F09
:101B000005C0662371F096E8862F70E060E02AF049
:101B10009A95660F771F881FDAF7880F9695879535
:101B200097F90895990F0008550FAA0BE0E8FEEF0A
:101B300016161706E807F907C0F012161306E40791
:101B4000F50798F0621B730B840B950B39F40A268A
:101B500061F0232B242B252B21F408950A2609F468
:101B6000A140A6958FEF811D811D089597F99F676C
:101B700080E870E060E008959FEF80EC0895DF93C7
:101B8000CF931F930F93FF92EF92DF927B018C0113
:101B9000689405C0DA2EEF01AFD0FE01E894A5915C
:101BA0002591359145915591AEF3EF0129DEFE0166
:101BB0009701A801DA9479F7DF90EF90FF900F91E9
:101BC0001F91CF91DF91089500240A9416161706ED
:101BD00018060906089500240A941216130614061E
:101BE00005060895C9CF50D0E8F3E894E0E0BB279C
:101BF0009F57F0F02AED3FE049EC06C0EE0FBB0F17
:101C0000661F771F881F28F0B23A620773078407A0
:101C100028F0B25A620B730B840BE3959A9572F716
:101C2000803830F49A95BB0F661F771F881FD2F754
:101C3000904806C1092E0394000C11F4882352F039
:101C4000BB0F40F4BF2B11F460FF04C06F5F7F4FE8
:101C50008F4F9F4F0895EF93E0FF06C0A2EA2AED51
:101C60003FE049EC5FEBCCDDE5DF0F90039401FC36
:101C70009058E1E1F1E0F7C057FD9058440F551F2F
:101C800059F05F3F71F04795880F97FB991F61F0FE
:101C90009F3F79F087950895121613061406551F75
:101CA000F2CF4695F1DF08C0161617061806991FE1
:101CB000F1CF86957105610508940895E894BB27D6
:101CC00066277727CB0197F908952CDF08F48FEF6B
:101CD00008959B01AC0160E070E080E89FE34CCE8A
:101CE0000BD0A8CF71DF28F076DF18F0952309F02C
:101CF0003DCF42CF1124E3CFBFDFA0F3959FD1F3B7
:101D0000950F50E0551F629FF001729FBB27F00DA9
:101D1000B11D639FAA27F00DB11DAA1F649F6627FE
:101D2000B00DA11D661F829F2227B00DA11D621F4D
:101D3000739FB00DA11D621F839FA00D611D221F07
:101D4000749F3327A00D611D231F849F600D211DEB
:101D5000822F762F6A2F11249F5750408AF0E1F08E
:101D600088234AF0EE0FFF1FBB1F661F771F881FD7
:101D700091505040A9F79E3F510570F0F7CE9FCF8C
:101D80005F3FECF3983EDCF3869577956795B795C2
:101D9000F795E7959F5FC1F7FE2B880F911D9695EC
:101DA000879597F908959F931EDF0F9007FCEE5FCC
:101DB00052CF11F40EF4E0CE41C066DFD0F3992388
:101DC000D9F3CEF39F57550B87FF46D00024A0E6EA
:101DD00040EA900180585695979528F4805C660FEC
:101DE000771F881F20F026173707480730F4621B3B
:101DF000730B840B202931294A2BA695179407943D
:101E0000202531254A2758F7660F771F881F20F0B5
:101E100026173707480730F4620B730B840B200D2D
:101E2000311D411DA09581F7B901842F9158880F6C
:101E30009695879508959B01AC0152CF9F3F31F055
:101E4000915020F4879577956795B795880F911DE8
:101E50009695879597F9089591505040660F771F92
:101E6000881FD2F708959F938F937F936F93FF936B
:101E7000EF939B01AC0134DFEF91FF9180DE2F9156
:101E80003F914F915F912CCFEF920F931F93CF9380
:101E9000DF93E80147FD02C034E001C034E1042EC5
:101EA000000C550B57FF03C0519541955109E32E86
:101EB000022F242FAE0107D0CE01DF91CF911F91C9
:101EC0000F91EF9008958F929F92AF92BF92CF9211
:101ED000DF92EF92FF920F931F93CF93DF93CDB7D3
:101EE000DEB729970FB6F894DEBF0FBECDBF6A01EB
:101EF000122FB02E2BE3201720F0FF24F394F00EC6
:101F000002C02CE3F22E0F2D27E0AE014F5F5F4F92
:101F100050D1BC014981842F8970813031F0E1FCBE
:101F200006C0E0FE06C090E205C09DE203C09BE251
:101F300001C090E05E2D507143FF3CC0911102C082
:101F400083E001C084E0811718F4212F281B01C011
:101F500020E051110BC0F601822F30E2882319F0E6
:101F600031938150FBCFC20ED11C20E0992329F080
:101F7000D6019C93F60131966F01C6010396E2FEED
:101F80000AC03EE4D6013C9341E411964C9311976C
:101F900012963C9306C03EE6F601308341E641834B
:101FA0003283FC01322F40E2332309F442C04193D3
:101FB0003150FACF42FF44C0911102C083E001C00A
:101FC00084E0811718F4212F281B01C020E0511153
:101FD0000BC0F601822F30E2882319F03193815033
:101FE000FBCFC20ED11C20E0992329F0D6019C938F
:101FF000F60131966F01C6010396E2FE0BC039E48B
:10200000D6013C933EE411963C93119736E4129628
:102010003C9307C039E6F60130833EE6318336E66D
:102020003283FC01322F40E2332319F041933150C7
:10203000FBCFFC01E20FF11D10828EEF9FEFA6C0D7
:1020400021E030E0911102C020E030E016161706C2
:102050001CF4FB01319602C0E1E0F0E02E0F3F1FBF
:10206000BB2021F0EB2DF0E0319602C0E0E0F0E083
:102070002E0F3F1FE12FF0E02E173F071CF4121B1D
:10208000212F01C020E08E2D887159F4F601822F96
:1020900030E2882319F031938150FBCFC20ED11C5E
:1020A00020E0992329F0D6019C93F60131966F0127
:1020B00051110BC0F601822F90E3882319F0919300
:1020C0008150FBCFC20ED11C20E00F2D060F9A814C
:1020D000342F307144FF03C0913309F401501016BE
:1020E00024F4093018F008E001C001E0AB0177FFEB
:1020F00002C040E050E0FB01E41BF50BA1E0B0E0C2
:10210000AC0FBD1FEA0FFB1F8EE2A82E4B01801AF9
:1021100091080B2D10E01195019511094F3FBFEF6C
:102120005B0721F4D601AC9211966D016417750717
:102130002CF08416950614F4818101C080E341508F
:1021400051093196D60111967D014017510724F0AF
:10215000D6018C936701E2CF6417750739F4963383
:1021600020F4953319F4311101C081E3F601808325
:10217000F701822F90E2882319F091938150FBCFD1
:10218000F701E20FF11D108280E090E029960FB672
:10219000F894DEBF0FBECDBFDF91CF911F910F919D
:1021A000FF90EF90DF90CF90BF90AF909F908F9077
:1021B0000895283008F027E03327DA01990F311D00
:1021C00087FD916000966105710539F432602E5FDC
:1021D0003D9330E32A95E1F708959F3F30F0803832
:1021E0007105610509F03C5F3C5F3D93913008F05B
:1021F0008068911DDF93CF931F930F93FF92EF920F
:10220000192F987F9695E92F96959695E90FFF27B8
:10221000E657FE4F99273327EE24FF24A701E70155
:1022200005900894079428F4360FE71EF81E491FFE
:10223000511D660F771F881F991F0694A1F70590FF
:10224000079428F4E70EF81E491F561FC11D770F8B
:10225000881F991F661F0694A1F70590079428F41C
:10226000F80E491F561FC71FD11D880F991F661FE3
:10227000771F0694A1F70590079420F4490F561F85
:10228000C71FD81F990F661F771F881F0694A9F7CD
:1022900084911095177041F0D695C795579547953D
:1022A000F794E7941A95C1F7E0E3F1E0689415908C
:1022B000159135916591959105907FE27395E1189F
:1022C000F10A430B560BC90BD009C0F7E10CF11E04
:1022D000431F561FC91FD01D7EF4703311F48A9519
:1022E000E6CFE894015030F0080F0AF400270217F7
:1022F00008F4202F2395022F7A3328F079E37D9379
:102300002A95E9F710C07D932A9589F6069497954A
:102310006795379517951794E118F10A430B560BFB
:10232000C90BD00998F023957E9173957A3308F004
:1023300070E37C932013B8F77E9170617D9330F049
:10234000839571E37D9370E32A95E1F71124EF9073
:10235000FF900F911F91CF91DF91992787FD909565
:062360000895F894FFCF80
:10236600436F6E7374616E742069733A20004D6F0B
:10237600746F722073706565642069733A2000007B
:00000001FF
