:1000000033C00000C6C00000D5C000003DC00000E5
:100010003BC0000039C0000037C0000035C0000000
:1000200033C0000031C000002FC000002DC0000010
:100030002BC0000029C0000027C0000025C0000020
:1000400023C0000021C00000F3C000001DC000005C
:100050001BC0000019C0000017C0000015C0000040
:1000600013C0000011C0000011241FBECFEFD8E064
:10007000DEBFCDBF21E0A0E0B1E001C01D92A730FE
:10008000B207E1F702D001C1BBCFCF93DF93CDB769
:10009000DEB76A970FB6F894DEBF0FBECDBFA4D00F
:1000A0009AD019861A861B861C861D861E861F8678
:1000B000188A198A1A8A85E290E09C8B8B8B9E8B1A
:1000C0008D8B1F8A81E0888F82E0898F83E08A8F01
:1000D000CE01019632D0789480E090E06A960FB617
:1000E000F894DEBF0FBECDBFDF91CF910895FC0124
:1000F000413439F04234F9F4A489B589408D218D19
:1001000004C0A289B389468927893C9181E090E0A7
:10011000BC0102C0660F771F4A95E2F7AB01432B83
:100120004C933C9101C0880F2A95EAF78095832370
:100130008C9380E0089581E00895CF93DF93EC01E4
:100140008AB180668AB917BC18BC84B5806A84BD40
:1001500084B5836084BD85B5816085BD41E461E07F
:10016000CE01C5DF42E461E0CE01C1DF8AB18AB9C8
:100170008BB18BB9E9E6F0E080818C60808380816F
:10018000836080838DB383608DBB80E0DF91CF91EE
:1001900008951F920F920FB60F9211248F938091A2
:1001A00006018F5F809306018F910F900FBE0F9015
:1001B0001F9018951F920F920FB60F9211248F93D4
:1001C000809105018F5F809305018F910F900FBE85
:1001D0000F901F90189588E08093B800ECEBF0E04A
:1001E00080818460808308951092C50083E38093AA
:1001F000C400E0ECF0E080818D7F8083A1ECB0E072
:100200008C9188618C93E2ECF0E080818F73808325
:1002100080818F7C80838081877F808380818660DE
:10022000808380818B7F80838C9180648C93089500
:100230001F920F920FB60F9211248F939F93EF93FB
:10024000FF938091C60090910101923010F48A30A2
:1002500031F41092010181E0809300010DC0E09122
:100260000101F0E0EE5FFE4F80831092000180916B
:1002700001018F5F80930101FF91EF919F918F9119
:0E0280000F900FBE0F901F901895F894FFCFAF
:00000001FF
