:1000000098C00000B9C00000B7C00000B5C0000033
:10001000B3C00000C7C0000012C10000ADC00000A6
:10002000ABC00000A9C00000A7C00000A5C0000030
:10003000A3C00000A1C000009FC000009DC0000040
:100040009BC0000099C0000097C0000095C0000050
:1000500093C0000091C000008FC000008DC0000060
:100060008BC000000C94080A0C94370A85C000006D
:1000700083C0000081C000007FC000007DC0000080
:100080007BC0000079C0000077C0000075C0000090
:100090000C94CF0A0C94FE0A6FC000006DC00000E3
:1000A0006BC0000069C0000067C0000015C10000FF
:1000B00063C0000061C000005FC000005DC00000C0
:1000C0005BC0000059C0000057C000000C942C0B0E
:1000D0000C945B0B51C000000C94890B0C94B80B72
:1000E0004BC00000084AD73B3BCE016E84BCBFFD2D
:1000F000C12F3D6C74319ABD56833DDA3D00C77FF8
:1001000011BED9E4BB4C3E916BAAAABE0000008090
:100110003F05A84CCDB2D44EB93836A9020C50B91F
:10012000918688083CA6AAAA2ABE000000803F004B
:10013000430511241FBECFEFD1E2DEBFCDBF00E0EB
:100140000CBF23E0A0E0B2E001C01D92A835B207C9
:10015000E1F710E0C9E9D0E000E006C0219701090D
:10016000802FFE010E94FA0BC839D10780E00807F2
:10017000A9F779D10C948B0F43CF81B18A7F81B9D4
:100180008DB18F7C8DB9EAE6F0E080818360808359
:1001900080818C6080838DB380638DBB0E94E90970
:1001A0000C94FF091F920F920FB60F9211240BB6F9
:1001B0000F922F933F934F935F936F937F938F9300
:1001C0009F93AF93BF93EF93FF93009B0FC06091FA
:1001D00028027091290280912A0290912B0220E03E
:1001E00030E040E85FE30E94030C0EC060912802FB
:1001F0007091290280912A0290912B0220E030E038
:1002000040E85FE30E94020C609328027093290289
:1002100080932A0290932B02FF91EF91BF91AF91AF
:100220009F918F917F916F915F914F913F912F910E
:100230000F900BBE0F900FBE0F901F9018951F923E
:100240000F920FB60F9211240BB60F922F933F937C
:100250004F935F936F937F938F939F93AF93BF93CE
:10026000EF93FF93029B0FC060912C0270912D02BF
:1002700080912E0290912F0220E030E040E85FE371
:100280000E94030C0EC060912C0270912D0280918F
:100290002E0290912F0220E030E040E85FE30E94C0
:1002A000020C60932C0270932D0280932E02909387
:1002B0002F02FF91EF91BF91AF919F918F917F910D
:1002C0006F915F914F913F912F910F900BBE0F90C7
:1002D0000FBE0F901F9018951F920F920FB60F929E
:1002E00011240BB60F928F929F92AF92BF92CF9232
:1002F000DF92EF92FF922F933F934F935F936F9311
:100300007F938F939F93AF93BF93CF93DF93EF939D
:10031000FF93CCE1D2E08C859D85AE85BF85BC0185
:10032000CD01905827E230EA49E85CE30E94840E50
:100330002DEC3CEC4CE45DE30E94D00C6C837D839F
:100340008E839F83688979898A899B8927E230EA2D
:1003500049E85CE30E94840E2DEC3CEC4CE45DE348
:100360000E94D00C688779878A879B876C817D8102
:100370008E819F81288539854A855B850E94030C83
:1003800020E030E040E05FE30E94840E688F798FC8
:100390008A8F9B8F6C897D898E899F89888C998CA7
:1003A000AA8CBB8C2AE939E949E15FE30E94840EFB
:1003B0006B017C012CEC3CEC4CEC5EE3C501B40120
:1003C0000E94840E9B01AC01C701B6010E94030C80
:1003D000688F798F8A8F9B8F888D998DAA8DBB8D21
:1003E0008C8B9D8BAE8BBF8B688D798D8A8D9B8D11
:1003F000C880D980EA80FB8022E03BE247E05DE3F1
:100400000E94840EA70196010E94030C68837983E1
:100410008A839B831C861D861E861F86188A198ADE
:100420001A8A1B8A1092A5001092A400FF91EF91E6
:10043000DF91CF91BF91AF919F918F917F916F91FC
:100440005F914F913F912F91FF90EF90DF90CF9070
:10045000BF90AF909F908F900F900BBE0F900FBEEC
:100460000F901F901895CF93DF93CDB7DEB7CC5583
:10047000D1090FB6F894DEBF0FBECDBF8CE192E07C
:1004800098D387E690E00E94650A789476DE62D47D
:10049000813029F480910B01816080930B0138D762
:1004A0001D8E1E8E1F8E18A219A21AA21BA21CA29C
:1004B0001DA21EA21FA218A68AE999E9A9E1BFE31D
:1004C00089A79AA7ABA7BCA71DA61EA61FA618AAF8
:1004D00019AA1AAA1BAA1CAA1DAA1EAA1FAA18AEEC
:1004E00040E050E060E771E449835A836B837C838A
:1004F0001D821E821F82188619861A861B861C86FC
:100500008D879E87AF87B88B198A1A8A1B8A1C8AA7
:100510001D8A1E8A1F8A188E198E1A8E1B8E1C8E9B
:100520002ED738D72FEF83ED90E3215080409040B5
:10053000E1F700C0000060E080E092E04BD433D7E8
:1005400060E070E080E091EC07D78091000290912C
:100550000102A0910202B091030289AF9AAFABAF42
:10056000BCAFC0900402D0900502E0900602F0906B
:1005700007029FEFA3EDB0E39150A040B040E1F738
:1005800000C00000A7019601C701B6010E94030C3C
:100590002BE734E14EE65FE30E94840E4B015C01E1
:1005A00029E23CE54FE85DE3C701B6010E94840EF5
:1005B0009B01AC01C501B4010E94030C29966CAFEC
:1005C0007DAF8EAF9FAF299729AD3AAD4BAD5CADF6
:1005D000CA01B9010E94030C26E636E646E65FE34F
:1005E0000E94840E6B017C012DEC3CEC4CEC5DE335
:1005F00069AD7AAD8BAD9CAD0E94840E9B01AC01C0
:10060000C701B6010E94030C21966CAF7DAF8EAF7F
:100610009FAF2197D9D6412C512C3201212C312C5E
:1006200060E080E092E0D6D3BED62D966CAF7DAF71
:100630008EAF9FAF2D97C8D680910C0290910D027E
:10064000A0910E02B0910F0225968CAF9DAFAEAF78
:10065000BFAF25978090100290901102A0901202D7
:10066000B090130221966CAD7DAD8EAD9FAD2197FC
:100670000E94E70E61966CAF7DAF8EAF9FAF619722
:1006800029966CAD7DAD8EAD9FAD29970E94E70E8A
:100690006B017C0129966CAD7DAD8EAD9FAD299728
:1006A0000E94CD0C65966CAF7DAF8EAF9FAF659706
:1006B00021966CAD7DAD8EAD9FAD21970E94CD0C86
:1006C00069966CAF7DAF8EAF9FAF6997A70196011A
:1006D00061966CAD7DAD8EAD9FAD61970E94840E2D
:1006E00065962CAD3DAD4EAD5FAD65970E94D00CCB
:1006F00025962CAD3DAD4EAD5FAD25970E94840E85
:10070000209108023091090240910A0250910B0297
:100710000E94030C6D966CAF7DAF8EAF9FAF6D974F
:1007200069962CAD3DAD4EAD5FAD6997C701B60181
:100730000E94840E65962CAD3DAD4EAD5FAD6597C4
:100740000E94D00CA50194010E94840E9B01AC0173
:100750006D966CAD7DAD8EAD9FAD6D970E94030C17
:1007600090582D962CAD3DAD4EAD5FAD2D970E94AE
:10077000840E6B017C019B01AC0169AD7AAD8BAD40
:100780009CAD0E94030C69AF7AAF8BAF9CAFA70101
:10079000960121966CAD7DAD8EAD9FAD21970E94E7
:1007A000030C22E538EB4EE75FE30E94840E6B01F9
:1007B0007C012AE037ED43EA5BE36091000270912F
:1007C000010280910202909103020E94840EA7010F
:1007D00096010E94030C21966CAF7DAF8EAF9FAF48
:1007E000219769962CAD3DAD4EAD5FAD69972596CD
:1007F0006CAD7DAD8EAD9FAD25970E94840E6B01D3
:100800007C0161962CAD3DAD4EAD5FAD6197C501EC
:10081000B4010E94840E9B01AC01C701B601F2D75E
:1008200090582D962CAD3DAD4EAD5FAD2D970E94ED
:10083000840E29962CAD3DAD4EAD5FAD2997E3D723
:1008400023E333E343E75FE30E94840E6B017C0103
:100850002DEC3CEC4CE45DE36091040270910502E8
:1008600080910602909107020E94840EA7019601D2
:10087000CAD729966CAF7DAF8EAF9FAF299720E086
:1008800030E040EA51E460E5CE010196DBD4C101DD
:1008900066E070E09BD7892B09F045C04090340298
:1008A00050903502609036027090370220E030E0C0
:1008B00040EC50E42D966CAD7DAD8EAD9FAD2D9787
:1008C0000E94840E6B017C01812C912C2AEFA22EB8
:1008D00023E4B22E00E010E09801B301A201CE01A2
:1008E0004D96E2D32B013C0120E030E040E251EC98
:1008F0000E94C90C87FD11C020E030E040E251E4C5
:10090000C301B2010E94790E18166CF4412C512CCF
:1009100080E2682E81E4782E06C0412C512C90E2B2
:10092000692E91EC792E2CEC3EE245E652E42196BC
:100930006CAD7DAD8EAD9FAD21970E94840E259646
:100940006CAF7DAF8EAF9FAF259729E23CE54FE8B6
:100950005EE358D7AB01BC01812C912C54012D963C
:10096000CCACDDACEEACFFAC2D9793018201CE0197
:1009700001969AD36B017C0120E030E048EC52EC08
:100980000E94C90C87FD0DC020E030E048EC52E425
:10099000B601C7010E94790E181644F03E2D2F2D86
:1009A00009C0C12CD12C38EC22EC04C0C12CD12CB4
:1009B00038EC22E4B601832F922F0E94380D8CE18F
:1009C00092E074D1AFE3BCE91197F1F700C00000E9
:1009D000B9EC2B16310409F525966CAD7DAD8EADC5
:1009E0009FAD25970E94380DCB01BED58AE09CD5DE
:1009F0002CEC3EE245E652E469AD7AAD8BAD9CADA0
:100A00000E94840E0E94380DCB01AED58AE08CD5B1
:100A10008AE08AD58AE088D501CE2FEF221A320AE1
:100A2000FFCD8F929F92AF92BF92CF92DF92EF92C3
:100A3000FF920F931F93CF93DF936B01D82FC92F92
:100A400049015A01A6D787FD0DC09701A801B6013B
:100A50008D2F9C2F0E94790E181634F076010D2FE1
:100A60001C2F02C074018501B701C801DF91CF912D
:100A70001F910F91FF90EF90DF90CF90BF90AF90BC
:100A80009F908F9008958F92AF92CF92EF920F9395
:100A90001F9386E0882E94E0A92E22E0C22EE12C3E
:100AA00008E210E028E230E047E250E067E270E060
:100AB0008CE192E007D01F910F91EF90CF90AF9013
:100AC0008F9008958F92AF92CF92EF920F931F93D2
:100AD000CF93DF93CDB7DEB7FC0110821182128273
:100AE00013821086118612861386108A118A128A42
:100AF000138A148A158A168A178A108E118E128EFE
:100B0000138E758F648F578F468F31A320A313A345
:100B100002A3E4A2C5A2A6A287A2DF91CF911F9152
:100B20000F91EF90CF90AF908F900895DC014134FA
:100B300061F04234E1F59296ED91FC91939796968F
:100B40002C91969797963C9109C09096ED91FC91C7
:100B5000919794962C91949795963C9167FF13C02A
:100B6000408181E090E0BC0101C0660F2A95EAF760
:100B7000262F209524232083208101C0880F3A95B9
:100B8000EAF7822B11C0608181E090E0AC0101C0E6
:100B9000440F2A95EAF7462B4083208101C0880F35
:100BA0003A95EAF780958223808380E0089581E07A
:100BB0000895CF93DF93EC0184B1806684B91092DD
:100BC00089001092880010928B0010928A00E0E851
:100BD000F0E080818068808380818F7B808380814A
:100BE0008062808380818F7E80838081816080832A
:100BF000A1E8B0E08C9188608C9380818D7F8083A8
:100C00008C9182608C938C918A7F8C93EC8DFD8D7E
:100C1000308181E090E0BC010CA002C0660F771F1C
:100C20000A94E2F7AC010DA002C0440F551F0A94CC
:100C3000E2F7262F242B232B2083EE8DFF8D20819E
:100C4000AC010EA002C0440F551F0A94E2F70FA09A
:100C500002C0880F991F0A94E2F7842B822B8083AD
:100C600041E461E0CE0162DF42E461E0CE015EDF9B
:100C700080E0DF91CF910895242F042E000C330BD8
:100C8000C901860F911D8217930714F4141654F0AE
:100C900021503F4F2817390714F447FD05C0842F12
:100CA000860F08958FEF089580E008950F931F93A6
:100CB000CF938C01C62F41E416163CF461E036DF79
:100CC00042E461E0C80132DF07C06FEF2FDF42E48A
:100CD0006FEFC8012BDFC195C4363CF08FEF90E079
:100CE000909389008093880010C0CC0FC95C40E0CD
:100CF0006C2FC801C1DF90E0909389008093880039
:100D00004CE06C2FC801B8DF90E090938B0080938B
:100D10008A00CF911F910F9108958091BC0087FFA9
:100D2000FCCF089584EA8093BC00F7CF8093BB008A
:100D300084E88093BC00F1CF84EC8093BC00EDDFAD
:100D40008091BB00089584E88093BC00E6DF809129
:100D5000BB000895CF93DF9383E08093B800809128
:100D6000B9008C7F8093B9008091BC00846080932F
:100D7000BC0080910A01816080930A01D3DF80ED7D
:100D8000D5DF8BE6D3DF81E0D1DFC4E9C093BC00BF
:100D9000C9DF80EDCBDF85E7C9DFC4DF81EDC6DFCA
:100DA000D2DFD82FC093BC00BDDF80EDBFDF89E16B
:100DB000BDDF87E0BBDF80E0B9DF80E0B7DF80E048
:100DC000B5DFC093BC0081E0D83609F480E0DF9144
:100DD000CF9108952F923F924F925F926F927F92A0
:100DE0008F929F92AF92BF92CF92DF92EF92FF923B
:100DF0000F931F93CF93DF93CDB7DEB76E970FB6E8
:100E0000F894DEBF0FBECDBF8C01762E8BDF80ED58
:100E10008DDF8BE38BDF86DF81ED88DFCE010196EE
:100E20007C016E019EE0C90ED11C86DFD7018D9337
:100E30007D01AC15BD05C9F786DF8E8784E98093F7
:100E4000BC0069817A81762767277627072E000CF8
:100E5000880B990B40D64B015C016B817C81762716
:100E600067277627072E000C880B990B34D61B01B9
:100E70002C016D817E81762767277627072E000C4F
:100E8000880B990B28D66B017C0169857A857627BA
:100E900067277627072E000C880B990B1CD66F87C7
:100EA000788B898B9A8B6B857C857627672776274D
:100EB000072E000C880B990B0ED66B8B7C8B8D8BC1
:100EC0009E8B6D857E85762767277627072E000CFB
:100ED000880B990B00D66F8B788F898F9A8F77202C
:100EE000C9F16F817885F80180829182A282B382F4
:100EF0002482358246825782C086D186E286F38676
:100F0000762767277627072E000C880B990BE3D5E9
:100F1000D8011C966D937D938D939C931F978F851D
:100F20009889A989BA89F801808B918BA28BB38BA0
:100F30008B899C89AD89BE89848B958BA68BB78B59
:100F40008F89988DA98DBA8D808F918FA28FB38F45
:100F500081E091C0A5019401C501B401D5D66B8F84
:100F60007C8F8D8F9E8FA7019601C701B601CCD6CD
:100F70009B01AC016B8D7C8D8D8D9E8D44D431D7C2
:100F80009B01AC01C201B1010BD5DBD42B013C01AB
:100F9000C501B4019058A7019601A8D46B017C014A
:100FA00020ED3FE049EC5FE3A4D618164CF4A7010E
:100FB000960160ED7FE089E490E424D46B017C012C
:100FC00020ED3FE049EC5FEBC701B601E2D487FFBB
:100FD00009C0A701960160ED7FE089E490EC12D48E
:100FE0006B017C01D8014D925D926D927C921397BA
:100FF000F801C482D582E682F78220E030E043E047
:1010000053E46F85788989899A89CAD428E939EFA8
:101010004EE85CE379D6D80118966D937D938D9355
:101020009C931B9720E030E043E053E46B897C897C
:101030008D899E89B5D428E939EF4EE85CE364D602
:10104000F801648775878687978720E030E043E062
:1010500053E46F89788D898D9A8DA2D428E939EF70
:101060004EE85CE351D6D80150966D937D938D93F5
:101070009C93539780E06E960FB6F894DEBF0FBE38
:10108000CDBFDF91CF911F910F91FF90EF90DF9037
:10109000CF90BF90AF909F908F907F906F905F9018
:1010A0004F903F902F9008952F923F924F925F92D2
:1010B0006F927F928F929F92AF92BF92CF92DF9268
:1010C000EF92FF920F931F93CF93DF93CDB7DEB7CD
:1010D00028970FB6F894DEBF0FBECDBF1C012A01C2
:1010E0003B01C901B801CD82DE82EF82F886A301FF
:1010F000920188D369837A838B839C83F10124894D
:101100003589468957897FD32B013C01F101648BD6
:10111000758B868B978B20E030E0A901C501B40167
:1011200038D4882369F0A5019401505885017401D1
:10113000C301B20176DCF101648B758B868B978BD2
:10114000F101C484D584E684F784208D318D428DED
:10115000538DC701B601D8D52B013C01F10120897F
:1011600031894289538969817A818B819C814AD3F3
:101170009B01AC01C301B20146D32B013C012D817F
:101180003E814F815885C701B6013DD39B01AC011B
:10119000C301B20105D46B017C01F101608F718F35
:1011A000828F938F24893589468957896481758117
:1011B00086819781A9D52D813E814F815885A4D5FF
:1011C0002B013C01F10120813181428153816981F0
:1011D0007A818B819C8198D59B01AC01C301B201BE
:1011E00012D32B013C01F1012085318542855385C5
:1011F000C701B60189D59B01AC01C301B20103D37C
:1012000029813A814B815C81F101208B318B428BAA
:10121000538B28960FB6F894DEBF0FBECDBFDF917B
:10122000CF911F910F91FF90EF90DF90CF90BF90E3
:10123000AF909F908F907F906F905F904F903F9076
:101240002F900895CF92DF92EF92FF92CF93DF938A
:10125000EC01862F69017A0190917C00906C90934B
:101260007C0090917C00907E90937C0090917A001D
:10127000906890937A0090917A00906490937A00AD
:1012800090917A0096FDFCCF609178007091790082
:10129000893421F1803591F0843481F580E090E04B
:1012A00018D420E030E040E85AE32ED5A70196019B
:1012B0002BD5688779878A879B8723C080E090E059
:1012C00008D420E030E040E85AE31ED5A70196019B
:1012D0001BD5688379838A839B8313C080E090E069
:1012E000F8D320E030E040E85AE30ED5A70196019C
:1012F0000BD56C837D838E839F8303C060E070E099
:10130000CB01DF91CF91FF90EF90DF90CF900895C8
:10131000A0E9B0E08C918E7F8C938C9182608C934D
:10132000E1E9F0E08081886180836B9A88EB9BE043
:1013300090939900809398008FE39CE99093970095
:10134000809396008C9180688C93808182608083EA
:1013500080818A7F8083089520E030E044EB52E46E
:101360001FD320E030E04AEF54E4CED481D3685458
:10137000744F709399006093980080E00895E0E2C4
:10138000F1E080818C7F8083E1E2F1E08081877FE2
:1013900080830895E1E2F1E0808182608083808132
:1013A0008A7F80830895609124017091250180E0F7
:1013B00090E08FD320E03FEF4FE757E4F1D22DEBE1
:1013C00037E346E05DE3A0C41092250110922401AA
:1013D0000895E0EAF0E080818C7F8083E1EAF0E02C
:1013E0008081877F808384ED90E39093AB0080932E
:1013F000AA00E2E7F0E08081846080830895E1EA5A
:10140000F0E080818360808380818B7F808308957A
:101410001F920F920FB60F9211240BB60F922F93BB
:101420008F939F93EF93FF938091C0009091C6009C
:101430008871E0911503EF5FEF7120911403E217BB
:1014400039F0E0931503F0E0E85EFC4F908301C0B3
:1014500082E080931303FF91EF919F918F912F91E1
:101460000F900BBE0F900FBE0F901F9018951F92FC
:101470000F920FB60F9211240BB60F928F939F937A
:10148000EF93FF939091170380911603981769F0DB
:10149000E0911603EF5FEF71E0931603F0E0E85C74
:1014A000FC4F80818093C60005C08091C1008F7D74
:1014B0008093C100FF91EF919F918F910F900BBE90
:1014C0000F900FBE0F901F90189510921703109257
:1014D0001603109215031092140397FF04C022E024
:1014E0002093C0009F779093C5008093C40088E943
:1014F0008093C1008091C2008F738093C20080915D
:10150000C2008F7C8093C2008091C200877F80934D
:10151000C2008091C20086608093C2008091C100A9
:101520008B7F8093C1000895909117039F5F9F71F7
:10153000209116039217E1F3E92FF0E0E85CFC4FED
:101540008083909317038091C10080628093C100D3
:101550000895CF93DF93EC018991882311F0E4DFA4
:10156000FBCFDF91CF910895CF93DF93CDB7DEB757
:101570002C970FB6F894DEBF0FBECDBF4AE0BE0178
:101580006F5F7F4F95D4CE010196E3DF2C960FB6A7
:10159000F894DEBF0FBECDBFDF91CF9108951F92AB
:1015A0000F920FB60F9211240BB60F922F938F93B9
:1015B0009F93EF93FF938091C8009091CE00887124
:1015C000E091D002EF5FEF712091CF02E21739F086
:1015D000E093D002F0E0ED52FD4F908301C082E035
:1015E0008093CE02FF91EF919F918F912F910F9059
:1015F0000BBE0F900FBE0F901F9018951F920F9269
:101600000FB60F9211240BB60F928F939F93EF9307
:10161000FF939091D2028091D102981769F0E091E6
:10162000D102EF5FEF71E093D102F0E0ED50FD4F9A
:1016300080818093CE0005C08091C9008F7D80930A
:10164000C900FF91EF919F918F910F900BBE0F906A
:101650000FBE0F901F9018951F920F920FB60F920A
:1016600011240BB60F922F938F939F93EF93FF93B9
:101670008091D0009091D6008871E0918B02EF5F4D
:10168000EF7120918A02E21739F0E0938B02F0E0CB
:10169000E257FD4F908301C082E080938902FF9161
:1016A000EF919F918F912F910F900BBE0F900FBED6
:1016B0000F901F9018951F920F920FB60F92112442
:1016C0000BB60F928F939F93EF93FF9390918D02A0
:1016D00080918C02981769F0E0918C02EF5FEF71B6
:1016E000E0938C02F0E0E255FD4F80818093D600BC
:1016F00005C08091D1008F7D8093D100FF91EF9143
:101700009F918F910F900BBE0F900FBE0F901F9067
:1017100018951F920F920FB60F9211240BB60F92CD
:101720002F938F939F93EF93FF938091300190912C
:1017300036018871E0914602EF5FEF71209145021A
:10174000E21739F0E0934602F0E0E75BFD4F90834B
:1017500001C082E080934402FF91EF919F918F91AD
:101760002F910F900BBE0F900FBE0F901F901895EA
:101770001F920F920FB60F9211240BB60F928F93F8
:101780009F93EF93FF93909148028091470298179F
:1017900069F0E0914702EF5FEF71E0934702F0E0FC
:1017A000E759FD4F80818093360105C0809131015A
:1017B0008F7D80933101FF91EF919F918F910F90D9
:1017C0000BBE0F900FBE0F901F901895AA1BBB1B4E
:1017D00051E107C0AA1FBB1FA617B70710F0A61B31
:1017E000B70B881F991F5A95A9F780959095BC0152
:1017F000CD010895EE0FFF1F881F8BBF0790F69154
:10180000E02D19945058BB27AA270ED027C2F0D13B
:1018100030F0F5D120F031F49F3F11F41EF4C0C137
:101820000EF4E095E7FBB6C1E92F3AD280F3BA1780
:10183000620773078407950718F071F49EF552C28A
:101840000EF4E0950B2EBA2FA02D0B01B9019001DB
:101850000C01CA01A0011124FF27591B99F0593F1F
:1018600050F4503E68F11A16F040A22F232F342F67
:101870004427585FF3CF469537952795A795F040B5
:101880005395C9F77EF41F16BA0B620B730B840BCA
:10189000BAF09150A1F0FF0FBB1F661F771F881F82
:1018A000C2F70EC0BA0F621F731F841F48F48795DA
:1018B00077956795B795F7959E3F08F0B3CF9395C9
:1018C000880F08F09927EE0F97958795089590D186
:1018D00058F080E891E009F49EEF91D128F040E8BB
:1018E00051E059F45EEF09C05BC1FCC1E92FE0781B
:1018F000D7D168F3092E052AC1F326173707480701
:10190000590738F00E2E07F8E02569F0E025E0646D
:101910000AC0EF6307F8009407FADB01B9019D01E3
:10192000DC01CA01AD01EF934AD098D10AD05F9192
:10193000552331F02BED3FE049E450FD49EC63CFF6
:101940000895DF93DD27B92FBF7740E85FE31616D0
:10195000170648075B0710F4D92FCFD19F938F93B9
:101960007F936F937CD2E4EEF0E01DD177D12F917D
:101970003F914F915F91D4D1DD2349F09058A2EA75
:101980002AED3FE049EC5FE3D0785D274DDFDF9142
:1019900065C1DCD008F481E0089539D1E3956FC1C9
:1019A0000CD05CC12CD140F023D130F021F45F3F4A
:1019B00019F0F0C0511197C1F3C072D198F3992377
:1019C000C9F35523B1F3951B550BBB27AA27621703
:1019D0007307840738F09F5F5F4F220F331F441F48
:1019E000AA1FA9F333D00E2E3AF0E0E830D0915080
:1019F0005040E695001CCAF729D0FE2F27D0660F6D
:101A0000771F881FBB1F261737074807AB07B0E8AB
:101A100009F0BB0B802DBF01FF2793585F4F2AF0C1
:101A20009E3F510568F0B6C05EC15F3FECF3983E43
:101A3000DCF3869577956795B795F7959F5FC9F71E
:101A4000880F911D9695879597F90895E1E0660FA7
:101A5000771F881FBB1F621773078407BA0720F020
:101A6000621B730B840BBA0BEE1F88F7E095089589
:101A700004D06894B11137C108951AD188F09F57E6
:101A800090F0B92F9927B751A0F0D1F0660F771FCA
:101A9000881F991F1AF0BA95C9F712C0B13081F0AA
:101AA00021D1B1E008951EC1672F782F8827B85F34
:101AB00039F0B93FCCF3869577956795B395D9F70B
:101AC0003EF490958095709561957F4F8F4F9F4F15
:101AD0000895E89409C097FB3EF490958095709521
:101AE00061957F4F8F4F9F4F9923A9F0F92F96E96A
:101AF000BB279395F695879577956795B795F111DF
:101B0000F8CFFAF4BB0F11F460FF1BC06F5F7F4F7B
:101B10008F4F9F4F16C0882311F096E911C077238D
:101B200021F09EE8872F762F05C0662371F096E896
:101B3000862F70E060E02AF09A95660F771F881F65
:101B4000DAF7880F9695879597F90895990F000809
:101B5000550FAA0BE0E8FEEF16161706E807F9077F
:101B6000C0F012161306E407F50798F0621B730B1A
:101B7000840B950B39F40A2661F0232B242B252B9B
:101B800021F408950A2609F4A140A6958FEF811D3E
:101B9000811D089597F99F6780E870E060E00895DF
:101BA0009FEF80EC0895DF93CF931F930F93FF92E5
:101BB000EF92DF927B018C01689405C0DA2EEF0171
:101BC000AFD0FE01E894A5912591359145915591AD
:101BD000AEF3EF0129DEFE019701A801DA9479F74F
:101BE000DF90EF90FF900F911F91CF91DF910895BB
:101BF00000240A94161617061806090608950024EC
:101C00000A9412161306140605060895C9CF50D07B
:101C1000E8F3E894E0E0BB279F57F0F02AED3FE0BF
:101C200049EC06C0EE0FBB0F661F771F881F28F018
:101C3000B23A62077307840728F0B25A620B730B3B
:101C4000840BE3959A9572F7803830F49A95BB0F20
:101C5000661F771F881FD2F7904806C1092E03948C
:101C6000000C11F4882352F0BB0F40F4BF2B11F489
:101C700060FF04C06F5F7F4F8F4F9F4F0895EF93BA
:101C8000E0FF06C0A2EA2AED3FE049EC5FEBCCDDC5
:101C9000E5DF0F90039401FC9058E1E1F1E0F7C01B
:101CA00057FD9058440F551F59F05F3F71F047950D
:101CB000880F97FB991F61F09F3F79F087950895F2
:101CC000121613061406551FF2CF4695F1DF08C011
:101CD000161617061806991FF1CF8695710561052E
:101CE00008940895E894BB2766277727CB0197F9D6
:101CF00008952CDF08F48FEF08959B01AC0160E09C
:101D000070E080E89FE34CCE0BD0A8CF71DF28F0C5
:101D100076DF18F0952309F03DCF42CF1124E3CFB1
:101D2000BFDFA0F3959FD1F3950F50E0551F629F41
:101D3000F001729FBB27F00DB11D639FAA27F00D24
:101D4000B11DAA1F649F6627B00DA11D661F829F4B
:101D50002227B00DA11D621F739FB00DA11D621F30
:101D6000839FA00D611D221F749F3327A00D611D4D
:101D7000231F849F600D211D822F762F6A2F11242F
:101D80009F5750408AF0E1F088234AF0EE0FFF1F82
:101D9000BB1F661F771F881F91505040A9F79E3FB9
:101DA000510570F0F7CE9FCF5F3FECF3983EDCF328
:101DB000869577956795B795F795E7959F5FC1F7F6
:101DC000FE2B880F911D9695879597F908959F93FF
:101DD0001EDF0F9007FCEE5F52CF11F40EF4E0CE41
:101DE00041C066DFD0F39923D9F3CEF39F57550B4B
:101DF00087FF46D00024A0E640EA9001805856951F
:101E0000979528F4805C660F771F881F20F02617AF
:101E10003707480730F4621B730B840B20293129E4
:101E20004A2BA69517940794202531254A2758F761
:101E3000660F771F881F20F026173707480730F4F2
:101E4000620B730B840B200D311D411DA09581F792
:101E5000B901842F9158880F9695879508959B0115
:101E6000AC0152CF9F3F31F0915020F48795779588
:101E70006795B795880F911D9695879597F9089561
:101E800091505040660F771F881FD2F708959F9397
:101E90008F937F936F93FF93EF939B01AC0134DF9C
:101EA000EF91FF9180DE2F913F914F915F912CCF69
:101EB000BB274A3031F4992322F4BDE290958195F5
:101EC0009F4F01C0BB27FB015527AA27880F991FE9
:101ED000AA1FA41710F0A41B83955051B9F7A05D59
:101EE000AA3308F0A95DA193009779F7B111B193D6
:101EF0001192CB0100C0DC01FC01672F71917723A7
:101F0000E1F7329704C07C916D9370836291AE17B4
:0A1F1000BF07C8F30895F894FFCF4F
:00000001FF
