:1000000015C1000036C1000034C1000032C100003B
:1000100030C1000044C100008FC100002AC10000AF
:1000200028C1000026C1000024C1000022C1000038
:1000300020C100001EC100001CC100001AC1000048
:1000400018C1000016C1000014C1000012C1000058
:1000500010C100000EC100000CC100000AC1000068
:1000600008C100000C94BE0B0C94ED0B02C1000003
:1000700000C10000FEC00000FCC00000FAC000008B
:10008000F8C00000F6C00000F4C00000F2C000009C
:100090000C94AF0C0C94DE0CECC00000EAC0000025
:1000A000E8C00000E6C00000E4C0000092C100000B
:1000B000E0C00000DEC00000DCC00000DAC00000CC
:1000C000D8C00000D6C00000D4C000000C940C0DB5
:1000D0000C943B0DCEC000000C94690D0C94980D4F
:1000E000C8C00000084AD73B3BCE016E84BCBFFDB0
:1000F000C12F3D6C74319ABD56833DDA3D00C77FF8
:1001000011BED9E4BB4C3E916BAAAABE0000008090
:100110003F05A84CCDB2D44EB93836A9020C50B91F
:10012000918688083CA6AAAA2ABE000000803F004B
:1001300000407A10F35A00A0724E18090010A5D49E
:10014000E80000E87648170000E40B54020000CAFB
:100150009A3B000000E1F505000080969800000041
:1001600040420F000000A0860100000010270000A0
:100170000000E803000000006400000000000A0026
:10018000000000000100000000002C76D888DC6729
:100190004F0823DFC1DFAE59E1B1B796E5E3E45381
:1001A000C63AE651997696E8E6C28426EB898C9B9E
:1001B00062ED407C6FFCEFBC9C9F40F2BAA56FA53E
:1001C000F490055A2AF75C936B6CF9676DC11BFCC0
:1001D000E0E40D47FEF520E6B500D0ED902E0300DB
:1001E000943577050080841E080000204E0A000028
:1001F00000C80C333333330F986E12831141EF8DE7
:100200002114893BE65516CFFEE6DB18D1844B3826
:100210001BF77C1D901DA4BBE424203284725E2257
:100220008100C9F124ECA1E53D27380511241FBE4A
:10023000CFEFD1E2DEBFCDBF00E00CBF23E0A0E0F6
:10024000B2E001C01D92A234B207E1F711E0C6E1AD
:10025000D1E000E006C021970109802FFE010E9435
:10026000DB0EC531D10780E00807A9F76CD20C94EA
:10027000A614C6CE81B18E7D81B98DB18B7E8DB92C
:10028000EAE6F0E080818360808380818C608083F7
:100290008DB380638DBB0E949F0B0C94B50B1F9296
:1002A0000F920FB60F9211240BB60F922F933F931C
:1002B0004F935F936F937F938F939F93AF93BF936E
:1002C000EF93FF93029B0FC0609112027091130293
:1002D000809114029091150220E030E040E85FE345
:1002E0000E94E30E0EC06091120270911302809181
:1002F00014029091150220E030E040E85FE30E9494
:10030000E40E609312027093130280931402909390
:100310001502FF91EF91BF91AF919F918F917F91C6
:100320006F915F914F913F912F910F900BBE0F9066
:100330000FBE0F901F9018951F920F920FB60F923D
:1003400011240BB60F922F933F934F935F936F93AC
:100350007F938F939F93AF93BF93EF93FF93009BF4
:100360000FC060911602709117028091180290914F
:10037000190220E030E040E85FE30E94E40E0EC086
:1003800060911602709117028091180290911902E3
:1003900020E030E040E85FE30E94E30E6093160245
:1003A000709317028093180290931902FF91EF91B6
:1003B000BF91AF919F918F917F916F915F914F917D
:1003C0003F912F910F900BBE0F900FBE0F901F907B
:1003D00018951F920F920FB60F9211240BB60F9221
:1003E0008F929F92AF92BF92CF92DF92EF92FF9245
:1003F0002F933F934F935F936F937F938F939F932D
:10040000AF93BF93CF93DF93EF93FF93C0E0D2E01E
:100410008A899B89AC89BD89BC01CD01905827E2AE
:1004200030EA49E85CE30E9465112DEC3CEC4CE4B9
:100430005DE30E94B10F6A877B878C879D876E89F9
:100440007F89888D998D27E230EA49E85CE30E9434
:1004500065112DEC3CEC4CE45DE30E94B10F6E871E
:100460007F87888B998B6A857B858C859D852E857A
:100470003F85488959890E94E40E20E030E040E041
:100480005FE30E9465116E8F7F8F88A399A36A8DA9
:100490007B8D8C8D9D8D8E8C9F8CA8A0B9A02AE918
:1004A00039E949E15FE30E9465116B017C012CECA5
:1004B0003CEC4CEC5EE3C501B4010E9465119B016C
:1004C000AC01C701B6010E94E40E6E8F7F8F88A336
:1004D00099A38E8D9F8DA8A1B9A18A8F9B8FAC8F78
:1004E000BD8F6E8D7F8D88A199A1CE80DF80E8843D
:1004F000F98422E03BE247E05DE30E946511A70139
:1005000096010E94E40E6E837F83888799871A8AFA
:100510001B8A1C8A1D8A1E8A1F8A188E198E1092A9
:10052000A5001092A400FF91EF91DF91CF91BF91B0
:10053000AF919F918F917F916F915F914F913F917B
:100540002F91FF90EF90DF90CF90BF90AF909F9052
:100550008F900F900BBE0F900FBE0F901F901895AD
:100560002F923F924F925F926F927F928F929F92C3
:10057000AF92BF92CF92DF92EF92FF920F931F93B1
:10058000CF93DF931C01EA01F901DC018C9087FE17
:100590008EC0682D6F7070E080E090E00E944A107D
:1005A00021E4922E9F9220E12F931F921F92A12C63
:1005B000B12C30E2C32E31ECD32EE12CF12C00E72C
:1005C00011E420E030E0A9010E94610E2B013C0102
:1005D000682D607770E054E0759567955A95E1F75E
:1005E00070E080E090E00E944A109F9220EA2F93F2
:1005F0001F921F92A12CB12CE0EACE2EE1ECDE2E50
:10060000E12CF12C00EE10E420E030E0A9010E9482
:10061000610E6B017C0123E333E343E75FE3688111
:1006200079818A819B810E9465114B015C012DECCF
:100630003CEC4CE45DE3C301B2010E9465119B01F7
:10064000AC01C501B4010E94E40E688379838A83FA
:100650009B836C81062E000C770B880B990B0E94F4
:100660004C1023E333E343E35FE30E9465114B0146
:100670005C012AE939E949E95EE3C701B6010E9454
:1006800065119B01AC01C501B4010E94E40E0E94FA
:1006900019106C8361956D83F10110828DB79EB73F
:1006A00008960FB6F8949EBF0FBE8DBF38C093E07A
:1006B000891649F0A6E08A16E1F0B2E08B122FC04D
:1006C000CA013BD328C020E030E048EC52E464A9E2
:1006D00075A986A997A90E9465110E941910C62FB5
:1006E00080E00E94100E8C2F0E94100ED1011C92EF
:1006F00016C0CE8CDF8CE8A0F9A080E00E94100E1E
:1007000020E030E048EC52E4C701B6010E946511D8
:100710000E941910862F0E94100EF101108280E0B5
:10072000DF91CF911F910F91FF90EF90DF90CF90CD
:10073000BF90AF909F908F907F906F905F904F9001
:100740003F902F900895CF93DF93CDB7DEB7CE576C
:10075000D1090FB6F894DEBF0FBECDBF0F9A179A1E
:10076000E2961FAEE29780E092E01DD280E190E039
:100770000E941B0C80E190E00E94C60D78947ADD07
:1007800080910A01816080930A01E6D3813029F4C7
:1007900080910B01816080930B0170D7A6D7B0D7F1
:1007A0008E010F5F1F4FC801E3D5B3D720E030E0C3
:1007B00040E051E469A97AA98BA99CA90E94E30EA3
:1007C00081D7B8D78FE39CE90197F1F700C000000B
:1007D000FE01EB5AFF4F86E696E6A6EEBEE3808367
:1007E0009183A283B3838DEC9CECACE4BDE3848362
:1007F0009583A683B7838AE097EDA3EABCE380875D
:100800009187A287B3878AE999E9A9E1BFE3848741
:100810009587A687B787108A118A128A138A148A45
:10082000158A168A178A108E118E128E138E4CEE30
:1008300051E564E771E449AF5AAF6BAF7CAF2196E5
:100840001CAE1DAE1EAE1FAE219743EC55EF68E205
:100850007FE325964CAF5DAF6EAF7FAF25972996AE
:100860008CAF9DAFAEAFBFAF29972D961CAE1DAE1E
:100870001EAE1FAE2D9761961CAE1DAE1EAE1FAEF6
:10088000619765961CAE1DAE1EAE1FAE65979FEFBD
:10089000E3969FAFE397EB961CAE1DAE1EAE1FAE68
:1008A000EB97212C312C412C512C3201EC960FAFBF
:1008B000EC97ED961FAFED97EE96EFAFEE97EF96B4
:1008C000FFAFEF9726D7E7966CAF7DAF8EAF9FAFA8
:1008D000E79730D7E7964CAD5DAD6EAD7FADE7974E
:1008E000EC968FADEC97ED969FADED9774D5C10169
:1008F00066E070E00E94B40E892B69F540911E02FB
:1009000050911F026091200270912102009100021B
:10091000109101022091020230910302812C912C4E
:10092000E8E4AE2EE2E4BE2E73016201EE968FADD6
:10093000EE97EF969FADEF97D3D520E030E0A90179
:100940000E94E40EEB966CAF7DAF8EAF9FAFEB973E
:10095000412C512C32012CEC3EE245E652E46DA9CB
:100960007EA98FA998AD0E946511AB01BC01812CB5
:10097000912C5401E796CCACDDACEEACFFACE79724
:10098000EB960CAD1DAD2EAD3FADEB97CE01C996EC
:10099000A7D5E12CF12C08EC12E420E030E048EC83
:1009A00052EC0E94300E0E94191080E092E078D143
:1009B000B0D62AE037ED43E25CE30E94AA0F87FF3E
:1009C0002DC0C2D7892B89F065D78835910569F488
:1009D000E3968FADE3978195E3968FAFE397809190
:1009E0000B0191E0892780930B010E94250E892B32
:1009F000F9F20E94F50DE2968FAFE297EC962FADDB
:100A0000EC97ED963FADED9740E052E0BE01675C9C
:100A10007F4FCE018F589F4FA3DDCACFC10165E044
:100A200070E00E94B40E892B61F4E3968FADE397DA
:100A3000813039F46DA97EA98FA998AD66D78AE077
:100A400044D79FEF291A390A89EE281683E0380621
:100A500010F0212C312CE7962CAD3DAD4EAD5FADA5
:100A6000E797C301B2010E94E40E2B013C012ACF9B
:100A70008F92AF92CF92EF920F931F9386E0882EC2
:100A800094E0A92E22E0C22EE12C08E210E028E238
:100A900030E047E250E067E270E080E092E007D0AB
:100AA0001F910F91EF90CF90AF908F9008958F92FC
:100AB000AF92CF92EF920F931F93CF93DF93CDB767
:100AC000DEB7FC0110821182128213821582168217
:100AD00017821086118616861786108A118A168A42
:100AE000178A108E118E128E138E148E158E168EFE
:100AF000178E10A211A273A362A355A344A337A318
:100B000026A311A700A7E2A6C3A6A4A685A6DF91E7
:100B1000CF911F910F91EF90CF90AF908F9008954C
:100B2000DC01413461F04234E1F59896ED91FC919D
:100B300099979C962C919C979D963C9109C096966E
:100B4000ED91FC9197979A962C919A979B963C9150
:100B500016169CF4408181E090E0BC0101C0660F54
:100B60002A95EAF7262F209524232083208101C08F
:100B7000880F3A95EAF7822B11C0608181E090E0FE
:100B8000AC0101C0440F2A95EAF7462B408320812F
:100B900001C0880F3A95EAF780958223808380E030
:100BA000089581E00895CF93DF93EC0184B18066CE
:100BB00084B9109289001092880010928B001092D4
:100BC0008A00E0E8F0E080818068808380818F7B0C
:100BD000808380818062808380818F7E808380811A
:100BE00081608083A1E8B0E08C9188608C938081E3
:100BF0008D7F80838C9182608C938C918A7F8C9383
:100C0000EAA1FBA1308181E090E0BC010AA402C00E
:100C1000660F771F0A94E2F7AC010BA402C0440FE1
:100C2000551F0A94E2F7262F242B232B2083ECA1B7
:100C3000FDA12081AC010CA402C0440F551F0A94F1
:100C4000E2F70DA402C0880F991F0A94E2F7842BE3
:100C5000822B808341E461E0CE0162DF42E461E007
:100C6000CE015EDF80E0DF91CF910895242F042E26
:100C7000000C330BC901860F911D8217930714F4E2
:100C8000141654F021503F4F2817390714F447FD2C
:100C900005C0842F860F08958FEF089580E0089592
:100CA000FF920F931F93CF93DF938C01FC01C481BC
:100CB000C60F8581F62EF80EDF2D41E41C1624F4B4
:100CC00061E0C8012DDF04C06FEFC80129DFC195C5
:100CD00042E41F1424F461E0C80122DF05C06FEF75
:100CE000C8011EDFDF2DD195C43634F08FEF90E0C0
:100CF0009093890080938800D4361CF08FEF90E0A9
:100D000012C0CC0F67E36C0F4DE0C801AFDF90E07D
:100D100090938900809388006D2F660F695C40E096
:100D2000C801A4DF90E090938B0080938A00DF914C
:100D3000CF911F910F91FF900895AF92BF92CF92E4
:100D4000DF92EF92FF920F931F9380917C0080645B
:100D500080937C0080917C008F7780937C008091D1
:100D60007C00807E80937C0080917A0080688093F4
:100D70007A0080917A00806480937A0080917A0072
:100D800086FDFCCF609178007091790080E090E062
:100D90000E944A1020E030E040EA50E40E946511D1
:100DA00020E030E040E85AE30E94651122E42F93EE
:100DB00028EC2F931F921F92A12CB12C65011CE5EA
:100DC000E12E1FE8F12E02E810E42DEC3CEC4CE69D
:100DD00050E477D70E941E10862F0F900F900F902F
:100DE0000F901F910F91FF90EF90DF90CF90BF90E9
:100DF000AF9008954F925F926F927F928F929F92E1
:100E0000AF92BF92CF92DF92EF92FF92CF93DF9398
:100E1000CDB7DEB72E970FB6F894DEBF0FBECDBFAD
:100E20009E878D8749875A876B877C87FC0144A8FA
:100E300055A866A877A8C301B2010E94C8116983AA
:100E40007A838B839C83ED85FE8580A891A8A2A8D8
:100E5000B3A8C501B4010E94C8116B017C01C50192
:100E6000B4010E94AE0F4B015C01C301B2010E94AC
:100E7000AE0F6D837E838F839887A701960169816A
:100E80007A818B819C810E946511A50194010E9449
:100E9000B10FED85FE8520A131A142A153A10E9491
:100EA0006511ED85FE85248D358D468D578D8CD74A
:100EB0002B013C012D813E814F815885C701B60130
:100EC0000E946511A50194010E94B10FED85FE8578
:100ED00024A135A146A157A10E9465119B01AC0137
:100EE000C301B20171D7905829853A854B855C853D
:100EF0000E9465112E960FB6F894DEBF0FBECDBFCF
:100F0000DF91CF91FF90EF90DF90CF90BF90AF90A7
:100F10009F908F907F906F905F904F9008958091F9
:100F2000BC0087FFFCCF089584EA8093BC00F7CF14
:100F30008093BB0084E88093BC00F1CF84EC809365
:100F4000BC00EDDF8091BB00089584E88093BC0075
:100F5000E6DF8091BB000895CF93DF9383E0809319
:100F6000B8008091B9008C7F8093B9008091BC005B
:100F700084608093BC00D8DF80EDDADF8BE6D8DFB9
:100F800081E0D6DFC4E9C093BC00CEDF80EDD0DFC6
:100F900085E7CEDFC9DF81EDCBDFD7DFD82FC09368
:100FA000BC00C2DF80EDC4DF89E1C2DF87E0C0DFC3
:100FB00080E0BEDF80E0BCDF80E0BADFC093BC0031
:100FC00081E0D83609F480E0DF91CF9108954F9207
:100FD0005F926F927F928F929F92AF92BF92CF92C9
:100FE000DF92EF92FF92CF93DF93283579F4DF9170
:100FF000CF91FF90EF90DF90CF90BF90AF909F90F8
:101000008F907F906F905F904F90F4CE293579F557
:101010006A017B01EC018CA89DA8AEA8BFA8C50100
:10102000B4019CD72B013C01C501B4010E94C81139
:101030004B015C0128A139A14AA15BA1C301B20106
:101040000E9465112B013C012CA13DA14EA15FA185
:10105000C501B4010E9465119B01AC01C301B2013D
:10106000B2D69058A70196010E94651103C060E0B6
:1010700070E0CB01DF91CF91FF90EF90DF90CF90A8
:10108000BF90AF909F908F907F906F905F904F90A8
:1010900008952F923F924F925F926F927F928F921C
:1010A0009F92AF92BF92CF92DF92EF92FF920F93F7
:1010B0001F93CF93DF93CDB7DEB76E970FB6F8943B
:1010C000DEBF0FBECDBF8C01762E2EDF80ED30DF70
:1010D0008BE32EDF29DF81ED2BDFCE0101967C0132
:1010E0006E019EE0C90ED11C29DFD7018D937D01D1
:1010F000AC15BD05C9F729DF8E8784E98093BC0054
:1011000069817A81762767277627072E000C880B5E
:10111000990BC2D74B015C016B817C8176276727D5
:101120007627072E000C880B990BB6D71B012C01D4
:101130006D817E81762767277627072E000C880B26
:10114000990BAAD76B017C0169857A857627672779
:101150007627072E000C880B990B9ED76F87788B0C
:10116000898B9A8B6B857C85762767277627072E58
:10117000000C880B990B90D76B8B7C8B8D8B9E8B87
:101180006D857E85762767277627072E000C880BCE
:10119000990B82D76F8B788F898F9A8F7720C9F1BF
:1011A0006F817885F801848A958AA68AB78A208E0D
:1011B000318E428E538EC48ED58EE68EF78E762774
:1011C00067277627072E000C880B990B65D7D80167
:1011D00090966D937D938D939C9393978F8598892B
:1011E000A989BA89F80184A395A3A6A3B7A38B897B
:1011F0009C89AD89BE8980A791A7A2A7B3A78F8933
:10120000988DA98DBA8D84A795A7A6A7B7A781E0C9
:1012100096C0A5019401C501B4010E9465116B8FB0
:101220007C8F8D8F9E8FA7019601C701B6010E940A
:1012300065119B01AC016B8D7C8D8D8D9E8DC4D510
:101240000E94D2119B01AC01C201B1018AD65AD6CB
:101250002B013C01C501B4019058A701960127D686
:101260006B017C0120ED3FE049EC5FE30E945A11E5
:1012700018164CF4A701960160ED7FE089E490E434
:10128000A2D56B017C0120ED3FE049EC5FEBC7018B
:10129000B60160D687FF09C0A701960160ED7FE027
:1012A00089E490EC90D56B017C01D80154964D9265
:1012B0005D926D927C925797F801C08ED18EE28E2E
:1012C000F38E20E030E043E053E46F85788989892C
:1012D0009A8947D628E939EF4EE85CE3F6D7D8017A
:1012E0005C966D937D938D939C935F9720E030E0A7
:1012F00043E053E46B897C898D899E8932D628E945
:1013000039EF4EE85CE3E1D7F80160A371A382A353
:1013100093A320E030E043E053E46F89788D898D1A
:101320009A8D1FD628E939EF4EE85CE3CED7D80175
:1013300094966D937D938D939C93979780E06E9692
:101340000FB6F894DEBF0FBECDBFDF91CF911F91D6
:101350000F91FF90EF90DF90CF90BF90AF909F9054
:101360008F907F906F905F904F903F902F90089557
:10137000CF93DF93EC01188219821A821B821886A0
:1013800019861A861B86188A198A1A8A1B8A1CAA29
:101390001DAA1EAA1FAAE0DD2FEF83ED90E32150C6
:1013A00080409040E1F700C0000060E0CE0171DEB7
:1013B000888D998DAA8DBB8D88AB99ABAAABBBAB41
:1013C0008C899D89AE89BF898CAB9DABAEABBFAB21
:1013D000DF91CF9108958F929F92AF92BF92CF925B
:1013E000DF92EF92FF92CF93DF93EC016A017B01D2
:1013F00060E04FDEB701A601CE01FCDC4B015C01D1
:101400006C877D878E879F8729E5B701A601CE016E
:10141000DEDD6B017C01688B798B8A8B9B8BA50150
:1014200094016C817D818E819F81CED46C837D837C
:101430008E839F83A7019601688579858A859B8520
:10144000C3D4688779878A879B872CA93DA94EA931
:101450005FA9C501B401B8D428E431EE4AE75FE3DF
:1014600034D74B015C012AE037ED43EA5CE36C8939
:101470007D898E899F8929D79B01AC01C501B40163
:10148000A3D46CAB7DAB8EAB9FAB28A939A94AA97D
:101490005BA9C701B60198D42EEE3CE74FE75FE3A6
:1014A00014D76B017C012FE632E143E05BE3688DEA
:1014B000798D8A8D9B8D09D79B01AC01C701B6013F
:1014C00083D468AB79AB8AAB9BABDF91CF91FF90B4
:1014D000EF90DF90CF90BF90AF909F908F90089546
:1014E0002F923F924F925F926F927F928F929F9234
:1014F000AF92BF92CF92DF92EF92FF920F931F9322
:10150000CF93DF93CDB7DEB728970FB6F894DEBF41
:101510000FBECDBF1C012A013B01C901B801CD821C
:10152000DE82EF82F886A30192014DD469837A832B
:101530008B839C83F101248935894689578944D45A
:101540002B013C01F101648B758B868B978B20E01E
:1015500030E0A901C501B401FDD4882369F0A501DB
:101560009401505885017401C301B20179D3F1018E
:10157000648B758B868B978BF101C484D584E6844C
:10158000F784208D318D428D538DC701B6019DD6D4
:101590002B013C01F10120893189428953896981FC
:1015A0007A818B819C810FD49B01AC01C301B20174
:1015B0000BD42B013C012D813E814F815885C70101
:1015C000B60102D49B01AC01C301B201CAD46B01C4
:1015D0007C01F101608F718F828F938F248935890F
:1015E0004689578964817581868197816ED62D8160
:1015F0003E814F81588569D62B013C01F101208144
:1016000031814281538169817A818B819C815DD650
:101610009B01AC01C301B201D7D32B013C01F10105
:101620002085318542855385C701B6014ED69B0181
:10163000AC01C301B201C8D329813A814B815C81DD
:10164000F101208B318B428B538B28960FB6F89487
:10165000DEBF0FBECDBFDF91CF911F910F91FF90E5
:10166000EF90DF90CF90BF90AF909F908F907F9042
:101670006F905F904F903F902F900895A0E9B0E059
:101680008C918E7F8C938C9182608C93E1E9F0E059
:101690008081886180836B9A88EB9BE090939900AE
:1016A000809398008FE39CE9909397008093960035
:1016B0008C9180688C9380818260808380818A7F16
:1016C0008083089520E030E044EB52E44AD420E0E7
:1016D00030E04AEF54E4F9D5ACD46854744F7093B9
:1016E00099006093980080E00895E0E2F1E0808145
:1016F0008C7F8083E1E2F1E08081877F80830895A1
:10170000E1E2F1E080818260808380818A7F808352
:101710000895609124017091250180E090E0BAD491
:1017200020E03FEF4FE757E41CD42DEB37E346E0D2
:101730005DE3CBC510922501109224010895E0EAE3
:10174000F0E080818C7F8083E1EAF0E08081877F18
:10175000808384ED90E39093AB008093AA00E2E74E
:10176000F0E08081846080830895E1EAF0E0808188
:101770008360808380818B7F808308951F920F9286
:101780000FB60F9211240BB60F922F938F939F9346
:10179000EF93FF938091C0009091C6008871E09113
:1017A000FF02EF5FEF712091FE02E21739F0E09344
:1017B000FF02F0E0EE5FFC4F908301C082E0809377
:1017C000FD02FF91EF919F918F912F910F900BBE92
:1017D0000F900FBE0F901F9018951F920F920FB68B
:1017E0000F9211240BB60F928F939F93EF93FF9359
:1017F0009091010380910003981769F0E091000334
:10180000EF5FEF71E0930003F0E0EE5DFC4F80814D
:101810008093C60005C08091C1008F7D8093C10078
:10182000FF91EF919F918F910F900BBE0F900FBE84
:101830000F901F90189510920103109200031092C0
:10184000FF021092FE0297FF04C022E02093C00026
:101850009F779093C5008093C40088E98093C1006E
:101860008091C2008F738093C2008091C2008F7CF0
:101870008093C2008091C200877F8093C2008091D4
:10188000C20086608093C2008091C1008B7F8093EC
:10189000C10008959091FF028091FE02981791F087
:1018A000E091FE02EF5FEF71E093FE02F0E0EE5F89
:1018B000FC4F20818091FD0290E0982F8827820FB5
:1018C000911D089580E091E00895909101039F5F3C
:1018D0009F71209100039217E1F3E92FF0E0EE5D94
:1018E000FC4F8083909301038091C10080628093BC
:1018F000C1000895CF93DF93EC018991882311F003
:10190000E4DFFBCFDF91CF9108950F931F93CF9327
:10191000DF93CDB7DEB764970FB6F894DEBF0FBE86
:10192000CDBF8E010F5F1F4F22E044E0A2D5C8015A
:10193000E1DF64960FB6F894DEBF0FBECDBFDF9136
:10194000CF911F910F9108958091FF022091FE0287
:1019500090E04F96821B91096FE170E019C21F92CF
:101960000F920FB60F9211240BB60F922F938F93F5
:101970009F93EF93FF938091C8009091CE00887160
:10198000E091BA02EF5FEF712091B902E21739F0EE
:10199000E093BA02F0E0E354FD4F908301C082E08F
:1019A0008093B802FF91EF919F918F912F910F90AB
:1019B0000BBE0F900FBE0F901F9018951F920F92A5
:1019C0000FB60F9211240BB60F928F939F93EF9344
:1019D000FF939091BC028091BB02981769F0E0914F
:1019E000BB02EF5FEF71E093BB02F0E0E352FD4F0B
:1019F00080818093CE0005C08091C9008F7D809347
:101A0000C900FF91EF919F918F910F900BBE0F90A6
:101A10000FBE0F901F9018951F920F920FB60F9246
:101A200011240BB60F922F938F939F93EF93FF93F5
:101A30008091D0009091D6008871E0917502EF5F9F
:101A4000EF7120917402E21739F0E0937502F0E033
:101A5000E858FD4F908301C082E080937302FF91AC
:101A6000EF919F918F912F910F900BBE0F900FBE12
:101A70000F901F9018951F920F920FB60F9211247E
:101A80000BB60F928F939F93EF93FF9390917702F2
:101A900080917602981769F0E0917602EF5FEF711E
:101AA000E0937602F0E0E856FD4F80818093D60007
:101AB00005C08091D1008F7D8093D100FF91EF917F
:101AC0009F918F910F900BBE0F900FBE0F901F90A4
:101AD00018951F920F920FB60F9211240BB60F920A
:101AE0002F938F939F93EF93FF9380913001909169
:101AF00036018871E0913002EF5FEF7120912F0283
:101B0000E21739F0E0933002F0E0ED5CFD4F908396
:101B100001C082E080932E02FF91EF919F918F91FF
:101B20002F910F900BBE0F900FBE0F901F90189526
:101B30001F920F920FB60F9211240BB60F928F9334
:101B40009F93EF93FF939091320280913102981707
:101B500069F0E0913102EF5FEF71E0933102F0E064
:101B6000ED5AFD4F80818093360105C0809131018F
:101B70008F7D80933101FF91EF919F918F910F9015
:101B80000BBE0F900FBE0F901F901895109232024F
:101B9000109231021092300210922F0297FF04C06F
:101BA00022E0209330019F77909335018093340198
:101BB00088E980933101809132018F7380933201E3
:101BC000809132018F7C8093320180913201877F36
:101BD000809332018091320186608093320180913E
:101BE00031018B7F80933101089590913002809173
:101BF0002F02981791F0E0912F02EF5FEF71E093C1
:101C00002F02F0E0ED5CFD4F208180912E0290E0EC
:101C1000982F8827820F911D089580E091E0089504
:101C2000909132029F5F9F71209131029217E1F3F0
:101C3000E92FF0E0ED5AFD4F8083909332028091BE
:101C400031018062809331010895809130022091AA
:101C50002F0290E04F96821B91096FE170E098C0CF
:101C60008F929F92AF92BF92CF92DF92EF92FF92AC
:101C70000F931F93CF93DF936B01D82FC92F490187
:101C80005A0168D187FD0CC09701A801B6018D2FBC
:101C90009C2F10D3181634F076010D2F1C2F02C084
:101CA00074018501B701C801DF91CF911F910F9198
:101CB000FF90EF90DF90CF90BF90AF909F908F906C
:101CC00008954F925F926F927F92AF92BF92CF92A0
:101CD000DF92EF92FF920F931F93CF93DF93CDB7D5
:101CE000DEB728970FB6F894DEBF0FBECDBF29012F
:101CF0003A01E982FA820B831C8365D06D837E836F
:101D00008F839887A3019201C801B7015CD09B0122
:101D1000AC016D817E818F81988523D12B013C019F
:101D2000A60195016A8D7B8D8C8D9D8D4CD09B017C
:101D3000AC01C301B201C9D2A601950145D02896D4
:101D40000FB6F894DEBF0FBECDBFDF91CF911F91CC
:101D50000F91FF90EF90DF90CF90BF90AF907F906A
:101D60006F905F904F900895AA1BBB1B51E107C075
:101D7000AA1FBB1FA617B70710F0A61BB70B881F1B
:101D8000991F5A95A9F780959095BC01CD010895AA
:101D900097FB072E16F4009406D077FD08D0E4DFF9
:101DA00007FC05D03EF4909581959F4F089570955E
:101DB00061957F4F0895EE0FFF1F881F8BBF07901F
:101DC000F691E02D19945058BB27AA270ED027C2B0
:101DD000F0D130F0F5D120F031F49F3F11F41EF432
:101DE000C0C10EF4E095E7FBB6C1E92F3AD280F30B
:101DF000BA17620773078407950718F071F49EF508
:101E000052C20EF4E0950B2EBA2FA02D0B01B90192
:101E100090010C01CA01A0011124FF27591B99F060
:101E2000593F50F4503E68F11A16F040A22F232F6C
:101E3000342F4427585FF3CF469537952795A795BC
:101E4000F0405395C9F77EF41F16BA0B620B730B63
:101E5000840BBAF09150A1F0FF0FBB1F661F771FD4
:101E6000881FC2F70EC0BA0F621F731F841F48F489
:101E7000879577956795B795F7959E3F08F0B3CF0F
:101E80009395880F08F09927EE0F979587950895F9
:101E900090D158F080E891E009F49EEF91D128F0BC
:101EA00040E851E059F45EEF09C05BC1FCC1E92F85
:101EB000E078D7D168F3092E052AC1F32617370732
:101EC0004807590738F00E2E07F8E02569F0E0259D
:101ED000E0640AC0EF6307F8009407FADB01B90178
:101EE0009D01DC01CA01AD01EF934AD098D10AD01F
:101EF0005F91552331F02BED3FE049E450FD49EC73
:101F000063CF0895DF93DD27B92FBF7740E85FE304
:101F10001616170648075B0710F4D92FCFD19F93E9
:101F20008F937F936F937CD2E4EEF0E01DD177D155
:101F30002F913F914F915F91D4D1DD2349F090587B
:101F4000A2EA2AED3FE049EC5FE3D0785D274DDF60
:101F5000DF9165C1DCD008F481E0089539D1E395C3
:101F60006FC10CD05CC12CD140F023D130F021F4F2
:101F70005F3F19F0F0C0511197C1F3C072D198F3CF
:101F80009923C9F35523B1F3951B550BBB27AA27FA
:101F900062177307840738F09F5F5F4F220F331F6C
:101FA000441FAA1FA9F333D00E2E3AF0E0E830D038
:101FB00091505040E695001CCAF729D0FE2F27D03B
:101FC000660F771F881FBB1F261737074807AB0709
:101FD000B0E809F0BB0B802DBF01FF2793585F4F7E
:101FE0002AF09E3F510568F0B6C05EC15F3FECF33A
:101FF000983EDCF3869577956795B795F7959F5F43
:10200000C9F7880F911D9695879597F90895E1E096
:10201000660F771F881FBB1F621773078407BA07F5
:1020200020F0621B730B840BBA0BEE1F88F7E09550
:10203000089504D06894B11137C108951AD188F079
:102040009F5790F0B92F9927B751A0F0D1F0660FA4
:10205000771F881F991F1AF0BA95C9F712C0B130BF
:1020600081F021D1B1E008951EC1672F782F882714
:10207000B85F39F0B93FCCF3869577956795B395FE
:10208000D9F73EF490958095709561957F4F8F4F6D
:102090009F4F0895E89409C097FB3EF49095809572
:1020A000709561957F4F8F4F9F4F9923A9F0F92F1E
:1020B00096E9BB279395F695879577956795B7959C
:1020C000F111F8CFFAF4BB0F11F460FF1BC06F5F82
:1020D0007F4F8F4F9F4F16C0882311F096E911C094
:1020E000772321F09EE8872F762F05C0662371F0B5
:1020F00096E8862F70E060E02AF09A95660F771FC9
:10210000881FDAF7880F9695879597F90895990FA4
:102110000008550FAA0BE0E8FEEF16161706E807B1
:10212000F907C0F012161306E407F50798F0621BD2
:10213000730B840B950B39F40A2661F0232B242BA7
:10214000252B21F408950A2609F4A140A6958FEFC6
:10215000811D811D089597F99F6780E870E060E018
:1021600008959FEF80EC0895DF93CF931F930F9313
:10217000FF92EF92DF927B018C01689405C0DA2E0A
:10218000EF01AFD0FE01E894A591259135914591DD
:102190005591AEF3EF0129DEFE019701A801DA9413
:1021A00079F7DF90EF90FF900F911F91CF91DF9122
:1021B000089500240A9416161706180609060895AD
:1021C00000240A9412161306140605060895C9CFB2
:1021D00050D0E8F3E894E0E0BB279F57F0F02AEDF9
:1021E0003FE049EC06C0EE0FBB0F661F771F881F4C
:1021F00028F0B23A62077307840728F0B25A620BDC
:10220000730B840BE3959A9572F7803830F49A95A6
:10221000BB0F661F771F881FD2F7904806C1092E93
:102220000394000C11F4882352F0BB0F40F4BF2B31
:1022300011F460FF04C06F5F7F4F8F4F9F4F089571
:10224000EF93E0FF06C0A2EA2AED3FE049EC5FEB26
:10225000CCDDE5DF0F90039401FC9058E1E1F1E063
:10226000F7C057FD9058440F551F59F05F3F71F06C
:102270004795880F97FB991F61F09F3F79F08795ED
:102280000895121613061406551FF2CF4695F1DF76
:1022900008C0161617061806991FF1CF8695710506
:1022A000610508940895E894BB2766277727CB013A
:1022B00097F908952CDF08F48FEF08959B01AC0186
:1022C00060E070E080E89FE34CCE0BD0A8CF71DFD8
:1022D00028F076DF18F0952309F03DCF42CF112486
:1022E000E3CFBFDFA0F3959FD1F3950F50E0551FCB
:1022F000629FF001729FBB27F00DB11D639FAA275B
:10230000F00DB11DAA1F649F6627B00DA11D661FA9
:10231000829F2227B00DA11D621F739FB00DA11DCA
:10232000621F839FA00D611D221F749F3327A00D84
:10233000611D231F849F600D211D822F762F6A2F20
:1023400011249F5750408AF0E1F088234AF0EE0FA5
:10235000FF1FBB1F661F771F881F91505040A9F7B2
:102360009E3F510570F0F7CE9FCF5F3FECF3983E54
:10237000DCF3869577956795B795F795E7959F5F19
:10238000C1F7FE2B880F911D9695879597F90895B3
:102390009F931EDF0F9007FCEE5F52CF11F40EF4F7
:1023A000E0CE41C066DFD0F39923D9F3CEF39F5737
:1023B000550B87FF46D00024A0E640EA90018058E4
:1023C0005695979528F4805C660F771F881F20F03C
:1023D00026173707480730F4621B730B840B20293C
:1023E00031294A2BA69517940794202531254A2791
:1023F00058F7660F771F881F20F026173707480702
:1024000030F4620B730B840B200D311D411DA09520
:1024100081F7B901842F9158880F96958795089573
:102420009B01AC0152CF9F3F31F0915020F4879532
:1024300077956795B795880F911D9695879597F92C
:10244000089591505040660F771F881FD2F7089566
:102450009F938F937F936F93FF93EF939B01AC01B7
:1024600034DFEF91FF9180DE2F913F914F915F918B
:102470002CCFEF920F931F93CF93DF93E80147FD8B
:1024800002C034E001C034E1042E000C550B57FFAC
:1024900003C0519541955109E32E022F242FAE011F
:1024A00007D0CE01DF91CF911F910F91EF9008954A
:1024B0008F929F92AF92BF92CF92DF92EF92FF9254
:1024C0000F931F93CF93DF93CDB7DEB729970FB646
:1024D000F894DEBF0FBECDBF6A01122FB02E2BE3E2
:1024E000201720F0FF24F394F00E02C02CE3F22E0C
:1024F0000F2D27E0AE014F5F5F4F50D1BC014981E6
:10250000842F8970813031F0E1FC06C0E0FE06C006
:1025100090E205C09DE203C09BE201C090E05E2D09
:10252000507143FF3CC0911102C083E001C084E0C0
:10253000811718F4212F281B01C020E051110BC076
:10254000F601822F30E2882319F031938150FBCFBE
:10255000C20ED11C20E0992329F0D6019C93F601EC
:1025600031966F01C6010396E2FE0AC03EE4D60131
:102570003C9341E411964C93119712963C9306C0FC
:102580003EE6F601308341E641833283FC01322F7F
:1025900040E2332309F442C041933150FACF42FF65
:1025A00044C0911102C083E001C084E0811718F497
:1025B000212F281B01C020E051110BC0F601822FF2
:1025C00030E2882319F031938150FBCFC20ED11C29
:1025D00020E0992329F0D6019C93F60131966F01F2
:1025E000C6010396E2FE0BC039E4D6013C933EE4FB
:1025F00011963C93119736E412963C9307C039E646
:10260000F60130833EE6318336E63283FC01322F19
:1026100040E2332319F041933150FBCFFC01E20F2C
:10262000F11D10828EEF9FEFA6C021E030E09111E6
:1026300002C020E030E0161617061CF4FB013196AC
:1026400002C0E1E0F0E02E0F3F1FBB2021F0EB2D98
:10265000F0E0319602C0E0E0F0E02E0F3F1FE12FE6
:10266000F0E02E173F071CF4121B212F01C020E0C1
:102670008E2D887159F4F601822F30E2882319F0EB
:1026800031938150FBCFC20ED11C20E0992329F059
:10269000D6019C93F60131966F0151110BC0F601E2
:1026A000822F90E3882319F091938150FBCFC20EC3
:1026B000D11C20E00F2D060F9A81342F307144FF7A
:1026C00003C0913309F40150101624F4093018F0B6
:1026D00008E001C001E0AB0177FF02C040E050E03C
:1026E000FB01E41BF50BA1E0B0E0AC0FBD1FEA0F4E
:1026F000FB1F8EE2A82E4B01801A91080B2D10E0D3
:102700001195019511094F3FBFEF5B0721F4D601E9
:10271000AC9211966D01641775072CF0841695061E
:1027200014F4818101C080E3415051093196D601F2
:1027300011967D014017510724F0D6018C93670153
:10274000E2CF6417750739F4963320F4953319F402
:10275000311101C081E3F6018083F701822F90E2FD
:10276000882319F091938150FBCFF701E20FF11DFF
:10277000108280E090E029960FB6F894DEBF0FBE7D
:10278000CDBFDF91CF911F910F91FF90EF90DF9020
:10279000CF90BF90AF909F908F900895283008F011
:1027A00027E03327DA01990F311D87FD91600096EC
:1027B0006105710539F432602E5F3D9330E32A954F
:1027C000E1F708959F3F30F080387105610509F009
:1027D0003C5F3C5F3D93913008F08068911DDF9332
:1027E000CF931F930F93FF92EF92192F987F969597
:1027F000E92F96959695E90FFF27E657FE4F992703
:102800003327EE24FF24A701E701059008940794DD
:1028100028F4360FE71EF81E491F511D660F771F5B
:10282000881F991F0694A1F70590079428F4E70ED6
:10283000F81E491F561FC11D770F881F991F661F5D
:102840000694A1F70590079428F4F80E491F561F27
:10285000C71FD11D880F991F661F771F0694A1F708
:102860000590079420F4490F561FC71FD81F990FD2
:10287000661F771F881F0694A9F78491109517701B
:1028800041F0D695C79557954795F794E7941A95D3
:10289000C1F7E0E3F1E068941590159135916591E9
:1028A000959105907FE27395E118F10A430B560B61
:1028B000C90BD009C0F7E10CF11E431F561FC91FF9
:1028C000D01D7EF4703311F48A95E6CFE894015060
:1028D00030F0080F0AF40027021708F4202F239580
:1028E000022F7A3328F079E37D932A95E9F710C017
:1028F0007D932A9589F60694979567953795179550
:102900001794E118F10A430B560BC90BD00998F044
:1029100023957E9173957A3308F070E37C932013AE
:10292000B8F77E9170617D9330F0839571E37D936C
:1029300070E32A95E1F71124EF90FF900F911F911A
:10294000CF91DF91992787FD90950895F894FFCF57
:00000001FF
