:1000000016C1000044C1000042C1000040C1000010
:100010003EC1000052C1000083C1000038C1000091
:1000200036C1000034C1000032C1000030C1000000
:100030002EC100002CC100002AC1000028C1000010
:1000400026C1000024C1000022C1000020C1000020
:100050001EC100001CC100001AC1000018C1000030
:1000600016C100000C943D100C946C1010C10000DF
:100070000EC100000CC100000AC1000008C1000050
:1000800006C1000004C1000002C1000000C1000060
:100090000C942E110C945D11FAC00000F8C0000001
:1000A000F6C00000F4C00000F2C000006CC1000007
:1000B000EEC00000ECC00000EAC00000E8C0000094
:1000C000E6C00000E4C00000E2C000000C948B1108
:1000D0000C94BA11DCC000000C94E8110C941712B7
:1000E000D6C00000084AD73B3BCE016E84BCBFFDA2
:1000F000C12F3D6C74319ABD56833DDA3D00C77FF8
:1001000011BED9E4BB4C3E916BAAAABE0000008090
:100110003F05A84CCDB2D44EB93836A9020C50B91F
:10012000918688083CA6AAAA2ABE000000803F004B
:1001300000407A10F35A00A0724E18090010A5D49E
:10014000E80000E87648170000E40B54020000CAFB
:100150009A3B000000E1F505000080969800000041
:1001600040420F000000A0860100000010270000A0
:100170000000E803000000006400000000000A0026
:10018000000000000100000000002C76D888DC6729
:100190004F0823DFC1DFAE59E1B1B796E5E3E45381
:1001A000C63AE651997696E8E6C28426EB898C9B9E
:1001B00062ED407C6FFCEFBC9C9F40F2BAA56FA53E
:1001C000F490055A2AF75C936B6CF9676DC11BFCC0
:1001D000E0E40D47FEF520E6B500D0ED902E0300DB
:1001E000943577050080841E080000204E0A000028
:1001F00000C80C333333330F986E12831141EF8DE7
:100200002114893BE65516CFFEE6DB18D1844B3826
:100210001BF77C1D901DA4BBE424203284725E2257
:100220008100C9F124ECA1E53D27C2027D0711241C
:100230001FBECFEFD1E2DEBFCDBF00E00CBF12E0AA
:10024000A0E0B2E0ECE2F3E300E00BBF02C00790F5
:100250000D92A031B107D9F724E0A0E1B2E001C0CE
:100260001D92A63DB207E1F711E0C7E1D1E000E041
:1002700006C021970109802FFE010E94AF13C531EE
:10028000D10780E00807A9F7CED20C949419B8CE14
:1002900081B18E7D81B98DB18B7E8DB9EAE6F0E0BA
:1002A00080818360808380818C6080838DB3806354
:1002B0008DBB0E941E100C9434101F920F920FB62B
:1002C0000F9211248F939F93AF93BF93029B0CC007
:1002D0008091780290917902A0917A02B0917B028C
:1002E0000197A109B1090BC0809178029091790220
:1002F000A0917A02B0917B020196A11DB11D80935D
:10030000780290937902A0937A02B0937B02BF9116
:10031000AF919F918F910F900FBE0F901F901895E6
:100320001F920F920FB60F9211248F939F93AF934A
:10033000BF93009B0CC080917C0290917D02A091A4
:100340007E02B0917F020196A11DB11D0BC080916C
:100350007C0290917D02A0917E02B0917F02019774
:10036000A109B10980937C0290937D02A0937E0243
:10037000B0937F02BF91AF919F918F910F900FBE6D
:100380000F901F9018951F920F920FB60F92112485
:100390000BB60F92CF92DF92EF92FF922F933F9383
:1003A0004F935F936F937F938F939F93AF93BF937D
:1003B000EF93FF93409178025091790260917A0215
:1003C00070917B028AE392E00E945F1340917C026D
:1003D00050917D0260917E0270917F0280E192E0F7
:1003E0000E945F138AE392E00E948513882331F014
:1003F00080E192E00E94851381111BC01092A5003C
:100400001092A400FF91EF91BF91AF919F918F91B6
:100410007F916F915F914F913F912F91FF90EF905E
:10042000DF90CF900F900BBE0F900FBE0F901F90DC
:1004300018958AE392E00E947413C0907802D090DD
:100440007902E0907A02F0907B026C197D098E09A6
:100450009F090E94201527E230EA49E85CE30E94E8
:10046000391620E030E040E850E40E9439166093ED
:100470007002709371028093720290937302C09025
:100480007C02D0907D02E0907E02F0907F0280E1BD
:1004900092E00E947413A7019601261B370B480BAC
:1004A000590BCA01B9010E94201527E230EA49E838
:1004B0005CE30E94391620E030E040E850E40E94FE
:1004C000391660937402709375028093760290934C
:1004D0007702609170027091710280917202909126
:1004E000730220917402309175024091760250910E
:1004F00077020E94B81320E030E040E05FE30E9402
:1005000039166093840270938502809386029093DB
:1005100087028091840290918502A0918602B09119
:1005200087028093800290938102A0938202B0930D
:10053000830260918402709185028091860290917D
:100540008702C0906C02D0906D02E0906E02F09035
:100550006F0222E03BE247E05DE30E9439162DEC9A
:100560003CEC4CEC5CE30E943916A70196010E941A
:10057000B81360936C0270936D0280936E02909337
:100580006F023CCFEAE3F2E0108211A6E0E1F2E074
:10059000108211A608952F923F924F925F926F9210
:1005A0007F928F929F92AF92BF92CF92DF92EF9203
:1005B000FF920F931F93CF93DF9300D01F92CDB77D
:1005C000DEB74C017A8369831A011C830B83FB011C
:1005D0008081863009F4BEC078F4833009F4B4C059
:1005E000843009F4CBC0823009F002C18B819C8138
:1005F0009DD60E948F12FCC0883009F4B4C008F464
:10060000EEC0893009F4B6C08F3F09F0F1C0F401A3
:10061000608170E080E090E00E941E15F1E4FF939D
:100620001F921F921F92A12CB12CC12C21ECD22E13
:10063000E12CF12C08EC12E420E030E040E85FE32C
:100640000E940C1329E23CE54FE85EE30E94B713D9
:10065000E12CF12C00EA10E420E030E040EA50EC1C
:100660000E94DB122B013C01F401618170E080E00B
:1006700090E00E941E15F1E4FF931F921F921F92BB
:10068000E12CF12C08EC12E420E030E040E85FE3DC
:100690000E940C136B017C01EB81FC8160817181F4
:1006A000828193812DEC3CEC4CE45FE30E9439168F
:1006B0004B015C012DEC3CEC4CE45EE3C301B20168
:1006C0000E9439169B01AC01C501B4010E94B81308
:1006D000EB81FC8160837183828393838480958026
:1006E000A680B78029E23CE54FE85EE3C701B6018A
:1006F0000E94B7132DEC3CEC4CEC5DE30E943916E4
:100700006B017C0126E636E646E65FE3C501B401EF
:100710000E9439169B01AC01C701B6010E94B813B3
:10072000EB81FC816483758386839783F10110825A
:10073000EB81FC8110861186128613860FB6F89421
:10074000DEBF0FBECDBF54C0F70164A975A986A94D
:1007500097A906C0EB81FC8160A171A182A193A140
:100760000E94BA1245C0EB81FC816085718582854B
:100770009385F6CF8B819C81DCD5F2CF68E873E15D
:10078000C7010E94600E8AE00E948F12FFEF29E6E7
:1007900088E1F15020408040E1F700C000008091E6
:1007A0000B01816080930B019FEFE9E6F8E1915026
:1007B000E040F040E1F700C0000080910B018E7F27
:1007C00080930B012FEF8BE792E9215080409040FE
:1007D000E1F700C00000C7010E94730D09C0FA01D3
:1007E0008081882311F0108203C081E0FA018083A8
:1007F000E981FA81108280E00F900F900F900F90A6
:10080000DF91CF911F910F91FF90EF90DF90CF90EC
:10081000BF90AF909F908F907F906F905F904F9020
:100820003F902F900895CF93DF93CDB7DEB7C65B8F
:10083000D1090FB6F894DEBF0FBECDBF0F9A179A3D
:10084000C256DF4F1882CE59D040C156DF4F1882B2
:10085000CF59D040CF55DF4F1882C15AD04081E0E8
:10086000C056DF4F8883C05AD04084E692E0F7D369
:1008700080E190E00E949A1080E190E00E94451291
:10088000789406DD80910A01816080930A015BD62D
:10089000813029F480910B01816080930B010E94CB
:1008A000C10F0E94F40F0E94FF0F8E010F5F1F4FB8
:1008B000C8010E94120D0E94081060E070E080E004
:1008C00091EC0E94D90F0E9419108FE39CE90197C7
:1008D000F1F700C00000CE018E579F4F4DEC5CEC4D
:1008E0006CE07FE3DC014D935D936D937C931397F4
:1008F0004AE959E969E97EE3FC014483558366834B
:1009000077834FE852EC65EF7CE318964D935D9347
:100910006D937C931B974AE959E969E17FE344872A
:1009200055876687778750961D921D921D921C925F
:100930005397148A158A168A178A58961D921D9203
:100940001D921C925B977C97C12CD12C20E8E22E43
:1009500021E4F22EC082D182E282F38214821582D7
:100960001682178239E2C32E3CE5D32E3FE0E32EF8
:100970003FE3F32EC086D186E286F386448755870F
:1009800066877787108A118A128A138A148A158AD1
:10099000168A178A108E118E128E138ED897412CBC
:1009A000512C20E2622E21E4722E4D925D926D92C6
:1009B0007C92139714964D925D926D927C9217974C
:1009C00018961D921D921D921C921B971C964D937A
:1009D0005D936D937C931F9750961D921D921D926F
:1009E0001C92539754961D921D921D921C925797DC
:1009F00058961D921D921D921C925B97CE55DF4F0B
:100A00001882C25AD040CD55DF4F188219821A82FF
:100A10001B82C35AD040212C312C412C512C320145
:100A2000C555DF4F0883CB5AD040C455DF4F1883DC
:100A3000CC5AD040C355DF4F8883CD5AD040C255E1
:100A4000DF4F9883CE5AD040CD54DF4FA883C35B8D
:100A5000D040CC54DF4FB883C45BD040CB54DF4F81
:100A6000E883C55BD040CA54DF4FF883C65BD040F3
:100A70000E940810C955DF4F688379838A839B835E
:100A8000C75AD0400E941910C955DF4F488159817B
:100A90006A817B81C75AD040C555DF4F8881CB5AC8
:100AA000D040C455DF4F9881CC5AD0400E949B0D56
:100AB0002DEC3CEC4CE45DE3C301B2010E942E1628
:100AC00018160CF080C08091840290918502A0914C
:100AD0008602B0918702C155DF4F88839983AA832C
:100AE000BB83CF5AD0408091640290916502A0915F
:100AF0006602B0916702CD55DF4F88839983AA8340
:100B0000BB83C35AD04060916402709165028091AA
:100B100066029091670220E030E040E05FE30E94CF
:100B20007E1487FF17C06091640270916502809106
:100B300066029091670220E030E040E05FEB0E94A7
:100B40002E1618163CF4C056DF4F8881C05AD0408C
:100B5000811196C0812C912C40E2A42E41E4B42E48
:100B600073016201CD55DF4F088119812A813B81D4
:100B7000C35AD040C155DF4F488159816A817B817A
:100B8000CF5AD040C355DF4F8881CD5AD040C2558F
:100B9000DF4F9881CE5AD0400E94F30EE12CF12C09
:100BA00000EA10E420E030E040EA50EC0E94DB1262
:100BB000CD55DF4F688379838A839B83C35AD040A6
:100BC000412C512C32016DA97EA98FA998AD2CEC36
:100BD0003EE245E652E40E943916AB01BC01812C8D
:100BE000912C5401C955DF4FC880D980EA80FB8021
:100BF000C75AD040CD55DF4F088119812A813B81EA
:100C0000C35AD040CB54DF4F8881C55BD040CA5413
:100C1000DF4F9881C65BD0400E94F30EE12CF12C8F
:100C200004EB12E420E030E044EB52EC0E94DB12D3
:100C30006B017C016DA97EA98FA998AD2CEC3EE2D9
:100C400045E652E40E94391620E030E040EF51E4DE
:100C50000E942E1618160CF445C06DA97EA98FA906
:100C600098AD2CEC3EE245E652E40E94391620E0B5
:100C700030E040EF51EC0E947E1487FD33C034C059
:100C800040916C0250916D0260916E0270916F0202
:100C9000812C912C80E8A82E8FE3B82E730162017D
:100CA00000E010E09801CD54DF4F8881C35BD04055
:100CB000CC54DF4F9881C45BD0400E94F30EE12CEE
:100CC000F12C00E011E420E030E040E051EC0E9423
:100CD000DB12CD55DF4F688379838A839B83C35AA8
:100CE000D04038CF60E004C0C701B6010E94ED14C7
:100CF00084E692E017D26091680270916902809157
:100D00006A0290916B0228E53FEF4FE75FE30E9494
:100D10003916609368027093690280936A02909317
:100D20006B026091640270916502809166029091FD
:100D300067022FEE3FEF4FE75FE30E9439166093A3
:100D40006402709365028093660290936702DD24CB
:100D5000DA940E9408102FE632E143E85BE30E9438
:100D60007E1487FF92C00E942311892B11F00E94EC
:100D7000C9100E94AF12892B61F30E947412CF55E3
:100D8000DF4F8883C15AD040CE55DF4FA881C25A69
:100D9000D040AA2309F440C0EEE9F0E0EC0FFD1FBB
:100DA000EA0FF11D31978083A23059F5CF55DF4FFF
:100DB000D882C15AD040C555DF4FE880CB5AD040C9
:100DC000C455DF4FF880CC5AD04004E612E0C3553A
:100DD000DF4F2881CD5AD040C255DF4F3881CE5ADF
:100DE000D040AE0140565F4FBE016F557F4FCE01E0
:100DF00082569F4FD0DBCE55DF4F1882C25AD0406B
:100E00000BC0CE55DF4FE881C25AD040EF5FCE55C0
:100E1000DF4FE883C25AD040CF55DF4F8881C15A97
:100E2000D0408F3F39F491E0CE55DF4F9883C25ABE
:100E3000D0408FCFCE55DF4FF881C25AD040F1114C
:100E400088CF882309F485CFC555DF4FE880CB5A7A
:100E5000D040C455DF4FF880CC5AD04004E612E0B1
:100E6000C355DF4F2881CD5AD040C255DF4F38815E
:100E7000CE5AD040AE0140565F4FBE016F557F4FF6
:100E8000CE0182569F4F87DB64CF0E94081026EA6E
:100E90003BE944EC5BE30E942E1618165CF480E0FC
:100EA00092E00E94F9100E9408100E9404118AE04A
:100EB0000E94E4108FEF281A380AC10164E670E03E
:100EC0000E948813892B19F484E692E080D199EE70
:100ED000291693E0390610F0212C312CC955DF4F2B
:100EE000288139814A815B81C75AD040C301B20150
:100EF0000E94B8132B013C01BBCD8F92AF92CF92D1
:100F0000EF920F931F9386E0882E94E0A92E22E0A3
:100F1000C22EE12C08E210E028E230E047E250E087
:100F200067E270E084E692E007D01F910F91EF90A6
:100F3000CF90AF908F9008958F92AF92CF92EF9213
:100F40000F931F93CF93DF93CDB7DEB7FC011082D1
:100F500011821282138214821582168217821086E1
:100F6000118612861386108A118A128A138A108EAD
:100F7000118E128E138E148E158E168E178E10A251
:100F800011A212A213A214A215A216A217A210A6B1
:100F900011A612A613A682E384A781E085A777A7EE
:100FA00066A751AB40AB33AB22AB15AB04ABE6AAA3
:100FB000C7AAA0AE81AE8AE999E9A9E9BEE382AFEA
:100FC00093AFA4AFB5AFDF91CF911F910F91EF9089
:100FD000CF90AF908F900895DC01413461F042349E
:100FE000E1F5D496ED91FC91D597D8962C91D897B0
:100FF000D9963C9109C0D296ED91FC91D397D696A3
:101000002C91D697D7963C9116169CF4408181E09E
:1010100090E0BC0101C0660F2A95EAF7262F2095C3
:1010200024232083208101C0880F3A95EAF7822B80
:1010300011C0608181E090E0AC0101C0440F2A95AD
:10104000EAF7462B4083208101C0880F3A95EAF7E2
:1010500080958223808380E0089581E00895CF9376
:10106000DF93EC0184B1806684B9109289001092FC
:10107000880010928B0010928A00E0E8F0E08081F6
:101080008068808380818F7B808380818062808381
:1010900080818F7E8083808181608083A1E8B0E041
:1010A0008C9188608C9380818D7F80838C9182600D
:1010B0008C938C918A7F8C93EEA5FFA5308181E083
:1010C00090E0BC010EA802C0660F771F0A94E2F7F9
:1010D000AC010FA802C0440F551F0A94E2F7262F57
:1010E000242B232B2083E8A9F9A92081AC0108AC8B
:1010F00002C0440F551F0A94E2F709AC02C0880FE2
:10110000991F0A94E2F7842B822B808341E461E0EB
:10111000CE0162DF42E461E0CE015EDF80E0DF917C
:10112000CF9108950F931F93CF93DF938C01D62F08
:10113000FC0164817581868197810E94ED14C62F20
:10114000CD0FF80164817581868197810E94ED142D
:10115000D61B41E41C162CF461E0C8013DDFCC5FD6
:1011600006C06FEFC80138DF84E08C1BC82F42E453
:101170001D1634F461E0C8012FDF61E06D0F05C07A
:101180006FEFC80129DF61E06D1BC4361CF08FEFE3
:1011900090E004C0CC0FCE5C8C2F90E0909389003F
:1011A0008093880064363CF08FEF90E090938B0042
:1011B00080938A0007C0660F6E5C70E070938B00AE
:1011C00060938A00DF91CF911F910F9108954F9204
:1011D0005F926F927F928F929F92AF92BF92CF92C7
:1011E000DF92EF92FF920F931F93CF93DF9300D084
:1011F0001F92CDB7DEB74C0180917C008064809354
:101200007C0080917C008F7780937C0080917C00B3
:10121000807E80937C0080917A00806880937A0041
:1012200080917A00806480937A0080917A0086FDB4
:10123000FCCF609178008091790070E0782B80E09D
:1012400090E00E941E152EEA37E441E750E40E9428
:10125000391620E030E040E85AE30E94391622E4D3
:101260002F9328EC2F931F921F92A12CB12C650174
:101270001EEAE12E17E4F12E01E710E420E030E051
:1012800040E650E40E940C1369837A838B839C832D
:1012900049805A806B807C80F40164A570E080E016
:1012A00090E00E941E1526E636E646E65FE30E94C1
:1012B00039166B017C012DEC3CEC4CEC5DE3C30179
:1012C000B2010E9439169B01AC01C701B6010E9410
:1012D000B81369837A838B839C8369817A818B813C
:1012E0009C810E94F214F40164A70F900F900F905C
:1012F0000F900D9A6E3110F4159A01C01598F401F3
:1013000084A50F900F900F900F90DF91CF911F91B8
:101310000F91FF90EF90DF90CF90BF90AF909F9094
:101320008F907F906F905F904F900895FC0184A5FF
:101330000895FC0160A571A582A593A508954F921B
:101340005F926F927F928F929F92AF92BF92CF9255
:10135000DF92EF92FF92CF93DF93CDB7DEB76E9718
:101360000FB6F894DEBF0FBECDBF9E8F8D8F498F15
:101370005A8F6B8F7C8FDC015C968D919D910D90C7
:10138000BC91A02D89839A83AB83BC83AD8DBE8D28
:1013900090968D919D910D90BC91A02D8D839E83F3
:1013A000AF83B887ED8DFE8D64A975A986A997A92D
:1013B0000E949C162B013C01AD8DBE8DD0966D9187
:1013C0007D918D919C91D3970E949C1669877A8715
:1013D0008B879C87ED8DFE8D60A971A982A993A949
:1013E0000E9482146D877E878F87988BAD8DBE8D0E
:1013F00094968D919D910D90BC91A02D898B9A8B87
:10140000AB8BBC8BED8DFE8D64A975A986A997A9C0
:101410000E9482144B015C01AD8DBE8DD0966D9102
:101420007D918D919C91D3970E949C166D8B7E8BA4
:101430008F8B988FED8DFE8D60A971A982A993A9DC
:101440000E9482146B017C0129853A854B855C855D
:10145000C301B2010E9439162D853E854F855889FA
:101460000E9485142D813E814F8158850E94391636
:1014700029813A814B815C810E94B8132B013C0188
:101480002D893E894F89588DC501B4010E943916B6
:10149000A70196010E94851429893A894B895C89A4
:1014A0000E9439169B01AC01C301B2010E94B8131E
:1014B0009058298D3A8D4B8D5C8D0E9439166E9611
:1014C0000FB6F894DEBF0FBECDBFDF91CF91FF9076
:1014D000EF90DF90CF90BF90AF909F908F907F90D4
:1014E0006F905F904F9008958091BC0087FFFCCF74
:1014F000089584EA8093BC00F7CF8093BB0084E812
:101500008093BC00F1CF84EC8093BC00EDDF809130
:10151000BB00089584E88093BC00E6DF8091BB00A7
:101520000895E7DF80EDE9DF85E7E7DFE2DF81EDC2
:10153000E4DFF0DF94E99093BC0091E0883609F095
:1015400090E0892F0895CF9383E08093B800809135
:10155000B9008C7F8093B9008091BC008460809337
:10156000BC00C7DF80EDC9DF8BE6C7DF81E0C5DFE8
:10157000C4E9C093BC00BDDF80EDBFDF89E1BDDF02
:1015800087E0BBDF80E0B9DF80E0B7DF80E0B5DF78
:10159000C093BC00C6DF91E0811190E0892FCF910C
:1015A00008954F925F926F927F928F929F92AF9227
:1015B000BF92CF92DF92EF92FF92CF93DF93CDB79E
:1015C000DEB72A970FB6F894DEBF0FBECDBF283521
:1015D000A9F42A960FB6F894DEBF0FBECDBFDF91F7
:1015E000CF91FF90EF90DF90CF90BF90AF909F9002
:1015F0008F907F906F905F904F90A1CE293509F02A
:101600004BC04D835E836F8378879A878987DC011F
:1016100090968D909D90AD90BC909397D4966D913F
:101620007D918D919C91D7970E9482142B013C0152
:10163000A985BA8594968D919D910D90BC91A02D10
:1016400089839A83AB83BC83E985FA8564A975A9EC
:1016500086A997A90E949C166B017C01A3019201A7
:10166000C501B4010E9439164B015C01A701960126
:1016700069817A818B819C810E9439169B01AC0122
:10168000C501B4010E94B71390582D813E814F814E
:1016900058850E94391603C060E070E0CB012A969D
:1016A0000FB6F894DEBF0FBECDBFDF91CF91FF9094
:1016B000EF90DF90CF90BF90AF909F908F907F90F2
:1016C0006F905F904F9008953F924F925F926F920C
:1016D0007F928F929F92AF92BF92CF92DF92EF92C2
:1016E000FF920F931F93CF93DF93CDB7DEB76E9723
:1016F0000FB6F894DEBF0FBECDBF8C01362E11DFC2
:10170000811105C020DF88E092E073D5F8CFF1DECB
:1017100080EDF3DE8BE3F1DEECDE81EDEEDECE017B
:1017200001967C016E019EE0C90ED11CECDED70152
:101730008D937D01AC15BD05C9F7ECDE8E8784E97C
:101740008093BC0069817A81762767277627072EE8
:10175000000C880B990B0E9420156B017C016B819A
:101760007C81762767277627072E000C880B990B3C
:101770000E9420156B8B7C8B8D8B9E8B6D817E8167
:10178000762767277627072E000C880B990B0E9477
:1017900020152B013C0169857A85762767277627F6
:1017A000072E000C880B990B0E9420154B015C0141
:1017B0006B857C85762767277627072E000C880B9C
:1017C000990B0E9420156F87788B898B9A8B6D857A
:1017D0007E85762767277627072E000C880B990BC6
:1017E0000E9420156F8B788F898F9A8F3320B9F1E3
:1017F0006F817885F801C48AD58AE68AF78A8B8951
:101800009C89AD89BE89808F918FA28FB38F448EC2
:10181000558E668E778E762767277627072E000CE3
:10182000880B990B0E942015F80160A371A382A375
:1018300093A384A295A2A6A2B7A28F859889A9890D
:10184000BA8980A791A7A2A7B3A78F89988DA98DE0
:10185000BA8D84A795A7A6A7B7A781E0CBC0A7019B
:101860009601C701B6010E9439166B8F7C8F8D8F50
:101870009E8FA3019201C301B2010E9439169B0100
:10188000AC016B8D7C8D8D8D9E8D72D70E94A616BE
:101890009B01AC016B897C898D899E890E9485148E
:1018A0000E9456146B8B7C8B8D8B9E8BC701B6016F
:1018B0009058A3019201CFD76B017C0120ED3FE04E
:1018C00049EC5FE30E942E1618164CF4A70196010E
:1018D00060ED7FE089E490E44AD76B017C0120ED64
:1018E0003FE049EC5FEBC701B6010E947E1487FF21
:1018F00009C0A701960160ED7FE089E490EC37D73D
:101900006B017C0120E030E043E053E4C501B40109
:10191000FCD728E939EF4EE85CE30E9439162B0129
:101920003C0120E030E043E053E46F857889898909
:101930009A89EBD728E939EF4EE85CE30E94391623
:101940004B015C0120E030E043E053E46F89788D87
:10195000898D9A8DDAD728E939EF4EE85CE30E9449
:1019600039166F87788B898B9A8B8B899C89AD8987
:10197000BE89F801848B958BA68BB78BD801C08E5E
:10198000D18EE28EF38EE05CFF4F8081F8018823D8
:1019900059F0448E558E668E778E90968D929D92DC
:1019A000AD92BC9293971CC020AD31AD42AD53AD0A
:1019B000C301B201DDD6D8015C966D937D938D9302
:1019C0009C935F97DC962D913D914D915C91DF97B3
:1019D000C501B401CDD6F80160A371A382A393A37E
:1019E0008F859889A989BA89F80184A395A3A6A3AC
:1019F000B7A380E06E960FB6F894DEBF0FBECDBFE2
:101A0000DF91CF911F910F91FF90EF90DF90CF90DA
:101A1000BF90AF909F908F907F906F905F904F900E
:101A20003F900895CF93DF93EC01188219821A82B8
:101A30001B821C821D821E821F82188619861A86AE
:101A40001B86188A198A1A8A1B8A1CAA1DAA1EAA12
:101A50001FAA18AE19AE1AAE1BAE1CAE1DAE1EAE3E
:101A60001FAEFC01E05CFF4F108231968EEE9CE7CA
:101A7000AFE7BFE380839183A283B38334968083EF
:101A80009183A283B3835FDD2FEF83ED90E3215039
:101A900080409040E1F700C0000060E0CE0114DE1D
:101AA0008C899D89AE89BF898CAB9DABAEABBFAB3A
:101AB000888D998DAA8DBB8D88AB99ABAAABBBAB3A
:101AC0008CA99DA9AEA9BFA98C839D83AE83BF833A
:101AD00088A999A9AAA9BBA988879987AA87BB873A
:101AE000DF91CF910895CF93DF93EC0160E0ECDDBF
:101AF0008C899D89AE89BF898CAB9DABAEABBFABEA
:101B0000888D998DAA8DBB8D88AB99ABAAABBBABE9
:101B10008CA99DA9AEA9BFA98C839D83AE83BF83E9
:101B200088A999A9AAA9BBA988879987AA87BB87E9
:101B3000DF91CF9108954F925F926F927F928F9233
:101B40009F92AF92BF92CF92DF92EF92FF920F934C
:101B50001F93CF93DF93EC016A017B0160E0B4DD5A
:101B6000B701A601CE01EBDB6C877D878E879F874F
:101B700029E5B701A601CE0114DD688B798B8A8B2C
:101B80009B8B6C857D858E859F852C813D814E81CB
:101B90005F81EED56C837D838E839F83688979898D
:101BA0008A899B89288539854A855B85E1D568873F
:101BB00079878A879B875E0181E4A80EB11C8EEE2F
:101BC0009CE7AFE7BFE3F50180839183A283B383F2
:101BD0008E010B5B1F4FF80180839183A283B38337
:101BE000F501C080D180E280F3806CA97DA98EA927
:101BF0009FA92C853D854E855F8540805180628000
:101C000073808C889D88AE88BF88B2D5A701960165
:101C10000E9439166B017C01A301920160E070E023
:101C200080E89FE3A4D5A50194010E9439169B0189
:101C3000AC01C701B6019CD56CAB7DAB8EAB9FAB45
:101C4000F80180809180A280B38068A979A98AA9CF
:101C50009BA9288939894A895B89408051806280A3
:101C60007380C88CD98CEA8CFB8C82D5A501940139
:101C70000E9439164B015C01A301920160E070E003
:101C800080E89FE374D5A7019601F3D79B01AC01CF
:101C9000C501B4016DD568AB79AB8AAB9BABDF9165
:101CA000CF911F910F91FF90EF90DF90CF90BF9059
:101CB000AF909F908F907F906F905F904F9008951E
:101CC0008F929F92AF92BF92CF92DF92EF92FF924C
:101CD0000F931F93CF93DF93CDB7DEB764970FB603
:101CE000F894DEBF0FBECDBF8C014B01E12CF12C6F
:101CF000E814F90489F160E0C801E6DCCE01019640
:101D00005C01C12CD12CF6013596EE0FFF1FEE0FB2
:101D1000FF1FE00FF11F2081318142815381F501C6
:101D2000608171818281938123D5F50161937193E3
:101D3000819391935F01FFEFCF1ADF0A85E0C81608
:101D4000D10409F7EFE3FFE13197F1F700C000009C
:101D5000FFEFEF1AFF0ACCCFB70180E090E06ED61C
:101D60006B017C0189859A85AB85BC85BC01CD0161
:101D70009058A7019601C9D5F80160AF71AF82AF45
:101D800093AF8D859E85AF85B889BC01CD019058F4
:101D9000A7019601BAD5F80164AF75AF86AF97AFCA
:101DA00040AD51AD62AD73AD88E090E00E947A190C
:101DB000F80144AD55AD66AD77AD84E090E0649632
:101DC0000FB6F894DEBF0FBECDBFDF91CF911F914C
:101DD0000F91FF90EF90DF90CF90BF90AF909F90CA
:101DE0008F900C947A192F923F924F925F926F923C
:101DF0007F928F929F92AF92BF92CF92DF92EF929B
:101E0000FF920F931F93CF93DF93CDB7DEB7289741
:101E10000FB6F894DEBF0FBECDBF1C012A013B01F7
:101E2000C901B801CD82DE82EF82F886A30192015A
:101E30009ED469837A838B839C83F10124893589BD
:101E40004689578995D42B013C01F101648B758B30
:101E5000868B978B20E030E0A901C501B4014ED5F7
:101E6000882369F0A5019401505885017401C301CC
:101E7000B201A1D3F101648B758B868B978BF10135
:101E8000C484D584E684F784208D318D428D538DB2
:101E9000C701B601EED62B013C01F1012089318941
:101EA0004289538969817A818B819C8160D49B01AD
:101EB000AC01C301B2015CD42B013C012D813E81F8
:101EC0004F815885C701B60153D49B01AC01C301B2
:101ED000B2011BD56B017C01F101608F718F828F84
:101EE000938F2489358946895789648175818681D4
:101EF0009781BFD62D813E814F815885BAD62B015F
:101F00003C01F101208131814281538169817A81D3
:101F10008B819C81AED69B01AC01C301B20128D458
:101F20002B013C01F1012085318542855385C70194
:101F3000B6019FD69B01AC01C301B20119D429811E
:101F40003A814B815C81F101208B318B428B538B29
:101F500028960FB6F894DEBF0FBECDBFDF91CF91AC
:101F60001F910F91FF90EF90DF90CF90BF90AF90B7
:101F70009F908F907F906F905F904F903F902F90A9
:101F80000895E0E9F0E080818E7F80838081826027
:101F90008083A1E9B0E08C9188618C936B9A80E397
:101FA00095E7909397008093960080818068808366
:101FB0000895E1E9F0E020812260208320812A7FDA
:101FC000208320E030E044E352E49FD420E030E876
:101FD0004BE354E44ED601D56854744F7093990086
:101FE0006093980080E00895E0E2F1E080818C7FCA
:101FF0008083E1E2F1E08081877F80830895E1E2E0
:10200000F1E080818260808380818A7F808308956F
:10201000609124017091250180E090E00FD520E0CF
:102020003FEF4FE757E471D42DEB37E346E05DE334
:1020300020C610922501109224010895E0EAF0E0F4
:1020400080818C7F8083E1EAF0E08081877F8083DC
:102050008AE698E19093AB008093AA00E2E7F0E073
:102060008081846080830895E1EAF0E0808183606C
:10207000808380818B7F808308951F920F920FB69B
:102080000F9211240BB60F922F938F939F93EF9380
:10209000FF938091C0009091C6008871E0914B043D
:1020A000EF5FE77020914A04E21739F0E0934B04A8
:1020B000F0E0E25BFB4F908301C082E08093490433
:1020C000FF91EF919F918F912F910F900BBE0F90E9
:1020D0000FBE0F901F9018951F920F920FB60F9280
:1020E00011240BB60F928F939F93EF93FF939091D0
:1020F0004D0480914C04981769F0E0914C04EF5F17
:10210000EF77E0934C04F0E0EA5AFB4F8081809334
:10211000C60005C08091C1008F7D8093C100FF91F2
:10212000EF919F918F910F900BBE0F900FBE0F906C
:102130001F90189510924D0410924C0410924B046D
:1021400010924A0497FF04C022E02093C0009F77BA
:102150009093C5008093C40088E98093C10080916A
:10216000C2008F738093C2008091C2008F7C8093E5
:10217000C2008091C200877F8093C2008091C2001C
:1021800086608093C2008091C1008B7F8093C100E4
:10219000089590914B0480914A04981791F0E09132
:1021A0004A04EF5FE770E0934A04F0E0E25BFB4F24
:1021B00020818091490490E0982F8827820F911DFB
:1021C000089580E091E0089590914D049F5F9F777E
:1021D00020914C049217E1F3E92FF0E0EA5AFB4F0B
:1021E000808390934D048091C10080628093C100F0
:1021F0000895CF93DF93EC018991882311F0E4DFF8
:10220000FBCFDF91CF9108950F931F93CF93DF936F
:10221000CDB7DEB764970FB6F894DEBF0FBECDBF63
:102220008E010F5F1F4F25E044E0F7D5C801E1DFC5
:1022300064960FB6F894DEBF0FBECDBFDF91CF918D
:102240001F910F91089580914B0420914A0490E0D2
:102250000796821B910967E070E06EC21F920F9291
:102260000FB60F9211240BB60F922F938F939F935B
:10227000EF93FF938091C8009091CE008871E09118
:10228000BE03EF5FE7702091BD03E21739F0E093E2
:10229000BE03F0E0EF53FC4F908301C082E08093D7
:1022A000BC03FF91EF919F918F912F910F900BBEE7
:1022B0000F900FBE0F901F9018951F920F920FB6A0
:1022C0000F9211240BB60F928F939F93EF93FF936E
:1022D0009091C0038091BF03981769F0E091BF030C
:1022E000EF5FEF77E093BF03F0E0E753FC4F8081AF
:1022F0008093CE0005C08091C9008F7D8093C90076
:10230000FF91EF919F918F910F900BBE0F900FBE99
:102310000F901F9018951F920F920FB60F921124D5
:102320000BB60F922F938F939F93EF93FF93809110
:10233000D0009091D6008871E0913103EF5FE77093
:1023400020913003E21739F0E0933103F0E0EC5CC8
:10235000FC4F908301C082E080932F03FF91EF91A7
:102360009F918F912F910F900BBE0F900FBE0F90EA
:102370001F9018951F920F920FB60F9211240BB653
:102380000F928F939F93EF93FF93909133038091DC
:102390003203981769F0E0913203EF5FEF77E09333
:1023A0003203F0E0E45CFC4F80818093D60005C0EE
:1023B0008091D1008F7D8093D100FF91EF919F910B
:1023C0008F910F900BBE0F900FBE0F901F9018951E
:1023D0001F920F920FB60F9211240BB60F922F93EC
:1023E0008F939F93EF93FF938091300190913601EB
:1023F0008871E091A402EF5FE7702091A302E217D9
:1024000039F0E093A402F0E0E955FD4F908301C05C
:1024100082E08093A202FF91EF919F918F912F9183
:102420000F900BBE0F900FBE0F901F9018951F922C
:102430000F920FB60F9211240BB60F928F939F93AA
:10244000EF93FF939091A6028091A502981769F0EF
:10245000E091A502EF5FEF77E093A502F0E0E15590
:10246000FD4F80818093360105C0809131018F7DC1
:1024700080933101FF91EF919F918F910F900BBE4F
:102480000F900FBE0F901F9018951092A6021092F9
:10249000A5021092A4021092A30297FF04C022E0AA
:1024A000209330019F77909335018093340188E920
:1024B00080933101809132018F738093320180913A
:1024C00032018F7C8093320180913201877F80932B
:1024D0003201809132018660809332018091310116
:1024E0008B7F8093310108959091A4028091A30283
:1024F000981791F0E091A302EF5FE770E093A302D9
:10250000F0E0E955FD4F20818091A20290E0982FE4
:102510008827820F911D089580E091E008959091A1
:10252000A6029F5F9F772091A5029217E1F3E92F02
:10253000F0E0E155FD4F80839093A6028091310138
:102540008062809331010895CF93DF93EC018991EC
:10255000882311F0E4DFFBCFDF91CF9108958091C4
:10256000A4022091A30290E00796821B910967E0E4
:1025700070E0E2C00F931F93CF93DF93CDB7DEB728
:1025800064970FB6F894DEBF0FBECDBF8E010F5F0C
:102590001F4F24E044E041D4C801D6DF80E0BFDF14
:1025A00064960FB6F894DEBF0FBECDBFDF91CF911A
:1025B0001F910F9108958F929F92AF92BF92CF92E9
:1025C000DF92EF92FF920F931F93CF93DF936B01F4
:1025D000D82FC92F49015A0191D187FD0CC097010D
:1025E000A801B6018D2F9C2F39D3181634F076012F
:1025F0000D2F1C2F02C074018501B701C801DF91A6
:10260000CF911F910F91FF90EF90DF90CF90BF90EF
:10261000AF909F908F9008954F925F926F927F92AC
:10262000AF92BF92CF92DF92EF92FF920F931F93E0
:10263000CF93DF93CDB7DEB728970FB6F894DEBF00
:102640000FBECDBF29013A01E982FA820B831C83B8
:102650008ED06D837E838F839887A3019201C801FA
:10266000B70185D09B01AC016D817E818F819885FA
:102670004CD12B013C01A60195016A8D7B8D8C8D7F
:102680009D8D75D09B01AC01C301B201F2D2A601B0
:1026900095016ED028960FB6F894DEBF0FBECDBF61
:1026A000DF91CF911F910F91FF90EF90DF90CF902E
:1026B000BF90AF907F906F905F904F900895FC0116
:1026C00080818A3048F491E0980F908394E0899F4C
:1026D000E00DF11D112403C081E081A780834183B7
:1026E0005283638374830895FC0181A5882341F09C
:1026F00080818A3028F494E0899FE00DF11D112437
:1027000061817281838194810895FC0181A508957E
:10271000AA1BBB1B51E107C0AA1FBB1FA617B70707
:1027200010F0A61BB70B881F991F5A95A9F7809523
:102730009095BC01CD01089597FB072E16F40094E7
:1027400006D077FD08D0E4DF07FC05D03EF4909575
:1027500081959F4F0895709561957F4F0895EE0F75
:10276000FF1F881F8BBF0790F691E02D19945058DA
:10277000BB27AA270ED027C2F0D130F0F5D120F028
:1027800031F49F3F11F41EF4C0C10EF4E095E7FB55
:10279000B6C1E92F3AD280F3BA17620773078407EC
:1027A000950718F071F49EF552C20EF4E0950B2EC9
:1027B000BA2FA02D0B01B90190010C01CA01A00193
:1027C0001124FF27591B99F0593F50F4503E68F1EE
:1027D0001A16F040A22F232F342F4427585FF3CF2F
:1027E000469537952795A795F0405395C9F77EF400
:1027F0001F16BA0B620B730B840BBAF09150A1F049
:10280000FF0FBB1F661F771F881FC2F70EC0BA0FCE
:10281000621F731F841F48F4879577956795B79556
:10282000F7959E3F08F0B3CF9395880F08F099274E
:10283000EE0F97958795089590D158F080E891E034
:1028400009F49EEF91D128F040E851E059F45EEF91
:1028500009C05BC1FCC1E92FE078D7D168F3092E2C
:10286000052AC1F3261737074807590738F00E2EF7
:1028700007F8E02569F0E025E0640AC0EF6307F897
:10288000009407FADB01B9019D01DC01CA01AD0129
:10289000EF934AD098D10AD05F91552331F02BEDB8
:1028A0003FE049E450FD49EC63CF0895DF93DD2715
:1028B000B92FBF7740E85FE31616170648075B0796
:1028C00010F4D92FCFD19F938F937F936F937CD2A6
:1028D000E4EEF0E01DD177D12F913F914F915F91C0
:1028E000D4D1DD2349F09058A2EA2AED3FE049EC2B
:1028F0005FE3D0785D274DDFDF9165C1DCD008F460
:1029000081E0089539D1E3956FC10CD05CC12CD121
:1029100040F023D130F021F45F3F19F0F0C05111A5
:1029200097C1F3C072D198F39923C9F35523B1F33A
:10293000951B550BBB27AA2762177307840738F02E
:102940009F5F5F4F220F331F441FAA1FA9F333D08D
:102950000E2E3AF0E0E830D091505040E695001C41
:10296000CAF729D0FE2F27D0660F771F881FBB1FFD
:10297000261737074807AB07B0E809F0BB0B802DD7
:10298000BF01FF2793585F4F2AF09E3F510568F023
:10299000B6C05EC15F3FECF3983EDCF38695779559
:1029A0006795B795F7959F5FC9F7880F911D969525
:1029B000879597F90895E1E0660F771F881FBB1F81
:1029C000621773078407BA0720F0621B730B840B2E
:1029D000BA0BEE1F88F7E095089504D06894B11102
:1029E00037C108951AD188F09F5790F0B92F9927D1
:1029F000B751A0F0D1F0660F771F881F991F1AF00A
:102A0000BA95C9F712C0B13081F021D1B1E0089573
:102A10001EC1672F782F8827B85F39F0B93FCCF3F4
:102A2000869577956795B395D9F73EF490958095FF
:102A3000709561957F4F8F4F9F4F0895E89409C01F
:102A400097FB3EF490958095709561957F4F8F4FE1
:102A50009F4F9923A9F0F92F96E9BB279395F695F7
:102A6000879577956795B795F111F8CFFAF4BB0F75
:102A700011F460FF1BC06F5F7F4F8F4F9F4F16C0D9
:102A8000882311F096E911C0772321F09EE8872F63
:102A9000762F05C0662371F096E8862F70E060E01F
:102AA0002AF09A95660F771F881FDAF7880F969598
:102AB000879597F90895990F0008550FAA0BE0E83C
:102AC000FEEF16161706E807F907C0F012161306F0
:102AD000E407F50798F0621B730B840B950B39F430
:102AE0000A2661F0232B242B252B21F408950A2696
:102AF00009F4A140A6958FEF811D811D089597F9D6
:102B00009F6780E870E060E008959FEF80EC089593
:102B1000DF93CF931F930F93FF92EF92DF927B018E
:102B20008C01689405C0DA2EEF01AFD0FE01E89465
:102B3000A5912591359145915591AEF3EF0129DE8F
:102B4000FE019701A801DA9479F7DF90EF90FF90EA
:102B50000F911F91CF91DF91089500240A941616CA
:102B6000170618060906089500240A94121613067B
:102B7000140605060895C9CF50D0E8F3E894E0E0C4
:102B8000BB279F57F0F02AED3FE049EC06C0EE0F5F
:102B9000BB0F661F771F881F28F0B23A62077307C2
:102BA000840728F0B25A620B730B840BE3959A9555
:102BB00072F7803830F49A95BB0F661F771F881F15
:102BC000D2F7904806C1092E0394000C11F4882313
:102BD00052F0BB0F40F4BF2B11F460FF04C06F5FD5
:102BE0007F4F8F4F9F4F0895EF93E0FF06C0A2EAFB
:102BF0002AED3FE049EC5FEBCCDDE5DF0F9003947D
:102C000001FC9058E1E1F1E0F7C057FD9058440F06
:102C1000551F59F05F3F71F04795880F97FB991F3B
:102C200061F09F3F79F087950895121613061406F8
:102C3000551FF2CF4695F1DF08C016161706180685
:102C4000991FF1CF86957105610508940895E89460
:102C5000BB2766277727CB0197F908952CDF08F467
:102C60008FEF08959B01AC0160E070E080E89FE386
:102C70004CCE0BD0A8CF71DF28F076DF18F095236B
:102C800009F03DCF42CF1124E3CFBFDFA0F3959FE2
:102C9000D1F3950F50E0551F629FF001729FBB2743
:102CA000F00DB11D639FAA27F00DB11DAA1F649FEF
:102CB0006627B00DA11D661F829F2227B00DA11DA2
:102CC000621F739FB00DA11D621F839FA00D611D28
:102CD000221F749F3327A00D611D231F849F600D49
:102CE000211D822F762F6A2F11249F5750408AF082
:102CF000E1F088234AF0EE0FFF1FBB1F661F771F0E
:102D0000881F91505040A9F79E3F510570F0F7CEB3
:102D10009FCF5F3FECF3983EDCF386957795679500
:102D2000B795F795E7959F5FC1F7FE2B880F911D2B
:102D30009695879597F908959F931EDF0F9007FC4E
:102D4000EE5F52CF11F40EF4E0CE41C066DFD0F357
:102D50009923D9F3CEF39F57550B87FF46D0002414
:102D6000A0E640EA900180585695979528F4805C3B
:102D7000660F771F881F20F026173707480730F4A3
:102D8000621B730B840B202931294A2BA6951794BB
:102D90000794202531254A2758F7660F771F881F8B
:102DA00020F026173707480730F4620B730B840BAB
:102DB000200D311D411DA09581F7B901842F915837
:102DC000880F9695879508959B01AC0152CF9F3F40
:102DD00031F0915020F4879577956795B795880FD6
:102DE000911D9695879597F9089591505040660FDB
:102DF000771F881FD2F708959F938F937F936F93C8
:102E0000FF93EF939B01AC0134DFEF91FF9180DEE4
:102E10002F913F914F915F912CCFEF920F931F9382
:102E2000CF93DF93E80147FD02C034E001C034E1F5
:102E3000042E000C550B57FF03C0519541955109C5
:102E4000E32E022F242FAE0107D0CE01DF91CF91C8
:102E50001F910F91EF9008958F929F92AF92BF9222
:102E6000CF92DF92EF92FF920F931F93CF93DF9356
:102E7000CDB7DEB729970FB6F894DEBF0FBECDBF32
:102E80006A01122FB02E2BE3201720F0FF24F394B9
:102E9000F00E02C02CE3F22E0F2D27E0AE014F5FA3
:102EA0005F4F50D1BC014981842F8970813031F04E
:102EB000E1FC06C0E0FE06C090E205C09DE203C052
:102EC0009BE201C090E05E2D507143FF3CC0911128
:102ED00002C083E001C084E0811718F4212F281B71
:102EE00001C020E051110BC0F601822F30E288238F
:102EF00019F031938150FBCFC20ED11C20E09923F1
:102F000029F0D6019C93F60131966F01C601039614
:102F1000E2FE0AC03EE4D6013C9341E411964C9394
:102F2000119712963C9306C03EE6F601308341E6C7
:102F300041833283FC01322F40E2332309F442C043
:102F400041933150FACF42FF44C0911102C083E057
:102F500001C084E0811718F4212F281B01C020E054
:102F600051110BC0F601822F30E2882319F0319302
:102F70008150FBCFC20ED11C20E0992329F0D6014D
:102F80009C93F60131966F01C6010396E2FE0BC0D9
:102F900039E4D6013C933EE411963C93119736E414
:102FA00012963C9307C039E6F60130833EE6318342
:102FB00036E63283FC01322F40E2332319F041938D
:102FC0003150FBCFFC01E20FF11D10828EEF9FEF1D
:102FD000A6C021E030E0911102C020E030E01616DA
:102FE00017061CF4FB01319602C0E1E0F0E02E0F61
:102FF0003F1FBB2021F0EB2DF0E0319602C0E0E056
:10300000F0E02E0F3F1FE12FF0E02E173F071CF4DA
:10301000121B212F01C020E08E2D887159F4F6017A
:10302000822F30E2882319F031938150FBCFC20EFA
:10303000D11C20E0992329F0D6019C93F60131960A
:103040006F0151110BC0F601822F90E3882319F014
:1030500091938150FBCFC20ED11C20E00F2D060FA3
:103060009A81342F307144FF03C0913309F4015029
:10307000101624F4093018F008E001C001E0AB019B
:1030800077FF02C040E050E0FB01E41BF50BA1E03C
:10309000B0E0AC0FBD1FEA0FFB1F8EE2A82E4B0164
:1030A000801A91080B2D10E01195019511094F3FE1
:1030B000BFEF5B0721F4D601AC9211966D01641746
:1030C00075072CF08416950614F4818101C080E305
:1030D000415051093196D60111967D014017510793
:1030E00024F0D6018C936701E2CF6417750739F499
:1030F000963320F4953319F4311101C081E3F601C0
:103100008083F701822F90E2882319F091938150F8
:10311000FBCFF701E20FF11D108280E090E02996CD
:103120000FB6F894DEBF0FBECDBFDF91CF911F91D8
:103130000F91FF90EF90DF90CF90BF90AF909F9056
:103140008F900895283008F027E03327DA01990F8F
:10315000311D87FD916000966105710539F432607B
:103160002E5F3D9330E32A95E1F708959F3F30F0BD
:1031700080387105610509F03C5F3C5F3D939130FB
:1031800008F08068911DDF93CF931F930F93FF92F8
:10319000EF92192F987F9695E92F96959695E90FBE
:1031A000FF27E657FE4F99273327EE24FF24A70178
:1031B000E70105900894079428F4360FE71EF81EDF
:1031C000491F511D660F771F881F991F0694A1F78D
:1031D0000590079428F4E70EF81E491F561FC11DDD
:1031E000770F881F991F661F0694A1F70590079413
:1031F00028F4F80E491F561FC71FD11D880F991FAD
:10320000661F771F0694A1F70590079420F4490FD5
:10321000561FC71FD81F990F661F771F881F069458
:10322000A9F784911095177041F0D695C7955795D9
:103230004795F794E7941A95C1F7E0E3F1E06894B5
:103240001590159135916591959105907FE2739553
:10325000E118F10A430B560BC90BD009C0F7E10C7A
:10326000F11E431F561FC91FD01D7EF4703311F489
:103270008A95E6CFE894015030F0080F0AF4002751
:10328000021708F4202F2395022F7A3328F079E3D0
:103290007D932A95E9F710C07D932A9589F60694C7
:1032A00097956795379517951794E118F10A430B91
:1032B000560BC90BD00998F023957E9173957A33FC
:1032C00008F070E37C932013B8F77E9170617D93D2
:1032D00030F0839571E37D9370E32A95E1F7112433
:1032E000EF90FF900F911F91CF91DF91992787FD6C
:1032F000909508950396272F06D004D0252F03D04C
:10330000242F01C0262FF999FECF92BD81BDF89AD6
:10331000019700B4021639F01FBA20BD0FB6F89419
:0C332000FA9AF99A0FBE0895F894FFCFB6
:10332C004552524F523A20004E6F74204F4B0A00B8
:00000001FF
