:1000000098C00000B9C00000B7C00000B5C0000033
:10001000B3C00000C7C0000012C10000ADC00000A6
:10002000ABC00000A9C00000A7C00000A5C0000030
:10003000A3C00000A1C000009FC000009DC0000040
:100040009BC0000099C0000097C0000095C0000050
:1000500093C0000091C000008FC000008DC0000060
:100060008BC000000C941D0C0C944C0C85C000003F
:1000700083C0000081C000007FC000007DC0000080
:100080007BC0000079C0000077C0000075C0000090
:100090000C94CF0C0C94FE0C6FC000006DC00000DF
:1000A0006BC0000069C0000067C0000015C10000FF
:1000B00063C0000061C000005FC000005DC00000C0
:1000C0005BC0000059C0000057C000000C942C0D0C
:1000D0000C945B0D51C000000C94890D0C94B80D6C
:1000E0004BC00000084AD73B3BCE016E84BCBFFD2D
:1000F000C12F3D6C74319ABD56833DDA3D00C77FF8
:1001000011BED9E4BB4C3E916BAAAABE0000008090
:100110003F05A84CCDB2D44EB93836A9020C50B91F
:10012000918688083CA6AAAA2ABE000000803F004B
:10013000530511241FBECFEFD1E2DEBFCDBF00E0DB
:100140000CBF23E0A0E0B2E001C01D92A634B207CC
:10015000E1F710E0C9E9D0E000E006C0219701090D
:10016000802FFE010E94FB0EC839D10780E00807EE
:10017000A9F7DED20C94591243CF81B18E7D81B99B
:100180008DB18B7E8DB9EAE6F0E08081836080835B
:1001900080818C6080838DB380638DBB0E94FE0B59
:1001A0000C94140C1F920F920FB60F9211240BB6E1
:1001B0000F922F933F934F935F936F937F938F9300
:1001C0009F93AF93BF93EF93FF93029B0FC06091F8
:1001D000140270911502809116029091170220E08E
:1001E00030E040E85FE30E94030F0EC0609114020C
:1001F00070911502809116029091170220E030E074
:1002000040E85FE30E94040F6093140270931502AC
:100210008093160290931702FF91EF91BF91AF91D7
:100220009F918F917F916F915F914F913F912F910E
:100230000F900BBE0F900FBE0F901F9018951F923E
:100240000F920FB60F9211240BB60F922F933F937C
:100250004F935F936F937F938F939F93AF93BF93CE
:10026000EF93FF93009B0FC06091180270911902E9
:1002700080911A0290911B0220E030E040E85FE399
:100280000E94040F0EC060911802709119028091B3
:100290001A0290911B0220E030E040E85FE30E94E8
:1002A000030F609318027093190280931A029093BF
:1002B0001B02FF91EF91BF91AF919F918F917F9121
:1002C0006F915F914F913F912F910F900BBE0F90C7
:1002D0000FBE0F901F9018951F920F920FB60F929E
:1002E00011240BB60F928F929F92AF92BF92CF9232
:1002F000DF92EF92FF922F933F934F935F936F9311
:100300007F938F939F93AF93BF93CF93DF93EF939D
:10031000FF93C0E0D2E08C899D89AE89BF89BC0182
:10032000CD01905827E230EA49E85CE30E9485114C
:100330002DEC3CEC4CE45DE30E94D10F6C877D8793
:100340008E879F87688D798D8A8D9B8D27E230EA15
:1003500049E85CE30E9485112DEC3CEC4CE45DE344
:100360000E94D10F688B798B8A8B9B8B6C857D85E6
:100370008E859F85288939894A895B890E94040F67
:1003800020E030E040E05FE30E94851168A379A39C
:100390008AA39BA36C8D7D8D8E8D9F8D88A099A047
:1003A000AAA0BBA02AE939E949E55FE30E948511CB
:1003B0006B017C0128E939E949E15EE3C501B4013B
:1003C0000E9485119B01AC01C701B6010E94040F78
:1003D00068A379A38AA39BA388A199A1AAA1BBA181
:1003E0008C8F9D8FAE8FBF8F68A179A18AA19BA1B1
:1003F000C884D984EA84FB8422E03BE247E05DE3E1
:100400000E948511A70196010E94040F68877987D1
:100410008A879B871C8A1D8A1E8A1F8A188E198EBE
:100420001A8E1B8E1092A5001092A400FF91EF91DE
:10043000DF91CF91BF91AF919F918F917F916F91FC
:100440005F914F913F912F91FF90EF90DF90CF9070
:10045000BF90AF909F908F900F900BBE0F900FBEEC
:100460000F901F9018952F923F924F925F926F922C
:100470007F928F929F92AF92BF92CF92DF92EF9234
:10048000FF920F931F93CF93DF931C01EA01F901B1
:10049000DC018C9087FED2C0682D6F7070E080E028
:1004A00090E00E946A1021E4922E9F9220E82F9300
:1004B0001F921F92A12CB12C30E2C32E31ECD32E0F
:1004C000E12CF12C00E711E420E030E0A9010E94CA
:1004D000810E2B013C01682D607770E054E075952A
:1004E00067955A95E1F770E080E090E00E946A100D
:1004F0009F9220EA2F931F921F92A12CB12CE0EA29
:10050000CE2EE1ECDE2EE12CF12C00EE10E420E00A
:1005100030E0A9010E94810E20E030E040EE50EC76
:100520000E94500E27E139ED46E350E40E94030F8C
:100530004B015C012DEC3CEC4CE45FE3688179817C
:100540008A819B810E9485116B017C0123E333E347
:1005500043EB50E4C301B2010E94030F2DEC3CECCD
:100560004CE45EE30E9485119B01AC01C701B6011A
:100570000E94040FE12CF12C00EE10E420E030E0AA
:1005800040EE50EC0E94500E2B013C0168837983B1
:100590008A839B832AE939E949E15FE36C817D81A4
:1005A0008E819F810E9485116B017C012DEC3CECBA
:1005B0004CEC5EE3C501B4010E9485119B01AC01C6
:1005C000C701B6010E94040F6C837D838E839F83D5
:1005D000EDB7FEB738960FB6F894FEBF0FBEEDBF6D
:1005E00020E030E040E850E4C301B2010E94CA0FAD
:1005F00087FF59C020E030E040E850ECC301B20171
:100600000E947A1118160CF04EC068A179A18AA137
:100610009BA120E030E040E850E40E94CA0F87FF31
:1006200042C068A179A18AA19BA120E030E040E806
:1006300050EC0E947A111816CCF135C0B3E08B163D
:1006400049F0E6E08E16E1F0F2E08F125DC0CA01DB
:1006500003D427C020E030E048EC52E464A975A937
:1006600086A997A90E9485110E943910C62F872F4D
:100670000E94300E8C2F0E94300EF101108244C077
:1006800068A179A18AA19BA120E030E048EC52E466
:100690000E9485110E943910C62F872F0E94300EAC
:1006A0008C2F0E94300ED1011C922EC020E030E031
:1006B00040E050E4C501B4010E947A1118163CF4E0
:1006C00041E461E0CE014ED242E46FEF10C020E081
:1006D00030E040E050ECC501B4010E94CA0F87FF32
:1006E000E2CF41E46FEFCE013DD242E461E0CE01C2
:1006F00039D28EEB90E0909389008093880090939C
:100700008B0080938A00CFCF80E0DF91CF911F9143
:100710000F91FF90EF90DF90CF90BF90AF909F90A0
:100720008F907F906F905F904F903F902F900895A3
:10073000CF93DF93CDB7DEB7CD57D1090FB6F8947D
:10074000DEBF0FBECDBF0F9A179AE2961FAEE2979B
:1007500080E092E04AD280E190E00E947A0C80E151
:1007600090E00E94E60D789408DD80910A01816096
:1007700080930A0126D4813029F480910B01816095
:1007800080930B01D8D70E94D40B0E94DF0B8E01FF
:100790000F5F1F4FC80121D60E94E80B20E030E018
:1007A00040E051E469A97AA98BA99CA90E94030F92
:1007B000E0D70E94F90B8FE39CE90197F1F700C0A5
:1007C0000000FE01EB5AFF4F86E696E6A6EEBEE37A
:1007D00080839183A283B3838DEC9CECACE4BDE376
:1007E00084839583A683B7838AE097EDA3EABCE36D
:1007F00080879187A287B3878AE999E9A9E1BFE356
:1008000084879587A687B787108A118A128A138AE8
:10081000148A158A168A178A108E118E128E138EDC
:100820004CEE51E564E771E449AF5AAF6BAF7CAF72
:1008300021961CAE1DAE1EAE1FAE219743EC55EFA8
:1008400068E27FE325964CAF5DAF6EAF7FAF259733
:1008500029968CAF9DAFAEAFBFAF29972D961CAE3A
:100860001DAE1EAE1FAE2D9761961CAE1DAE1EAE08
:100870001FAE619765961CAE1DAE1EAE1FAE65978E
:10088000EA961CAE1DAE1EAE1FAEEA97212C312C8F
:10089000412C512C3201EB960FAFEB97EC961FAF2A
:1008A000EC97ED96EFAFED97EE96FFAFEE9790D702
:1008B000E6966CAF7DAF8EAF9FAFE6979AD7E69680
:1008C0004CAD5DAD6EAD7FADE697EB968FADEB9722
:1008D000EC969FADEC97C0D5C10166E070E00E9438
:1008E000D40E892BE1F540912002509121026091B4
:1008F00022027091230200910002109101022091C6
:10090000020230910302812C912CE0E2AE2EE1E450
:10091000BE2E73016201ED968FADED97EE969FAD01
:10092000EE973BD620E030E0A9010E94040FE12CB5
:10093000F12C00EA10E420E030E040EA50EC0E94A4
:10094000500E20E030E0A9010E94040FEA966CAF3F
:100950007DAF8EAF9FAFEA97412C512C32012CEC2A
:100960003EE245E652E46DA97EA98FA998AD0E94AA
:100970008511AB01BC01812C912C5401E696CCACC5
:10098000DDACEEACFFACE697EA960CAD1DAD2EAD3E
:100990003FADEA97CE01C99600D6E12CF12C04EBCD
:1009A00012E420E030E044EB52EC0E94500E0E9432
:1009B000391080E092E07CD128E53FEF4FE75FE31C
:1009C00060910402709105028091060290910702E5
:1009D0000E948511A50194010E94040F60930402F6
:1009E00070930502809306029093070224EA30E791
:1009F0004DE75FE360910002709101028091020275
:100A0000909103020E948511A50194010E94040F98
:100A1000609300027093010280930202909303029C
:100A2000D7D62AE037ED43E25CE30E94CA0F87FF86
:100A300023C0AAD7892B09F08CD70E94450E892B99
:100A4000B9F00E94150EE2968FAFE297EB962FADAC
:100A5000EB97EC963FADEC9740E052E0ED966FAD32
:100A6000ED97EE967FADEE97CE018F589F4FFBDC52
:100A700080E092E069D1D4CF9FEF291A390A89EE3C
:100A8000281683E0380610F0212C312CE6962CAD88
:100A90003DAD4EAD5FADE697C301B2010E94040FBC
:100AA0002B013C0104CF8F92AF92CF92EF920F9324
:100AB0001F9386E0882E94E0A92E22E0C22EE12C1E
:100AC00008E210E028E230E047E250E067E270E040
:100AD00080E092E007D01F910F91EF90CF90AF9000
:100AE0008F9008958F92AF92CF92EF920F931F93B2
:100AF000CF93DF93CDB7DEB7FC0110821182128253
:100B0000138214821582168217821086118612862D
:100B10001386108A118A128A138A108E118E128EF1
:100B2000138E148E158E168E178E10A211A212A27D
:100B300013A282E384A381E085A377A366A351A7D0
:100B400040A733A722A715A704A7E6A6C7A6A0AA71
:100B500081AADF91CF911F910F91EF90CF90AF902D
:100B60008F900895DC01413461F04234E1F59C96A8
:100B7000ED91FC919D97D0962C91D097D1963C9178
:100B800009C09A96ED91FC919B979E962C919E9709
:100B90009F963C9116169CF4408181E090E0BC0148
:100BA00001C0660F2A95EAF7262F2095242320837B
:100BB000208101C0880F3A95EAF7822B11C060812D
:100BC00081E090E0AC0101C0440F2A95EAF7462B82
:100BD0004083208101C0880F3A95EAF780958223EF
:100BE000808380E0089581E00895CF93DF93EC0146
:100BF00084B1806684B910928900109288001092A6
:100C00008B0010928A00E0E8F0E0808180688083A9
:100C100080818F7B808380818062808380818F7ED2
:100C20008083808181608083A1E8B0E08C918860BE
:100C30008C9380818D7F80838C9182608C938C914A
:100C40008A7F8C93EEA1FFA1308181E090E0BC010E
:100C50000EA402C0660F771F0A94E2F7AC010FA43E
:100C600002C0440F551F0A94E2F7262F242B232B92
:100C70002083E8A5F9A52081AC0108A802C0440F93
:100C8000551F0A94E2F709A802C0880F991F0A9419
:100C9000E2F7842B822B808341E461E0CE0162DFA6
:100CA00042E461E0CE015EDF80E0DF91CF91089504
:100CB000EF92FF921F93CF93DF937C01162FFC01DD
:100CC00064817581868197810E943910C62FC10F7A
:100CD000161BD12F41E41C162CF461E0C70142DF42
:100CE000CC5F06C06FEFC7013DDF84E08C1BC82FCF
:100CF00042E4111624F461E0C70134DF05C06FEF50
:100D0000C70130DFD12FD195C4361CF08FEF90E0B2
:100D100004C0CC0FC95C8C2F90E090938900809325
:100D20008800D4361CF08FEF90E004C0DD0FD95C52
:100D30008D2F90E090938B0080938A00DF91CF916C
:100D40001F91FF90EF9008954F925F926F927F9264
:100D5000AF92BF92CF92DF92EF92FF920F931F93C9
:100D6000CF93DF93EC0180917C00806480937C00C2
:100D700080917C008F7780937C0080917C00807EC6
:100D800080937C0080917A00806880937A008091C3
:100D90007A00806480937A0080917A0086FDFCCF8F
:100DA00000917800109179006CA170E080E090E0F3
:100DB0000E946C1024EA30E74DE75FE30E94851142
:100DC0002B013C01B80180E090E00E946A1020E015
:100DD00030E040EA50E40E94851120E030E040E835
:100DE0005AE30E94851122E42F9328EC2F931F923F
:100DF0001F92A12CB12C65011CE5E12E1FE8F12EFC
:100E000002E810E42DEC3CEC4CE650E47AD72AE002
:100E100037ED43E25CE30E948511A3019201F4D710
:100E20000E943E106CA30F900F900F900F900D9AA0
:100E30006E3110F4159A01C01598DF91CF911F9172
:100E40000F91FF90EF90DF90CF90BF90AF907F9089
:100E50006F905F904F900895FC0184A108954F9288
:100E60005F926F927F928F929F92AF92BF92CF923A
:100E7000DF92EF92FF92CF93DF93CDB7DEB72E973D
:100E80000FB6F894DEBF0FBECDBF9E878D87498712
:100E90005A876B877C87FC0144A855A866A877A869
:100EA000C301B2010E94E81169837A838B839C831A
:100EB000ED85FE8580A891A8A2A8B3A8C501B401BC
:100EC0000E94E8116B017C01C501B4010E94CE0FA4
:100ED0004B015C01C301B2010E94CE0F6D837E8382
:100EE0008F839887A701960169817A818B819C8184
:100EF0000E948511A50194010E94D10FED85FE8508
:100F000020A131A142A153A10E948511ED85FE854A
:100F1000248D358D468D578D77D72B013C012D8142
:100F20003E814F815885C701B6010E948511A501F8
:100F300094010E94D10FED85FE8524A135A146A123
:100F400057A10E9485119B01AC01C301B2015CD77E
:100F5000905829853A854B855C850E9485112E968F
:100F60000FB6F894DEBF0FBECDBFDF91CF91FF90DB
:100F7000EF90DF90CF90BF90AF909F908F907F9039
:100F80006F905F904F9008958091BC0087FFFCCFD9
:100F9000089584EA8093BC00F7CF8093BB0084E877
:100FA0008093BC00F1CF84EC8093BC00EDDF809196
:100FB000BB00089584E88093BC00E6DF8091BB000D
:100FC0000895CF93DF9383E08093B8008091B900B8
:100FD0008C7F8093B9008091BC0084608093BC00BA
:100FE000D8DF80EDDADF8BE6D8DF81E0D6DFC4E939
:100FF000C093BC00CEDF80EDD0DF85E7CEDFC9DF58
:1010000081EDCBDFD7DFD82FC093BC00C2DF80EDEE
:10101000C4DF89E1C2DF87E0C0DF80E0BEDF80E0BF
:10102000BCDF80E0BADFC093BC0081E0D83609F4B1
:1010300080E0DF91CF9108954F925F926F927F92FF
:101040008F929F92AF92BF92CF92DF92EF92FF92D8
:10105000CF93DF93283579F4DF91CF91FF90EF9014
:10106000DF90CF90BF90AF909F908F907F906F90C8
:101070005F904F90F4CE293579F56A017B01EC0140
:101080008CA89DA8AEA8BFA8C501B40187D72B0125
:101090003C01C501B4010E94E8114B015C0128A18B
:1010A00039A14AA15BA1C301B2010E9485112B01A4
:1010B0003C012CA13DA14EA15FA1C501B4010E943C
:1010C00085119B01AC01C301B2019DD69058A701C7
:1010D00096010E94851103C060E070E0CB01DF91B2
:1010E000CF91FF90EF90DF90CF90BF90AF909F9007
:1010F0008F907F906F905F904F9008952F923F92C6
:101100004F925F926F927F928F929F92AF92BF9217
:10111000CF92DF92EF92FF920F931F93CF93DF93C3
:10112000CDB7DEB76E970FB6F894DEBF0FBECDBF5A
:101130008C01762E2EDF80ED30DF8BE32EDF29DF72
:1011400081ED2BDFCE0101967C016E019EE0C90E80
:10115000D11C29DFD7018D937D01AC15BD05C9F7E1
:1011600029DF8E8784E98093BC0069817A817627A4
:1011700067277627072E000C880B990BADD74B01FC
:101180005C016B817C81762767277627072E000C10
:10119000880B990BA1D71B012C016D817E817627CD
:1011A00067277627072E000C880B990B95D76B01C4
:1011B0007C0169857A85762767277627072E000CBC
:1011C000880B990B89D76F87788B898B9A8B6B8566
:1011D0007C85762767277627072E000C880B990BCE
:1011E0007BD76B8B7C8B8D8B9E8B6D857E857627DD
:1011F00067277627072E000C880B990B6DD76F8B0E
:10120000788F898F9A8F7720C9F16F817885F8015F
:10121000848A958AA68AB78A208E318E428E538E12
:10122000C48ED58EE68EF78E762767277627072E13
:10123000000C880B990B50D7D80190966D937D9335
:101240008D939C9393978F859889A989BA89F80182
:1012500084A395A3A6A3B7A38B899C89AD89BE89D6
:1012600080A791A7A2A7B3A78F89988DA98DBA8DC2
:1012700084A795A7A6A7B7A781E096C0A50194016A
:10128000C501B4010E9485116B8F7C8F8D8F9E8F5D
:10129000A7019601C701B6010E9485119B01AC010F
:1012A0006B8D7C8D8D8D9E8DAFD50E94F2119B0133
:1012B000AC01C201B10175D645D62B013C01C50177
:1012C000B4019058A701960112D66B017C0120ED64
:1012D0003FE049EC5FE30E947A1118164CF4A70135
:1012E000960160ED7FE089E490E48DD56B017C018F
:1012F00020ED3FE049EC5FEBC701B6014BD687FF1D
:1013000009C0A701960160ED7FE089E490EC7BD5F0
:101310006B017C01D80154964D925D926D927C9246
:101320005797F801C08ED18EE28EF38E20E030E028
:1013300043E053E46F85788989899A8932D628E910
:1013400039EF4EE85CE3E1D7D8015C966D937D936D
:101350008D939C935F9720E030E043E053E46B89EA
:101360007C898D899E891DD628E939EF4EE85CE39A
:10137000CCD7F80160A371A382A393A320E030E04F
:1013800043E053E46F89788D898D9A8D0AD628E9D8
:1013900039EF4EE85CE3B9D7D80194966D937D930D
:1013A0008D939C93979780E06E960FB6F894DEBF6E
:1013B0000FBECDBFDF91CF911F910F91FF90EF90A6
:1013C000DF90CF90BF90AF909F908F907F906F9065
:1013D0005F904F903F902F900895CF93DF93EC0153
:1013E000188219821A821B821C821D821E821F8211
:1013F000188619861A861B86188A198A1A8A1B8AE1
:101400001CAA1DAA1EAA1FAADCDD2FEF83ED90E304
:10141000215080409040E1F700C0000060E0CE0124
:101420006DDE4C895D896E897F894CAB5DAB6EAB9F
:101430007FAB888D998DAA8DBB8D88AB99ABAAABFC
:10144000BBAB4C835D836E837F8388879987AA8734
:10145000BB87DF91CF9108954F925F926F927F92F9
:101460008F929F92AF92BF92CF92DF92EF92FF92B4
:10147000CF93DF93EC016A017B0160E03FDEB701AF
:10148000A601CE01ECDC2B013C016C877D878E87A9
:101490009F8729E5B701A601CE01CEDD4B015C0196
:1014A000688B798B8A8B9B8B2CE839EC45E35AE36C
:1014B000C701B6012AD7A3019201A6D49B01AC01B2
:1014C0006C817D818E819F819FD46C837D838E838F
:1014D0009F832EEA37EE4EE85BEBC701B60115D7C6
:1014E000A501940191D49B01AC01688579858A8519
:1014F0009B858AD4688779878A879B872CA93DA991
:101500004EA95FA9C301B2017FD424EA30E74DE7B9
:101510005FE3FBD66B017C012AE037ED43E25CE33D
:101520006C897D898E899F89F0D69B01AC01C701AA
:10153000B6016AD46CAB7DAB8EAB9FAB28A939A941
:101540004AA95BA9C501B4015FD424EA30E74DE79D
:101550005FE3DBD66B017C012AE037ED43E25CE31D
:10156000688D798D8A8D9B8DD0D69B01AC01C7018A
:10157000B6014AD468AB79AB8AAB9BABDF91CF9114
:10158000FF90EF90DF90CF90BF90AF909F908F90A3
:101590007F906F905F904F9008952F923F924F925F
:1015A0005F926F927F928F929F92AF92BF92CF92F3
:1015B000DF92EF92FF920F931F93CF93DF93CDB7FC
:1015C000DEB728970FB6F894DEBF0FBECDBF1C0163
:1015D0002A013B01C901B801CD82DE82EF82F88683
:1015E000A301920110D469837A838B839C83F101D8
:1015F000248935894689578907D42B013C01F1019B
:10160000648B758B868B978B20E030E0A901C50138
:10161000B401C0D4882369F0A50194015058850114
:101620007401C301B2013CD3F101648B758B868BCD
:10163000978BF101C484D584E684F784208D318DA5
:10164000428D538DC701B60160D62B013C01F101DB
:10165000208931894289538969817A818B819C8172
:10166000D2D39B01AC01C301B201CED32B013C010B
:101670002D813E814F815885C701B601C5D39B019D
:10168000AC01C301B2018DD46B017C01F101608F0B
:10169000718F828F938F2489358946895789648118
:1016A00075818681978131D62D813E814F81588504
:1016B0002CD62B013C01F1012081318142815381E3
:1016C00069817A818B819C8120D69B01AC01C30109
:1016D000B2019AD32B013C01F1012085318542856D
:1016E0005385C701B60111D69B01AC01C301B201FC
:1016F0008BD329813A814B815C81F101208B318B25
:10170000428B538B28960FB6F894DEBF0FBECDBF29
:10171000DF91CF911F910F91FF90EF90DF90CF90CD
:10172000BF90AF909F908F907F906F905F904F9001
:101730003F902F900895E0E9F0E080818E7F8083D4
:10174000808182608083A1E9B0E08C9188618C9374
:101750006B9A88EB9BE090939900809398008FE3BD
:101760009CE99093970080939600808180688083A5
:101770000895E1E9F0E020812260208320812A7F22
:10178000208320E030E044EB52E40BD420E030E052
:101790004AEF54E4BAD56DD46854744F70939900ED
:1017A0006093980080E00895E0E2F1E080818C7F12
:1017B0008083E1E2F1E08081877F80830895E1E228
:1017C000F1E080818260808380818A7F80830895B8
:1017D000609124017091250180E090E07BD420E0AD
:1017E0003FEF4FE757E4DDD32DEB37E346E05DE312
:1017F0008CC510922501109224010895E0EAF0E0D2
:1018000080818C7F8083E1EAF0E08081877F808324
:1018100084ED90E39093AB008093AA00E2E7F0E0C0
:101820008081846080830895E1EAF0E080818360B4
:10183000808380818B7F808308951F920F920FB6E3
:101840000F9211240BB60F922F938F939F93EF93C8
:10185000FF938091C0009091C6008871E0910303CE
:10186000EF5FEF7120910203E21739F0E093030379
:10187000F0E0EA5FFC4F908301C082E080930103B7
:10188000FF91EF919F918F912F910F900BBE0F9031
:101890000FBE0F901F9018951F920F920FB60F92C8
:1018A00011240BB60F928F939F93EF93FF93909118
:1018B000050380910403981769F0E0910403EF5F3A
:1018C000EF71E0930403F0E0EA5DFC4F80818093C8
:1018D000C60005C08091C1008F7D8093C100FF913B
:1018E000EF919F918F910F900BBE0F900FBE0F90B5
:1018F0001F90189510920503109204031092030391
:101900001092020397FF04C022E02093C0009F774B
:101910009093C5008093C40088E98093C1008091B2
:10192000C2008F738093C2008091C2008F7C80932D
:10193000C2008091C200877F8093C2008091C20064
:1019400086608093C2008091C1008B7F8093C1002C
:1019500008959091030380910203981791F0E0910C
:101960000203EF5FEF71E0930203F0E0EA5FFC4FE8
:1019700020818091010390E0982F8827820F911D8C
:10198000089580E091E0089580910303209102037F
:1019900090E04F96821B91096FE170E019C21F928F
:1019A0000F920FB60F9211240BB60F922F938F93B5
:1019B0009F93EF93FF938091C8009091CE00887120
:1019C000E091BE02EF5FEF712091BD02E21739F0A6
:1019D000E093BE02F0E0EF53FD4F908301C082E040
:1019E0008093BC02FF91EF919F918F912F910F9067
:1019F0000BBE0F900FBE0F901F9018951F920F9265
:101A00000FB60F9211240BB60F928F939F93EF9303
:101A1000FF939091C0028091BF02981769F0E09106
:101A2000BF02EF5FEF71E093BF02F0E0EF51FD4FB7
:101A300080818093CE0005C08091C9008F7D809306
:101A4000C900FF91EF919F918F910F900BBE0F9066
:101A50000FBE0F901F9018951F920F920FB60F9206
:101A600011240BB60F922F938F939F93EF93FF93B5
:101A70008091D0009091D6008871E0917902EF5F5B
:101A8000EF7120917802E21739F0E0937902F0E0EB
:101A9000E458FD4F908301C082E080937702FF916C
:101AA000EF919F918F912F910F900BBE0F900FBED2
:101AB0000F901F9018951F920F920FB60F9211243E
:101AC0000BB60F928F939F93EF93FF9390917B02AE
:101AD00080917A02981769F0E0917A02EF5FEF71D6
:101AE000E0937A02F0E0E456FD4F80818093D600C7
:101AF00005C08091D1008F7D8093D100FF91EF913F
:101B00009F918F910F900BBE0F900FBE0F901F9063
:101B100018951F920F920FB60F9211240BB60F92C9
:101B20002F938F939F93EF93FF9380913001909128
:101B300036018871E0913402EF5FEF71209133023A
:101B4000E21739F0E0933402F0E0E95CFD4F908356
:101B500001C082E080933202FF91EF919F918F91BB
:101B60002F910F900BBE0F900FBE0F901F901895E6
:101B70001F920F920FB60F9211240BB60F928F93F4
:101B80009F93EF93FF9390913602809135029817BF
:101B900069F0E0913502EF5FEF71E0933502F0E01C
:101BA000E95AFD4F80818093360105C08091310153
:101BB0008F7D80933101FF91EF919F918F910F90D5
:101BC0000BBE0F900FBE0F901F901895109236020B
:101BD00010923502109234021092330297FF04C023
:101BE00022E0209330019F77909335018093340158
:101BF00088E980933101809132018F7380933201A3
:101C0000809132018F7C8093320180913201877FF5
:101C100080933201809132018660809332018091FD
:101C200031018B7F8093310108959091340280912E
:101C30003302981791F0E0913302EF5FEF71E09378
:101C40003302F0E0E95CFD4F20818091320290E0A8
:101C5000982F8827820F911D089580E091E00895C4
:101C6000909136029F5F9F71209135029217E1F3A8
:101C7000E92FF0E0E95AFD4F80839093360280917E
:101C80003101806280933101089580913402209166
:101C9000330290E04F96821B91096FE170E098C08B
:101CA0008F929F92AF92BF92CF92DF92EF92FF926C
:101CB0000F931F93CF93DF936B01D82FC92F490147
:101CC0005A0168D187FD0CC09701A801B6018D2F7C
:101CD0009C2F10D3181634F076010D2F1C2F02C044
:101CE00074018501B701C801DF91CF911F910F9158
:101CF000FF90EF90DF90CF90BF90AF909F908F902C
:101D000008954F925F926F927F92AF92BF92CF925F
:101D1000DF92EF92FF920F931F93CF93DF93CDB794
:101D2000DEB728970FB6F894DEBF0FBECDBF2901EE
:101D30003A01E982FA820B831C8365D06D837E832E
:101D40008F839887A3019201C801B7015CD09B01E2
:101D5000AC016D817E818F81988523D12B013C015F
:101D6000A60195016A8D7B8D8C8D9D8D4CD09B013C
:101D7000AC01C301B201C9D2A601950145D0289694
:101D80000FB6F894DEBF0FBECDBFDF91CF911F918C
:101D90000F91FF90EF90DF90CF90BF90AF907F902A
:101DA0006F905F904F900895AA1BBB1B51E107C035
:101DB000AA1FBB1FA617B70710F0A61BB70B881FDB
:101DC000991F5A95A9F780959095BC01CD0108956A
:101DD00097FB072E16F4009406D077FD08D0E4DFB9
:101DE00007FC05D03EF4909581959F4F089570951E
:101DF00061957F4F0895EE0FFF1F881F8BBF0790DF
:101E0000F691E02D19945058BB27AA270ED027C26F
:101E1000F0D130F0F5D120F031F49F3F11F41EF4F1
:101E2000C0C10EF4E095E7FBB6C1E92F3AD280F3CA
:101E3000BA17620773078407950718F071F49EF5C7
:101E400052C20EF4E0950B2EBA2FA02D0B01B90152
:101E500090010C01CA01A0011124FF27591B99F020
:101E6000593F50F4503E68F11A16F040A22F232F2C
:101E7000342F4427585FF3CF469537952795A7957C
:101E8000F0405395C9F77EF41F16BA0B620B730B23
:101E9000840BBAF09150A1F0FF0FBB1F661F771F94
:101EA000881FC2F70EC0BA0F621F731F841F48F449
:101EB000879577956795B795F7959E3F08F0B3CFCF
:101EC0009395880F08F09927EE0F979587950895B9
:101ED00090D158F080E891E009F49EEF91D128F07C
:101EE00040E851E059F45EEF09C05BC1FCC1E92F45
:101EF000E078D7D168F3092E052AC1F326173707F2
:101F00004807590738F00E2E07F8E02569F0E0255C
:101F1000E0640AC0EF6307F8009407FADB01B90137
:101F20009D01DC01CA01AD01EF934AD098D10AD0DE
:101F30005F91552331F02BED3FE049E450FD49EC32
:101F400063CF0895DF93DD27B92FBF7740E85FE3C4
:101F50001616170648075B0710F4D92FCFD19F93A9
:101F60008F937F936F937CD2E4EEF0E01DD177D115
:101F70002F913F914F915F91D4D1DD2349F090583B
:101F8000A2EA2AED3FE049EC5FE3D0785D274DDF20
:101F9000DF9165C1DCD008F481E0089539D1E39583
:101FA0006FC10CD05CC12CD140F023D130F021F4B2
:101FB0005F3F19F0F0C0511197C1F3C072D198F38F
:101FC0009923C9F35523B1F3951B550BBB27AA27BA
:101FD00062177307840738F09F5F5F4F220F331F2C
:101FE000441FAA1FA9F333D00E2E3AF0E0E830D0F8
:101FF00091505040E695001CCAF729D0FE2F27D0FB
:10200000660F771F881FBB1F261737074807AB07C8
:10201000B0E809F0BB0B802DBF01FF2793585F4F3D
:102020002AF09E3F510568F0B6C05EC15F3FECF3F9
:10203000983EDCF3869577956795B795F7959F5F02
:10204000C9F7880F911D9695879597F90895E1E056
:10205000660F771F881FBB1F621773078407BA07B5
:1020600020F0621B730B840BBA0BEE1F88F7E09510
:10207000089504D06894B11137C108951AD188F039
:102080009F5790F0B92F9927B751A0F0D1F0660F64
:10209000771F881F991F1AF0BA95C9F712C0B1307F
:1020A00081F021D1B1E008951EC1672F782F8827D4
:1020B000B85F39F0B93FCCF3869577956795B395BE
:1020C000D9F73EF490958095709561957F4F8F4F2D
:1020D0009F4F0895E89409C097FB3EF49095809532
:1020E000709561957F4F8F4F9F4F9923A9F0F92FDE
:1020F00096E9BB279395F695879577956795B7955C
:10210000F111F8CFFAF4BB0F11F460FF1BC06F5F41
:102110007F4F8F4F9F4F16C0882311F096E911C053
:10212000772321F09EE8872F762F05C0662371F074
:1021300096E8862F70E060E02AF09A95660F771F88
:10214000881FDAF7880F9695879597F90895990F64
:102150000008550FAA0BE0E8FEEF16161706E80771
:10216000F907C0F012161306E407F50798F0621B92
:10217000730B840B950B39F40A2661F0232B242B67
:10218000252B21F408950A2609F4A140A6958FEF86
:10219000811D811D089597F99F6780E870E060E0D8
:1021A00008959FEF80EC0895DF93CF931F930F93D3
:1021B000FF92EF92DF927B018C01689405C0DA2ECA
:1021C000EF01AFD0FE01E894A5912591359145919D
:1021D0005591AEF3EF0129DEFE019701A801DA94D3
:1021E00079F7DF90EF90FF900F911F91CF91DF91E2
:1021F000089500240A94161617061806090608956D
:1022000000240A9412161306140605060895C9CF71
:1022100050D0E8F3E894E0E0BB279F57F0F02AEDB8
:102220003FE049EC06C0EE0FBB0F661F771F881F0B
:1022300028F0B23A62077307840728F0B25A620B9B
:10224000730B840BE3959A9572F7803830F49A9566
:10225000BB0F661F771F881FD2F7904806C1092E53
:102260000394000C11F4882352F0BB0F40F4BF2BF1
:1022700011F460FF04C06F5F7F4F8F4F9F4F089531
:10228000EF93E0FF06C0A2EA2AED3FE049EC5FEBE6
:10229000CCDDE5DF0F90039401FC9058E1E1F1E023
:1022A000F7C057FD9058440F551F59F05F3F71F02C
:1022B0004795880F97FB991F61F09F3F79F08795AD
:1022C0000895121613061406551FF2CF4695F1DF36
:1022D00008C0161617061806991FF1CF86957105C6
:1022E000610508940895E894BB2766277727CB01FA
:1022F00097F908952CDF08F48FEF08959B01AC0146
:1023000060E070E080E89FE34CCE0BD0A8CF71DF97
:1023100028F076DF18F0952309F03DCF42CF112445
:10232000E3CFBFDFA0F3959FD1F3950F50E0551F8A
:10233000629FF001729FBB27F00DB11D639FAA271A
:10234000F00DB11DAA1F649F6627B00DA11D661F69
:10235000829F2227B00DA11D621F739FB00DA11D8A
:10236000621F839FA00D611D221F749F3327A00D44
:10237000611D231F849F600D211D822F762F6A2FE0
:1023800011249F5750408AF0E1F088234AF0EE0F65
:10239000FF1FBB1F661F771F881F91505040A9F772
:1023A0009E3F510570F0F7CE9FCF5F3FECF3983E14
:1023B000DCF3869577956795B795F795E7959F5FD9
:1023C000C1F7FE2B880F911D9695879597F9089573
:1023D0009F931EDF0F9007FCEE5F52CF11F40EF4B7
:1023E000E0CE41C066DFD0F39923D9F3CEF39F57F7
:1023F000550B87FF46D00024A0E640EA90018058A4
:102400005695979528F4805C660F771F881F20F0FB
:1024100026173707480730F4621B730B840B2029FB
:1024200031294A2BA69517940794202531254A2750
:1024300058F7660F771F881F20F0261737074807C1
:1024400030F4620B730B840B200D311D411DA095E0
:1024500081F7B901842F9158880F96958795089533
:102460009B01AC0152CF9F3F31F0915020F48795F2
:1024700077956795B795880F911D9695879597F9EC
:10248000089591505040660F771F881FD2F7089526
:102490009F938F937F936F93FF93EF939B01AC0177
:1024A00034DFEF91FF9180DE2F913F914F915F914B
:0624B0002CCFF894FFCFD1
:00000001FF
