:1000000015C1000043C1000041C100003FC1000014
:100010003DC1000051C100009CC1000037C100007B
:1000200035C1000033C1000031C100002FC1000004
:100030002DC100002BC1000029C1000027C1000014
:1000400025C1000023C1000021C100001FC1000024
:100050001DC100001BC1000019C1000017C1000034
:1000600015C100000C94450D0C94740D0FC10000D7
:100070000DC100000BC1000009C1000007C1000054
:1000800005C1000003C1000001C10000FFC0000065
:100090000C94360E0C94650EF9C00000F7C00000F9
:1000A000F5C00000F3C00000F1C000009FC10000D7
:1000B000EDC00000EBC00000E9C00000E7C0000098
:1000C000E5C00000E3C00000E1C000000C94930E06
:1000D0000C94C20EDBC000000C94F00E0C941F0FA9
:1000E000D5C00000084AD73B3BCE016E84BCBFFDA3
:1000F000C12F3D6C74319ABD56833DDA3D00C77FF8
:1001000011BED9E4BB4C3E916BAAAABE0000008090
:100110003F05A84CCDB2D44EB93836A9020C50B91F
:10012000918688083CA6AAAA2ABE000000803F004B
:1001300000407A10F35A00A0724E18090010A5D49E
:10014000E80000E87648170000E40B54020000CAFB
:100150009A3B000000E1F505000080969800000041
:1001600040420F000000A0860100000010270000A0
:100170000000E803000000006400000000000A0026
:10018000000000000100000000002C76D888DC6729
:100190004F0823DFC1DFAE59E1B1B796E5E3E45381
:1001A000C63AE651997696E8E6C28426EB898C9B9E
:1001B00062ED407C6FFCEFBC9C9F40F2BAA56FA53E
:1001C000F490055A2AF75C936B6CF9676DC11BFCC0
:1001D000E0E40D47FEF520E6B500D0ED902E0300DB
:1001E000943577050080841E080000204E0A000028
:1001F00000C80C333333330F986E12831141EF8DE7
:100200002114893BE65516CFFEE6DB18D1844B3826
:100210001BF77C1D901DA4BBE424203284725E2257
:100220008100C9F124ECA1E53D27FC0511241FBE86
:10023000CFEFD1E2DEBFCDBF00E00CBF12E0A0E007
:10024000B2E0EEE5FCE200E00BBF02C007900D92C9
:10025000A831B107D9F723E0A8E1B2E001C01D92AF
:10026000AE35B207E1F711E0C6E1D1E000E006C02B
:1002700021970109802FFE010E946210C531D1072C
:1002800080E00807A9F77FD20C942D16B9CE81B172
:100290008E7D81B98DB18B7E8DB9EAE6F0E08081EB
:1002A0008360808380818C6080838DB380638DBB0D
:1002B0000E94260D0C943C0D1F920F920FB60F92C8
:1002C00011240BB60F922F933F934F935F936F932D
:1002D0007F938F939F93AF93BF93EF93FF93029B73
:1002E0000FC060912C0270912D0280912E0290918E
:1002F0002F0220E030E040E85FE30E946B100EC068
:1003000060912C0270912D0280912E0290912F020B
:1003100020E030E040E85FE30E946A1060932C0226
:1003200070932D0280932E0290932F02FF91EF91F4
:10033000BF91AF919F918F917F916F915F914F91FD
:100340003F912F910F900BBE0F900FBE0F901F90FB
:1003500018951F920F920FB60F9211240BB60F92A1
:100360002F933F934F935F936F937F938F939F93BD
:10037000AF93BF93EF93FF93009B0FC06091300248
:1003800070913102809132029091330220E030E08E
:1003900040E85FE30E946B100EC0609130027091E4
:1003A0003102809132029091330220E030E040E847
:1003B0005FE30E946A106093300270933102809371
:1003C000320290933302FF91EF91BF91AF919F91D1
:1003D0008F917F916F915F914F913F912F910F90EE
:1003E0000BBE0F900FBE0F901F9018951F920F928B
:1003F0000FB60F9211240BB60F928F929F92AF926D
:10040000BF92CF92DF92EF92FF922F933F934F9341
:100410005F936F937F938F939F93AF93BF93CF938C
:10042000DF93EF93FF93C8E1D2E06C897D898E89D9
:100430009F8927E230EA49E85CE30E94EC122DEC48
:100440003CEC4CE45DE30E9438116C877D878E871D
:100450009F87688D798D8A8D9B8D27E230EA49E8E8
:100460005CE30E94EC122DEC3CEC4CE45DE30E945A
:100470003811688B798B8A8B9B8B6C857D858E85FB
:100480009F85288939894A895B890E946B1020E001
:1004900030E040E05FE30E94EC1268A379A38AA3F6
:1004A0009BA36C8D7D8D8E8D9F8D88A099A0AAA019
:1004B000BBA020E030E040E05FE30E94EC126B0163
:1004C0007C0120E030E040E05FE3C501B4010E9420
:1004D000EC129B01AC01C701B6010E946B1068A32E
:1004E00079A38AA39BA388A199A1AAA1BBA18C8F60
:1004F0009D8FAE8FBF8F68A179A18AA19BA1C8846F
:10050000D984EA84FB8422E03BE247E05DE30E9479
:10051000EC12A70196010E946B10688779878A8781
:100520009B871C8A1D8A1E8A1F8A188E198E1A8E16
:100530001B8E1092A5001092A400FF91EF91DF9105
:10054000CF91BF91AF919F918F917F916F915F916B
:100550004F913F912F91FF90EF90DF90CF90BF9000
:10056000AF909F908F900F900BBE0F900FBE0F908B
:100570001F9018952F923F924F925F926F927F92A9
:100580008F929F92AF92BF92CF92DF92EF92FF92A3
:100590000F931F93CF93DF931C01EA01C901F1016F
:1005A000808087FEA7C0682D6F7070E080E090E0CB
:1005B0000E94D11121E4922E9F9225E02F932FE2E9
:1005C0002F932BE12F93A12CB12C30E7C32E31ECCC
:1005D000D32EE12CF12C00E711E420E030E0A9015A
:1005E0000E94E80F20E030E040E85FE30E946B10DB
:1005F000E12CF12C00E011E420E030E040E051EC8F
:100600000E94B70F2B013C01682D607770E0E4E099
:1006100075956795EA95E1F770E080E090E00E94BB
:10062000D1119F9220EA2F931F921F92A12CB12CDF
:10063000F0EACF2EF1ECDF2EE12CF12C00EE10E4ED
:1006400020E030E0A9010E94E80F23E333E343E315
:1006500050E40E946A10E12CF12C00EF11E420E03C
:1006600030E040EF51EC0E94B70F2DEC3CEC4CEC2D
:100670005DE30E94EC126B017C0126E636E646E65D
:100680005FE36C817D818E819F810E94EC12A701C6
:1006900096010E946B106B017C0126E636E646E669
:1006A0005FE3688179818A819B810E94EC124B0112
:1006B0005C012DEC3CEC4CEC5DE3C301B2010E940B
:1006C000EC129B01AC01C501B4010E946B10688360
:1006D00079838A839B83CC82DD82EE82FF82F10163
:1006E00010828DB79EB708960FB6F8949EBF0FBEC6
:1006F0008DBF35C0E3E08E16B9F0E81530F0F2E0BA
:100700008F122DC0CA014AD421C024E0821619F1EB
:1007100086E0881224C068A179A18AA19BA120E06B
:1007200030E048EC52E409C020E030E048EC52E40C
:10073000FC0164A975A986A997A90E94EC120E94E0
:10074000A011C62F872F0E94970F8C2F0E94970F02
:10075000F101108204C0D7D78DE00E94970F80E08E
:10076000DF91CF911F910F91FF90EF90DF90CF908D
:10077000BF90AF909F908F907F906F905F904F90C1
:100780003F902F900895CF93DF93CDB7DEB7CB582E
:10079000D1090FB6F894DEBF0FBECDBF0F9A179ADE
:1007A000EE961FAEEE9788E192E09FD280E190E056
:1007B0000E94A20D80E190E00E944D0F789467DDC9
:1007C00080910A01816080930A019FD4813029F4CD
:1007D00080910B01816080930B010E94C30C0E94E9
:1007E000FC0C0E94070D8E010F5F1F4FC801B8D689
:1007F0000E94100D20E030E040E051E469A97AA9A0
:100800008BA99CA90E946A100E94E10C0E94210DF4
:100810008FE39CE90197F1F700C00000DE01AF59BA
:10082000BF4F4DEC5CEC6CE07FE34D935D936D93BB
:100830007C9313978DEC482E8CEC582E8CE4682E0C
:100840008DE3782E14964D925D926D927C9217975F
:100850004AE057ED63EA7CE318964D935D936D9300
:100860007C931B974AE959E969E17FE31C964D9314
:100870005D936D937C931F9750961D921D921D92D0
:100880001C92539754961D921D921D921C9257973D
:1008900058961D921D921D921C925B97FE01EB5B78
:1008A000FF4FC12CD12C98E6E92E91E4F92EC0829D
:1008B000D182E282F3824482558266827782412C21
:1008C000512C612C2FE3722E4086518662867386EE
:1008D0004487558766877787108A118A128A138A18
:1008E000148A158A168A178A108E118E128E138E0C
:1008F000C258DF4F188219821A821B82CE57D0400D
:10090000212C312C412C512C3201CA57DF4F088346
:10091000C658D040C957DF4F1883C758D040C65774
:10092000DF4FA883CA58D040C557DF4FB883CB5894
:10093000D040C857DF4FE883C858D040C757DF4F73
:10094000F883C958D0400E94100DCE57DF4F6883FE
:1009500079838A839B83C258D0400E94210DCE5751
:10096000DF4F488159816A817B81C258D040CA5784
:10097000DF4F8881C658D040C957DF4F9881C7588C
:10098000D0403CD6C10166E070E00E943B10892B4C
:10099000C1F5409138025091390260913A0270914C
:1009A0003B02009118021091190220911A02309115
:1009B0001B02812C912CE0E2AE2EE1E4BE2E7301ED
:1009C0006201C657DF4F8881CA58D040C557DF4FF4
:1009D0009881CB58D04009D7E12CF12C00EA10E4E3
:1009E00020E030E040EA50EC0E94B70FC258DF4FE1
:1009F000688379838A839B83CE57D040412C512CC6
:100A000032012CEC3EE245E652E46DA97EA98FA9A5
:100A100098AD0E94EC12AB01BC01812C912C80EAB4
:100A2000A82E81E4B82ECE57DF4FC880D980EA8047
:100A3000FB80C258D040C258DF4F088119812A81FB
:100A40003B81CE57D040C857DF4F8881C858D0402F
:100A5000C757DF4F9881C958D040C7D6E12CF12C39
:100A600004EB12E420E030E044EB52EC0E94B70FBC
:100A70000E94A01188E192E09BD122E739EF4FE775
:100A80005FE3609118027091190280911A029091AF
:100A90001B020E94EC1220E030E0A9010E946B10C2
:100AA000609318027093190280931A0290931B02AC
:100AB00022E739EF4FE75FE360911C0270911D025E
:100AC00080911E0290911F020E94EC1220E030E003
:100AD000A9010E946B1060931C0270931D02809309
:100AE0001E0290931F02049B0BC0CA57DF4F8881E0
:100AF000C658D040C957DF4F9881C758D04003D659
:100B00008FD72AE037ED43E25CE30E94311187FF83
:100B10002DC00E942B0E892B11F00E94D10D0E9436
:100B2000AC0F892BF9F00E947C0FEE968FAFEE97F9
:100B3000CA57DF4F2881C658D040C957DF4F388188
:100B4000C758D04048E152E0C857DF4F6881C858C5
:100B5000D040C757DF4F7881C958D040CE01835865
:100B60009F4F08DD88E192E08FD1CACF99EC29161A
:100B7000310449F580E092E00E94010EC258DF4F37
:100B8000688179818A819B81CE57D0400E940C0E6A
:100B90008AE00E94EC0D80E192E00E94010E6DA9B6
:100BA0007EA98FA998AD0E940C0E8AE00E94EC0DE0
:100BB0008AE00E94EC0D8AE00E94EC0D8AE00E941F
:100BC000EC0D212C312C8FEF281A380A99EE2916BA
:100BD00093E0390610F0212C312CCE57DF4F2881BD
:100BE00039814A815B81C258D040C301B2010E9461
:100BF0006B102B013C01A7CE8F92AF92CF92EF9258
:100C00000F931F9386E0882E94E0A92E22E0C22E37
:100C1000E12C08E210E028E230E047E250E067E231
:100C200070E088E192E00BD01F910F91EF90CF9090
:100C3000AF908F9008954298409A80E008958F92E7
:100C4000AF92CF92EF920F931F93CF93DF93CDB7D5
:100C5000DEB7FC0110821182128213821482158287
:100C6000168217821086118612861386108A118AC0
:100C7000128A138A108E118E128E138E148E158E78
:100C8000168E178E10A211A212A213A282E384A3C1
:100C900081E085A377A366A351A740A733A722A726
:100CA00015A704A7E6A6C7A6A0AA81AADF91CF919F
:100CB0001F910F91EF90CF90AF908F900895413496
:100CC00019F0423439F00FC016161CF44098429ABD
:100CD00005C0B1CF161624F44498469A80E00895D2
:100CE0004698449AFBCF81E00895CF93DF93EC01BF
:100CF00084B1806684B910928900109288001092A5
:100D00008B0010928A00E0E8F0E0808180688083A8
:100D100080818F7B808380818062808380818F7ED1
:100D20008083808181608083A1E8B0E08C918860BD
:100D30008C9380818D7F80838C9181608C938C914A
:100D4000897F8C93EEA1FFA1308181E090E0BC010E
:100D50000EA402C0660F771F0A94E2F7AC010FA43D
:100D600002C0440F551F0A94E2F7262F242B232B91
:100D70002083E8A5F9A52081AC0108A802C0440F92
:100D8000551F0A94E2F709A802C0880F991F0A9418
:100D9000E2F7842B822B808341E461E0CE018FDF78
:100DA00042E461E0CE018BDF80E0DF91CF910895D6
:100DB0008F929F92AF92BF92CF92DF92EF92FF926B
:100DC0000F931F93CF93DF938C01062E000C770BAC
:100DD000880B990B0E94D3116B017C01F801848070
:100DE0009580A680B780A50194010E946B100E9497
:100DF000A011D62FA5019401C701B6010E946A1067
:100E00000E94A011C62F1D162CF441E461E0C80118
:100E100056DF02C010DFD19542E41C1624F461E0D5
:100E2000C8014DDF04C06FEFC80149DFC195D4365A
:100E30003CF08FEF90E0909389008093880007C08A
:100E4000D8566D2F70E07093890060938800C43687
:100E50003CF08FEF90E090938B0080938A0007C066
:100E6000CF566C2F70E070938B0060938A00DF91F7
:100E7000CF911F910F91FF90EF90DF90CF90BF9097
:100E8000AF909F908F9008954F925F926F927F9254
:100E9000AF92BF92CF92DF92EF92FF920F931F9388
:100EA000CF93DF93EC0180917C00806480937C0081
:100EB00080917C008F7780937C0080917C00807E85
:100EC00080937C0080917A00806880937A00809182
:100ED0007A00806480937A0080917A0086FDFCCF4E
:100EE00000917800109179006CA170E080E090E0B2
:100EF0000E94D31124EA30E74DE75FE30E94EC1231
:100F00002B013C01B80180E090E00E94D11120E06B
:100F100030E040EA50E40E94EC1220E030E040E88B
:100F20005AE30E94EC1222E42F9328EC2F931F9295
:100F30001F92A12CB12C65011CE5E12E1FE8F12EBA
:100F400002E810E42DEC3CEC4CE650E40E94E80F83
:100F50002AE037ED43E25CE30E94EC12A301920128
:100F60000E946B100E94A5116CA30F900F900F9020
:100F70000F900D9A6E3110F4159A01C01598DF91FB
:100F8000CF911F910F91FF90EF90DF90CF90BF9086
:100F9000AF907F906F905F904F900895FC0184A177
:100FA00008954F925F926F927F928F929F92AF922D
:100FB000BF92CF92DF92EF92FF92CF93DF93CDB7A4
:100FC000DEB72E970FB6F894DEBF0FBECDBF9E875B
:100FD0008D8749875A876B877C87FC0144A855A871
:100FE00066A877A8C301B2010E944F1369837A8370
:100FF0008B839C83ED85FE8580A891A8A2A8B3A8C9
:10100000C501B4010E944F136B017C01C501B401FD
:101010000E9435114B015C01C301B2010E943511E0
:101020006D837E838F839887A701960169817A817A
:101030008B819C810E94EC12A50194010E943811C1
:10104000ED85FE8520A131A142A153A10E94EC12A1
:10105000ED85FE85248D358D468D578D0E946B1054
:101060002B013C012D813E814F815885C701B6017E
:101070000E94EC12A50194010E943811ED85FE85B5
:1010800024A135A146A157A10E94EC129B01AC01FD
:10109000C301B2010E946B10905829853A854B8597
:1010A0005C850E94EC122E960FB6F894DEBF0FBE40
:1010B000CDBFDF91CF91FF90EF90DF90CF90BF90A9
:1010C000AF909F908F907F906F905F904F9008951A
:1010D0008091BC0087FFFCCF089584EA8093BC0018
:1010E000F7CF8093BB0084E88093BC00F1CF84EC01
:1010F0008093BC00EDDF8091BB00089584E880936D
:10110000BC00E6DF8091BB000895CF93DF9383E0BE
:101110008093B8008091B9008C7F8093B900809152
:10112000BC0084608093BC00D8DF80EDDADF8BE602
:10113000D8DF81E0D6DFC4E9C093BC00CEDF80ED0C
:10114000D0DF85E7CEDFC9DF81EDCBDFD7DFD82F5A
:10115000C093BC00C2DF80EDC4DF89E1C2DF87E05D
:10116000C0DF80E0BEDF80E0BCDF80E0BADFC0939C
:10117000BC0081E0D83609F480E0DF91CF9108957A
:101180004F925F926F927F928F929F92AF92BF9297
:10119000CF92DF92EF92FF92CF93DF93283579F4CD
:1011A000DF91CF91FF90EF90DF90CF90BF90AF9005
:1011B0009F908F907F906F905F904F90F2CE2935E7
:1011C00081F56A017B01EC018CA89DA8AEA8BFA89F
:1011D000C501B4010E9435112B013C01C501B401C8
:1011E0000E944F134B015C0128A139A14AA15BA1C8
:1011F000C301B2010E94EC122B013C012CA13DA1C4
:101200004EA15FA1C501B4010E94EC129B01AC018B
:10121000C301B2015FD79058A70196010E94EC125A
:1012200004C060E070E08AE794ECDF91CF91FF901A
:10123000EF90DF90CF90BF90AF909F908F907F9076
:101240006F905F904F9008953F924F925F926F9290
:101250007F928F929F92AF92BF92CF92DF92EF9246
:10126000FF920F931F93CF93DF93CDB7DEB76E97A7
:101270000FB6F894DEBF0FBECDBF8C01362E2DDF2A
:1012800080ED2FDF8BE32DDF28DF81ED2ADFCE011C
:1012900001967C016E019EE0C90ED11C28DFD701AA
:1012A0008D937D01AC15BD05C9F728DF8E8784E9D4
:1012B0008093BC0069817A81762767277627072E7D
:1012C000000C880B990B0E94D3116B017C016B8180
:1012D0007C81762767277627072E000C880B990BD1
:1012E0000E94D3116F87788B898B9A8B6D817E8159
:1012F000762767277627072E000C880B990B0E940C
:10130000D3114B015C0169857A857627672776279B
:10131000072E000C880B990B0E94D3116B8B7C8BD2
:101320008D8B9E8B6B857C85762767277627072E8E
:10133000000C880B990B0E94D3116F8B788F898FCB
:101340009A8F6D857E85762767277627072E000C76
:10135000880B990B0E94D3112B013C013320B9F16A
:101360006F817885F801C48AD58AE68AF78A8F85E5
:101370009889A989BA89808F918FA28FB38F848E23
:10138000958EA68EB78E762767277627072E000CB8
:10139000880B990B0E94D311F80160A371A382A35B
:1013A00093A38B899C89AD89BE8984A395A3A6A3A9
:1013B000B7A38F89988DA98DBA8D80A791A7A2A771
:1013C000B3A744A655A666A677A681E0B1C0A7013B
:1013D0009601C701B6010E94EC126B8F7C8F8D8F36
:1013E0009E8FA5019401C501B4010E94EC129B01DE
:1013F000AC016B8D7C8D8D8D9E8D6DD60E945913A9
:101400009B01AC016F85788989899A8931D701D789
:101410006F87788B898B9A8BC701B6019058A5018D
:101420009401CCD66B017C0120ED3FE049EC5FE3F9
:101430000E94E11218164CF4A701960160ED7FE0BE
:1014400089E490E447D66B017C0120ED3FE049EC54
:101450005FEBC701B60105D787FF09C0A701960159
:1014600060ED7FE089E490EC35D66B017C01F801FA
:1014700080AC91ACA2ACB3AC8F859889A989BA89AC
:10148000848B958BA68BB78BC08ED18EE28EF38E1C
:1014900020E030E043E053E46B897C898D899E89AC
:1014A000E7D628E939EF4EE85CE30E94EC12A5018B
:1014B000940110D6F801648F758F868F978F20E086
:1014C00030E043E053E46F89788D898D9A8DD0D6D2
:1014D00028E939EF4EE85CE30E94EC12D801DC9673
:1014E0002D913D914D915C91DF97F4D5F80160A36A
:1014F00071A382A393A320E030E043E053E4C3014F
:10150000B201B6D628E939EF4EE85CE30E94EC124E
:10151000F801E05CFF4F2081318142815381DAD5AF
:10152000D80194966D937D938D939C93979780E0CB
:101530006E960FB6F894DEBF0FBECDBFDF91CF9190
:101540001F910F91FF90EF90DF90CF90BF90AF90E1
:101550009F908F907F906F905F904F903F900895F5
:10156000CF93DF93EC01188219821A821B821C82AE
:101570001D821E821F82188619861A861B86188A6B
:10158000198A1A8A1B8A1CAA1DAA1EAA1FAA18AE8B
:1015900019AE1AAE1BAE1CAE1DAE1EAE1FAEFC01C8
:1015A000E05CFF4F1082118212821382AEDD2FEFBA
:1015B00083ED90E3215080409040E1F700C00000AF
:1015C00060E0CE0141DE4C895D896E897F894CAB3C
:1015D0005DAB6EAB7FAB888D998DAA8DBB8D88ABD3
:1015E00099ABAAABBBAB4C835D836E837F8388874B
:1015F0009987AA87BB87DF91CF9108958F929F9299
:10160000AF92BF92CF92DF92EF92FF92CF93DF9390
:10161000EC016A017B0160E017DEB701A601CE0193
:10162000C0DC4B015C016C877D878E879F8729E535
:10163000B701A601CE01A4DD6B017C01688B798B1B
:101640008A8B9B8BA50194016C817D818E819F810A
:1016500042D56C837D838E839F83A7019601688525
:1016600079858A859B8537D5688779878A879B871F
:101670002CA93DA94EA95FA9C501B4012CD522E52D
:1016800038EB4EE75FE3A8D74B015C012AE037ED6A
:1016900043EA5BE36C897D898E899F899DD79B0195
:1016A000AC01C501B40117D56CAB7DAB8EAB9FAB64
:1016B00028A939A94AA95BA9C701B6010CD524EA12
:1016C00030E74DE75FE388D76B017C012AE037ED17
:1016D00043E25CE3688D798D8A8D9B8D7DD79B017C
:1016E000AC01C701B601F7D468AB79AB8AAB9BAB51
:1016F000DF91CF91FF90EF90DF90CF90BF90AF90B0
:101700009F908F900895CF92DF92EF92FF920F9368
:101710001F93CF93DF93EC0180910B018160809345
:101720000B012FEF87EA91E6215080409040E1F7CE
:1017300000C00000109289001092880010928B0067
:1017400010928A0080910B018E7F80930B0108EE2E
:1017500013E0C12CD12C760160E0CE0175DD2C8D1B
:101760003D8D4E8D5F8DC701B601B5D46B017C01F7
:101770008FE39FE10197F1F700C0000001501109CC
:1017800059F720E030E04AE754E4C701B60170D5CC
:1017900068AF79AF8AAF9BAF6CAF7DAF8EAF9FAFB5
:1017A000C05CDF4F688379838A839B8335D28AE06C
:1017B00013D280910B01816080930B019FEF27EA88
:1017C00081E6915020408040E1F700C00000809108
:1017D0000B018E7F80930B01DF91CF911F910F91B1
:1017E000FF90EF90DF90CF9008952F923F924F920D
:1017F0005F926F927F928F929F92AF92BF92CF92A1
:10180000DF92EF92FF920F931F93CF93DF93CDB7A9
:10181000DEB728970FB6F894DEBF0FBECDBF1C0110
:101820002A013B01C901B801CD82DE82EF82F88630
:10183000A30192014FD469837A838B839C83F10146
:10184000248935894689578946D42B013C01F10109
:10185000648B758B868B978B20E030E0A901C501E6
:10186000B401FFD4882369F0A50194015058850183
:101870007401C301B2017BD3F101648B758B868B3C
:10188000978BF101C484D584E684F784208D318D53
:10189000428D538DC701B6019FD62B013C01F1014A
:1018A000208931894289538969817A818B819C8120
:1018B00011D49B01AC01C301B2010DD42B013C0139
:1018C0002D813E814F815885C701B60104D49B010B
:1018D000AC01C301B201CCD46B017C01F101608F7A
:1018E000718F828F938F24893589468957896481C6
:1018F00075818681978170D62D813E814F81588573
:101900006BD62B013C01F101208131814281538151
:1019100069817A818B819C815FD69B01AC01C30177
:10192000B201D9D32B013C01F101208531854285DB
:101930005385C701B60150D69B01AC01C301B2016A
:10194000CAD329813A814B815C81F101208B318B93
:10195000428B538B28960FB6F894DEBF0FBECDBFD7
:10196000DF91CF911F910F91FF90EF90DF90CF907B
:10197000BF90AF909F908F907F906F905F904F90AF
:101980003F902F900895E0E9F0E080818E7F808382
:10199000808182608083A1E9B0E08C9188618C9322
:1019A0006B9A88EB9BE090939900809398008FE36B
:1019B0009CE9909397008093960080818068808353
:1019C0000895E1E9F0E020812260208320812A7FD0
:1019D000208320E030E044EB52E44AD420E030E0C1
:1019E0004AEF54E4F9D5ACD46854744F709399001D
:1019F0006093980080E00895E0E2F1E080818C7FC0
:101A00008083E1E2F1E08081877F80830895E1E2D5
:101A1000F1E080818260808380818A7F8083089565
:101A2000609124017091250180E090E0BAD420E01B
:101A30003FEF4FE757E41CD42DEB37E346E05DE37F
:101A4000CBC510922501109224010895E0EAF0E040
:101A500080818C7F8083E1EAF0E08081877F8083D2
:101A600084ED90E39093AB008093AA00E2E7F0E06E
:101A70008081846080830895E1EAF0E08081836062
:101A8000808380818B7F808308951F920F920FB691
:101A90000F9211240BB60F922F938F939F93EF9376
:101AA000FF938091C0009091C6008871E0911B0364
:101AB000EF5FEF7120911A03E21739F0E0931B03F7
:101AC000F0E0E25EFC4F908301C082E08093190356
:101AD000FF91EF919F918F912F910F900BBE0F90DF
:101AE0000FBE0F901F9018951F920F920FB60F9276
:101AF00011240BB60F928F939F93EF93FF939091C6
:101B00001D0380911C03981769F0E0911C03EF5F9F
:101B1000EF71E0931C03F0E0E25CFC4F8081809366
:101B2000C60005C08091C1008F7D8093C100FF91E8
:101B3000EF919F918F910F900BBE0F900FBE0F9062
:101B40001F90189510921D0310921C0310921B03F6
:101B500010921A0397FF04C022E02093C0009F77E1
:101B60009093C5008093C40088E98093C100809160
:101B7000C2008F738093C2008091C2008F7C8093DB
:101B8000C2008091C200877F8093C2008091C20012
:101B900086608093C2008091C1008B7F8093C100DA
:101BA000089590911B0380911A03981791F0E0918A
:101BB0001A03EF5FEF71E0931A03F0E0E25EFC4F6F
:101BC00020818091190390E0982F8827820F911D22
:101BD000089580E091E0089590911D039F5F9F71AB
:101BE00020911C039217E1F3E92FF0E0E25CFC4F37
:101BF000808390931D038091C10080628093C10017
:101C00000895CF93DF93EC018991882311F0E4DFED
:101C1000FBCFDF91CF9108950F931F93CF93DF9365
:101C2000CDB7DEB764970FB6F894DEBF0FBECDBF59
:101C30008E010F5F1F4F25E044E0A2D5C801E1DF10
:101C400064960FB6F894DEBF0FBECDBFDF91CF9183
:101C50001F910F91089580911B0320911A0390E02A
:101C60004F96821B91096FE170E019C21F920F928B
:101C70000FB60F9211240BB60F922F938F939F9351
:101C8000EF93FF938091C8009091CE008871E0910E
:101C9000D602EF5FEF712091D502E21739F0E093A1
:101CA000D602F0E0E752FD4F908301C082E08093BE
:101CB000D402FF91EF919F918F912F910F900BBEC6
:101CC0000F900FBE0F901F9018951F920F920FB696
:101CD0000F9211240BB60F928F939F93EF93FF9364
:101CE0009091D8028091D702981769F0E091D702BD
:101CF000EF5FEF71E093D702F0E0E750FD4F808196
:101D00008093CE0005C08091C9008F7D8093C9006B
:101D1000FF91EF919F918F910F900BBE0F900FBE8F
:101D20000F901F9018951F920F920FB60F921124CB
:101D30000BB60F922F938F939F93EF93FF93809106
:101D4000D0009091D6008871E0919102EF5FEF7121
:101D500020919002E21739F0E0939102F0E0EC5606
:101D6000FD4F908301C082E080938F02FF91EF913D
:101D70009F918F912F910F900BBE0F900FBE0F90E0
:101D80001F9018951F920F920FB60F9211240BB649
:101D90000F928F939F93EF93FF9390919302809173
:101DA0009202981769F0E0919202EF5FEF71E09371
:101DB0009202F0E0EC54FD4F80818093D60005C084
:101DC0008091D1008F7D8093D100FF91EF919F9101
:101DD0008F910F900BBE0F900FBE0F901F90189514
:101DE0001F920F920FB60F9211240BB60F922F93E2
:101DF0008F939F93EF93FF938091300190913601E1
:101E00008871E0914C02EF5FEF7120914B02E21775
:101E100039F0E0934C02F0E0E15BFD4F908301C0AC
:101E200082E080934A02FF91EF919F918F912F91D1
:101E30000F900BBE0F900FBE0F901F9018951F9222
:101E40000F920FB60F9211240BB60F928F939F93A0
:101E5000EF93FF9390914E0280914D02981769F095
:101E6000E0914D02EF5FEF71E0934D02F0E0E15938
:101E7000FD4F80818093360105C0809131018F7DB7
:101E800080933101FF91EF919F918F910F900BBE45
:101E90000F900FBE0F901F90189510924E02109247
:101EA0004D0210924C0210924B0297FF04C022E0A8
:101EB000209330019F77909335018093340188E916
:101EC00080933101809132018F7380933201809130
:101ED00032018F7C8093320180913201877F809321
:101EE000320180913201866080933201809131010C
:101EF0008B7F80933101089590914C0280914B0229
:101F0000981791F0E0914B02EF5FEF71E0934B0275
:101F1000F0E0E15BFD4F208180914A0290E0982F34
:101F20008827820F911D089580E091E00895909197
:101F30004E029F5F9F7120914D029217E1F3E92FAE
:101F4000F0E0E159FD4F808390934E028091310182
:101F5000806280933101089580914C0220914B0260
:101F600090E04F96821B91096FE170E098C08F92CC
:101F70009F92AF92BF92CF92DF92EF92FF920F9318
:101F80001F93CF93DF936B01D82FC92F49015A01BB
:101F900068D187FD0CC09701A801B6018D2F9C2F39
:101FA00010D3181634F076010D2F1C2F02C07401C7
:101FB0008501B701C801DF91CF911F910F91FF906B
:101FC000EF90DF90CF90BF90AF909F908F9008954B
:101FD0004F925F926F927F92AF92BF92CF92DF92B9
:101FE000EF92FF920F931F93CF93DF93CDB7DEB79E
:101FF00028970FB6F894DEBF0FBECDBF29013A0176
:10200000E982FA820B831C8365D06D837E838F8384
:102010009887A3019201C801B7015CD09B01AC0174
:102020006D817E818F81988523D12B013C01A60192
:1020300095016A8D7B8D8C8D9D8D4CD09B01AC0163
:10204000C301B201C9D2A601950145D028960FB6A9
:10205000F894DEBF0FBECDBFDF91CF911F910F91DE
:10206000FF90EF90DF90CF90BF90AF907F906F90F8
:102070005F904F900895AA1BBB1B51E107C0AA1F98
:10208000BB1FA617B70710F0A61BB70B881F991F19
:102090005A95A9F780959095BC01CD01089597FBBD
:1020A000072E16F4009406D077FD08D0E4DF07FC75
:1020B00005D03EF4909581959F4F08957095619558
:1020C0007F4F0895EE0FFF1F881F8BBF0790F6917B
:1020D000E02D19945058BB27AA270ED027C2F0D163
:1020E00030F0F5D120F031F49F3F11F41EF4C0C15F
:1020F0000EF4E095E7FBB6C1E92F3AD280F3BA17A8
:10210000620773078407950718F071F49EF552C2B1
:102110000EF4E0950B2EBA2FA02D0B01B901900102
:102120000C01CA01A0011124FF27591B99F0593F46
:1021300050F4503E68F11A16F040A22F232F342F8E
:102140004427585FF3CF469537952795A795F040DC
:102150005395C9F77EF41F16BA0B620B730B840BF1
:10216000BAF09150A1F0FF0FBB1F661F771F881FA9
:10217000C2F70EC0BA0F621F731F841F48F4879501
:1021800077956795B795F7959E3F08F0B3CF9395F0
:10219000880F08F09927EE0F97958795089590D1AD
:1021A00058F080E891E009F49EEF91D128F040E8E2
:1021B00051E059F45EEF09C05BC1FCC1E92FE07842
:1021C000D7D168F3092E052AC1F326173707480728
:1021D000590738F00E2E07F8E02569F0E025E06495
:1021E0000AC0EF6307F8009407FADB01B9019D010B
:1021F000DC01CA01AD01EF934AD098D10AD05F91BA
:10220000552331F02BED3FE049E450FD49EC63CF1D
:102210000895DF93DD27B92FBF7740E85FE31616F7
:10222000170648075B0710F4D92FCFD19F938F93E0
:102230007F936F937CD2E4EEF0E01DD177D12F91A4
:102240003F914F915F91D4D1DD2349F09058A2EA9C
:102250002AED3FE049EC5FE3D0785D274DDFDF9169
:1022600065C1DCD008F481E0089539D1E3956FC1F0
:102270000CD05CC12CD140F023D130F021F45F3F71
:1022800019F0F0C0511197C1F3C072D198F399239E
:10229000C9F35523B1F3951B550BBB27AA2762172A
:1022A0007307840738F09F5F5F4F220F331F441F6F
:1022B000AA1FA9F333D00E2E3AF0E0E830D09150A7
:1022C0005040E695001CCAF729D0FE2F27D0660F94
:1022D000771F881FBB1F261737074807AB07B0E8D3
:1022E00009F0BB0B802DBF01FF2793585F4F2AF0E9
:1022F0009E3F510568F0B6C05EC15F3FECF3983E6B
:10230000DCF3869577956795B795F7959F5FC9F745
:10231000880F911D9695879597F90895E1E0660FCE
:10232000771F881FBB1F621773078407BA0720F047
:10233000621B730B840BBA0BEE1F88F7E0950895B0
:1023400004D06894B11137C108951AD188F09F570D
:1023500090F0B92F9927B751A0F0D1F0660F771FF1
:10236000881F991F1AF0BA95C9F712C0B13081F0D1
:1023700021D1B1E008951EC1672F782F8827B85F5B
:1023800039F0B93FCCF3869577956795B395D9F732
:102390003EF490958095709561957F4F8F4F9F4F3C
:1023A0000895E89409C097FB3EF490958095709548
:1023B00061957F4F8F4F9F4F9923A9F0F92F96E991
:1023C000BB279395F695879577956795B795F11106
:1023D000F8CFFAF4BB0F11F460FF1BC06F5F7F4FA3
:1023E0008F4F9F4F16C0882311F096E911C07723B5
:1023F00021F09EE8872F762F05C0662371F096E8BE
:10240000862F70E060E02AF09A95660F771F881F8C
:10241000DAF7880F9695879597F90895990F000830
:10242000550FAA0BE0E8FEEF16161706E807F907A6
:10243000C0F012161306E407F50798F0621B730B41
:10244000840B950B39F40A2661F0232B242B252BC2
:1024500021F408950A2609F4A140A6958FEF811D65
:10246000811D089597F99F6780E870E060E0089506
:102470009FEF80EC0895DF93CF931F930F93FF920C
:10248000EF92DF927B018C01689405C0DA2EEF0198
:10249000AFD0FE01E894A5912591359145915591D4
:1024A000AEF3EF0129DEFE019701A801DA9479F776
:1024B000DF90EF90FF900F911F91CF91DF910895E2
:1024C00000240A9416161706180609060895002413
:1024D0000A9412161306140605060895C9CF50D0A3
:1024E000E8F3E894E0E0BB279F57F0F02AED3FE0E7
:1024F00049EC06C0EE0FBB0F661F771F881F28F040
:10250000B23A62077307840728F0B25A620B730B62
:10251000840BE3959A9572F7803830F49A95BB0F47
:10252000661F771F881FD2F7904806C1092E0394B3
:10253000000C11F4882352F0BB0F40F4BF2B11F4B0
:1025400060FF04C06F5F7F4F8F4F9F4F0895EF93E1
:10255000E0FF06C0A2EA2AED3FE049EC5FEBCCDDEC
:10256000E5DF0F90039401FC9058E1E1F1E0F7C042
:1025700057FD9058440F551F59F05F3F71F0479534
:10258000880F97FB991F61F09F3F79F08795089519
:10259000121613061406551FF2CF4695F1DF08C038
:1025A000161617061806991FF1CF86957105610555
:1025B00008940895E894BB2766277727CB0197F9FD
:1025C00008952CDF08F48FEF08959B01AC0160E0C3
:1025D00070E080E89FE34CCE0BD0A8CF71DF28F0ED
:1025E00076DF18F0952309F03DCF42CF1124E3CFD9
:1025F000BFDFA0F3959FD1F3950F50E0551F629F69
:10260000F001729FBB27F00DB11D639FAA27F00D4B
:10261000B11DAA1F649F6627B00DA11D661F829F72
:102620002227B00DA11D621F739FB00DA11D621F57
:10263000839FA00D611D221F749F3327A00D611D74
:10264000231F849F600D211D822F762F6A2F112456
:102650009F5750408AF0E1F088234AF0EE0FFF1FA9
:10266000BB1F661F771F881F91505040A9F79E3FE0
:10267000510570F0F7CE9FCF5F3FECF3983EDCF34F
:10268000869577956795B795F795E7959F5FC1F71D
:10269000FE2B880F911D9695879597F908959F9326
:1026A0001EDF0F9007FCEE5F52CF11F40EF4E0CE68
:1026B00041C066DFD0F39923D9F3CEF39F57550B72
:1026C00087FF46D00024A0E640EA90018058569546
:1026D000979528F4805C660F771F881F20F02617D7
:1026E0003707480730F4621B730B840B202931290C
:1026F0004A2BA69517940794202531254A2758F789
:10270000660F771F881F20F026173707480730F419
:10271000620B730B840B200D311D411DA09581F7B9
:10272000B901842F9158880F9695879508959B013C
:10273000AC0152CF9F3F31F0915020F487957795AF
:102740006795B795880F911D9695879597F9089588
:1027500091505040660F771F881FD2F708959F93BE
:102760008F937F936F93FF93EF939B01AC0134DFC3
:10277000EF91FF9180DE2F913F914F915F912CCF90
:10278000EF920F931F93CF93DF93E80147FD02C0B1
:1027900034E001C034E1042E000C550B57FF03C098
:1027A000519541955109E32E022F242FAE0107D0F8
:1027B000CE01DF91CF911F910F91EF9008958F92ED
:1027C0009F92AF92BF92CF92DF92EF92FF920F93C0
:1027D0001F93CF93DF93CDB7DEB729970FB6F89449
:1027E000DEBF0FBECDBF6A01122FB02E2BE3201724
:1027F00020F0FF24F394F00E02C02CE3F22E0F2DF4
:1028000027E0AE014F5F5F4F50D1BC014981842F5B
:102810008970813031F0E1FC06C0E0FE06C090E234
:1028200005C09DE203C09BE201C090E05E2D5071A7
:1028300043FF3CC0911102C083E001C084E08117D6
:1028400018F4212F281B01C020E051110BC0F60104
:10285000822F30E2882319F031938150FBCFC20ED2
:10286000D11C20E0992329F0D6019C93F6013196E2
:102870006F01C6010396E2FE0AC03EE4D6013C9316
:1028800041E411964C93119712963C9306C03EE694
:10289000F601308341E641833283FC01322F40E26E
:1028A000332309F442C041933150FACF42FF44C070
:1028B000911102C083E001C084E0811718F4212F38
:1028C000281B01C020E051110BC0F601822F30E21D
:1028D000882319F031938150FBCFC20ED11C20E028
:1028E000992329F0D6019C93F60131966F01C60118
:1028F0000396E2FE0BC039E4D6013C933EE4119608
:102900003C93119736E412963C9307C039E6F601E2
:1029100030833EE6318336E63283FC01322F40E2DB
:10292000332319F041933150FBCFFC01E20FF11D2D
:1029300010828EEF9FEFA6C021E030E0911102C01F
:1029400020E030E0161617061CF4FB01319602C099
:10295000E1E0F0E02E0F3F1FBB2021F0EB2DF0E077
:10296000319602C0E0E0F0E02E0F3F1FE12FF0E0D3
:102970002E173F071CF4121B212F01C020E08E2DC3
:10298000887159F4F601822F30E2882319F03193CF
:102990008150FBCFC20ED11C20E0992329F0D60133
:1029A0009C93F60131966F0151110BC0F601822FF5
:1029B00090E3882319F091938150FBCFC20ED11C74
:1029C00020E00F2D060F9A81342F307144FF03C091
:1029D000913309F40150101624F4093018F008E07E
:1029E00001C001E0AB0177FF02C040E050E0FB0115
:1029F000E41BF50BA1E0B0E0AC0FBD1FEA0FFB1F1D
:102A00008EE2A82E4B01801A91080B2D10E0119533
:102A1000019511094F3FBFEF5B0721F4D601AC923E
:102A200011966D01641775072CF08416950614F441
:102A3000818101C080E3415051093196D601119640
:102A40007D014017510724F0D6018C936701E2CF36
:102A50006417750739F4963320F4953319F431115E
:102A600001C081E3F6018083F701822F90E2882381
:102A700019F091938150FBCFF701E20FF11D108205
:102A800080E090E029960FB6F894DEBF0FBECDBF70
:102A9000DF91CF911F910F91FF90EF90DF90CF903A
:102AA000BF90AF909F908F900895283008F027E056
:102AB0003327DA01990F311D87FD9160009661057A
:102AC000710539F432602E5F3D9330E32A95E1F7CA
:102AD00008959F3F30F080387105610509F03C5F33
:102AE0003C5F3D93913008F08068911DDF93CF9358
:102AF0001F930F93FF92EF92192F987F9695E92FCE
:102B000096959695E90FFF27E657FE4F99273327AD
:102B1000EE24FF24A701E70105900894079428F408
:102B2000360FE71EF81E491F511D660F771F881FBD
:102B3000991F0694A1F70590079428F4E70EF81E54
:102B4000491F561FC11D770F881F991F661F0694C6
:102B5000A1F70590079428F4F80E491F561FC71FC8
:102B6000D11D880F991F661F771F0694A1F7059046
:102B7000079420F4490F561FC71FD81F990F661FCF
:102B8000771F881F0694A9F784911095177041F05C
:102B9000D695C79557954795F794E7941A95C1F739
:102BA000E0E3F1E068941590159135916591959168
:102BB00005907FE27395E118F10A430B560BC90BA0
:102BC000D009C0F7E10CF11E431F561FC91FD01DCD
:102BD0007EF4703311F48A95E6CFE894015030F01A
:102BE000080F0AF40027021708F4202F2395022F5C
:102BF0007A3328F079E37D932A95E9F710C07D9325
:102C00002A9589F6069497956795379517951794A1
:102C1000E118F10A430B560BC90BD00998F0239524
:102C20007E9173957A3308F070E37C932013B8F7A4
:102C30007E9170617D9330F0839571E37D9370E3B5
:102C40002A95E1F71124EF90FF900F911F91CF91FA
:0E2C5000DF91992787FD90950895F894FFCFA6
:102C5E00446573697265642073706565643A20001B
:082C6E00416E676C653A20001D
:00000001FF
