:1000000015C1000043C1000041C100003FC1000014
:100010003DC1000051C100009CC1000037C100007B
:1000200035C1000033C1000031C100002FC1000004
:100030002DC100002BC1000029C1000027C1000014
:1000400025C1000023C1000021C100001FC1000024
:100050001DC100001BC1000019C1000017C1000034
:1000600015C100000C949F0B0C94CE0B0FC1000027
:100070000DC100000BC1000009C1000007C1000054
:1000800005C1000003C1000001C10000FFC0000065
:100090000C94850C0C94B40CF9C00000F7C000005F
:1000A000F5C00000F3C00000F1C000009FC10000D7
:1000B000EDC00000EBC00000E9C00000E7C0000098
:1000C000E5C00000E3C00000E1C000000C94E20CB9
:1000D0000C94110DDBC000000C943F0D0C946E0DC0
:1000E000D5C00000084AD73B3BCE016E84BCBFFDA3
:1000F000C12F3D6C74319ABD56833DDA3D00C77FF8
:1001000011BED9E4BB4C3E916BAAAABE0000008090
:100110003F05A84CCDB2D44EB93836A9020C50B91F
:10012000918688083CA6AAAA2ABE000000803F004B
:1001300000407A10F35A00A0724E18090010A5D49E
:10014000E80000E87648170000E40B54020000CAFB
:100150009A3B000000E1F505000080969800000041
:1001600040420F000000A0860100000010270000A0
:100170000000E803000000006400000000000A0026
:10018000000000000100000000002C76D888DC6729
:100190004F0823DFC1DFAE59E1B1B796E5E3E45381
:1001A000C63AE651997696E8E6C28426EB898C9B9E
:1001B00062ED407C6FFCEFBC9C9F40F2BAA56FA53E
:1001C000F490055A2AF75C936B6CF9676DC11BFCC0
:1001D000E0E40D47FEF520E6B500D0ED902E0300DB
:1001E000943577050080841E080000204E0A000028
:1001F00000C80C333333330F986E12831141EF8DE7
:100200002114893BE65516CFFEE6DB18D1844B3826
:100210001BF77C1D901DA4BBE424203284725E2257
:100220008100C9F124ECA1E53D273D0511241FBE45
:10023000CFEFD1E2DEBFCDBF00E00CBF12E0A0E007
:10024000B2E0EAE5F8E200E00BBF02C007900D92D1
:10025000A033B107D9F723E0A0E3B2E001C01D92BB
:10026000A237B207E1F711E0C6E1D1E000E006C035
:1002700021970109802FFE010E942D0EC531D10763
:1002800080E00807A9F751D20C942B14B9CE81B1A4
:100290008A7F81B98DB18F7C8DB9EAE6F0E08081EB
:1002A0008360808380818C6080838DB380638DBB0D
:1002B0000E94800B0C94960B1F920F920FB60F9218
:1002C00011240BB60F922F933F934F935F936F932D
:1002D0007F938F939F93AF93BF93EF93FF93009B75
:1002E0000FC060914202709143028091440290914C
:1002F000450220E030E040E85FE30E94360E0EC089
:1003000060914202709143028091440290914502B3
:1003100020E030E040E85FE30E94350E6093420247
:10032000709343028093440290934502FF91EF91B2
:10033000BF91AF919F918F917F916F915F914F91FD
:100340003F912F910F900BBE0F900FBE0F901F90FB
:1003500018951F920F920FB60F9211240BB60F92A1
:100360002F933F934F935F936F937F938F939F93BD
:10037000AF93BF93EF93FF93029B0FC06091460230
:1003800070914702809148029091490220E030E04C
:1003900040E85FE30E94360E0EC060914602709105
:1003A0004702809148029091490220E030E040E805
:1003B0005FE30E94350E609346027093470280937C
:1003C000480290934902FF91EF91BF91AF919F91A5
:1003D0008F917F916F915F914F913F912F910F90EE
:1003E0000BBE0F900FBE0F901F9018951F920F928B
:1003F0000FB60F9211240BB60F928F929F92AF926D
:10040000BF92CF92DF92EF92FF922F933F934F9341
:100410005F936F937F938F939F93AF93BF93CF938C
:10042000DF93EF93FF93C0E3D2E08A899B89AC8985
:10043000BD89BC01CD01905827E230EA49E85CE370
:100440000E94B7102DEC3CEC4CE45DE30E94030FDE
:100450006A877B878C879D876E897F89888D998D38
:1004600027E230EA49E85CE30E94B7102DEC3CEC4F
:100470004CE45DE30E94030F6E877F87888B998B26
:100480006A857B858C859D852E853F854889598920
:100490000E94360E20E030E040E05FE30E94B7109B
:1004A0006E8F7F8F88A399A36A8D7B8D8C8D9D8D98
:1004B0008E8C9F8CA8A0B9A02AE939E949E15FE3B5
:1004C0000E94B7106B017C012CEC3CEC4CEC5EE321
:1004D000C501B4010E94B7109B01AC01C701B60170
:1004E0000E94360E6E8F7F8F88A399A38E8D9F8D6D
:1004F000A8A1B9A18A8F9B8FAC8FBD8F6E8D7F8D88
:1005000088A199A1CE80DF80E884F98422E03BE2D3
:1005100047E05DE30E94B710A70196010E94360EE6
:100520006E837F83888799871A8A1B8A1C8A1D8A13
:100530001E8A1F8A188E198E1092A5001092A40090
:10054000FF91EF91DF91CF91BF91AF919F918F91EB
:100550007F916F915F914F913F912F91FF90EF901D
:10056000DF90CF90BF90AF909F908F900F900BBE79
:100570000F900FBE0F901F9018958F929F92AF9281
:10058000BF92CF92DF92EF92FF920F931F93CF9380
:10059000DF936B01D82FC92F49015A010E94FC0E2D
:1005A00087FD0DC09701A801B6018D2F9C2F0E94D9
:1005B000AC10181634F076010D2F1C2F02C07401F8
:1005C0008501B701C801DF91CF911F910F91FF9075
:1005D000EF90DF90CF90BF90AF909F908F90089555
:1005E0008F929F92AF92BF92CF92DF92EF92FF9243
:1005F0000F931F93CF93DF938C01EA01FC01F080EE
:10060000F7FE70C06F2D6F7070E080E090E00E9488
:100610009C0F20E030E040E751E40E94030F20E00F
:1006200030E040EA51E40E94B71020E030E040E2C0
:1006300051E40E94350E2DEC3CEC4CEC5DE30E9445
:10064000B7104B015C0126E636E646E65FE36881BB
:1006500079818A819B810E94B7109B01AC01C50101
:10066000B4010E94360E688379838A839B836F2D41
:10067000607770E084E0759567958A95E1F770E0A2
:1006800080E090E00E949C0F20E030E040EE50E4DB
:100690000E94030F20E030E040E05FE30E94350E4F
:1006A0002DEC3CEC4CE45EE30E94B7106B017C0146
:1006B0006C81062E000C770B880B990B0E949E0F05
:1006C0002DEC3CEC4CE45FE30E94B7109B01AC01C5
:1006D000C701B6010E94360E0E946B0F6C836195B4
:1006E0006D8313C0F2E0FF1661F083E0F8120FC0D3
:1006F000F90164A975A986A997A90E94700F862F90
:1007000002C0CA0125D30E94E60DF801108280E0E4
:10071000DF91CF911F910F91FF90EF90DF90CF90DD
:10072000BF90AF909F908F900895CF93DF93CDB7F8
:10073000DEB7CB57D1090FB6F894DEBF0FBECDBFE1
:10074000E2961FAEE29780E392E032D287E690E035
:100750000E94FC0B80E190E00E949C0D789497DD54
:10076000DAD3813029F480910B01816080930B01F1
:1007700066D79CD7A6D78E010F5F1F4FC801D9D56A
:10078000A9D720E030E040E051E469A97AA98BA91B
:100790009CA90E94350E77D7AED78FE39CE90197CD
:1007A000F1F700C0000086E696E6A6EEBEE3699685
:1007B0008CAF9DAFAEAFBFAF69978DEC9CECACE456
:1007C000BDE36D968CAF9DAFAEAFBFAF6D978AE0C6
:1007D00097EDA3EABCE3A1968CAF9DAFAEAFBFAFE0
:1007E000A1978AE999E9A9E1BFE3A5968CAF9DAFEE
:1007F000AEAFBFAFA597A9961CAE1DAE1EAE1FAE85
:10080000A997AD961CAE1DAE1EAE1FAEAD97E1967C
:100810001CAE1DAE1EAE1FAEE19740E050E060E49E
:1008200071E449AF5AAF6BAF7CAF21961CAE1DAEE1
:100830001EAE1FAE219740E050E060E87EE32596B3
:100840004CAF5DAF6EAF7FAF259729968CAF9DAF54
:10085000AEAFBFAF29972D961CAE1DAE1EAE1FAE1C
:100860002D9761961CAE1DAE1EAE1FAE61976596AC
:100870001CAE1DAE1EAE1FAE6597EA961CAE1DAE39
:100880001EAE1FAEEA97212C312C412C512C320187
:10089000EB960FAFEB97EC961FAFEC971BD7E69656
:1008A0006CAF7DAF8EAF9FAFE69725D7E6964CAD88
:1008B0005DAD6EAD7FADE697EB968FADEB97EC96A9
:1008C0009FADEC9769D5C10166E070E00E94060E0D
:1008D000892B51F540914E0250914F026091500288
:1008E0007091510200913002109131022091320238
:1008F00030913302812C912C88E4A82E82E4B82E0A
:1009000073016201CE018B5A9F4FCBD520E030E0BE
:10091000A9010E94360EEA966CAF7DAF8EAF9FAFF5
:10092000EA97412C512C32012CEC3EE245E652E490
:100930006DA97EA98FA998AD0E94B710AB01BC012B
:10094000812C912C5401E696CCACDDACEEACFFAC26
:10095000E697EA960CAD1DAD2EAD3FADEA97CE0100
:10096000C9969FD57B018C0120E030E048EC52EC29
:100970000E94FC0E87FD0FC020E030E048EC52E4FE
:10098000B701C8010E94AC1018164CF4E12CF12CF0
:1009900008EC12E404C0E12CF12C08EC12ECB701D5
:1009A000C8010E946B0F80E392E07FD193D62AE0CA
:1009B00037ED43E25CE30E94FC0E87FF1DC00E94FE
:1009C000FB0D892B99F30E94CB0DE2968FAFE29736
:1009D000992761D78AE03FD7EB962FADEB97EC963E
:1009E0003FADEC9740E352E0BE01675C7F4FCE0124
:1009F0008F589F4FF5DDDACF99EC2916310469F550
:100A000080E092E03DD7EA966CAD7DAD8EAD9FADB6
:100A1000EA975CD78AE01FD78EE092E031D7E6965E
:100A20006CAD7DAD8EAD9FADE69750D78AE013D704
:100A30008EE192E025D760914E0270914F02809135
:100A400050029091510242D78AE005D78AE003D73D
:100A50008AE001D7212C312C03C08FEF281A380AE5
:100A6000E6962CAD3DAD4EAD5FADE697C301B2014C
:100A70000E94360E2B013C0111CF8F92AF92CF9284
:100A8000EF920F931F9386E0882E94E0A92E22E028
:100A9000C22EE12C08E210E028E230E047E250E00C
:100AA00067E270E080E392E007D01F910F91EF9032
:100AB000CF90AF908F9008958F92AF92CF92EF9298
:100AC0000F931F93CF93DF93CDB7DEB7FC01108256
:100AD0001182128213821582168217821086118665
:100AE00016861786108A118A168A178A108E118E1A
:100AF000128E138E148E158E168E178E10A211A2C2
:100B000073A362A355A344A337A326A311A700A7E9
:100B1000E2A6C3A6A4A685A6DF91CF911F910F914F
:100B2000EF90CF90AF908F900895DC01413461F049
:100B30004234E1F59896ED91FC9199979C962C9111
:100B40009C979D963C9109C09696ED91FC91979744
:100B50009A962C919A979B963C9167FF13C040817F
:100B600081E090E0BC0101C0660F2A95EAF7262FCC
:100B7000209524232083208101C0880F3A95EAF72D
:100B8000822B11C0608181E090E0AC0101C0440F74
:100B90002A95EAF7462B4083208101C0880F3A95B9
:100BA000EAF780958223808380E0089581E00895AC
:100BB000CF93DF93EC0184B1806684B910928900F1
:100BC0001092880010928B0010928A00E0E8F0E00A
:100BD00080818068808380818F7B80838081806238
:100BE000808380818F7E8083808181608083A1E883
:100BF000B0E08C9188608C9380818D7F80838C9114
:100C000082608C938C918A7F8C93EAA1FBA13081C6
:100C100081E090E0BC010AA402C0660F771F0A942D
:100C2000E2F7AC010BA402C0440F551F0A94E2F78F
:100C3000262F242B232B2083ECA1FDA12081AC01A6
:100C40000CA402C0440F551F0A94E2F70DA402C081
:100C5000880F991F0A94E2F7842B822B808341E44A
:100C600061E0CE0162DF42E461E0CE015EDF80E060
:100C7000DF91CF910895242F042E000C330BC9016E
:100C8000860F911D8217930714F4141654F0215007
:100C90003F4F2817390714F447FD05C0842F860FEE
:100CA00008958FEF089580E00895FF920F931F93AA
:100CB000CF93DF938C01FC01948188E2C62F989F2B
:100CC000C00D11249581F62E989FF00C1124DF2D74
:100CD00041E41C1624F461E0C80127DF04C06FEF73
:100CE000C80123DFC19542E41F1424F461E0C80168
:100CF0001CDF05C06FEFC80118DFDF2DD195C436AA
:100D000034F08FEF90E09093890080938800D43680
:100D10001CF08FEF90E012C0CC0F67E36C0F40E047
:100D2000C801A9DF90E090938900809388006D2F1F
:100D3000660F695C42E1C8019EDF90E090938B00F2
:100D400080938A00DF91CF911F910F91FF900895BA
:100D500080917C00806480937C0080917C008F7700
:100D600080937C0080917C00807E80937C008091C9
:100D70007A00806880937A0080917A008064809302
:100D80007A0080917A0086FDFCCF609178007091A6
:100D9000790080E090E00E949C0F20E030E048EC79
:100DA00052E40E94B71020E03FEF4FE757E40E9463
:100DB000030F0E94700F862F08954F925F926F92DB
:100DC0007F928F929F92AF92BF92CF92DF92EF92DB
:100DD000FF92CF93DF93CDB7DEB72E970FB6F8947F
:100DE000DEBF0FBECDBF9E878D8749875A876B8731
:100DF0007C87FC0144A855A866A877A8C301B20166
:100E00000E941A1169837A838B839C83ED85FE850A
:100E100080A891A8A2A8B3A8C501B4010E941A1184
:100E20006B017C01C501B401EBD74B015C01C3012F
:100E3000B201E6D76D837E838F839887A7019601E1
:100E400069817A818B819C810E94B710A5019401F0
:100E5000DAD7ED85FE8520A131A142A153A10E94E0
:100E6000B710ED85FE85248D358D468D578DFED6C8
:100E70002B013C012D813E814F815885C701B60170
:100E80000E94B710A5019401BED7ED85FE8524A16F
:100E900035A146A157A10E94B7109B01AC01C30127
:100EA000B201E4D6905829853A854B855C850E942D
:100EB000B7102E960FB6F894DEBF0FBECDBFDF91F0
:100EC000CF91FF90EF90DF90CF90BF90AF909F9029
:100ED0008F907F906F905F904F9008958091BC00AD
:100EE00087FFFCCF089584EA8093BC00F7CF8093FE
:100EF000BB0084E88093BC00F1CF84EC8093BC00FD
:100F0000EDDF8091BB00089584E88093BC00E6DFAC
:100F10008091BB000895CF93DF9383E08093B80066
:100F20008091B9008C7F8093B9008091BC0084606F
:100F30008093BC0080910A01816080930A01D3DF15
:100F400080EDD5DF8BE6D3DF81E0D1DFC4E9C0934C
:100F5000BC00C9DF80EDCBDF85E7C9DFC4DF81EDF1
:100F6000C6DFD2DFD82FC093BC00BDDF80EDBFDF6E
:100F700089E1BDDF87E0BBDF80E0B9DF80E0B7DF7C
:100F800080E0B5DFC093BC0081E0D83609F480E092
:100F9000DF91CF9108954F925F926F927F928F92DF
:100FA0009F92AF92BF92CF92DF92EF92FF92CF9338
:100FB000DF93283579F4DF91CF91FF90EF90DF90A8
:100FC000CF90BF90AF909F908F907F906F905F90E9
:100FD0004F90F3CE293579F56A017B01EC018CA89D
:100FE0009DA8AEA8BFA8C501B4010AD72B013C013A
:100FF000C501B4010E941A114B015C0128A139A15D
:101000004AA15BA1C301B2010E94B7102B013C01B0
:101010002CA13DA14EA15FA1C501B4010E94B71052
:101020009B01AC01C301B20120D69058A7019601E3
:101030000E94B71003C060E070E0CB01DF91CF9158
:10104000FF90EF90DF90CF90BF90AF909F908F90E8
:101050007F906F905F904F9008952F923F924F92A4
:101060005F926F927F928F929F92AF92BF92CF9238
:10107000DF92EF92FF920F931F93CF93DF93CDB741
:10108000DEB76E970FB6F894DEBF0FBECDBF8C01F2
:10109000762E29DF80ED2BDF8BE329DF24DF81ED46
:1010A00026DFCE0101967C016E019EE0C90ED11CA7
:1010B00024DFD7018D937D01AC15BD05C9F724DF71
:1010C0008E8784E98093BC0069817A8176276727BF
:1010D0007627072E000C880B990B30D74B015C014B
:1010E0006B817C81762767277627072E000C880B7B
:1010F000990B24D71B012C016D817E8176276727F0
:101100007627072E000C880B990B18D76B017C01F2
:1011100069857A85762767277627072E000C880B46
:10112000990B0CD76F87788B898B9A8B6B857C8515
:10113000762767277627072E000C880B990BFED69B
:101140006B8B7C8B8D8B9E8B6D857E857627672741
:101150007627072E000C880B990BF0D66F8B788FB3
:10116000898F9A8F7720C9F16F817885F801848AF9
:10117000958AA68AB78A208E318E428E538EC48E6F
:10118000D58EE68EF78E762767277627072E000CFA
:10119000880B990BD3D6D80190966D937D938D9340
:1011A0009C9393978F859889A989BA89F80184A31C
:1011B00095A3A6A3B7A38B899C89AD89BE8980A777
:1011C00091A7A2A7B3A78F89988DA98DBA8D84A75F
:1011D00095A7A6A7B7A781E093C0A5019401C50173
:1011E000B401C5D76B8F7C8F8D8F9E8FA701960121
:1011F000C701B601BCD79B01AC016B8D7C8D8D8D79
:101200009E8D34D50E9424119B01AC01C201B10115
:10121000FAD5CAD52B013C01C501B4019058A701EC
:10122000960197D56B017C0120ED3FE049EC5FE32F
:1012300093D718164CF4A701960160ED7FE089E47E
:1012400090E413D56B017C0120ED3FE049EC5FEBAE
:10125000C701B601D1D587FF09C0A701960160ED8E
:101260007FE089E490EC01D56B017C01D8015496B4
:101270004D925D926D927C925797F801C08ED18EFF
:10128000E28EF38E20E030E043E053E46F8578890E
:1012900089899A89B8D528E939EF4EE85CE367D7A0
:1012A000D8015C966D937D938D939C935F9720E01E
:1012B00030E043E053E46B897C898D899E89A3D516
:1012C00028E939EF4EE85CE352D7F80160A371A337
:1012D00082A393A320E030E043E053E46F89788D4C
:1012E000898D9A8D90D528E939EF4EE85CE33FD798
:1012F000D80194966D937D938D939C93979780E0FE
:101300006E960FB6F894DEBF0FBECDBFDF91CF91C2
:101310001F910F91FF90EF90DF90CF90BF90AF9013
:101320009F908F907F906F905F904F903F902F9005
:101330000895CF93DF93EC01188219821A821B82E1
:10134000188619861A861B86188A198A1A8A1B8A91
:101350001CAA1DAA1EAA1FAADEDD2FEF83ED90E3B3
:10136000215080409040E1F700C0000060E0CE01D5
:1013700074DE888D998DAA8DBB8D88AB99ABAAAB95
:10138000BBAB8C899D89AE89BF898CAB9DABAEAB65
:10139000BFABDF91CF9108958F929F92AF92BF9292
:1013A000CF92DF92EF92FF92CF93DF93EC016A012D
:1013B0007B0160E052DEB701A601CE01FEDC4B01ED
:1013C0005C016C877D878E879F8729E5B701A60121
:1013D000CE01E1DD6B017C01688B798B8A8B9B8B65
:1013E000A50194016C817D818E819F813FD46C83A6
:1013F0007D838E839F83A7019601688579858A8581
:101400009B8534D4688779878A879B872CA93DA9D7
:101410004EA95FA9C501B40129D428E431EE4AE7F9
:101420005FE3A5D64B015C012AE037ED43EA5CE3BC
:101430006C897D898E899F899AD69B01AC01C501F3
:10144000B40114D46CAB7DAB8EAB9FAB28A939A98A
:101450004AA95BA9C701B60109D428E431EE4AE7DD
:101460005FE385D66B017C012AE037ED43EA5CE35C
:10147000688D798D8A8D9B8D7AD69B01AC01C701D1
:10148000B601F4D368AB79AB8AAB9BABDF91CF915C
:10149000FF90EF90DF90CF90BF90AF909F908F9094
:1014A00008952F923F924F925F926F927F928F9208
:1014B0009F92AF92BF92CF92DF92EF92FF920F93E3
:1014C0001F93CF93DF93CDB7DEB728970FB6F8946D
:1014D000DEBF0FBECDBF1C012A013B01C901B8010F
:1014E000CD82DE82EF82F886A3019201BED36983AA
:1014F0007A838B839C83F1012489358946895789B6
:10150000B5D32B013C01F101648B758B868B978BD6
:1015100020E030E0A901C501B4016ED4882369F050
:10152000A5019401505885017401C301B20125D869
:10153000F101648B758B868B978BF101C484D58404
:10154000E684F784208D318D428D538DC701B6011D
:101550000ED62B013C01F101208931894289538942
:1015600069817A818B819C8180D39B01AC01C3010D
:10157000B2017CD32B013C012D813E814F815885E6
:10158000C701B60173D39B01AC01C301B2013BD4C7
:101590006B017C01F101608F718F828F938F2489A1
:1015A0003589468957896481758186819781DFD520
:1015B0002D813E814F815885DAD52B013C01F10107
:1015C000208131814281538169817A818B819C8123
:1015D000CED59B01AC01C301B20148D32B013C0124
:1015E000F1012085318542855385C701B601BFD5FC
:1015F0009B01AC01C301B20139D329813A814B81EE
:101600005C81F101208B318B428B538B28960FB676
:10161000F894DEBF0FBECDBFDF91CF911F910F9128
:10162000FF90EF90DF90CF90BF90AF909F908F9002
:101630007F906F905F904F903F902F900895A0E91A
:10164000B0E08C918E7F8C938C9182608C93E1E9D9
:10165000F0E08081886180836B9A88EB9BE09093B7
:101660009900809398008FE39CE990939700809372
:1016700096008C9180688C938081826080838081C9
:101680008A7F8083089520E030E044EB52E4BBD3AE
:1016900020E030E04AEF54E46AD51DD46854744F1A
:1016A000709399006093980080E00895E0E2F1E083
:1016B00080818C7F8083E1E2F1E08081877F80837D
:1016C0000895E1E2F1E080818260808380818A7FF9
:1016D00080830895609124017091250180E090E05D
:1016E0002BD420E03FEF4FE757E48DD32DEB37E3CA
:1016F00046E05DE33CC51092250110922401089557
:10170000E0EAF0E080818C7F8083E1EAF0E0808194
:10171000877F808384ED90E39093AB008093AA0051
:10172000E2E7F0E08081846080830895E1EAF0E000
:1017300080818360808380818B7F808308951F9266
:101740000F920FB60F9211240BB60F922F938F9317
:101750009F93EF93FF938091C0009091C600887192
:10176000E0912F03EF5FEF7120912E03E21739F024
:10177000E0932F03F0E0EE5CFC4F908301C082E029
:1017800080932D03FF91EF919F918F912F910F9057
:101790000BBE0F900FBE0F901F9018951F920F92C7
:1017A0000FB60F9211240BB60F928F939F93EF9366
:1017B000FF939091310380913003981769F0E09185
:1017C0003003EF5FEF71E0933003F0E0EE5AFC4F2F
:1017D00080818093C60005C08091C1008F7D809379
:1017E000C100FF91EF919F918F910F900BBE0F90D1
:1017F0000FBE0F901F901895109231031092300376
:1018000010922F0310922E0397FF04C022E0209322
:10181000C0009F779093C5008093C40088E98093AF
:10182000C1008091C2008F738093C2008091C2007A
:101830008F7C8093C2008091C200877F8093C2001A
:101840008091C20086608093C2008091C1008B7F2E
:101850008093C1000895909131039F5F9F71209103
:1018600030039217E1F3E92FF0E0EE5AFC4F80834A
:10187000909331038091C10080628093C1000895EC
:10188000CF93DF93EC018991882311F0E4DFFBCF44
:10189000DF91CF910895CF93DF93CDB7DEB72C972B
:1018A0000FB6F894DEBF0FBECDBF4AE0BE016F5F3A
:1018B0007F4F50D5CE010196E3DF2C960FB6F894FA
:1018C000DEBF0FBECDBFDF91CF9108950F931F9361
:1018D000CF93DF93CDB7DEB764970FB6F894DEBF32
:1018E0000FBECDBF8E010F5F1F4F22E044E013D526
:1018F000C801C6DF64960FB6F894DEBF0FBECDBF39
:10190000DF91CF911F910F9108951F920F920FB603
:101910000F9211240BB60F922F938F939F93EF93F7
:10192000FF938091C8009091CE008871E091EA0207
:10193000EF5FEF712091E902E21739F0E093EA02DC
:10194000F0E0E351FD4F908301C082E08093E80214
:10195000FF91EF919F918F912F910F900BBE0F9060
:101960000FBE0F901F9018951F920F920FB60F92F7
:1019700011240BB60F928F939F93EF93FF93909147
:10198000EC028091EB02981769F0E091EB02EF5FB7
:10199000EF71E093EB02F0E0E35FFC4F8081809316
:1019A000CE0005C08091C9008F7D8093C900FF9152
:1019B000EF919F918F910F900BBE0F900FBE0F90E4
:1019C0001F9018951F920F920FB60F9211240BB60D
:1019D0000F922F938F939F93EF93FF938091D0005B
:1019E0009091D6008871E091A502EF5FEF71209190
:1019F000A402E21739F0E093A502F0E0E855FD4FAC
:101A0000908301C082E08093A302FF91EF919F91A8
:101A10008F912F910F900BBE0F900FBE0F901F90C4
:101A200018951F920F920FB60F9211240BB60F92BA
:101A30008F939F93EF93FF939091A7028091A602BB
:101A4000981769F0E091A602EF5FEF71E093A602AC
:101A5000F0E0E853FD4F80818093D60005C080916F
:101A6000D1008F7D8093D100FF91EF919F918F9155
:101A70000F900BBE0F900FBE0F901F9018951F92E6
:101A80000F920FB60F9211240BB60F922F938F93D4
:101A90009F93EF93FF93809130019091360188716D
:101AA000E0916002EF5FEF7120915F02E21739F081
:101AB000E0936002F0E0ED59FD4F908301C082E0B9
:101AC00080935E02FF91EF919F918F912F910F90E4
:101AD0000BBE0F900FBE0F901F9018951F920F9284
:101AE0000FB60F9211240BB60F928F939F93EF9323
:101AF000FF939091620280916102981769F0E091E2
:101B00006102EF5FEF71E0936102F0E0ED57FD4F8E
:101B100080818093360105C0809131018F7D809353
:101B20003101FF91EF919F918F910F900BBE0F901C
:101B30000FBE0F901F9018951092620210926102D2
:101B40001092600210925F0297FF04C022E020937F
:101B500030019F77909335018093340188E9809319
:101B60003101809132018F73809332018091320173
:101B70008F7C8093320180913201877F8093320184
:101B800080913201866080933201809131018B7F98
:101B90008093310108959091600280915F029817BF
:101BA00091F0E0915F02EF5FEF71E0935F02F0E090
:101BB000ED59FD4F208180915E0290E0982F88279B
:101BC000820F911D089580E091E008959091620246
:101BD0009F5F9F71209161029217E1F3E92FF0E07E
:101BE000ED57FD4F808390936202809131018062B6
:101BF0008093310108958091600220915F0290E00E
:101C00004F96821B91096FE170E014C0AA1BBB1BA9
:101C100051E107C0AA1FBB1FA617B70710F0A61BEC
:101C2000B70B881F991F5A95A9F780959095BC010D
:101C3000CD01089597FB072E16F4009406D077FD8A
:101C400008D0E4DF07FC05D03EF4909581959F4FC6
:101C50000895709561957F4F0895EE0FFF1F881FBF
:101C60008BBF0790F691E02D19945058BB27AA27F7
:101C70000ED027C2F0D130F0F5D120F031F49F3FE3
:101C800011F41EF4C0C10EF4E095E7FBB6C1E92FD4
:101C90003AD280F3BA17620773078407950718F0E2
:101CA00071F49EF552C20EF4E0950B2EBA2FA02DC2
:101CB0000B01B90190010C01CA01A0011124FF27F9
:101CC000591B99F0593F50F4503E68F11A16F040F4
:101CD000A22F232F342F4427585FF3CF46953795F3
:101CE0002795A795F0405395C9F77EF41F16BA0BB8
:101CF000620B730B840BBAF09150A1F0FF0FBB1F66
:101D0000661F771F881FC2F70EC0BA0F621F731FAE
:101D1000841F48F4879577956795B795F7959E3F0B
:101D200008F0B3CF9395880F08F09927EE0F979599
:101D30008795089590D158F080E891E009F49EEFDE
:101D400091D128F040E851E059F45EEF09C05BC141
:101D5000FCC1E92FE078D7D168F3092E052AC1F339
:101D6000261737074807590738F00E2E07F8E025E1
:101D700069F0E025E0640AC0EF6307F8009407FA11
:101D8000DB01B9019D01DC01CA01AD01EF934AD02D
:101D900098D10AD05F91552331F02BED3FE049E413
:101DA00050FD49EC63CF0895DF93DD27B92FBF774E
:101DB00040E85FE31616170648075B0710F4D92FB3
:101DC000CFD19F938F937F936F937CD2E4EEF0E01B
:101DD0001DD177D12F913F914F915F91D4D1DD23C8
:101DE00049F09058A2EA2AED3FE049EC5FE3D07851
:101DF0005D274DDFDF9165C1DCD008F481E00895F7
:101E000039D1E3956FC10CD05CC12CD140F023D106
:101E100030F021F45F3F19F0F0C0511197C1F3C0C9
:101E200072D198F39923C9F35523B1F3951B550B40
:101E3000BB27AA2762177307840738F09F5F5F4F9D
:101E4000220F331F441FAA1FA9F333D00E2E3AF0DE
:101E5000E0E830D091505040E695001CCAF729D0F8
:101E6000FE2F27D0660F771F881FBB1F2617370747
:101E70004807AB07B0E809F0BB0B802DBF01FF2777
:101E800093585F4F2AF09E3F510568F0B6C05EC17F
:101E90005F3FECF3983EDCF3869577956795B795B1
:101EA000F7959F5FC9F7880F911D9695879597F9CC
:101EB0000895E1E0660F771F881FBB1F6217730745
:101EC0008407BA0720F0621B730B840BBA0BEE1F5A
:101ED00088F7E095089504D06894B11137C108954A
:101EE0001AD188F09F5790F0B92F9927B751A0F0D9
:101EF000D1F0660F771F881F991F1AF0BA95C9F79E
:101F000012C0B13081F021D1B1E008951EC1672F18
:101F1000782F8827B85F39F0B93FCCF3869577954D
:101F20006795B395D9F73EF4909580957095619536
:101F30007F4F8F4F9F4F0895E89409C097FB3EF461
:101F400090958095709561957F4F8F4F9F4F992306
:101F5000A9F0F92F96E9BB279395F6958795779584
:101F60006795B795F111F8CFFAF4BB0F11F460FF44
:101F70001BC06F5F7F4F8F4F9F4F16C0882311F09C
:101F800096E911C0772321F09EE8872F762F05C0B0
:101F9000662371F096E8862F70E060E02AF09A954B
:101FA000660F771F881FDAF7880F9695879597F940
:101FB0000895990F0008550FAA0BE0E8FEEF1616DA
:101FC0001706E807F907C0F012161306E407F5072D
:101FD00098F0621B730B840B950B39F40A2661F0A1
:101FE000232B242B252B21F408950A2609F4A14044
:101FF000A6958FEF811D811D089597F99F6780E851
:1020000070E060E008959FEF80EC0895DF93CF9338
:102010001F930F93FF92EF92DF927B018C016894E4
:1020200005C0DA2EEF01AFD0FE01E894A59125910D
:10203000359145915591AEF3EF0129DEFE019701EF
:10204000A801DA9479F7DF90EF90FF900F911F913C
:10205000CF91DF91089500240A94161617061806EA
:102060000906089500240A9412161306140605069C
:102070000895C9CF50D0E8F3E894E0E0BB279F571C
:10208000F0F02AED3FE049EC06C0EE0FBB0F661FF3
:10209000771F881F28F0B23A62077307840728F079
:1020A000B25A620B730B840BE3959A9572F78038E2
:1020B00030F49A95BB0F661F771F881FD2F79048A0
:1020C00006C1092E0394000C11F4882352F0BB0FB3
:1020D00040F4BF2B11F460FF04C06F5F7F4F8F4F40
:1020E0009F4F0895EF93E0FF06C0A2EA2AED3FE07C
:1020F00049EC5FEBCCDDE5DF0F90039401FC9058D9
:10210000E1E1F1E0F7C057FD9058440F551F59F039
:102110005F3F71F04795880F97FB991F61F09F3FD4
:1021200079F087950895121613061406551FF2CFFD
:102130004695F1DF08C0161617061806991FF1CF4D
:1021400086957105610508940895E894BB27662774
:102150007727CB0197F908952CDF08F48FEF0895C6
:102160009B01AC0160E070E080E89FE34CCE0BD0B7
:10217000A8CF71DF28F076DF18F0952309F03DCF66
:1021800042CF1124E3CFBFDFA0F3959FD1F3950F8A
:1021900050E0551F629FF001729FBB27F00DB11DEB
:1021A000639FAA27F00DB11DAA1F649F6627B00D7B
:1021B000A11D661F829F2227B00DA11D621F739F64
:1021C000B00DA11D621F839FA00D611D221F749F72
:1021D0003327A00D611D231F849F600D211D822FB9
:1021E000762F6A2F11249F5750408AF0E1F0882300
:1021F0004AF0EE0FFF1FBB1F661F771F881F91500D
:102200005040A9F79E3F510570F0F7CE9FCF5F3F3A
:10221000ECF3983EDCF3869577956795B795F7953F
:10222000E7959F5FC1F7FE2B880F911D96958795C7
:1022300097F908959F931EDF0F9007FCEE5F52CF32
:1022400011F40EF4E0CE41C066DFD0F39923D9F348
:10225000CEF39F57550B87FF46D00024A0E640EAF7
:10226000900180585695979528F4805C660F771FEB
:10227000881F20F026173707480730F4621B730BBE
:10228000840B202931294A2BA695179407942025E1
:1022900031254A2758F7660F771F881F20F0261729
:1022A0003707480730F4620B730B840B200D311D88
:1022B000411DA09581F7B901842F9158880F9695FB
:1022C000879508959B01AC0152CF9F3F31F091500B
:1022D00020F4879577956795B795880F911D96950A
:1022E000879597F9089591505040660F771F881F82
:1022F000D2F708959F938F937F936F93FF93EF93FC
:102300009B01AC0134DFEF91FF9180DE2F913F9173
:102310004F915F912CCFEF920F931F93CF93DF9349
:10232000E80147FD02C034E001C034E1042E000C96
:10233000550B57FF03C0519541955109E32E022FCC
:10234000242FAE012AD0CE01DF91CF911F910F91A2
:10235000EF900895BB274A3031F4992322F4BDE26F
:10236000909581959F4F01C0BB27FB015527AA2758
:10237000880F991FAA1FA41710F0A41B8395505112
:10238000B9F7A05DAA3308F0A95DA193009779F78A
:10239000B111B1931192CB014EC28F929F92AF9225
:1023A000BF92CF92DF92EF92FF920F931F93CF9342
:1023B000DF93CDB7DEB729970FB6F894DEBF0FBE17
:1023C000CDBF6A01122FB02E2BE3201720F0FF247F
:1023D000F394F00E02C02CE3F22E0F2D27E0AE0195
:1023E0004F5F5F4F50D1BC014981842F897081308C
:1023F00031F0E1FC06C0E0FE06C090E205C09DE2BF
:1024000003C09BE201C090E05E2D507143FF3CC0D1
:10241000911102C083E001C084E0811718F4212FDC
:10242000281B01C020E051110BC0F601822F30E2C1
:10243000882319F031938150FBCFC20ED11C20E0CC
:10244000992329F0D6019C93F60131966F01C601BC
:102450000396E2FE0AC03EE4D6013C9341E41196A5
:102460004C93119712963C9306C03EE6F6013083DA
:1024700041E641833283FC01322F40E2332309F4E9
:1024800042C041933150FACF42FF44C0911102C083
:1024900083E001C084E0811718F4212F281B01C0BC
:1024A00020E051110BC0F601822F30E2882319F091
:1024B00031938150FBCFC20ED11C20E0992329F02B
:1024C000D6019C93F60131966F01C6010396E2FE98
:1024D0000BC039E4D6013C933EE411963C9311972E
:1024E00036E412963C9307C039E6F60130833EE6A7
:1024F000318336E63283FC01322F40E2332319F078
:1025000041933150FBCFFC01E20FF11D10828EEFA1
:102510009FEFA6C021E030E0911102C020E030E042
:10252000161617061CF4FB01319602C0E1E0F0E03C
:102530002E0F3F1FBB2021F0EB2DF0E0319602C0A3
:10254000E0E0F0E02E0F3F1FE12FF0E02E173F07F5
:102550001CF4121B212F01C020E08E2D887159F42C
:10256000F601822F30E2882319F031938150FBCF9E
:10257000C20ED11C20E0992329F0D6019C93F601CC
:1025800031966F0151110BC0F601822F90E3882321
:1025900019F091938150FBCFC20ED11C20E00F2D7A
:1025A000060F9A81342F307144FF03C0913309F430
:1025B0000150101624F4093018F008E001C001E0C1
:1025C000AB0177FF02C040E050E0FB01E41BF50BDC
:1025D000A1E0B0E0AC0FBD1FEA0FFB1F8EE2A82EFA
:1025E0004B01801A91080B2D10E0119501951109EE
:1025F0004F3FBFEF5B0721F4D601AC9211966D01FE
:10260000641775072CF08416950614F4818101C0B7
:1026100080E3415051093196D60111967D01401752
:10262000510724F0D6018C936701E2CF6417750738
:1026300039F4963320F4953319F4311101C081E354
:10264000F6018083F701822F90E2882319F091939D
:102650008150FBCFF701E20FF11D108280E090E086
:1026600029960FB6F894DEBF0FBECDBFDF91CF9194
:102670001F910F91FF90EF90DF90CF90BF90AF90A0
:102680009F908F900895283008F027E03327DA01D3
:10269000990F311D87FD916000966105710539F430
:1026A00032602E5F3D9330E32A95E1F708959F3F16
:1026B00030F080387105610509F03C5F3C5F3D9367
:1026C000913008F08068911DDF93CF931F930F9393
:1026D000FF92EF92192F987F9695E92F96959695F0
:1026E000E90FFF27E657FE4F99273327EE24FF24F3
:1026F000A701E70105900894079428F4360FE71E18
:10270000F81E491F511D660F771F881F991F0694D9
:10271000A1F70590079428F4E70EF81E491F561FED
:10272000C11D770F881F991F661F0694A1F705909A
:10273000079428F4F80E491F561FC71FD11D880F94
:10274000991F661F771F0694A1F70590079420F440
:10275000490F561FC71FD81F990F661F771F881F65
:102760000694A9F784911095177041F0D695C795F6
:1027700057954795F794E7941A95C1F7E0E3F1E090
:1027800068941590159135916591959105907FE22A
:102790007395E118F10A430B560BC90BD009C0F72A
:1027A000E10CF11E431F561FC91FD01D7EF470336C
:1027B00011F48A95E6CFE894015030F0080F0AF43E
:1027C0000027021708F4202F2395022F7A3328F0D0
:1027D00079E37D932A95E9F710C07D932A9589F6D0
:1027E000069497956795379517951794E118F10A10
:1027F000430B560BC90BD00998F023957E91739526
:102800007A3308F070E37C932013B8F77E917061FF
:102810007D9330F0839571E37D9370E32A95E1F722
:102820001124EF90FF900F911F91CF91DF91992785
:1028300087FD90950895DC01FC01672F7191772346
:10284000E1F7329704C07C916D9370836291AE176B
:0A285000BF07C8F30895F894FFCF06
:10285A00436F6E7374616E742069733A2000546911
:10286A006D652064656C74612069733A20004D6F50
:10287A00746F722073706565642069733A20000072
:00000001FF
