:1000000015C1000043C1000041C100003FC1000014
:100010003DC1000051C100009CC1000037C100007B
:1000200035C1000033C1000031C100002FC1000004
:100030002DC100002BC1000029C1000027C1000014
:1000400025C1000023C1000021C100001FC1000024
:100050001DC100001BC1000019C1000017C1000034
:1000600015C100000C94FB0F0C942A100FC1000066
:100070000DC100000BC1000009C1000007C1000054
:1000800005C1000003C1000001C10000FFC0000065
:100090000C94EC100C941B11F9C00000F7C0000088
:1000A000F5C00000F3C00000F1C000009FC10000D7
:1000B000EDC00000EBC00000E9C00000E7C0000098
:1000C000E5C00000E3C00000E1C000000C9449114D
:1000D0000C947811DBC000000C94A6110C94D5117F
:1000E000D5C00000084AD73B3BCE016E84BCBFFDA3
:1000F000C12F3D6C74319ABD56833DDA3D00C77FF8
:1001000011BED9E4BB4C3E916BAAAABE0000008090
:100110003F05A84CCDB2D44EB93836A9020C50B91F
:10012000918688083CA6AAAA2ABE000000803F004B
:1001300000407A10F35A00A0724E18090010A5D49E
:10014000E80000E87648170000E40B54020000CAFB
:100150009A3B000000E1F505000080969800000041
:1001600040420F000000A0860100000010270000A0
:100170000000E803000000006400000000000A0026
:10018000000000000100000000002C76D888DC6729
:100190004F0823DFC1DFAE59E1B1B796E5E3E45381
:1001A000C63AE651997696E8E6C28426EB898C9B9E
:1001B00062ED407C6FFCEFBC9C9F40F2BAA56FA53E
:1001C000F490055A2AF75C936B6CF9676DC11BFCC0
:1001D000E0E40D47FEF520E6B500D0ED902E0300DB
:1001E000943577050080841E080000204E0A000028
:1001F00000C80C333333330F986E12831141EF8DE7
:100200002114893BE65516CFFEE6DB18D1844B3826
:100210001BF77C1D901DA4BBE424203284725E2257
:100220008100C9F124ECA1E53D278D0711241FBEF3
:10023000CFEFD1E2DEBFCDBF00E00CBF12E0A0E007
:10024000B2E0E8E2F2E300E00BBF02C007900D92DB
:10025000A031B107D9F723E0A0E1B2E001C01D92BF
:10026000AA35B207E1F711E0C6E1D1E000E006C02F
:1002700021970109802FFE010E941813C531D10773
:1002800080E00807A9F73ED30C941219B9CE81B1CA
:100290008E7D81B98DB18B7E8DB9EAE6F0E08081EB
:1002A0008360808380818C6080838DB380638DBB0D
:1002B0000E94DC0F0C94F20F1F920F920FB60F9258
:1002C00011240BB60F922F933F934F935F936F932D
:1002D0007F938F939F93AF93BF93EF93FF93029B73
:1002E0000FC06091240270912502809126029091A6
:1002F000270220E030E040E85FE30E9420130EC0B8
:10030000609124027091250280912602909127022B
:1003100020E030E040E85FE30E9421136093240274
:10032000709325028093260290932702FF91EF910C
:10033000BF91AF919F918F917F916F915F914F91FD
:100340003F912F910F900BBE0F900FBE0F901F90FB
:1003500018951F920F920FB60F9211240BB60F92A1
:100360002F933F934F935F936F937F938F939F93BD
:10037000AF93BF93EF93FF93009B0FC06091280250
:100380007091290280912A0290912B0220E030E0A6
:1003900040E85FE30E9421130EC060912802709133
:1003A000290280912A0290912B0220E030E040E85F
:1003B0005FE30E94201360932802709329028093C8
:1003C0002A0290932B02FF91EF91BF91AF919F91E1
:1003D0008F917F916F915F914F913F912F910F90EE
:1003E0000BBE0F900FBE0F901F9018951F920F928B
:1003F0000FB60F9211240BB60F928F929F92AF926D
:10040000BF92CF92DF92EF92FF922F933F934F9341
:100410005F936F937F938F939F93AF93BF93CF938C
:10042000DF93EF93FF93C0E1D2E08C899D89AE8981
:10043000BF89BC01CD01905827E230EA49E85CE36E
:100440000E94A2152DEC3CEC4CE45DE30E94EE13FF
:100450006C877D878E879F87688D798D8A8D9B8D30
:1004600027E230EA49E85CE30E94A2152DEC3CEC5F
:100470004CE45DE30E94EE13688B798B8A8B9B8B37
:100480006C857D858E859F85288939894A895B8918
:100490000E94211320E030E040E05FE30E94A215BB
:1004A00068A379A38AA39BA36C8D7D8D8E8D9F8D70
:1004B00088A099A0AAA0BBA02AE939E949E55FE391
:1004C0000E94A2156B017C0128E939E949E15EE34C
:1004D000C501B4010E94A2159B01AC01C701B60180
:1004E0000E94211368A379A38AA39BA388A199A141
:1004F000AAA1BBA18C8F9D8FAE8FBF8F68A179A160
:100500008AA19BA1C884D984EA84FB8422E03BE2CF
:1005100047E05DE30E94A2152DEC3CEC4CE45DE36A
:100520000E94A215A70196010E942113688779876E
:100530008A879B871C8A1D8A1E8A1F8A188E198E9D
:100540001A8E1B8E1092A5001092A400FF91EF91BD
:10055000DF91CF91BF91AF919F918F917F916F91DB
:100560005F914F913F912F91FF90EF90DF90CF904F
:10057000BF90AF909F908F900F900BBE0F900FBECB
:100580000F901F9018952F923F924F925F926F920B
:100590007F928F929F92AF92BF92CF92DF92EF9213
:1005A000FF920F931F93CF93DF9300D01F92CDB78D
:1005B000DEB79A8389831B013C832B83FC018081F6
:1005C000843009F437C160F4823009F41FC18330EC
:1005D00009F07DC1F80164A975A986A997A91AC176
:1005E000873009F458C18F3F51F0863009F06FC150
:1005F000EB81FC8160A171A182A193A10BC10E943A
:100600006212892BE1F30E943212682F70E080E0C1
:1006100090E00E94871421E42F931F921F921F9253
:10062000A12CB12CC12C41ECD42EE12CF12C08ECE6
:1006300012E420E030E040E85FE30E949E1229E2ED
:100640003CE54FE85EE30E942013E12CF12C00EA28
:1006500010E420E030E040EA50EC0E946D122B01E3
:100660003C010F900F900F900F900E946212892B07
:10067000E1F30E943212682F70E080E090E00E9467
:10068000871421E42F9320E72F931F921F92A12C10
:10069000B12C20E7C22E21ECD22EE12CF12C08EC5B
:1006A00012E420E030E040E85FE30E949E122AE07E
:1006B00037ED43E25EE30E9420136B017C01EB8186
:1006C000FC81608171818281938120E030E040E093
:1006D0005FE30E94A2154B015C0120E030E040E0A6
:1006E0005FE3C301B2010E94A2159B01AC01C501E9
:1006F000B4010E942113EB81FC81608371838283AA
:100700009383648175818681978123E333E343E397
:100710005FE30E94A2154B015C012AE939E949E92E
:100720005EE3C701B6010E94A2159B01AC01C501A1
:10073000B4010E942113EB81FC816483758386835D
:10074000978360817181828193810F900F900F90C8
:100750000F9020E030E040E050E40E94E71387FF74
:100760004CC0EB81FC81608171818281938120E0AA
:1007700030E040E050EC0E94971518160CF03DC098
:10078000EB81FC8160A171A182A193A120E030E006
:1007900040E050E40E94E71387FF2FC0EB81FC810B
:1007A00060A171A182A193A120E030E040E050EC73
:1007B0000E94971518160CF520E030E040E050E458
:1007C000C701B6010E94971518160CF06EC041E4DF
:1007D00061E08B819C8108D442E46FEF8B819C8126
:1007E00003D484E790E090938900809388008EE69C
:1007F00090E090938B0080938A00F1011082EB814E
:10080000FC81108611861286138661C08B819C81C3
:100810005ED50DC020E030E048EC52E40E94A21505
:100820000E9456146B83872F0E944D128B810E9469
:100830004D124DC068EE73E0C8010E94180E8AE0A8
:100840000E944D12FFEF29E688E1F15020408040E0
:10085000E1F700C0000080910B01816080930B01E3
:100860009FEFE9E6F8E19150E040F040E1F700C089
:10087000000080910B018E7F80930B012FEF8BE79F
:1008800092E9215080409040E1F700C00000C8018B
:100890000E942E0D1CC0FB018081882311F0108264
:1008A00016C081E0FB01808312C020E030E040E010
:1008B00050ECC701B6010E94E71387FF9ECF41E4C9
:1008C0006FEF8B819C8190D342E461E087CFE98117
:1008D000FA81108280E00F900F900F900F90DF91BF
:1008E000CF911F910F91FF90EF90DF90CF90BF902D
:1008F000AF909F908F907F906F905F904F903F90C0
:100900002F900895CF93DF93CDB7DEB7C25BD109A7
:100910000FB6F894DEBF0FBECDBF0F9A179AC2561E
:10092000DF4F1882CE59D04081E0C356DF4F888315
:10093000CD59D04080E192E09AD380E190E00E94CE
:10094000581080E190E00E9403127894A0DC80911E
:100950000A01816080930A01C1D5813029F4809118
:100960000B01816080930B010E94790F0E94B20FEE
:100970000E94BD0F8E010F5F1F4FC8010E94BF0C68
:100980000E94C60F69A97AA98BA99CA92CEC3EE20A
:1009900045E652E40E94A21520E030E040E051E438
:1009A0000E9420130E94970F0E94D70F8FE39CE9AB
:1009B0000197F1F700C00000CE018F579F4F4DEC1B
:1009C0005CEC6CE07FE3DC014D935D936D937C9375
:1009D0001397FC0114821582168217824DEC5CEC91
:1009E0006CEC7DE318964D935D936D937C931B9710
:1009F0004AE959E969E17FE3448755876687778744
:100A000050961D921D921D921C925397148A158A1E
:100A1000168A178A58961D921D921D921C925B97FA
:100A20007C9726EFC22E28E2D22E22E8E22E21E485
:100A3000F22EC082D182E282F38214821582168263
:100A400017823EEAC32E37E4D32E31E6E32E3EE38F
:100A5000F32EC086D186E286F38644875587668763
:100A60007787108A118A128A138A148A158A168A3D
:100A7000178A108E118E128E138ED897C12CD12CFE
:100A800020E7E22E21E4F22ECD92DD92ED92FC924F
:100A9000139714961D921D921D921C9217971896EB
:100AA0001D921D921D921C921B971C964D935D9357
:100AB0006D937C931F9750961D921D921D921C92D0
:100AC000539754961D921D921D921C9257975896BB
:100AD0001D921D921D921C925B97412C512C32014C
:100AE000212C312CC156DF4F488259826A827B8289
:100AF000CF59D040C955DF4F0883C75AD040C85599
:100B0000DF4F1883C85AD040C755DF4F8883C95A72
:100B1000D040C655DF4F9883CA5AD040C155DF4FE9
:100B2000A883CF5AD040C055DF4FB883C05BD040B8
:100B3000CF54DF4FE883C15BD040CE54DF4FF88302
:100B4000C25BD0400E94C60FCD55DF4F68837983CA
:100B50008A839B83C35AD0400E94D70FCD55DF4F65
:100B6000488159816A817B81C35AD040C955DF4F82
:100B70008881C75AD040C855DF4F9881C85AD040A5
:100B800095D7C10166E070E00E94F112892B09F04F
:100B900081C08091300290913102A0913202B091D7
:100BA0003302C555DF4F88839983AA83BB83CB5A11
:100BB000D04040901002509011026090120270904C
:100BC00013026091100270911102809112029091B3
:100BD000130220E030E040E05FE30E94E71387FF6C
:100BE00017C06091100270911102809112029091D1
:100BF000130220E030E040E05FEB0E9497151816EA
:100C00003CF4C356DF4F8881CD59D040811199C043
:100C1000812C912C40E2A42E41E4B42EC156DF4F2A
:100C2000C880D980EA80FB80CF59D04093018201EF
:100C3000C555DF4F488159816A817B81CB5AD040AD
:100C4000C755DF4F8881C95AD040C655DF4F9881BC
:100C5000CA5AD0400E94AB0E20E030E0A9010E94A9
:100C60002113E12CF12C00EA10E420E030E040EA0E
:100C700050EC0E946D1220E030E0A9010E94211387
:100C80002B013C01C156DF4F188219821A821B8248
:100C9000CF59D0406DA97EA98FA998AD2CEC3EE22A
:100CA00045E652E40E94A215AB01BC01812C912CB7
:100CB0005401CD55DF4FC880D980EA80FB80C35AEC
:100CC000D04093018201CF54DF4F8881C15BD04077
:100CD000CE54DF4F9881C25BD0400E94AB0EE12C16
:100CE000F12C04EB12E420E030E044EB52EC0E94E3
:100CF0006D126B017C016DA97EA98FA998AD2CECBA
:100D00003EE245E652E40E94A21520E030E040EACF
:100D100051E40E94971518160CF440C06DA97EA9E5
:100D20008FA998AD2CEC3EE245E652E40E94A21554
:100D300020E030E040EA51EC0E94E71387FD2EC02E
:100D40002FC0409118025091190260911A027091BF
:100D50001B02812C912C5401C156DF4FC880D980D1
:100D6000EA80FB80CF59D04095018401C155DF4F07
:100D70008881CF5AD040C055DF4F9881C05BD040AA
:100D8000EAD7E12CF12C00EA10E420E030E040EA60
:100D900050EC0E946D122B013C013ACF60E004C080
:100DA000C701B6010E94561480E192E0C3D1609160
:100DB000140270911502809116029091170228E595
:100DC0003FEF4FE75FE30E94A21520E030E0A9016A
:100DD0000E942113609314027093150280931602EF
:100DE000909317026091100270911102809112028B
:100DF000909113022FEE3FEF4FE75FE30E94A215A1
:100E000020E030E0A9010E9421136093100270934A
:100E10001102809312029093130280E192E0DDD1DF
:100E20000E94C60F2AE037ED43E25CE30E94E7131D
:100E300087FF2FC00E94E110892B11F00E948710BC
:100E40000E946212892B61F30E943212C256DF4F58
:100E50008883CE59D040C955DF4F0881C75AD0404A
:100E6000C855DF4F1881C85AD04020E132E0C7553D
:100E7000DF4F4881C95AD040C655DF4F5881CA5A02
:100E8000D040BE0163567F4FCE0182569F4F7BDB21
:100E9000C7CF0E94C60F2AE037ED43E25CE30E9411
:100EA000E71387FDF6CF0E94C60F26EA3BE944E42C
:100EB0005CE30E94971518165CF480E092E00E94B3
:100EC000B7100E94C60F0E94C2108AE00E94A210B2
:100ED0009FEF291A390AA9EE2A16A3E03A0610F064
:100EE000212C312CCD55DF4F288139814A815B81FE
:100EF000C35AD040C156DF4F688179818A819B8176
:100F0000CF59D0400E942113C156DF4F68837983A7
:100F10008A839B83CF59D04015CE8F92AF92CF92C8
:100F2000EF920F931F9386E0882E94E0A92E22E083
:100F3000C22EE12C08E210E028E230E047E250E067
:100F400067E270E080E192E007D01F910F91EF908F
:100F5000CF90AF908F9008958F92AF92CF92EF92F3
:100F60000F931F93CF93DF93CDB7DEB7FC011082B1
:100F700011821282138214821582168217821086C1
:100F8000118612861386108A118A128A138A108E8D
:100F9000118E128E138E148E158E168E178E10A231
:100FA00011A212A213A282E384A381E085A377A3F6
:100FB00066A351A740A733A722A715A704A7E6A6B3
:100FC000C7A6A0AA81AA80E090E0A0E0BFE382AB20
:100FD00093ABA4ABB5ABDF91CF911F910F91EF9085
:100FE000CF90AF908F900895DC01413461F042348E
:100FF000E1F59C96ED91FC919D97D0962C91D09720
:10100000D1963C9109C09A96ED91FC919B979E9642
:101010002C919E979F963C9116169CF4408181E0FE
:1010200090E0BC0101C0660F2A95EAF7262F2095B3
:1010300024232083208101C0880F3A95EAF7822B70
:1010400011C0608181E090E0AC0101C0440F2A959D
:10105000EAF7462B4083208101C0880F3A95EAF7D2
:1010600080958223808380E0089581E00895CF9366
:10107000DF93EC0184B1806684B9109289001092EC
:10108000880010928B0010928A00E0E8F0E08081E6
:101090008068808380818F7B808380818062808371
:1010A00080818F7E8083808181608083A1E8B0E031
:1010B0008C9188608C9380818D7F80838C918260FD
:1010C0008C938C918A7F8C93EEA1FFA1308181E07B
:1010D00090E0BC010EA402C0660F771F0A94E2F7ED
:1010E000AC010FA402C0440F551F0A94E2F7262F4B
:1010F000242B232B2083E8A5F9A52081AC0108A887
:1011000002C0440F551F0A94E2F709A802C0880FD5
:10111000991F0A94E2F7842B822B808341E461E0DB
:10112000CE0162DF42E461E0CE015EDF80E0DF916C
:10113000CF910895EF92FF921F93CF93DF937C019D
:10114000162FFC0164817581868197810E94561457
:10115000C62FC10FF70164817581868197810E9436
:101160005614161BD12F41E41C162CF461E0C70164
:101170003BDFCD5F06C06FEFC70136DF83E08C1B1E
:10118000C82F42E4111624F461E0C7012DDF05C029
:101190006FEFC70129DFD12FD195C4361CF08FEF37
:1011A00090E004C0CC0FCE5C8C2F90E0909389002F
:1011B00080938800D4361CF08FEF90E004C0DD0FE0
:1011C000DE5C8D2F90E090938B0080938A00DF91FE
:1011D000CF911F91FF90EF9008958F929F92AF92C1
:1011E000BF92CF92DF92EF92FF920F931F93CF9314
:1011F000DF931F921F92CDB7DEB74C0180917C0028
:10120000806480937C0080917C008F7780937C0049
:1012100080917C00807E80937C0080917A00806841
:1012200080937A0080917A00806480937A00809124
:101230007A0086FDFCCF80917800909179009A83A6
:10124000898369817A8180E090E00E9487142BE78E
:1012500034E14EE950E40E94A21520E030E040E87D
:101260005AE30E94A21522E42F9328EC2F931F9299
:101270001F92A12CB12C65011BE7E12E14E1F12E88
:101280000EE910E420E030E048E950E40E949E12AC
:101290000E945B14F40164A30F900F900F900F90C5
:1012A0000D9A6E3110F4159A01C01598F40184A1BD
:1012B0000F900F90DF91CF911F910F91FF90EF90C2
:1012C000DF90CF90BF90AF909F908F900895FC01DA
:1012D00084A108954F925F926F927F928F929F9216
:1012E000AF92BF92CF92DF92EF92FF92CF93DF93B4
:1012F000CDB7DEB76E970FB6F894DEBF0FBECDBF89
:101300009E8F8D8F498F5A8F6B8F7C8FDC015C96FF
:101310008D919D910D90BC91A02D89839A83AB8373
:10132000BC83AD8DBE8D90968D919D910D90BC919D
:10133000A02D8D839E83AF83B887ED8DFE8D64A92C
:1013400075A986A997A90E9405162B013C01AD8DB0
:10135000BE8DD0966D917D918D919C91D3970E9479
:10136000051669877A878B879C87ED8DFE8D60A92E
:1013700071A982A993A90E94EB136D877E878F873D
:10138000988BAD8DBE8D94968D919D910D90BC9155
:10139000A02D898B9A8BAB8BBC8BED8DFE8D64A9B8
:1013A00075A986A997A90E94EB134B015C01AD8D2D
:1013B000BE8DD0966D917D918D919C91D3970E9419
:1013C00005166D8B7E8B8F8B988FED8DFE8D60A9B2
:1013D00071A982A993A90E94EB136B017C01298555
:1013E0003A854B855C85C301B2010E94A2152D850B
:1013F0003E854F8558890E94EE132D813E814F8195
:1014000058850E94A21529813A814B815C810E94F6
:1014100021132B013C012D893E894F89588DC5012F
:10142000B4010E94A215A70196010E94EE1329891A
:101430003A894B895C890E94A2159B01AC01C301CA
:10144000B2010E9421139058298D3A8D4B8D5C8DED
:101450000E94A2156E960FB6F894DEBF0FBECDBFE8
:10146000DF91CF91FF90EF90DF90CF90BF90AF9042
:101470009F908F907F906F905F904F900895809194
:10148000BC0087FFFCCF089584EA8093BC00F7CFAF
:101490008093BB0084E88093BC00F1CF84EC809300
:1014A000BC00EDDF8091BB00089584E88093BC0010
:1014B000E6DF8091BB000895E7DF80EDE9DF85E797
:1014C000E7DFE2DF81EDE4DFF0DF94E99093BC0039
:1014D00091E0883609F090E0892F0895CF9383E05A
:1014E0008093B8008091B9008C7F8093B90080917F
:1014F000BC0084608093BC00C7DF80EDC9DF8BE651
:10150000C7DF81E0C5DFC4E9C093BC00BDDF80ED6B
:10151000BFDF89E1BDDF87E0BBDF80E0B9DF80E0CE
:10152000B7DF80E0B5DFC093BC00C6DF91E081117A
:1015300090E0892FCF9108954F925F926F927F92A2
:101540008F929F92AF92BF92CF92DF92EF92FF92D3
:10155000CF93DF93CDB7DEB72A970FB6F894DEBFEF
:101560000FBECDBF2835A9F42A960FB6F894DEBF7A
:101570000FBECDBFDF91CF91FF90EF90DF90CF9066
:10158000BF90AF909F908F907F906F905F904F90A3
:10159000A1CE293509F04BC04D835E836F837887D8
:1015A0009A878987DC0190968D909D90AD90BC9034
:1015B0009397D4966D917D918D919C91D7970E9430
:1015C000EB132B013C01A985BA8594968D919D91D1
:1015D0000D90BC91A02D89839A83AB83BC83E98550
:1015E000FA8564A975A986A997A90E9405166B01B9
:1015F0007C01A3019201C501B4010E94A2154B0117
:101600005C01A701960169817A818B819C810E948E
:10161000A2159B01AC01C501B4010E942013905892
:101620002D813E814F8158850E94A21503C060E044
:1016300070E0CB012A960FB6F894DEBF0FBECDBF87
:10164000DF91CF91FF90EF90DF90CF90BF90AF9060
:101650009F908F907F906F905F904F9008952F9202
:101660003F924F925F926F927F928F929F92AF9232
:10167000BF92CF92DF92EF92FF920F931F93CF937F
:10168000DF93CDB7DEB76E970FB6F894DEBF0FBE0F
:10169000CDBF8C01762E10DF811105C01FDF88E0E1
:1016A00092E065D5F8CFF0DE80EDF2DE8BE3F0DE80
:1016B000EBDE81EDEDDECE0101967C016E019EE058
:1016C000C90ED11CEBDED7018D937D01AC15BD0594
:1016D000C9F7EBDE8E8784E98093BC0069817A814B
:1016E000762767277627072E000C880B990B0E9418
:1016F00089144B015C016B817C81762767277627F3
:10170000072E000C880B990B0E9489141B012C01D9
:101710006D817E81762767277627072E000C880B40
:10172000990B0E9489146B017C0169857A85762763
:1017300067277627072E000C880B990B0E948914C7
:101740006F87788B898B9A8B6B857C85762767274B
:101750007627072E000C880B990B0E9489146B8B3F
:101760007C8B8D8B9E8B6D857E8576276727762774
:10177000072E000C880B990B0E9489146F8B788FB1
:10178000898F9A8F7720D1F16F817885F801848ACB
:10179000958AA68AB78A208E318E428E538EC48E49
:1017A000D58EE68EF78E762767277627072E000CD4
:1017B000880B990B0E948914D80190966D937D93A4
:1017C0008D939C9393978F859889A989BA89F801FD
:1017D00084A395A3A6A3B7A38B899C89AD89BE8951
:1017E00080A791A7A2A7B3A78F89988DA98DBA8D3D
:1017F00084A795A7A6A7B7A781E0A8C0A5019401D3
:10180000C501B4010E94A2156B8F7C8F8D8F9E8FB6
:10181000A7019601C701B6010E94A2159B01AC0168
:101820006B8D7C8D8D8D9E8D0CD70E940F169B012C
:10183000AC01C201B101D2D7A2D72B013C01C50135
:10184000B4019058A70196016FD76B017C0120ED80
:101850003FE049EC5FE30E94971518164CF4A7018E
:10186000960160ED7FE089E490E4EAD66B017C01AB
:1018700020ED3FE049EC5FEBC701B601A8D787FF39
:1018800009C0A701960160ED7FE089E490ECD8D60D
:101890006B017C0120E030E043E053E46F89788DF8
:1018A000898D9A8D9BD728E939EF4EE85CE30E9439
:1018B000A2154B015C01D80154964D925D926D9238
:1018C0007C925797F801C08ED18EE28EF38EC0AC19
:1018D000D1ACE2ACF3AC20E030E043E053E46F8500
:1018E000788989899A897AD728E939EF4EE85CE3C3
:1018F0000E94A215A7019601A4D6D8015C966D930B
:101900007D938D939C935F97DC96CD90DD90ED90C9
:10191000FC90DF9720E030E043E053E46B897C8962
:101920008D899E895BD728E939EF4EE85CE30E94F8
:10193000A215A701960185D6F80160A371A382A321
:1019400093A384A295A2A6A2B7A280E06E960FB63A
:10195000F894DEBF0FBECDBFDF91CF911F910F91E5
:10196000FF90EF90DF90CF90BF90AF909F908F90BF
:101970007F906F905F904F903F902F900895CF93FE
:10198000DF93EC01188219821A821B821C821D824D
:101990001E821F82188619861A861B86188A198A43
:1019A0001A8A1B8A1CAA1DAA1EAA1FAA18AE19AE43
:1019B0001AAE1BAE1CAE1DAE1EAE1FAEFC01E05C2F
:1019C000FF4F8EEE9CE7AFE7BFE380839183A28356
:1019D000B383349680839183A283B3837FDD2FEF1B
:1019E00083ED90E3215080409040E1F700C000007B
:1019F00060E0CE0134DE8C899D89AE89BF898CABD5
:101A00009DABAEABBFAB888D998DAA8DBB8D88ABDE
:101A100099ABAAABBBAB8CA99DA9AEA9BFA98C837E
:101A20009D83AE83BF8388A999A9AAA9BBA98887EA
:101A30009987AA87BB8788E090E00E94E31868AF87
:101A400079AF8AAF9BAF84E090E00E94E3186CAF5F
:101A50007DAF8EAF9FAFDF91CF910895CF93DF938E
:101A6000EC0160E0FCDD8C899D89AE89BF898CAB7F
:101A70009DABAEABBFAB888D998DAA8DBB8D88AB6E
:101A800099ABAAABBBAB8CA99DA9AEA9BFA98C830E
:101A90009D83AE83BF8388A999A9AAA9BBA988877A
:101AA0009987AA87BB87DF91CF9108954F925F9264
:101AB0006F927F928F929F92AF92BF92CF92DF925E
:101AC000EF92FF920F931F93CF93DF93EC016A0184
:101AD0007B0160E0C4DDB701A601CE01FBDB6C87B2
:101AE0007D878E879F8729E5B701A601CE0124DD7A
:101AF000688B798B8A8B9B8B6C857D858E859F858A
:101B00002C813D814E815F819CD56C837D838E834A
:101B10009F83688979898A899B89288539854A853F
:101B20005B858FD5688779878A879B875E0180E48C
:101B3000A80EB11C86EB93EFADE7BFE3F501808300
:101B40009183A283B3838E010C5B1F4FF8018083C6
:101B50009183A283B383F501C080D180E280F380BA
:101B60006CA97DA98EA99FA92C853D854E855F8591
:101B700040805180628073808C889D88AE88BF8849
:101B800060D5A7019601DED76B017C01A30192010C
:101B900060E070E080E89FE353D5A5019401D2D7BF
:101BA0009B01AC01C701B6014CD56CAB7DAB8EABD4
:101BB0009FABF80180809180A280B38068A979A949
:101BC0008AA99BA9288939894A895B8940805180E3
:101BD00062807380C88CD98CEA8CFB8C32D5A501CD
:101BE0009401B0D74B015C01A301920160E070E069
:101BF00080E89FE325D5A7019601A4D79B01AC01FE
:101C0000C501B4011ED568AB79AB8AAB9BABDF9144
:101C1000CF911F910F91FF90EF90DF90CF90BF90E9
:101C2000AF909F908F907F906F905F904F900895AE
:101C30008F929F92AF92BF92CF92DF92EF92FF92DC
:101C40000F931F93CF93DF93CDB7DEB764970FB693
:101C5000F894DEBF0FBECDBF8C014B01E12CF12CFF
:101C6000E814F90489F160E0C801F9DCCE010196BD
:101C70005C01C12CD12CF6013596EE0FFF1FEE0F43
:101C8000FF1FE00FF11F2081318142815381F50157
:101C90006081718182819381D4D4F50161937193C4
:101CA000819391935F01FFEFCF1ADF0A85E0C81699
:101CB000D10409F7EFE3FFE13197F1F700C000002D
:101CC000FFEFEF1AFF0ACCCFB70180E090E01FD6FC
:101CD0006B017C0189859A85AB85BC85BC01CD01F2
:101CE0009058A70196017AD5F80160AF71AF82AF25
:101CF00093AF8D859E85AF85B889BC01CD01905885
:101D0000A70196016BD5F80164AF75AF86AF97AFA9
:101D100040AD51AD62AD73AD88E090E00E94E8182F
:101D2000F80144AD55AD66AD77AD84E090E06496C2
:101D30000FB6F894DEBF0FBECDBFDF91CF911F91DC
:101D40000F91FF90EF90DF90CF90BF90AF909F905A
:101D50008F900C94E8182F923F924F925F926F925F
:101D60007F928F929F92AF92BF92CF92DF92EF922B
:101D7000FF920F931F93CF93DF93CDB7DEB72897D2
:101D80000FB6F894DEBF0FBECDBF1C012A013B0188
:101D9000C901B801CD82DE82EF82F886A3019201EB
:101DA0004FD469837A838B839C83F101248935899D
:101DB0004689578946D42B013C01F101648B758B10
:101DC000868B978B20E030E0A901C501B401FFD4D8
:101DD000882369F0A5019401505885017401C3015D
:101DE000B2017BD3F101648B758B868B978BF101EC
:101DF000C484D584E684F784208D318D428D538D43
:101E0000C701B6019FD62B013C01F1012089318920
:101E10004289538969817A818B819C8111D49B018C
:101E2000AC01C301B2010DD42B013C012D813E81D7
:101E30004F815885C701B60104D49B01AC01C30191
:101E4000B201CCD46B017C01F101608F718F828F64
:101E5000938F248935894689578964817581868164
:101E6000978170D62D813E814F8158856BD62B018D
:101E70003C01F101208131814281538169817A8164
:101E80008B819C815FD69B01AC01C301B201D9D388
:101E90002B013C01F1012085318542855385C70125
:101EA000B60150D69B01AC01C301B201CAD329814E
:101EB0003A814B815C81F101208B318B428B538BBA
:101EC00028960FB6F894DEBF0FBECDBFDF91CF913D
:101ED0001F910F91FF90EF90DF90CF90BF90AF9048
:101EE0009F908F907F906F905F904F903F902F903A
:101EF0000895E0E9F0E080818E7F808380818260B8
:101F00008083A1E9B0E08C9188618C936B9A88EB17
:101F10009BE0909399008093980080E395E79093DD
:101F20009700809396008081806880830895E1E91E
:101F3000F0E020812260208320812A7F208320E01E
:101F400030E044E352E44AD420E030E84BE354E488
:101F5000F9D5ACD46854744F70939900609398008D
:101F600080E00895E0E2F1E080818C7F8083E1E20F
:101F7000F1E08081877F80830895E1E2F1E0808154
:101F80008260808380818A7F8083089560912401AC
:101F90007091250180E090E0BAD420E03FEF4FE758
:101FA00057E41CD42DEB37E346E05DE3CBC510923C
:101FB0002501109224010895E0EAF0E080818C7FF1
:101FC0008083E1EAF0E08081877F808384ED90E385
:101FD0009093AB008093AA00E2E7F0E080818460F8
:101FE00080830895E1EAF0E08081836080838081CE
:101FF0008B7F808308951F920F920FB60F9211244A
:102000000BB60F922F938F939F93EF93FF93809133
:10201000C0009091C6008871E0911703EF5FEF71E7
:1020200020911603E21739F0E0931703F0E0E65E23
:10203000FC4F908301C082E080931503FF91EF91E4
:102040009F918F912F910F900BBE0F900FBE0F900D
:102050001F9018951F920F920FB60F9211240BB676
:102060000F928F939F93EF93FF9390911903809119
:102070001803981769F0E0911803EF5FEF71E09390
:102080001803F0E0E65CFC4F80818093C60005C039
:102090008091C1008F7D8093C100FF91EF919F914E
:1020A0008F910F900BBE0F900FBE0F901F90189541
:1020B000109219031092180310921703109216032E
:1020C00097FF04C022E02093C0009F779093C50043
:1020D0008093C40088E98093C1008091C2008F730F
:1020E0008093C2008091C2008F7C8093C200809157
:1020F000C200877F8093C2008091C2008660809377
:10210000C2008091C1008B7F8093C100089590919F
:10211000170380911603981791F0E0911603EF5F73
:10212000EF71E0931603F0E0E65EFC4F20818091B2
:10213000150390E0982F8827820F911D089580E065
:1021400091E00895909119039F5F9F71209118036A
:102150009217E1F3E92FF0E0E65CFC4F8083909367
:1021600019038091C10080628093C1000895CF93CC
:10217000DF93EC018991882311F0E4DFFBCFDF913D
:10218000CF9108950F931F93CF93DF93CDB7DEB711
:1021900064970FB6F894DEBF0FBECDBF8E010F5F00
:1021A0001F4F25E044E0A2D5C801E1DF64960FB6D9
:1021B000F894DEBF0FBECDBFDF91CF911F910F917D
:1021C0000895809117032091160390E04F96821B8B
:1021D00091096FE170E019C21F920F920FB60F9232
:1021E00011240BB60F922F938F939F93EF93FF932E
:1021F0008091C8009091CE008871E091D202EF5F8B
:10220000EF712091D102E21739F0E093D202F0E0B1
:10221000EB52FD4F908301C082E08093D002FF918A
:10222000EF919F918F912F910F900BBE0F900FBE4A
:102230000F901F9018951F920F920FB60F921124B6
:102240000BB60F928F939F93EF93FF939091D402CD
:102250008091D302981769F0E091D302EF5FEF719C
:10226000E093D302F0E0EB50FD4F80818093CE00ED
:1022700005C08091C9008F7D8093C900FF91EF91C7
:102280009F918F910F900BBE0F900FBE0F901F90DC
:1022900018951F920F920FB60F9211240BB60F9242
:1022A0002F938F939F93EF93FF938091D000909102
:1022B000D6008871E0918D02EF5FEF7120918C0262
:1022C000E21739F0E0938D02F0E0E057FD4F908384
:1022D00001C082E080938B02FF91EF919F918F91DB
:1022E0002F910F900BBE0F900FBE0F901F9018955F
:1022F0001F920F920FB60F9211240BB60F928F936D
:102300009F93EF93FF9390918F0280918E02981785
:1023100069F0E0918E02EF5FEF71E0938E02F0E0E2
:10232000E055FD4F80818093D60005C08091D1009B
:102330008F7D8093D100FF91EF919F918F910F90AE
:102340000BBE0F900FBE0F901F9018951F920F920B
:102350000FB60F9211240BB60F922F938F939F936A
:10236000EF93FF9380913001909136018871E09155
:102370004802EF5FEF7120914702E21739F0E093D6
:102380004802F0E0E55BFD4F908301C082E080935E
:102390004602FF91EF919F918F912F910F900BBE6D
:1023A0000F900FBE0F901F9018951F920F920FB6AF
:1023B0000F9211240BB60F928F939F93EF93FF937D
:1023C00090914A0280914902981769F0E091490280
:1023D000EF5FEF71E0934902F0E0E559FD4F808136
:1023E0008093360105C0809131018F7D809331014A
:1023F000FF91EF919F918F910F900BBE0F900FBEA9
:102400000F901F90189510924A0210924902109254
:1024100048021092470297FF04C022E02093300147
:102420009F77909335018093340188E9809331013F
:10243000809132018F7380933201809132018F7CC1
:102440008093320180913201877F809332018091A5
:102450003201866080933201809131018B7F8093BD
:10246000310108959091480280914702981791F0A8
:10247000E0914702EF5FEF71E0934702F0E0E55B28
:10248000FD4F20818091460290E0982F8827820F8F
:10249000911D089580E091E0089590914A029F5F18
:1024A0009F71209149029217E1F3E92FF0E0E5597D
:1024B000FD4F808390934A02809131018062809326
:1024C00031010895809148022091470290E04F9693
:1024D000821B91096FE170E098C08F929F92AF923A
:1024E000BF92CF92DF92EF92FF920F931F93CF9301
:1024F000DF936B01D82FC92F49015A0168D187FD9D
:102500000CC09701A801B6018D2F9C2F10D318166F
:1025100034F076010D2F1C2F02C074018501B70124
:10252000C801DF91CF911F910F91FF90EF90DF9045
:10253000CF90BF90AF909F908F9008954F925F92F1
:102540006F927F92AF92BF92CF92DF92EF92FF9203
:102550000F931F93CF93DF93CDB7DEB728970FB6B6
:10256000F894DEBF0FBECDBF29013A01E982FA829D
:102570000B831C8365D06D837E838F839887A30133
:102580009201C801B7015CD09B01AC016D817E81D5
:102590008F81988523D12B013C01A60195016A8D7D
:1025A0007B8D8C8D9D8D4CD09B01AC01C301B20104
:1025B000C9D2A601950145D028960FB6F894DEBF82
:1025C0000FBECDBFDF91CF911F910F91FF90EF9084
:1025D000DF90CF90BF90AF907F906F905F904F90C3
:1025E0000895AA1BBB1B51E107C0AA1FBB1FA6175A
:1025F000B70710F0A61BB70B881F991F5A95A9F7AC
:1026000080959095BC01CD01089597FB072E16F497
:10261000009406D077FD08D0E4DF07FC05D03EF437
:10262000909581959F4F0895709561957F4F08957E
:10263000EE0FFF1F881F8BBF0790F691E02D1994B6
:102640005058BB27AA270ED027C2F0D130F0F5D1C1
:1026500020F031F49F3F11F41EF4C0C10EF4E09558
:10266000E7FBB6C1E92F3AD280F3BA1762077307C6
:102670008407950718F071F49EF552C20EF4E095A8
:102680000B2EBA2FA02D0B01B90190010C01CA012C
:10269000A0011124FF27591B99F0593F50F4503ED7
:1026A00068F11A16F040A22F232F342F4427585FC9
:1026B000F3CF469537952795A795F0405395C9F7E1
:1026C0007EF41F16BA0B620B730B840BBAF0915099
:1026D000A1F0FF0FBB1F661F771F881FC2F70EC038
:1026E000BA0F621F731F841F48F48795779567950B
:1026F000B795F7959E3F08F0B3CF9395880F08F0F4
:102700009927EE0F97958795089590D158F080E816
:1027100091E009F49EEF91D128F040E851E059F49E
:102720005EEF09C05BC1FCC1E92FE078D7D168F347
:10273000092E052AC1F3261737074807590738F02D
:102740000E2E07F8E02569F0E025E0640AC0EF638B
:1027500007F8009407FADB01B9019D01DC01CA0109
:10276000AD01EF934AD098D10AD05F91552331F053
:102770002BED3FE049E450FD49EC63CF0895DF9332
:10278000DD27B92FBF7740E85FE316161706480725
:102790005B0710F4D92FCFD19F938F937F936F93C3
:1027A0007CD2E4EEF0E01DD177D12F913F914F9193
:1027B0005F91D4D1DD2349F09058A2EA2AED3FE0A1
:1027C00049EC5FE3D0785D274DDFDF9165C1DCD058
:1027D00008F481E0089539D1E3956FC10CD05CC154
:1027E0002CD140F023D130F021F45F3F19F0F0C03C
:1027F000511197C1F3C072D198F39923C9F35523AE
:10280000B1F3951B550BBB27AA27621773078407E3
:1028100038F09F5F5F4F220F331F441FAA1FA9F399
:1028200033D00E2E3AF0E0E830D091505040E6958B
:10283000001CCAF729D0FE2F27D0660F771F881FEC
:10284000BB1F261737074807AB07B0E809F0BB0BDB
:10285000802DBF01FF2793585F4F2AF09E3F5105FF
:1028600068F0B6C05EC15F3FECF3983EDCF386953E
:1028700077956795B795F7959F5FC9F7880F911D75
:102880009695879597F90895E1E0660F771F881F61
:10289000BB1F621773078407BA0720F0621B730B14
:1028A000840BBA0BEE1F88F7E095089504D0689466
:1028B000B11137C108951AD188F09F5790F0B92F00
:1028C0009927B751A0F0D1F0660F771F881F991F85
:1028D0001AF0BA95C9F712C0B13081F021D1B1E038
:1028E00008951EC1672F782F8827B85F39F0B93F48
:1028F000CCF3869577956795B395D9F73EF4909587
:102900008095709561957F4F8F4F9F4F0895E89404
:1029100009C097FB3EF490958095709561957F4F27
:102920008F4F9F4F9923A9F0F92F96E9BB279395D5
:10293000F695879577956795B795F111F8CFFAF4E5
:10294000BB0F11F460FF1BC06F5F7F4F8F4F9F4F16
:1029500016C0882311F096E911C0772321F09EE874
:10296000872F762F05C0662371F096E8862F70E0DA
:1029700060E02AF09A95660F771F881FDAF7880FB4
:102980009695879597F90895990F0008550FAA0B0A
:10299000E0E8FEEF16161706E807F907C0F0121672
:1029A0001306E407F50798F0621B730B840B950B75
:1029B00039F40A2661F0232B242B252B21F40895CA
:1029C0000A2609F4A140A6958FEF811D811D089567
:1029D00097F99F6780E870E060E008959FEF80ECD2
:1029E0000895DF93CF931F930F93FF92EF92DF929F
:1029F0007B018C01689405C0DA2EEF01AFD0FE0197
:102A0000E894A5912591359145915591AEF3EF014B
:102A100029DEFE019701A801DA9479F7DF90EF90A3
:102A2000FF900F911F91CF91DF91089500240A9498
:102A30001616170618060906089500240A94121699
:102A40001306140605060895C9CF50D0E8F3E8949C
:102A5000E0E0BB279F57F0F02AED3FE049EC06C0CD
:102A6000EE0FBB0F661F771F881F28F0B23A620770
:102A70007307840728F0B25A620B730B840BE3953B
:102A80009A9572F7803830F49A95BB0F661F771FBE
:102A9000881FD2F7904806C1092E0394000C11F448
:102AA000882352F0BB0F40F4BF2B11F460FF04C029
:102AB0006F5F7F4F8F4F9F4F0895EF93E0FF06C0EA
:102AC000A2EA2AED3FE049EC5FEBCCDDE5DF0F90B9
:102AD000039401FC9058E1E1F1E0F7C057FD9058F4
:102AE000440F551F59F05F3F71F04795880F97FBD2
:102AF000991F61F09F3F79F087950895121613068C
:102B00001406551FF2CF4695F1DF08C016161706BA
:102B10001806991FF1CF86957105610508940895EF
:102B2000E894BB2766277727CB0197F908952CDF18
:102B300008F48FEF08959B01AC0160E070E080E83D
:102B40009FE34CCE0BD0A8CF71DF28F076DF18F0D2
:102B5000952309F03DCF42CF1124E3CFBFDFA0F38F
:102B6000959FD1F3950F50E0551F629FF001729F22
:102B7000BB27F00DB11D639FAA27F00DB11DAA1F41
:102B8000649F6627B00DA11D661F829F2227B00D8E
:102B9000A11D621F739FB00DA11D621F839FA00D19
:102BA000611D221F749F3327A00D611D231F849F69
:102BB000600D211D822F762F6A2F11249F575040C0
:102BC0008AF0E1F088234AF0EE0FFF1FBB1F661F5B
:102BD000771F881F91505040A9F79E3F510570F014
:102BE000F7CE9FCF5F3FECF3983EDCF38695779569
:102BF0006795B795F795E7959F5FC1F7FE2B880F0F
:102C0000911D9695879597F908959F931EDF0F90D4
:102C100007FCEE5F52CF11F40EF4E0CE41C066DF48
:102C2000D0F39923D9F3CEF39F57550B87FF46D0A6
:102C30000024A0E640EA900180585695979528F424
:102C4000805C660F771F881F20F02617370748071C
:102C500030F4621B730B840B202931294A2BA69573
:102C600017940794202531254A2758F7660F771FB8
:102C7000881F20F026173707480730F4620B730BC4
:102C8000840B200D311D411DA09581F7B901842FC2
:102C90009158880F9695879508959B01AC0152CF66
:102CA0009F3F31F0915020F4879577956795B795C0
:102CB000880F911D9695879597F9089591505040EA
:102CC000660F771F881FD2F708959F938F937F9386
:102CD0006F93FF93EF939B01AC0134DFEF91FF9172
:102CE00080DE2F913F914F915F912CCFEF920F9308
:102CF0001F93CF93DF93E80147FD02C034E001C08A
:102D000034E1042E000C550B57FF03C0519541953B
:102D10005109E32E022F242FAE0107D0CE01DF91FF
:102D2000CF911F910F91EF9008958F929F92AF9244
:102D3000BF92CF92DF92EF92FF920F931F93CF93A8
:102D4000DF93CDB7DEB729970FB6F894DEBF0FBE7D
:102D5000CDBF6A01122FB02E2BE3201720F0FF24E5
:102D6000F394F00E02C02CE3F22E0F2D27E0AE01FB
:102D70004F5F5F4F50D1BC014981842F89708130F2
:102D800031F0E1FC06C0E0FE06C090E205C09DE225
:102D900003C09BE201C090E05E2D507143FF3CC038
:102DA000911102C083E001C084E0811718F4212F43
:102DB000281B01C020E051110BC0F601822F30E228
:102DC000882319F031938150FBCFC20ED11C20E033
:102DD000992329F0D6019C93F60131966F01C60123
:102DE0000396E2FE0AC03EE4D6013C9341E411960C
:102DF0004C93119712963C9306C03EE6F601308341
:102E000041E641833283FC01322F40E2332309F44F
:102E100042C041933150FACF42FF44C0911102C0E9
:102E200083E001C084E0811718F4212F281B01C022
:102E300020E051110BC0F601822F30E2882319F0F7
:102E400031938150FBCFC20ED11C20E0992329F091
:102E5000D6019C93F60131966F01C6010396E2FEFE
:102E60000BC039E4D6013C933EE411963C93119794
:102E700036E412963C9307C039E6F60130833EE60D
:102E8000318336E63283FC01322F40E2332319F0DE
:102E900041933150FBCFFC01E20FF11D10828EEF08
:102EA0009FEFA6C021E030E0911102C020E030E0A9
:102EB000161617061CF4FB01319602C0E1E0F0E0A3
:102EC0002E0F3F1FBB2021F0EB2DF0E0319602C00A
:102ED000E0E0F0E02E0F3F1FE12FF0E02E173F075C
:102EE0001CF4121B212F01C020E08E2D887159F493
:102EF000F601822F30E2882319F031938150FBCF05
:102F0000C20ED11C20E0992329F0D6019C93F60132
:102F100031966F0151110BC0F601822F90E3882387
:102F200019F091938150FBCFC20ED11C20E00F2DE0
:102F3000060F9A81342F307144FF03C0913309F496
:102F40000150101624F4093018F008E001C001E027
:102F5000AB0177FF02C040E050E0FB01E41BF50B42
:102F6000A1E0B0E0AC0FBD1FEA0FFB1F8EE2A82E60
:102F70004B01801A91080B2D10E011950195110954
:102F80004F3FBFEF5B0721F4D601AC9211966D0164
:102F9000641775072CF08416950614F4818101C01E
:102FA00080E3415051093196D60111967D014017B9
:102FB000510724F0D6018C936701E2CF641775079F
:102FC00039F4963320F4953319F4311101C081E3BB
:102FD000F6018083F701822F90E2882319F0919304
:102FE0008150FBCFF701E20FF11D108280E090E0ED
:102FF00029960FB6F894DEBF0FBECDBFDF91CF91FB
:103000001F910F91FF90EF90DF90CF90BF90AF9006
:103010009F908F900895283008F027E03327DA0139
:10302000990F311D87FD916000966105710539F496
:1030300032602E5F3D9330E32A95E1F708959F3F7C
:1030400030F080387105610509F03C5F3C5F3D93CD
:10305000913008F08068911DDF93CF931F930F93F9
:10306000FF92EF92192F987F9695E92F9695969556
:10307000E90FFF27E657FE4F99273327EE24FF2459
:10308000A701E70105900894079428F4360FE71E7E
:10309000F81E491F511D660F771F881F991F069440
:1030A000A1F70590079428F4E70EF81E491F561F54
:1030B000C11D770F881F991F661F0694A1F7059001
:1030C000079428F4F80E491F561FC71FD11D880FFB
:1030D000991F661F771F0694A1F70590079420F4A7
:1030E000490F561FC71FD81F990F661F771F881FCC
:1030F0000694A9F784911095177041F0D695C7955D
:1031000057954795F794E7941A95C1F7E0E3F1E0F6
:1031100068941590159135916591959105907FE290
:103120007395E118F10A430B560BC90BD009C0F790
:10313000E10CF11E431F561FC91FD01D7EF47033D2
:1031400011F48A95E6CFE894015030F0080F0AF4A4
:103150000027021708F4202F2395022F7A3328F036
:1031600079E37D932A95E9F710C07D932A9589F636
:10317000069497956795379517951794E118F10A76
:10318000430B560BC90BD00998F023957E9173958C
:103190007A3308F070E37C932013B8F77E91706166
:1031A0007D9330F0839571E37D9370E32A95E1F789
:1031B0001124EF90FF900F911F91CF91DF919927EC
:1031C00087FD90950895A6E1B0E044E050E00AC084
:1031D0000396272F16D014D0252F13D0242F11C0DB
:1031E000DC01CB01FC01F999FECF06C0F2BDE1BDC7
:1031F000F89A319600B40D9241505040B8F70895B6
:10320000262FF999FECF92BD81BDF89A019700B49F
:10321000021639F01FBA20BD0FB6F894FA9AF99A3F
:083220000FBE0895F894FFCFE2
:103228004552524F523A20004E6F74204F4B0A00BD
:00000001FF
