:1000000012C022C021C020C01FC01EC01DC01CC005
:100010001BC01AC019C018C017C016C015C014C024
:1000200013C012C011C011241FBECFEDCDBF10E010
:10003000A0E6B0E0E4E6F1E002C005900D92A03A3F
:10004000B107D9F759D08CC0DBCF80E690E076D0ED
:100050002FE38DE093E0215080409040E1F700C015
:1000600000008BE690E06AD02FE38DE093E0215012
:1000700080409040E1F700C0000089E790E05ED04A
:100080002FE38DE093E0215080409040E1F700C0E5
:10009000000087E890E052D02FE38DE093E02150FC
:1000A00080409040E1F700C00000089585B78F7749
:1000B00085BF87B3807F87BB88B38F6088BB089577
:1000C000B29902C085E536D0B39902C084E432D03B
:1000D000B19902C08CE42ED0B09902C082E52AD03A
:1000E00086B390E0809590958F709927892B11F4B5
:1000F00088E420D08AE01EC013D02FE986E891E082
:10010000215080409040E1F700C000009EDFCEDF2C
:10011000D7DF87EA91E60197F1F700C00000F8CF3A
:1001200012B886E089B98AB188618AB983B18660DC
:1001300083B908955D9BFECF8CB908950F931F93EB
:10014000CF938C01C0E0F801EC0FF11D8081882372
:1001500019F0F0DFCF5FF7CFCF911F910F91089586
:04016000F894FFCF41
:1001640041542B524F4C45300D0A0041542B5555E8
:100174004944464645300D0A0041542B43484152F8
:10018400464645310D0A0041542B4E414D45726F90
:10019400626F74436F6E74726F6C6C65720D0A00DB
:00000001FF
